Archive member included to satisfy reference by file (symbol)

D:/ST/STM32CubeIDE_1.14.0/STM32CubeIDE/plugins/com.st.stm32cube.ide.mcu.externaltools.gnu-tools-for-stm32.11.3.rel1.win32_1.1.100.202309141235/tools/bin/../lib/gcc/arm-none-eabi/11.3.1/../../../../arm-none-eabi/lib/thumb/v7e-m+fp/hard\libc_nano.a(libc_a-abort.o)
                              ./pikapython/pikascript-core/PikaCompiler.o (abort)
D:/ST/STM32CubeIDE_1.14.0/STM32CubeIDE/plugins/com.st.stm32cube.ide.mcu.externaltools.gnu-tools-for-stm32.11.3.rel1.win32_1.1.100.202309141235/tools/bin/../lib/gcc/arm-none-eabi/11.3.1/../../../../arm-none-eabi/lib/thumb/v7e-m+fp/hard\libc_nano.a(libc_a-exit.o)
                              D:/ST/STM32CubeIDE_1.14.0/STM32CubeIDE/plugins/com.st.stm32cube.ide.mcu.externaltools.gnu-tools-for-stm32.11.3.rel1.win32_1.1.100.202309141235/tools/bin/../lib/gcc/arm-none-eabi/11.3.1/../../../../arm-none-eabi/lib/thumb/v7e-m+fp/hard/crt0.o (exit)
D:/ST/STM32CubeIDE_1.14.0/STM32CubeIDE/plugins/com.st.stm32cube.ide.mcu.externaltools.gnu-tools-for-stm32.11.3.rel1.win32_1.1.100.202309141235/tools/bin/../lib/gcc/arm-none-eabi/11.3.1/../../../../arm-none-eabi/lib/thumb/v7e-m+fp/hard\libc_nano.a(libc_a-malloc.o)
                              ./pikapython/pikascript-core/PikaPlatform.o (malloc)
D:/ST/STM32CubeIDE_1.14.0/STM32CubeIDE/plugins/com.st.stm32cube.ide.mcu.externaltools.gnu-tools-for-stm32.11.3.rel1.win32_1.1.100.202309141235/tools/bin/../lib/gcc/arm-none-eabi/11.3.1/../../../../arm-none-eabi/lib/thumb/v7e-m+fp/hard\libc_nano.a(libc_a-mallocr.o)
                              D:/ST/STM32CubeIDE_1.14.0/STM32CubeIDE/plugins/com.st.stm32cube.ide.mcu.externaltools.gnu-tools-for-stm32.11.3.rel1.win32_1.1.100.202309141235/tools/bin/../lib/gcc/arm-none-eabi/11.3.1/../../../../arm-none-eabi/lib/thumb/v7e-m+fp/hard\libc_nano.a(libc_a-malloc.o) (_malloc_r)
D:/ST/STM32CubeIDE_1.14.0/STM32CubeIDE/plugins/com.st.stm32cube.ide.mcu.externaltools.gnu-tools-for-stm32.11.3.rel1.win32_1.1.100.202309141235/tools/bin/../lib/gcc/arm-none-eabi/11.3.1/../../../../arm-none-eabi/lib/thumb/v7e-m+fp/hard\libc_nano.a(libc_a-mlock.o)
                              D:/ST/STM32CubeIDE_1.14.0/STM32CubeIDE/plugins/com.st.stm32cube.ide.mcu.externaltools.gnu-tools-for-stm32.11.3.rel1.win32_1.1.100.202309141235/tools/bin/../lib/gcc/arm-none-eabi/11.3.1/../../../../arm-none-eabi/lib/thumb/v7e-m+fp/hard\libc_nano.a(libc_a-mallocr.o) (__malloc_lock)
D:/ST/STM32CubeIDE_1.14.0/STM32CubeIDE/plugins/com.st.stm32cube.ide.mcu.externaltools.gnu-tools-for-stm32.11.3.rel1.win32_1.1.100.202309141235/tools/bin/../lib/gcc/arm-none-eabi/11.3.1/../../../../arm-none-eabi/lib/thumb/v7e-m+fp/hard\libc_nano.a(libc_a-realloc.o)
                              ./pikapython/pikascript-core/PikaPlatform.o (realloc)
D:/ST/STM32CubeIDE_1.14.0/STM32CubeIDE/plugins/com.st.stm32cube.ide.mcu.externaltools.gnu-tools-for-stm32.11.3.rel1.win32_1.1.100.202309141235/tools/bin/../lib/gcc/arm-none-eabi/11.3.1/../../../../arm-none-eabi/lib/thumb/v7e-m+fp/hard\libc_nano.a(libc_a-reallocr.o)
                              D:/ST/STM32CubeIDE_1.14.0/STM32CubeIDE/plugins/com.st.stm32cube.ide.mcu.externaltools.gnu-tools-for-stm32.11.3.rel1.win32_1.1.100.202309141235/tools/bin/../lib/gcc/arm-none-eabi/11.3.1/../../../../arm-none-eabi/lib/thumb/v7e-m+fp/hard\libc_nano.a(libc_a-realloc.o) (_realloc_r)
D:/ST/STM32CubeIDE_1.14.0/STM32CubeIDE/plugins/com.st.stm32cube.ide.mcu.externaltools.gnu-tools-for-stm32.11.3.rel1.win32_1.1.100.202309141235/tools/bin/../lib/gcc/arm-none-eabi/11.3.1/../../../../arm-none-eabi/lib/thumb/v7e-m+fp/hard\libc_nano.a(libc_a-strtod.o)
                              ./pikapython/pikascript-core/PikaObj.o (strtod)
D:/ST/STM32CubeIDE_1.14.0/STM32CubeIDE/plugins/com.st.stm32cube.ide.mcu.externaltools.gnu-tools-for-stm32.11.3.rel1.win32_1.1.100.202309141235/tools/bin/../lib/gcc/arm-none-eabi/11.3.1/../../../../arm-none-eabi/lib/thumb/v7e-m+fp/hard\libc_nano.a(libc_a-strtoll.o)
                              ./pikapython/pikascript-core/PikaObj.o (strtoll)
D:/ST/STM32CubeIDE_1.14.0/STM32CubeIDE/plugins/com.st.stm32cube.ide.mcu.externaltools.gnu-tools-for-stm32.11.3.rel1.win32_1.1.100.202309141235/tools/bin/../lib/gcc/arm-none-eabi/11.3.1/../../../../arm-none-eabi/lib/thumb/v7e-m+fp/hard\libc_nano.a(libc_a-ctype_.o)
                              ./pikapython/pikascript-lib/PikaStdLib/PikaStdData_String.o (_ctype_)
D:/ST/STM32CubeIDE_1.14.0/STM32CubeIDE/plugins/com.st.stm32cube.ide.mcu.externaltools.gnu-tools-for-stm32.11.3.rel1.win32_1.1.100.202309141235/tools/bin/../lib/gcc/arm-none-eabi/11.3.1/../../../../arm-none-eabi/lib/thumb/v7e-m+fp/hard\libc_nano.a(libc_a-findfp.o)
                              ./Middlewares/FreeRTOS/tasks.o (__sf)
D:/ST/STM32CubeIDE_1.14.0/STM32CubeIDE/plugins/com.st.stm32cube.ide.mcu.externaltools.gnu-tools-for-stm32.11.3.rel1.win32_1.1.100.202309141235/tools/bin/../lib/gcc/arm-none-eabi/11.3.1/../../../../arm-none-eabi/lib/thumb/v7e-m+fp/hard\libc_nano.a(libc_a-fwalk.o)
                              D:/ST/STM32CubeIDE_1.14.0/STM32CubeIDE/plugins/com.st.stm32cube.ide.mcu.externaltools.gnu-tools-for-stm32.11.3.rel1.win32_1.1.100.202309141235/tools/bin/../lib/gcc/arm-none-eabi/11.3.1/../../../../arm-none-eabi/lib/thumb/v7e-m+fp/hard\libc_nano.a(libc_a-findfp.o) (_fwalk_sglue)
D:/ST/STM32CubeIDE_1.14.0/STM32CubeIDE/plugins/com.st.stm32cube.ide.mcu.externaltools.gnu-tools-for-stm32.11.3.rel1.win32_1.1.100.202309141235/tools/bin/../lib/gcc/arm-none-eabi/11.3.1/../../../../arm-none-eabi/lib/thumb/v7e-m+fp/hard\libc_nano.a(libc_a-putchar.o)
                              ./pikapython/pikascript-core/PikaPlatform.o (putchar)
D:/ST/STM32CubeIDE_1.14.0/STM32CubeIDE/plugins/com.st.stm32cube.ide.mcu.externaltools.gnu-tools-for-stm32.11.3.rel1.win32_1.1.100.202309141235/tools/bin/../lib/gcc/arm-none-eabi/11.3.1/../../../../arm-none-eabi/lib/thumb/v7e-m+fp/hard\libc_nano.a(libc_a-sprintf.o)
                              ./pikapython/pikascript-lib/PikaStdDevice/PikaStdDevice_Timer.o (sprintf)
D:/ST/STM32CubeIDE_1.14.0/STM32CubeIDE/plugins/com.st.stm32cube.ide.mcu.externaltools.gnu-tools-for-stm32.11.3.rel1.win32_1.1.100.202309141235/tools/bin/../lib/gcc/arm-none-eabi/11.3.1/../../../../arm-none-eabi/lib/thumb/v7e-m+fp/hard\libc_nano.a(libc_a-stdio.o)
                              D:/ST/STM32CubeIDE_1.14.0/STM32CubeIDE/plugins/com.st.stm32cube.ide.mcu.externaltools.gnu-tools-for-stm32.11.3.rel1.win32_1.1.100.202309141235/tools/bin/../lib/gcc/arm-none-eabi/11.3.1/../../../../arm-none-eabi/lib/thumb/v7e-m+fp/hard\libc_nano.a(libc_a-findfp.o) (__sread)
D:/ST/STM32CubeIDE_1.14.0/STM32CubeIDE/plugins/com.st.stm32cube.ide.mcu.externaltools.gnu-tools-for-stm32.11.3.rel1.win32_1.1.100.202309141235/tools/bin/../lib/gcc/arm-none-eabi/11.3.1/../../../../arm-none-eabi/lib/thumb/v7e-m+fp/hard\libc_nano.a(libc_a-vsnprintf.o)
                              ./pikapython/pikascript-core/PikaPlatform.o (vsnprintf)
D:/ST/STM32CubeIDE_1.14.0/STM32CubeIDE/plugins/com.st.stm32cube.ide.mcu.externaltools.gnu-tools-for-stm32.11.3.rel1.win32_1.1.100.202309141235/tools/bin/../lib/gcc/arm-none-eabi/11.3.1/../../../../arm-none-eabi/lib/thumb/v7e-m+fp/hard\libc_nano.a(libc_a-memcmp.o)
                              ./pikapython/pikascript-core/PikaPlatform.o (memcmp)
D:/ST/STM32CubeIDE_1.14.0/STM32CubeIDE/plugins/com.st.stm32cube.ide.mcu.externaltools.gnu-tools-for-stm32.11.3.rel1.win32_1.1.100.202309141235/tools/bin/../lib/gcc/arm-none-eabi/11.3.1/../../../../arm-none-eabi/lib/thumb/v7e-m+fp/hard\libc_nano.a(libc_a-memmove.o)
                              ./pikapython/pikascript-core/PikaPlatform.o (memmove)
D:/ST/STM32CubeIDE_1.14.0/STM32CubeIDE/plugins/com.st.stm32cube.ide.mcu.externaltools.gnu-tools-for-stm32.11.3.rel1.win32_1.1.100.202309141235/tools/bin/../lib/gcc/arm-none-eabi/11.3.1/../../../../arm-none-eabi/lib/thumb/v7e-m+fp/hard\libc_nano.a(libc_a-memset.o)
                              D:/ST/STM32CubeIDE_1.14.0/STM32CubeIDE/plugins/com.st.stm32cube.ide.mcu.externaltools.gnu-tools-for-stm32.11.3.rel1.win32_1.1.100.202309141235/tools/bin/../lib/gcc/arm-none-eabi/11.3.1/../../../../arm-none-eabi/lib/thumb/v7e-m+fp/hard/crt0.o (memset)
D:/ST/STM32CubeIDE_1.14.0/STM32CubeIDE/plugins/com.st.stm32cube.ide.mcu.externaltools.gnu-tools-for-stm32.11.3.rel1.win32_1.1.100.202309141235/tools/bin/../lib/gcc/arm-none-eabi/11.3.1/../../../../arm-none-eabi/lib/thumb/v7e-m+fp/hard\libc_nano.a(libc_a-strchr.o)
                              ./pikapython/pikascript-core/PikaParser.o (strchr)
D:/ST/STM32CubeIDE_1.14.0/STM32CubeIDE/plugins/com.st.stm32cube.ide.mcu.externaltools.gnu-tools-for-stm32.11.3.rel1.win32_1.1.100.202309141235/tools/bin/../lib/gcc/arm-none-eabi/11.3.1/../../../../arm-none-eabi/lib/thumb/v7e-m+fp/hard\libc_nano.a(libc_a-strncmp.o)
                              ./pikapython/pikascript-core/PikaVM.o (strncmp)
D:/ST/STM32CubeIDE_1.14.0/STM32CubeIDE/plugins/com.st.stm32cube.ide.mcu.externaltools.gnu-tools-for-stm32.11.3.rel1.win32_1.1.100.202309141235/tools/bin/../lib/gcc/arm-none-eabi/11.3.1/../../../../arm-none-eabi/lib/thumb/v7e-m+fp/hard\libc_nano.a(libc_a-strncpy.o)
                              ./pikapython/pikascript-core/PikaPlatform.o (strncpy)
D:/ST/STM32CubeIDE_1.14.0/STM32CubeIDE/plugins/com.st.stm32cube.ide.mcu.externaltools.gnu-tools-for-stm32.11.3.rel1.win32_1.1.100.202309141235/tools/bin/../lib/gcc/arm-none-eabi/11.3.1/../../../../arm-none-eabi/lib/thumb/v7e-m+fp/hard\libc_nano.a(libc_a-strstr.o)
                              ./pikapython/pikascript-core/PikaObj.o (strstr)
D:/ST/STM32CubeIDE_1.14.0/STM32CubeIDE/plugins/com.st.stm32cube.ide.mcu.externaltools.gnu-tools-for-stm32.11.3.rel1.win32_1.1.100.202309141235/tools/bin/../lib/gcc/arm-none-eabi/11.3.1/../../../../arm-none-eabi/lib/thumb/v7e-m+fp/hard\libc_nano.a(libc_a-signal.o)
                              D:/ST/STM32CubeIDE_1.14.0/STM32CubeIDE/plugins/com.st.stm32cube.ide.mcu.externaltools.gnu-tools-for-stm32.11.3.rel1.win32_1.1.100.202309141235/tools/bin/../lib/gcc/arm-none-eabi/11.3.1/../../../../arm-none-eabi/lib/thumb/v7e-m+fp/hard\libc_nano.a(libc_a-abort.o) (raise)
D:/ST/STM32CubeIDE_1.14.0/STM32CubeIDE/plugins/com.st.stm32cube.ide.mcu.externaltools.gnu-tools-for-stm32.11.3.rel1.win32_1.1.100.202309141235/tools/bin/../lib/gcc/arm-none-eabi/11.3.1/../../../../arm-none-eabi/lib/thumb/v7e-m+fp/hard\libc_nano.a(libc_a-locale.o)
                              D:/ST/STM32CubeIDE_1.14.0/STM32CubeIDE/plugins/com.st.stm32cube.ide.mcu.externaltools.gnu-tools-for-stm32.11.3.rel1.win32_1.1.100.202309141235/tools/bin/../lib/gcc/arm-none-eabi/11.3.1/../../../../arm-none-eabi/lib/thumb/v7e-m+fp/hard\libc_nano.a(libc_a-strtod.o) (__global_locale)
D:/ST/STM32CubeIDE_1.14.0/STM32CubeIDE/plugins/com.st.stm32cube.ide.mcu.externaltools.gnu-tools-for-stm32.11.3.rel1.win32_1.1.100.202309141235/tools/bin/../lib/gcc/arm-none-eabi/11.3.1/../../../../arm-none-eabi/lib/thumb/v7e-m+fp/hard\libc_nano.a(libc_a-closer.o)
                              D:/ST/STM32CubeIDE_1.14.0/STM32CubeIDE/plugins/com.st.stm32cube.ide.mcu.externaltools.gnu-tools-for-stm32.11.3.rel1.win32_1.1.100.202309141235/tools/bin/../lib/gcc/arm-none-eabi/11.3.1/../../../../arm-none-eabi/lib/thumb/v7e-m+fp/hard\libc_nano.a(libc_a-stdio.o) (_close_r)
D:/ST/STM32CubeIDE_1.14.0/STM32CubeIDE/plugins/com.st.stm32cube.ide.mcu.externaltools.gnu-tools-for-stm32.11.3.rel1.win32_1.1.100.202309141235/tools/bin/../lib/gcc/arm-none-eabi/11.3.1/../../../../arm-none-eabi/lib/thumb/v7e-m+fp/hard\libc_nano.a(libc_a-reent.o)
                              ./Middlewares/FreeRTOS/tasks.o (_reclaim_reent)
D:/ST/STM32CubeIDE_1.14.0/STM32CubeIDE/plugins/com.st.stm32cube.ide.mcu.externaltools.gnu-tools-for-stm32.11.3.rel1.win32_1.1.100.202309141235/tools/bin/../lib/gcc/arm-none-eabi/11.3.1/../../../../arm-none-eabi/lib/thumb/v7e-m+fp/hard\libc_nano.a(libc_a-impure.o)
                              ./Middlewares/FreeRTOS/tasks.o (_impure_ptr)
D:/ST/STM32CubeIDE_1.14.0/STM32CubeIDE/plugins/com.st.stm32cube.ide.mcu.externaltools.gnu-tools-for-stm32.11.3.rel1.win32_1.1.100.202309141235/tools/bin/../lib/gcc/arm-none-eabi/11.3.1/../../../../arm-none-eabi/lib/thumb/v7e-m+fp/hard\libc_nano.a(libc_a-lseekr.o)
                              D:/ST/STM32CubeIDE_1.14.0/STM32CubeIDE/plugins/com.st.stm32cube.ide.mcu.externaltools.gnu-tools-for-stm32.11.3.rel1.win32_1.1.100.202309141235/tools/bin/../lib/gcc/arm-none-eabi/11.3.1/../../../../arm-none-eabi/lib/thumb/v7e-m+fp/hard\libc_nano.a(libc_a-stdio.o) (_lseek_r)
D:/ST/STM32CubeIDE_1.14.0/STM32CubeIDE/plugins/com.st.stm32cube.ide.mcu.externaltools.gnu-tools-for-stm32.11.3.rel1.win32_1.1.100.202309141235/tools/bin/../lib/gcc/arm-none-eabi/11.3.1/../../../../arm-none-eabi/lib/thumb/v7e-m+fp/hard\libc_nano.a(libc_a-readr.o)
                              D:/ST/STM32CubeIDE_1.14.0/STM32CubeIDE/plugins/com.st.stm32cube.ide.mcu.externaltools.gnu-tools-for-stm32.11.3.rel1.win32_1.1.100.202309141235/tools/bin/../lib/gcc/arm-none-eabi/11.3.1/../../../../arm-none-eabi/lib/thumb/v7e-m+fp/hard\libc_nano.a(libc_a-stdio.o) (_read_r)
D:/ST/STM32CubeIDE_1.14.0/STM32CubeIDE/plugins/com.st.stm32cube.ide.mcu.externaltools.gnu-tools-for-stm32.11.3.rel1.win32_1.1.100.202309141235/tools/bin/../lib/gcc/arm-none-eabi/11.3.1/../../../../arm-none-eabi/lib/thumb/v7e-m+fp/hard\libc_nano.a(libc_a-signalr.o)
                              D:/ST/STM32CubeIDE_1.14.0/STM32CubeIDE/plugins/com.st.stm32cube.ide.mcu.externaltools.gnu-tools-for-stm32.11.3.rel1.win32_1.1.100.202309141235/tools/bin/../lib/gcc/arm-none-eabi/11.3.1/../../../../arm-none-eabi/lib/thumb/v7e-m+fp/hard\libc_nano.a(libc_a-signal.o) (_kill_r)
D:/ST/STM32CubeIDE_1.14.0/STM32CubeIDE/plugins/com.st.stm32cube.ide.mcu.externaltools.gnu-tools-for-stm32.11.3.rel1.win32_1.1.100.202309141235/tools/bin/../lib/gcc/arm-none-eabi/11.3.1/../../../../arm-none-eabi/lib/thumb/v7e-m+fp/hard\libc_nano.a(libc_a-sbrkr.o)
                              D:/ST/STM32CubeIDE_1.14.0/STM32CubeIDE/plugins/com.st.stm32cube.ide.mcu.externaltools.gnu-tools-for-stm32.11.3.rel1.win32_1.1.100.202309141235/tools/bin/../lib/gcc/arm-none-eabi/11.3.1/../../../../arm-none-eabi/lib/thumb/v7e-m+fp/hard\libc_nano.a(libc_a-mallocr.o) (_sbrk_r)
D:/ST/STM32CubeIDE_1.14.0/STM32CubeIDE/plugins/com.st.stm32cube.ide.mcu.externaltools.gnu-tools-for-stm32.11.3.rel1.win32_1.1.100.202309141235/tools/bin/../lib/gcc/arm-none-eabi/11.3.1/../../../../arm-none-eabi/lib/thumb/v7e-m+fp/hard\libc_nano.a(libc_a-writer.o)
                              D:/ST/STM32CubeIDE_1.14.0/STM32CubeIDE/plugins/com.st.stm32cube.ide.mcu.externaltools.gnu-tools-for-stm32.11.3.rel1.win32_1.1.100.202309141235/tools/bin/../lib/gcc/arm-none-eabi/11.3.1/../../../../arm-none-eabi/lib/thumb/v7e-m+fp/hard\libc_nano.a(libc_a-stdio.o) (_write_r)
D:/ST/STM32CubeIDE_1.14.0/STM32CubeIDE/plugins/com.st.stm32cube.ide.mcu.externaltools.gnu-tools-for-stm32.11.3.rel1.win32_1.1.100.202309141235/tools/bin/../lib/gcc/arm-none-eabi/11.3.1/../../../../arm-none-eabi/lib/thumb/v7e-m+fp/hard\libc_nano.a(libc_a-errno.o)
                              ./Application/User/Core/syscalls.o (__errno)
D:/ST/STM32CubeIDE_1.14.0/STM32CubeIDE/plugins/com.st.stm32cube.ide.mcu.externaltools.gnu-tools-for-stm32.11.3.rel1.win32_1.1.100.202309141235/tools/bin/../lib/gcc/arm-none-eabi/11.3.1/../../../../arm-none-eabi/lib/thumb/v7e-m+fp/hard\libc_nano.a(libc_a-init.o)
                              D:/ST/STM32CubeIDE_1.14.0/STM32CubeIDE/plugins/com.st.stm32cube.ide.mcu.externaltools.gnu-tools-for-stm32.11.3.rel1.win32_1.1.100.202309141235/tools/bin/../lib/gcc/arm-none-eabi/11.3.1/../../../../arm-none-eabi/lib/thumb/v7e-m+fp/hard/crt0.o (__libc_init_array)
D:/ST/STM32CubeIDE_1.14.0/STM32CubeIDE/plugins/com.st.stm32cube.ide.mcu.externaltools.gnu-tools-for-stm32.11.3.rel1.win32_1.1.100.202309141235/tools/bin/../lib/gcc/arm-none-eabi/11.3.1/../../../../arm-none-eabi/lib/thumb/v7e-m+fp/hard\libc_nano.a(libc_a-lock.o)
                              D:/ST/STM32CubeIDE_1.14.0/STM32CubeIDE/plugins/com.st.stm32cube.ide.mcu.externaltools.gnu-tools-for-stm32.11.3.rel1.win32_1.1.100.202309141235/tools/bin/../lib/gcc/arm-none-eabi/11.3.1/../../../../arm-none-eabi/lib/thumb/v7e-m+fp/hard\libc_nano.a(libc_a-findfp.o) (__retarget_lock_init_recursive)
D:/ST/STM32CubeIDE_1.14.0/STM32CubeIDE/plugins/com.st.stm32cube.ide.mcu.externaltools.gnu-tools-for-stm32.11.3.rel1.win32_1.1.100.202309141235/tools/bin/../lib/gcc/arm-none-eabi/11.3.1/../../../../arm-none-eabi/lib/thumb/v7e-m+fp/hard\libc_nano.a(libc_a-strcmp.o)
                              ./pikapython/pikascript-core/dataString.o (strcmp)
D:/ST/STM32CubeIDE_1.14.0/STM32CubeIDE/plugins/com.st.stm32cube.ide.mcu.externaltools.gnu-tools-for-stm32.11.3.rel1.win32_1.1.100.202309141235/tools/bin/../lib/gcc/arm-none-eabi/11.3.1/../../../../arm-none-eabi/lib/thumb/v7e-m+fp/hard\libc_nano.a(libc_a-strcpy.o)
                              ./pikapython/pikascript-core/PikaObj.o (strcpy)
D:/ST/STM32CubeIDE_1.14.0/STM32CubeIDE/plugins/com.st.stm32cube.ide.mcu.externaltools.gnu-tools-for-stm32.11.3.rel1.win32_1.1.100.202309141235/tools/bin/../lib/gcc/arm-none-eabi/11.3.1/../../../../arm-none-eabi/lib/thumb/v7e-m+fp/hard\libc_nano.a(libc_a-memcpy-stub.o)
                              ./Middlewares/FreeRTOS/cmsis_os2.o (memcpy)
D:/ST/STM32CubeIDE_1.14.0/STM32CubeIDE/plugins/com.st.stm32cube.ide.mcu.externaltools.gnu-tools-for-stm32.11.3.rel1.win32_1.1.100.202309141235/tools/bin/../lib/gcc/arm-none-eabi/11.3.1/../../../../arm-none-eabi/lib/thumb/v7e-m+fp/hard\libc_nano.a(libc_a-strlen.o)
                              ./pikapython/pikascript-core/PikaCompiler.o (strlen)
D:/ST/STM32CubeIDE_1.14.0/STM32CubeIDE/plugins/com.st.stm32cube.ide.mcu.externaltools.gnu-tools-for-stm32.11.3.rel1.win32_1.1.100.202309141235/tools/bin/../lib/gcc/arm-none-eabi/11.3.1/../../../../arm-none-eabi/lib/thumb/v7e-m+fp/hard\libc_nano.a(libm_a-s_nan.o)
                              D:/ST/STM32CubeIDE_1.14.0/STM32CubeIDE/plugins/com.st.stm32cube.ide.mcu.externaltools.gnu-tools-for-stm32.11.3.rel1.win32_1.1.100.202309141235/tools/bin/../lib/gcc/arm-none-eabi/11.3.1/../../../../arm-none-eabi/lib/thumb/v7e-m+fp/hard\libc_nano.a(libc_a-strtod.o) (nan)
D:/ST/STM32CubeIDE_1.14.0/STM32CubeIDE/plugins/com.st.stm32cube.ide.mcu.externaltools.gnu-tools-for-stm32.11.3.rel1.win32_1.1.100.202309141235/tools/bin/../lib/gcc/arm-none-eabi/11.3.1/../../../../arm-none-eabi/lib/thumb/v7e-m+fp/hard\libc_nano.a(libm_a-sf_nan.o)
                              D:/ST/STM32CubeIDE_1.14.0/STM32CubeIDE/plugins/com.st.stm32cube.ide.mcu.externaltools.gnu-tools-for-stm32.11.3.rel1.win32_1.1.100.202309141235/tools/bin/../lib/gcc/arm-none-eabi/11.3.1/../../../../arm-none-eabi/lib/thumb/v7e-m+fp/hard\libc_nano.a(libc_a-strtod.o) (nanf)
D:/ST/STM32CubeIDE_1.14.0/STM32CubeIDE/plugins/com.st.stm32cube.ide.mcu.externaltools.gnu-tools-for-stm32.11.3.rel1.win32_1.1.100.202309141235/tools/bin/../lib/gcc/arm-none-eabi/11.3.1/../../../../arm-none-eabi/lib/thumb/v7e-m+fp/hard\libc_nano.a(libc_a-freer.o)
                              D:/ST/STM32CubeIDE_1.14.0/STM32CubeIDE/plugins/com.st.stm32cube.ide.mcu.externaltools.gnu-tools-for-stm32.11.3.rel1.win32_1.1.100.202309141235/tools/bin/../lib/gcc/arm-none-eabi/11.3.1/../../../../arm-none-eabi/lib/thumb/v7e-m+fp/hard\libc_nano.a(libc_a-malloc.o) (_free_r)
D:/ST/STM32CubeIDE_1.14.0/STM32CubeIDE/plugins/com.st.stm32cube.ide.mcu.externaltools.gnu-tools-for-stm32.11.3.rel1.win32_1.1.100.202309141235/tools/bin/../lib/gcc/arm-none-eabi/11.3.1/../../../../arm-none-eabi/lib/thumb/v7e-m+fp/hard\libc_nano.a(libc_a-gdtoa-gethex.o)
                              D:/ST/STM32CubeIDE_1.14.0/STM32CubeIDE/plugins/com.st.stm32cube.ide.mcu.externaltools.gnu-tools-for-stm32.11.3.rel1.win32_1.1.100.202309141235/tools/bin/../lib/gcc/arm-none-eabi/11.3.1/../../../../arm-none-eabi/lib/thumb/v7e-m+fp/hard\libc_nano.a(libc_a-strtod.o) (__gethex)
D:/ST/STM32CubeIDE_1.14.0/STM32CubeIDE/plugins/com.st.stm32cube.ide.mcu.externaltools.gnu-tools-for-stm32.11.3.rel1.win32_1.1.100.202309141235/tools/bin/../lib/gcc/arm-none-eabi/11.3.1/../../../../arm-none-eabi/lib/thumb/v7e-m+fp/hard\libc_nano.a(libc_a-gdtoa-hexnan.o)
                              D:/ST/STM32CubeIDE_1.14.0/STM32CubeIDE/plugins/com.st.stm32cube.ide.mcu.externaltools.gnu-tools-for-stm32.11.3.rel1.win32_1.1.100.202309141235/tools/bin/../lib/gcc/arm-none-eabi/11.3.1/../../../../arm-none-eabi/lib/thumb/v7e-m+fp/hard\libc_nano.a(libc_a-strtod.o) (__match)
D:/ST/STM32CubeIDE_1.14.0/STM32CubeIDE/plugins/com.st.stm32cube.ide.mcu.externaltools.gnu-tools-for-stm32.11.3.rel1.win32_1.1.100.202309141235/tools/bin/../lib/gcc/arm-none-eabi/11.3.1/../../../../arm-none-eabi/lib/thumb/v7e-m+fp/hard\libc_nano.a(libc_a-mbtowc_r.o)
                              D:/ST/STM32CubeIDE_1.14.0/STM32CubeIDE/plugins/com.st.stm32cube.ide.mcu.externaltools.gnu-tools-for-stm32.11.3.rel1.win32_1.1.100.202309141235/tools/bin/../lib/gcc/arm-none-eabi/11.3.1/../../../../arm-none-eabi/lib/thumb/v7e-m+fp/hard\libc_nano.a(libc_a-locale.o) (__ascii_mbtowc)
D:/ST/STM32CubeIDE_1.14.0/STM32CubeIDE/plugins/com.st.stm32cube.ide.mcu.externaltools.gnu-tools-for-stm32.11.3.rel1.win32_1.1.100.202309141235/tools/bin/../lib/gcc/arm-none-eabi/11.3.1/../../../../arm-none-eabi/lib/thumb/v7e-m+fp/hard\libc_nano.a(libc_a-mprec.o)
                              D:/ST/STM32CubeIDE_1.14.0/STM32CubeIDE/plugins/com.st.stm32cube.ide.mcu.externaltools.gnu-tools-for-stm32.11.3.rel1.win32_1.1.100.202309141235/tools/bin/../lib/gcc/arm-none-eabi/11.3.1/../../../../arm-none-eabi/lib/thumb/v7e-m+fp/hard\libc_nano.a(libc_a-strtod.o) (_Balloc)
D:/ST/STM32CubeIDE_1.14.0/STM32CubeIDE/plugins/com.st.stm32cube.ide.mcu.externaltools.gnu-tools-for-stm32.11.3.rel1.win32_1.1.100.202309141235/tools/bin/../lib/gcc/arm-none-eabi/11.3.1/../../../../arm-none-eabi/lib/thumb/v7e-m+fp/hard\libc_nano.a(libc_a-msizer.o)
                              D:/ST/STM32CubeIDE_1.14.0/STM32CubeIDE/plugins/com.st.stm32cube.ide.mcu.externaltools.gnu-tools-for-stm32.11.3.rel1.win32_1.1.100.202309141235/tools/bin/../lib/gcc/arm-none-eabi/11.3.1/../../../../arm-none-eabi/lib/thumb/v7e-m+fp/hard\libc_nano.a(libc_a-reallocr.o) (_malloc_usable_size_r)
D:/ST/STM32CubeIDE_1.14.0/STM32CubeIDE/plugins/com.st.stm32cube.ide.mcu.externaltools.gnu-tools-for-stm32.11.3.rel1.win32_1.1.100.202309141235/tools/bin/../lib/gcc/arm-none-eabi/11.3.1/../../../../arm-none-eabi/lib/thumb/v7e-m+fp/hard\libc_nano.a(libc_a-wctomb_r.o)
                              D:/ST/STM32CubeIDE_1.14.0/STM32CubeIDE/plugins/com.st.stm32cube.ide.mcu.externaltools.gnu-tools-for-stm32.11.3.rel1.win32_1.1.100.202309141235/tools/bin/../lib/gcc/arm-none-eabi/11.3.1/../../../../arm-none-eabi/lib/thumb/v7e-m+fp/hard\libc_nano.a(libc_a-locale.o) (__ascii_wctomb)
D:/ST/STM32CubeIDE_1.14.0/STM32CubeIDE/plugins/com.st.stm32cube.ide.mcu.externaltools.gnu-tools-for-stm32.11.3.rel1.win32_1.1.100.202309141235/tools/bin/../lib/gcc/arm-none-eabi/11.3.1/../../../../arm-none-eabi/lib/thumb/v7e-m+fp/hard\libc_nano.a(libc_a-nano-svfprintf.o)
                              D:/ST/STM32CubeIDE_1.14.0/STM32CubeIDE/plugins/com.st.stm32cube.ide.mcu.externaltools.gnu-tools-for-stm32.11.3.rel1.win32_1.1.100.202309141235/tools/bin/../lib/gcc/arm-none-eabi/11.3.1/../../../../arm-none-eabi/lib/thumb/v7e-m+fp/hard\libc_nano.a(libc_a-sprintf.o) (_svfprintf_r)
D:/ST/STM32CubeIDE_1.14.0/STM32CubeIDE/plugins/com.st.stm32cube.ide.mcu.externaltools.gnu-tools-for-stm32.11.3.rel1.win32_1.1.100.202309141235/tools/bin/../lib/gcc/arm-none-eabi/11.3.1/../../../../arm-none-eabi/lib/thumb/v7e-m+fp/hard\libc_nano.a(libc_a-nano-vfprintf_i.o)
                              D:/ST/STM32CubeIDE_1.14.0/STM32CubeIDE/plugins/com.st.stm32cube.ide.mcu.externaltools.gnu-tools-for-stm32.11.3.rel1.win32_1.1.100.202309141235/tools/bin/../lib/gcc/arm-none-eabi/11.3.1/../../../../arm-none-eabi/lib/thumb/v7e-m+fp/hard\libc_nano.a(libc_a-nano-svfprintf.o) (_printf_i)
D:/ST/STM32CubeIDE_1.14.0/STM32CubeIDE/plugins/com.st.stm32cube.ide.mcu.externaltools.gnu-tools-for-stm32.11.3.rel1.win32_1.1.100.202309141235/tools/bin/../lib/gcc/arm-none-eabi/11.3.1/../../../../arm-none-eabi/lib/thumb/v7e-m+fp/hard\libc_nano.a(libc_a-fflush.o)
                              D:/ST/STM32CubeIDE_1.14.0/STM32CubeIDE/plugins/com.st.stm32cube.ide.mcu.externaltools.gnu-tools-for-stm32.11.3.rel1.win32_1.1.100.202309141235/tools/bin/../lib/gcc/arm-none-eabi/11.3.1/../../../../arm-none-eabi/lib/thumb/v7e-m+fp/hard\libc_nano.a(libc_a-findfp.o) (_fflush_r)
D:/ST/STM32CubeIDE_1.14.0/STM32CubeIDE/plugins/com.st.stm32cube.ide.mcu.externaltools.gnu-tools-for-stm32.11.3.rel1.win32_1.1.100.202309141235/tools/bin/../lib/gcc/arm-none-eabi/11.3.1/../../../../arm-none-eabi/lib/thumb/v7e-m+fp/hard\libc_nano.a(libc_a-putc.o)
                              D:/ST/STM32CubeIDE_1.14.0/STM32CubeIDE/plugins/com.st.stm32cube.ide.mcu.externaltools.gnu-tools-for-stm32.11.3.rel1.win32_1.1.100.202309141235/tools/bin/../lib/gcc/arm-none-eabi/11.3.1/../../../../arm-none-eabi/lib/thumb/v7e-m+fp/hard\libc_nano.a(libc_a-putchar.o) (_putc_r)
D:/ST/STM32CubeIDE_1.14.0/STM32CubeIDE/plugins/com.st.stm32cube.ide.mcu.externaltools.gnu-tools-for-stm32.11.3.rel1.win32_1.1.100.202309141235/tools/bin/../lib/gcc/arm-none-eabi/11.3.1/../../../../arm-none-eabi/lib/thumb/v7e-m+fp/hard\libc_nano.a(libc_a-wbuf.o)
                              D:/ST/STM32CubeIDE_1.14.0/STM32CubeIDE/plugins/com.st.stm32cube.ide.mcu.externaltools.gnu-tools-for-stm32.11.3.rel1.win32_1.1.100.202309141235/tools/bin/../lib/gcc/arm-none-eabi/11.3.1/../../../../arm-none-eabi/lib/thumb/v7e-m+fp/hard\libc_nano.a(libc_a-putc.o) (__swbuf_r)
D:/ST/STM32CubeIDE_1.14.0/STM32CubeIDE/plugins/com.st.stm32cube.ide.mcu.externaltools.gnu-tools-for-stm32.11.3.rel1.win32_1.1.100.202309141235/tools/bin/../lib/gcc/arm-none-eabi/11.3.1/../../../../arm-none-eabi/lib/thumb/v7e-m+fp/hard\libc_nano.a(libc_a-wsetup.o)
                              D:/ST/STM32CubeIDE_1.14.0/STM32CubeIDE/plugins/com.st.stm32cube.ide.mcu.externaltools.gnu-tools-for-stm32.11.3.rel1.win32_1.1.100.202309141235/tools/bin/../lib/gcc/arm-none-eabi/11.3.1/../../../../arm-none-eabi/lib/thumb/v7e-m+fp/hard\libc_nano.a(libc_a-wbuf.o) (__swsetup_r)
D:/ST/STM32CubeIDE_1.14.0/STM32CubeIDE/plugins/com.st.stm32cube.ide.mcu.externaltools.gnu-tools-for-stm32.11.3.rel1.win32_1.1.100.202309141235/tools/bin/../lib/gcc/arm-none-eabi/11.3.1/../../../../arm-none-eabi/lib/thumb/v7e-m+fp/hard\libc_nano.a(libc_a-memchr.o)
                              D:/ST/STM32CubeIDE_1.14.0/STM32CubeIDE/plugins/com.st.stm32cube.ide.mcu.externaltools.gnu-tools-for-stm32.11.3.rel1.win32_1.1.100.202309141235/tools/bin/../lib/gcc/arm-none-eabi/11.3.1/../../../../arm-none-eabi/lib/thumb/v7e-m+fp/hard\libc_nano.a(libc_a-nano-svfprintf.o) (memchr)
D:/ST/STM32CubeIDE_1.14.0/STM32CubeIDE/plugins/com.st.stm32cube.ide.mcu.externaltools.gnu-tools-for-stm32.11.3.rel1.win32_1.1.100.202309141235/tools/bin/../lib/gcc/arm-none-eabi/11.3.1/../../../../arm-none-eabi/lib/thumb/v7e-m+fp/hard\libc_nano.a(libc_a-assert.o)
                              D:/ST/STM32CubeIDE_1.14.0/STM32CubeIDE/plugins/com.st.stm32cube.ide.mcu.externaltools.gnu-tools-for-stm32.11.3.rel1.win32_1.1.100.202309141235/tools/bin/../lib/gcc/arm-none-eabi/11.3.1/../../../../arm-none-eabi/lib/thumb/v7e-m+fp/hard\libc_nano.a(libc_a-gdtoa-gethex.o) (__assert_func)
D:/ST/STM32CubeIDE_1.14.0/STM32CubeIDE/plugins/com.st.stm32cube.ide.mcu.externaltools.gnu-tools-for-stm32.11.3.rel1.win32_1.1.100.202309141235/tools/bin/../lib/gcc/arm-none-eabi/11.3.1/../../../../arm-none-eabi/lib/thumb/v7e-m+fp/hard\libc_nano.a(libc_a-callocr.o)
                              D:/ST/STM32CubeIDE_1.14.0/STM32CubeIDE/plugins/com.st.stm32cube.ide.mcu.externaltools.gnu-tools-for-stm32.11.3.rel1.win32_1.1.100.202309141235/tools/bin/../lib/gcc/arm-none-eabi/11.3.1/../../../../arm-none-eabi/lib/thumb/v7e-m+fp/hard\libc_nano.a(libc_a-mprec.o) (_calloc_r)
D:/ST/STM32CubeIDE_1.14.0/STM32CubeIDE/plugins/com.st.stm32cube.ide.mcu.externaltools.gnu-tools-for-stm32.11.3.rel1.win32_1.1.100.202309141235/tools/bin/../lib/gcc/arm-none-eabi/11.3.1/../../../../arm-none-eabi/lib/thumb/v7e-m+fp/hard\libc_nano.a(libc_a-fprintf.o)
                              D:/ST/STM32CubeIDE_1.14.0/STM32CubeIDE/plugins/com.st.stm32cube.ide.mcu.externaltools.gnu-tools-for-stm32.11.3.rel1.win32_1.1.100.202309141235/tools/bin/../lib/gcc/arm-none-eabi/11.3.1/../../../../arm-none-eabi/lib/thumb/v7e-m+fp/hard\libc_nano.a(libc_a-assert.o) (fiprintf)
D:/ST/STM32CubeIDE_1.14.0/STM32CubeIDE/plugins/com.st.stm32cube.ide.mcu.externaltools.gnu-tools-for-stm32.11.3.rel1.win32_1.1.100.202309141235/tools/bin/../lib/gcc/arm-none-eabi/11.3.1/../../../../arm-none-eabi/lib/thumb/v7e-m+fp/hard\libc_nano.a(libc_a-makebuf.o)
                              D:/ST/STM32CubeIDE_1.14.0/STM32CubeIDE/plugins/com.st.stm32cube.ide.mcu.externaltools.gnu-tools-for-stm32.11.3.rel1.win32_1.1.100.202309141235/tools/bin/../lib/gcc/arm-none-eabi/11.3.1/../../../../arm-none-eabi/lib/thumb/v7e-m+fp/hard\libc_nano.a(libc_a-wsetup.o) (__smakebuf_r)
D:/ST/STM32CubeIDE_1.14.0/STM32CubeIDE/plugins/com.st.stm32cube.ide.mcu.externaltools.gnu-tools-for-stm32.11.3.rel1.win32_1.1.100.202309141235/tools/bin/../lib/gcc/arm-none-eabi/11.3.1/../../../../arm-none-eabi/lib/thumb/v7e-m+fp/hard\libc_nano.a(libc_a-fstatr.o)
                              D:/ST/STM32CubeIDE_1.14.0/STM32CubeIDE/plugins/com.st.stm32cube.ide.mcu.externaltools.gnu-tools-for-stm32.11.3.rel1.win32_1.1.100.202309141235/tools/bin/../lib/gcc/arm-none-eabi/11.3.1/../../../../arm-none-eabi/lib/thumb/v7e-m+fp/hard\libc_nano.a(libc_a-makebuf.o) (_fstat_r)
D:/ST/STM32CubeIDE_1.14.0/STM32CubeIDE/plugins/com.st.stm32cube.ide.mcu.externaltools.gnu-tools-for-stm32.11.3.rel1.win32_1.1.100.202309141235/tools/bin/../lib/gcc/arm-none-eabi/11.3.1/../../../../arm-none-eabi/lib/thumb/v7e-m+fp/hard\libc_nano.a(libc_a-isattyr.o)
                              D:/ST/STM32CubeIDE_1.14.0/STM32CubeIDE/plugins/com.st.stm32cube.ide.mcu.externaltools.gnu-tools-for-stm32.11.3.rel1.win32_1.1.100.202309141235/tools/bin/../lib/gcc/arm-none-eabi/11.3.1/../../../../arm-none-eabi/lib/thumb/v7e-m+fp/hard\libc_nano.a(libc_a-makebuf.o) (_isatty_r)
D:/ST/STM32CubeIDE_1.14.0/STM32CubeIDE/plugins/com.st.stm32cube.ide.mcu.externaltools.gnu-tools-for-stm32.11.3.rel1.win32_1.1.100.202309141235/tools/bin/../lib/gcc/arm-none-eabi/11.3.1/../../../../arm-none-eabi/lib/thumb/v7e-m+fp/hard\libc_nano.a(libc_a-nano-vfprintf.o)
                              D:/ST/STM32CubeIDE_1.14.0/STM32CubeIDE/plugins/com.st.stm32cube.ide.mcu.externaltools.gnu-tools-for-stm32.11.3.rel1.win32_1.1.100.202309141235/tools/bin/../lib/gcc/arm-none-eabi/11.3.1/../../../../arm-none-eabi/lib/thumb/v7e-m+fp/hard\libc_nano.a(libc_a-fprintf.o) (_vfprintf_r)
D:/ST/STM32CubeIDE_1.14.0/STM32CubeIDE/plugins/com.st.stm32cube.ide.mcu.externaltools.gnu-tools-for-stm32.11.3.rel1.win32_1.1.100.202309141235/tools/bin/../lib/gcc/arm-none-eabi/11.3.1/../../../../arm-none-eabi/lib/thumb/v7e-m+fp/hard\libc_nano.a(libc_a-fvwrite.o)
                              D:/ST/STM32CubeIDE_1.14.0/STM32CubeIDE/plugins/com.st.stm32cube.ide.mcu.externaltools.gnu-tools-for-stm32.11.3.rel1.win32_1.1.100.202309141235/tools/bin/../lib/gcc/arm-none-eabi/11.3.1/../../../../arm-none-eabi/lib/thumb/v7e-m+fp/hard\libc_nano.a(libc_a-nano-vfprintf.o) (__sfvwrite_r)
D:/ST/STM32CubeIDE_1.14.0/STM32CubeIDE/plugins/com.st.stm32cube.ide.mcu.externaltools.gnu-tools-for-stm32.11.3.rel1.win32_1.1.100.202309141235/tools/bin/../lib/gcc/arm-none-eabi/11.3.1/thumb/v7e-m+fp/hard\libgcc.a(_arm_muldf3.o)
                              ./pikapython/pikascript-core/PikaVM.o (__aeabi_dmul)
D:/ST/STM32CubeIDE_1.14.0/STM32CubeIDE/plugins/com.st.stm32cube.ide.mcu.externaltools.gnu-tools-for-stm32.11.3.rel1.win32_1.1.100.202309141235/tools/bin/../lib/gcc/arm-none-eabi/11.3.1/thumb/v7e-m+fp/hard\libgcc.a(_arm_addsubdf3.o)
                              ./pikapython/pikascript-core/PikaVM.o (__aeabi_dsub)
D:/ST/STM32CubeIDE_1.14.0/STM32CubeIDE/plugins/com.st.stm32cube.ide.mcu.externaltools.gnu-tools-for-stm32.11.3.rel1.win32_1.1.100.202309141235/tools/bin/../lib/gcc/arm-none-eabi/11.3.1/thumb/v7e-m+fp/hard\libgcc.a(_arm_muldivdf3.o)
                              ./pikapython/pikascript-core/PikaVM.o (__aeabi_ddiv)
D:/ST/STM32CubeIDE_1.14.0/STM32CubeIDE/plugins/com.st.stm32cube.ide.mcu.externaltools.gnu-tools-for-stm32.11.3.rel1.win32_1.1.100.202309141235/tools/bin/../lib/gcc/arm-none-eabi/11.3.1/thumb/v7e-m+fp/hard\libgcc.a(_arm_cmpdf2.o)
                              ./pikapython/pikascript-core/PikaVM.o (__aeabi_dcmpeq)
D:/ST/STM32CubeIDE_1.14.0/STM32CubeIDE/plugins/com.st.stm32cube.ide.mcu.externaltools.gnu-tools-for-stm32.11.3.rel1.win32_1.1.100.202309141235/tools/bin/../lib/gcc/arm-none-eabi/11.3.1/thumb/v7e-m+fp/hard\libgcc.a(_arm_unorddf2.o)
                              D:/ST/STM32CubeIDE_1.14.0/STM32CubeIDE/plugins/com.st.stm32cube.ide.mcu.externaltools.gnu-tools-for-stm32.11.3.rel1.win32_1.1.100.202309141235/tools/bin/../lib/gcc/arm-none-eabi/11.3.1/../../../../arm-none-eabi/lib/thumb/v7e-m+fp/hard\libc_nano.a(libc_a-strtod.o) (__aeabi_dcmpun)
D:/ST/STM32CubeIDE_1.14.0/STM32CubeIDE/plugins/com.st.stm32cube.ide.mcu.externaltools.gnu-tools-for-stm32.11.3.rel1.win32_1.1.100.202309141235/tools/bin/../lib/gcc/arm-none-eabi/11.3.1/thumb/v7e-m+fp/hard\libgcc.a(_arm_fixdfsi.o)
                              ./pikapython/pikascript-core/dataArgs.o (__aeabi_d2iz)
D:/ST/STM32CubeIDE_1.14.0/STM32CubeIDE/plugins/com.st.stm32cube.ide.mcu.externaltools.gnu-tools-for-stm32.11.3.rel1.win32_1.1.100.202309141235/tools/bin/../lib/gcc/arm-none-eabi/11.3.1/thumb/v7e-m+fp/hard\libgcc.a(_arm_fixunsdfsi.o)
                              ./pikapython/pikascript-lib/PikaStdDevice/PikaStdDevice_DAC.o (__aeabi_d2uiz)
D:/ST/STM32CubeIDE_1.14.0/STM32CubeIDE/plugins/com.st.stm32cube.ide.mcu.externaltools.gnu-tools-for-stm32.11.3.rel1.win32_1.1.100.202309141235/tools/bin/../lib/gcc/arm-none-eabi/11.3.1/thumb/v7e-m+fp/hard\libgcc.a(_arm_truncdfsf2.o)
                              ./pikapython/pikascript-core/PikaVM.o (__aeabi_d2f)
D:/ST/STM32CubeIDE_1.14.0/STM32CubeIDE/plugins/com.st.stm32cube.ide.mcu.externaltools.gnu-tools-for-stm32.11.3.rel1.win32_1.1.100.202309141235/tools/bin/../lib/gcc/arm-none-eabi/11.3.1/thumb/v7e-m+fp/hard\libgcc.a(_aeabi_ldivmod.o)
                              ./Drivers/STM32F4xx_HAL_Driver/stm32f4xx_hal_rcc.o (__aeabi_ldivmod)
D:/ST/STM32CubeIDE_1.14.0/STM32CubeIDE/plugins/com.st.stm32cube.ide.mcu.externaltools.gnu-tools-for-stm32.11.3.rel1.win32_1.1.100.202309141235/tools/bin/../lib/gcc/arm-none-eabi/11.3.1/thumb/v7e-m+fp/hard\libgcc.a(_aeabi_uldivmod.o)
                              ./Drivers/STM32F4xx_HAL_Driver/stm32f4xx_hal_rcc.o (__aeabi_uldivmod)
D:/ST/STM32CubeIDE_1.14.0/STM32CubeIDE/plugins/com.st.stm32cube.ide.mcu.externaltools.gnu-tools-for-stm32.11.3.rel1.win32_1.1.100.202309141235/tools/bin/../lib/gcc/arm-none-eabi/11.3.1/thumb/v7e-m+fp/hard\libgcc.a(_fixdfdi.o)
                              ./pikapython/pikascript-core/PikaObj.o (__aeabi_d2lz)
D:/ST/STM32CubeIDE_1.14.0/STM32CubeIDE/plugins/com.st.stm32cube.ide.mcu.externaltools.gnu-tools-for-stm32.11.3.rel1.win32_1.1.100.202309141235/tools/bin/../lib/gcc/arm-none-eabi/11.3.1/thumb/v7e-m+fp/hard\libgcc.a(_fixunsdfdi.o)
                              D:/ST/STM32CubeIDE_1.14.0/STM32CubeIDE/plugins/com.st.stm32cube.ide.mcu.externaltools.gnu-tools-for-stm32.11.3.rel1.win32_1.1.100.202309141235/tools/bin/../lib/gcc/arm-none-eabi/11.3.1/thumb/v7e-m+fp/hard\libgcc.a(_fixdfdi.o) (__aeabi_d2ulz)
D:/ST/STM32CubeIDE_1.14.0/STM32CubeIDE/plugins/com.st.stm32cube.ide.mcu.externaltools.gnu-tools-for-stm32.11.3.rel1.win32_1.1.100.202309141235/tools/bin/../lib/gcc/arm-none-eabi/11.3.1/thumb/v7e-m+fp/hard\libgcc.a(_udivmoddi4.o)
                              D:/ST/STM32CubeIDE_1.14.0/STM32CubeIDE/plugins/com.st.stm32cube.ide.mcu.externaltools.gnu-tools-for-stm32.11.3.rel1.win32_1.1.100.202309141235/tools/bin/../lib/gcc/arm-none-eabi/11.3.1/thumb/v7e-m+fp/hard\libgcc.a(_aeabi_ldivmod.o) (__udivmoddi4)
D:/ST/STM32CubeIDE_1.14.0/STM32CubeIDE/plugins/com.st.stm32cube.ide.mcu.externaltools.gnu-tools-for-stm32.11.3.rel1.win32_1.1.100.202309141235/tools/bin/../lib/gcc/arm-none-eabi/11.3.1/thumb/v7e-m+fp/hard\libgcc.a(_dvmd_tls.o)
                              D:/ST/STM32CubeIDE_1.14.0/STM32CubeIDE/plugins/com.st.stm32cube.ide.mcu.externaltools.gnu-tools-for-stm32.11.3.rel1.win32_1.1.100.202309141235/tools/bin/../lib/gcc/arm-none-eabi/11.3.1/thumb/v7e-m+fp/hard\libgcc.a(_aeabi_ldivmod.o) (__aeabi_ldiv0)

Discarded input sections

 .text          0x0000000000000000        0x0 D:/ST/STM32CubeIDE_1.14.0/STM32CubeIDE/plugins/com.st.stm32cube.ide.mcu.externaltools.gnu-tools-for-stm32.11.3.rel1.win32_1.1.100.202309141235/tools/bin/../lib/gcc/arm-none-eabi/11.3.1/thumb/v7e-m+fp/hard/crti.o
 .data          0x0000000000000000        0x0 D:/ST/STM32CubeIDE_1.14.0/STM32CubeIDE/plugins/com.st.stm32cube.ide.mcu.externaltools.gnu-tools-for-stm32.11.3.rel1.win32_1.1.100.202309141235/tools/bin/../lib/gcc/arm-none-eabi/11.3.1/thumb/v7e-m+fp/hard/crti.o
 .bss           0x0000000000000000        0x0 D:/ST/STM32CubeIDE_1.14.0/STM32CubeIDE/plugins/com.st.stm32cube.ide.mcu.externaltools.gnu-tools-for-stm32.11.3.rel1.win32_1.1.100.202309141235/tools/bin/../lib/gcc/arm-none-eabi/11.3.1/thumb/v7e-m+fp/hard/crti.o
 .data          0x0000000000000000        0x4 D:/ST/STM32CubeIDE_1.14.0/STM32CubeIDE/plugins/com.st.stm32cube.ide.mcu.externaltools.gnu-tools-for-stm32.11.3.rel1.win32_1.1.100.202309141235/tools/bin/../lib/gcc/arm-none-eabi/11.3.1/thumb/v7e-m+fp/hard/crtbegin.o
 .rodata        0x0000000000000000       0x24 D:/ST/STM32CubeIDE_1.14.0/STM32CubeIDE/plugins/com.st.stm32cube.ide.mcu.externaltools.gnu-tools-for-stm32.11.3.rel1.win32_1.1.100.202309141235/tools/bin/../lib/gcc/arm-none-eabi/11.3.1/thumb/v7e-m+fp/hard/crtbegin.o
 .text          0x0000000000000000       0x7c D:/ST/STM32CubeIDE_1.14.0/STM32CubeIDE/plugins/com.st.stm32cube.ide.mcu.externaltools.gnu-tools-for-stm32.11.3.rel1.win32_1.1.100.202309141235/tools/bin/../lib/gcc/arm-none-eabi/11.3.1/../../../../arm-none-eabi/lib/thumb/v7e-m+fp/hard/crt0.o
 .data          0x0000000000000000        0x0 D:/ST/STM32CubeIDE_1.14.0/STM32CubeIDE/plugins/com.st.stm32cube.ide.mcu.externaltools.gnu-tools-for-stm32.11.3.rel1.win32_1.1.100.202309141235/tools/bin/../lib/gcc/arm-none-eabi/11.3.1/../../../../arm-none-eabi/lib/thumb/v7e-m+fp/hard/crt0.o
 .bss           0x0000000000000000        0x0 D:/ST/STM32CubeIDE_1.14.0/STM32CubeIDE/plugins/com.st.stm32cube.ide.mcu.externaltools.gnu-tools-for-stm32.11.3.rel1.win32_1.1.100.202309141235/tools/bin/../lib/gcc/arm-none-eabi/11.3.1/../../../../arm-none-eabi/lib/thumb/v7e-m+fp/hard/crt0.o
 .ARM.extab     0x0000000000000000        0x0 D:/ST/STM32CubeIDE_1.14.0/STM32CubeIDE/plugins/com.st.stm32cube.ide.mcu.externaltools.gnu-tools-for-stm32.11.3.rel1.win32_1.1.100.202309141235/tools/bin/../lib/gcc/arm-none-eabi/11.3.1/../../../../arm-none-eabi/lib/thumb/v7e-m+fp/hard/crt0.o
 .ARM.exidx     0x0000000000000000       0x10 D:/ST/STM32CubeIDE_1.14.0/STM32CubeIDE/plugins/com.st.stm32cube.ide.mcu.externaltools.gnu-tools-for-stm32.11.3.rel1.win32_1.1.100.202309141235/tools/bin/../lib/gcc/arm-none-eabi/11.3.1/../../../../arm-none-eabi/lib/thumb/v7e-m+fp/hard/crt0.o
 .debug_line    0x0000000000000000       0x76 D:/ST/STM32CubeIDE_1.14.0/STM32CubeIDE/plugins/com.st.stm32cube.ide.mcu.externaltools.gnu-tools-for-stm32.11.3.rel1.win32_1.1.100.202309141235/tools/bin/../lib/gcc/arm-none-eabi/11.3.1/../../../../arm-none-eabi/lib/thumb/v7e-m+fp/hard/crt0.o
 .debug_line_str
                0x0000000000000000       0xdd D:/ST/STM32CubeIDE_1.14.0/STM32CubeIDE/plugins/com.st.stm32cube.ide.mcu.externaltools.gnu-tools-for-stm32.11.3.rel1.win32_1.1.100.202309141235/tools/bin/../lib/gcc/arm-none-eabi/11.3.1/../../../../arm-none-eabi/lib/thumb/v7e-m+fp/hard/crt0.o
 .debug_info    0x0000000000000000       0x24 D:/ST/STM32CubeIDE_1.14.0/STM32CubeIDE/plugins/com.st.stm32cube.ide.mcu.externaltools.gnu-tools-for-stm32.11.3.rel1.win32_1.1.100.202309141235/tools/bin/../lib/gcc/arm-none-eabi/11.3.1/../../../../arm-none-eabi/lib/thumb/v7e-m+fp/hard/crt0.o
 .debug_abbrev  0x0000000000000000       0x14 D:/ST/STM32CubeIDE_1.14.0/STM32CubeIDE/plugins/com.st.stm32cube.ide.mcu.externaltools.gnu-tools-for-stm32.11.3.rel1.win32_1.1.100.202309141235/tools/bin/../lib/gcc/arm-none-eabi/11.3.1/../../../../arm-none-eabi/lib/thumb/v7e-m+fp/hard/crt0.o
 .debug_aranges
                0x0000000000000000       0x20 D:/ST/STM32CubeIDE_1.14.0/STM32CubeIDE/plugins/com.st.stm32cube.ide.mcu.externaltools.gnu-tools-for-stm32.11.3.rel1.win32_1.1.100.202309141235/tools/bin/../lib/gcc/arm-none-eabi/11.3.1/../../../../arm-none-eabi/lib/thumb/v7e-m+fp/hard/crt0.o
 .debug_str     0x0000000000000000       0xe2 D:/ST/STM32CubeIDE_1.14.0/STM32CubeIDE/plugins/com.st.stm32cube.ide.mcu.externaltools.gnu-tools-for-stm32.11.3.rel1.win32_1.1.100.202309141235/tools/bin/../lib/gcc/arm-none-eabi/11.3.1/../../../../arm-none-eabi/lib/thumb/v7e-m+fp/hard/crt0.o
Memory Configuration

Name             Origin             Length             Attributes
RAM              0x0000000020000000 0x0000000000020000 xrw
FLASH            0x0000000008000000 0x0000000000080000 xr
*default*        0x0000000000000000 0xffffffffffffffff

Linker script and memory map

LOAD D:/ST/STM32CubeIDE_1.14.0/STM32CubeIDE/plugins/com.st.stm32cube.ide.mcu.externaltools.gnu-tools-for-stm32.11.3.rel1.win32_1.1.100.202309141235/tools/bin/../lib/gcc/arm-none-eabi/11.3.1/thumb/v7e-m+fp/hard/crti.o
LOAD D:/ST/STM32CubeIDE_1.14.0/STM32CubeIDE/plugins/com.st.stm32cube.ide.mcu.externaltools.gnu-tools-for-stm32.11.3.rel1.win32_1.1.100.202309141235/tools/bin/../lib/gcc/arm-none-eabi/11.3.1/thumb/v7e-m+fp/hard/crtbegin.o
LOAD D:/ST/STM32CubeIDE_1.14.0/STM32CubeIDE/plugins/com.st.stm32cube.ide.mcu.externaltools.gnu-tools-for-stm32.11.3.rel1.win32_1.1.100.202309141235/tools/bin/../lib/gcc/arm-none-eabi/11.3.1/../../../../arm-none-eabi/lib/thumb/v7e-m+fp/hard/crt0.o
LOAD ./Application/User/Core/freertos.o
LOAD ./Application/User/Core/main.o
LOAD ./Application/User/Core/stm32f4xx_hal_msp.o
LOAD ./Application/User/Core/stm32f4xx_hal_timebase_tim.o
LOAD ./Application/User/Core/stm32f4xx_it.o
LOAD ./Application/User/Core/syscalls.o
LOAD ./Application/User/Core/sysmem.o
LOAD ./Application/User/Startup/startup_stm32f411ceux.o
LOAD ./Application/User/USB_DEVICE/App/usb_device.o
LOAD ./Application/User/USB_DEVICE/App/usbd_cdc_if.o
LOAD ./Application/User/USB_DEVICE/App/usbd_desc.o
LOAD ./Application/User/USB_DEVICE/Target/usbd_conf.o
LOAD ./Drivers/CMSIS/system_stm32f4xx.o
LOAD ./Drivers/STM32F4xx_HAL_Driver/stm32f4xx_hal.o
LOAD ./Drivers/STM32F4xx_HAL_Driver/stm32f4xx_hal_adc.o
LOAD ./Drivers/STM32F4xx_HAL_Driver/stm32f4xx_hal_adc_ex.o
LOAD ./Drivers/STM32F4xx_HAL_Driver/stm32f4xx_hal_cortex.o
LOAD ./Drivers/STM32F4xx_HAL_Driver/stm32f4xx_hal_dac.o
LOAD ./Drivers/STM32F4xx_HAL_Driver/stm32f4xx_hal_dma.o
LOAD ./Drivers/STM32F4xx_HAL_Driver/stm32f4xx_hal_dma_ex.o
LOAD ./Drivers/STM32F4xx_HAL_Driver/stm32f4xx_hal_exti.o
LOAD ./Drivers/STM32F4xx_HAL_Driver/stm32f4xx_hal_flash.o
LOAD ./Drivers/STM32F4xx_HAL_Driver/stm32f4xx_hal_flash_ex.o
LOAD ./Drivers/STM32F4xx_HAL_Driver/stm32f4xx_hal_flash_ramfunc.o
LOAD ./Drivers/STM32F4xx_HAL_Driver/stm32f4xx_hal_gpio.o
LOAD ./Drivers/STM32F4xx_HAL_Driver/stm32f4xx_hal_i2c.o
LOAD ./Drivers/STM32F4xx_HAL_Driver/stm32f4xx_hal_i2c_ex.o
LOAD ./Drivers/STM32F4xx_HAL_Driver/stm32f4xx_hal_pcd.o
LOAD ./Drivers/STM32F4xx_HAL_Driver/stm32f4xx_hal_pcd_ex.o
LOAD ./Drivers/STM32F4xx_HAL_Driver/stm32f4xx_hal_pwr.o
LOAD ./Drivers/STM32F4xx_HAL_Driver/stm32f4xx_hal_pwr_ex.o
LOAD ./Drivers/STM32F4xx_HAL_Driver/stm32f4xx_hal_rcc.o
LOAD ./Drivers/STM32F4xx_HAL_Driver/stm32f4xx_hal_rcc_ex.o
LOAD ./Drivers/STM32F4xx_HAL_Driver/stm32f4xx_hal_spi.o
LOAD ./Drivers/STM32F4xx_HAL_Driver/stm32f4xx_hal_tim.o
LOAD ./Drivers/STM32F4xx_HAL_Driver/stm32f4xx_hal_tim_ex.o
LOAD ./Drivers/STM32F4xx_HAL_Driver/stm32f4xx_hal_uart.o
LOAD ./Drivers/STM32F4xx_HAL_Driver/stm32f4xx_ll_adc.o
LOAD ./Drivers/STM32F4xx_HAL_Driver/stm32f4xx_ll_dac.o
LOAD ./Drivers/STM32F4xx_HAL_Driver/stm32f4xx_ll_usb.o
LOAD ./Middlewares/FreeRTOS/cmsis_os2.o
LOAD ./Middlewares/FreeRTOS/croutine.o
LOAD ./Middlewares/FreeRTOS/event_groups.o
LOAD ./Middlewares/FreeRTOS/heap_4.o
LOAD ./Middlewares/FreeRTOS/list.o
LOAD ./Middlewares/FreeRTOS/port.o
LOAD ./Middlewares/FreeRTOS/queue.o
LOAD ./Middlewares/FreeRTOS/stream_buffer.o
LOAD ./Middlewares/FreeRTOS/tasks.o
LOAD ./Middlewares/FreeRTOS/timers.o
LOAD ./Middlewares/USB_Device_Library/usbd_cdc.o
LOAD ./Middlewares/USB_Device_Library/usbd_core.o
LOAD ./Middlewares/USB_Device_Library/usbd_ctlreq.o
LOAD ./Middlewares/USB_Device_Library/usbd_ioreq.o
LOAD ./pikapython/pikascript-api/__asset_pikaModules_py_a.o
LOAD ./pikapython/pikascript-api/__pikaBinding.o
LOAD ./pikapython/pikascript-api/pikaScript.o
LOAD ./pikapython/pikascript-core/BaseObj.o
LOAD ./pikapython/pikascript-core/PikaCompiler.o
LOAD ./pikapython/pikascript-core/PikaObj.o
LOAD ./pikapython/pikascript-core/PikaParser.o
LOAD ./pikapython/pikascript-core/PikaPlatform.o
LOAD ./pikapython/pikascript-core/PikaVM.o
LOAD ./pikapython/pikascript-core/TinyObj.o
LOAD ./pikapython/pikascript-core/dataArg.o
LOAD ./pikapython/pikascript-core/dataArgs.o
LOAD ./pikapython/pikascript-core/dataLink.o
LOAD ./pikapython/pikascript-core/dataLinkNode.o
LOAD ./pikapython/pikascript-core/dataMemory.o
LOAD ./pikapython/pikascript-core/dataQueue.o
LOAD ./pikapython/pikascript-core/dataQueueObj.o
LOAD ./pikapython/pikascript-core/dataStack.o
LOAD ./pikapython/pikascript-core/dataString.o
LOAD ./pikapython/pikascript-core/dataStrs.o
LOAD ./pikapython/pikascript-lib/PikaStdDevice/PikaStdDevice_ADC.o
LOAD ./pikapython/pikascript-lib/PikaStdDevice/PikaStdDevice_BaseDev.o
LOAD ./pikapython/pikascript-lib/PikaStdDevice/PikaStdDevice_CAN.o
LOAD ./pikapython/pikascript-lib/PikaStdDevice/PikaStdDevice_DAC.o
LOAD ./pikapython/pikascript-lib/PikaStdDevice/PikaStdDevice_GPIO.o
LOAD ./pikapython/pikascript-lib/PikaStdDevice/PikaStdDevice_IIC.o
LOAD ./pikapython/pikascript-lib/PikaStdDevice/PikaStdDevice_PWM.o
LOAD ./pikapython/pikascript-lib/PikaStdDevice/PikaStdDevice_SPI.o
LOAD ./pikapython/pikascript-lib/PikaStdDevice/PikaStdDevice_Timer.o
LOAD ./pikapython/pikascript-lib/PikaStdDevice/PikaStdDevice_UART.o
LOAD ./pikapython/pikascript-lib/PikaStdDevice/PikaStdDevice_common.o
LOAD ./pikapython/pikascript-lib/PikaStdDevice/pika_hal.o
LOAD ./pikapython/pikascript-lib/PikaStdDevice/pika_hal_SOFT_IIC.o
LOAD ./pikapython/pikascript-lib/PikaStdDevice/pika_hal_SOFT_SPI.o
LOAD ./pikapython/pikascript-lib/PikaStdDevice/pika_hal_SOFT_TIM.o
LOAD ./pikapython/pikascript-lib/PikaStdDevice/pika_hal_utils.o
LOAD ./pikapython/pikascript-lib/PikaStdLib/PikaDebuger_Debuger.o
LOAD ./pikapython/pikascript-lib/PikaStdLib/PikaStdData_ByteArray.o
LOAD ./pikapython/pikascript-lib/PikaStdLib/PikaStdData_Dict.o
LOAD ./pikapython/pikascript-lib/PikaStdLib/PikaStdData_FILEIO.o
LOAD ./pikapython/pikascript-lib/PikaStdLib/PikaStdData_List.o
LOAD ./pikapython/pikascript-lib/PikaStdLib/PikaStdData_String.o
LOAD ./pikapython/pikascript-lib/PikaStdLib/PikaStdData_Tuple.o
LOAD ./pikapython/pikascript-lib/PikaStdLib/PikaStdData_Utils.o
LOAD ./pikapython/pikascript-lib/PikaStdLib/PikaStdLib_MemChecker.o
LOAD ./pikapython/pikascript-lib/PikaStdLib/PikaStdLib_RangeObj.o
LOAD ./pikapython/pikascript-lib/PikaStdLib/PikaStdLib_StringObj.o
LOAD ./pikapython/pikascript-lib/PikaStdLib/PikaStdLib_SysObj.o
LOAD ./pikapython/pikascript-lib/PikaStdLib/PikaStdTask_Task.o
LOAD ./pikapython/pikascript-lib/STM32/pika_hal_stm32_ADC.o
LOAD ./pikapython/pikascript-lib/STM32/pika_hal_stm32_DAC.o
LOAD ./pikapython/pikascript-lib/STM32/pika_hal_stm32_GPIO.o
LOAD ./pikapython/pikascript-lib/STM32/pika_hal_stm32_PWM.o
LOAD ./pikapython/pikascript-lib/STM32/pika_hal_stm32_UART.o
LOAD ./pikapython/pikascript-lib/STM32/pika_hal_stm32_common.o
LOAD ./pikapython/pikascript-lib/STM32/pika_hal_stm32_time.o
LOAD ./pikapython/pikascript-lib/_thread/_thread.o
LOAD ./pikapython/pikascript-lib/pika_libc/pika_vsnprintf.o
LOAD ./pikapython/pikascript-lib/time/_time.o
START GROUP
LOAD D:/ST/STM32CubeIDE_1.14.0/STM32CubeIDE/plugins/com.st.stm32cube.ide.mcu.externaltools.gnu-tools-for-stm32.11.3.rel1.win32_1.1.100.202309141235/tools/bin/../lib/gcc/arm-none-eabi/11.3.1/../../../../arm-none-eabi/lib/thumb/v7e-m+fp/hard\libc_nano.a
LOAD D:/ST/STM32CubeIDE_1.14.0/STM32CubeIDE/plugins/com.st.stm32cube.ide.mcu.externaltools.gnu-tools-for-stm32.11.3.rel1.win32_1.1.100.202309141235/tools/bin/../lib/gcc/arm-none-eabi/11.3.1/../../../../arm-none-eabi/lib/thumb/v7e-m+fp/hard\libm.a
END GROUP
START GROUP
LOAD D:/ST/STM32CubeIDE_1.14.0/STM32CubeIDE/plugins/com.st.stm32cube.ide.mcu.externaltools.gnu-tools-for-stm32.11.3.rel1.win32_1.1.100.202309141235/tools/bin/../lib/gcc/arm-none-eabi/11.3.1/thumb/v7e-m+fp/hard\libgcc.a
LOAD D:/ST/STM32CubeIDE_1.14.0/STM32CubeIDE/plugins/com.st.stm32cube.ide.mcu.externaltools.gnu-tools-for-stm32.11.3.rel1.win32_1.1.100.202309141235/tools/bin/../lib/gcc/arm-none-eabi/11.3.1/../../../../arm-none-eabi/lib/thumb/v7e-m+fp/hard\libc_nano.a
END GROUP
START GROUP
LOAD D:/ST/STM32CubeIDE_1.14.0/STM32CubeIDE/plugins/com.st.stm32cube.ide.mcu.externaltools.gnu-tools-for-stm32.11.3.rel1.win32_1.1.100.202309141235/tools/bin/../lib/gcc/arm-none-eabi/11.3.1/thumb/v7e-m+fp/hard\libgcc.a
LOAD D:/ST/STM32CubeIDE_1.14.0/STM32CubeIDE/plugins/com.st.stm32cube.ide.mcu.externaltools.gnu-tools-for-stm32.11.3.rel1.win32_1.1.100.202309141235/tools/bin/../lib/gcc/arm-none-eabi/11.3.1/../../../../arm-none-eabi/lib/thumb/v7e-m+fp/hard\libc_nano.a
LOAD D:/ST/STM32CubeIDE_1.14.0/STM32CubeIDE/plugins/com.st.stm32cube.ide.mcu.externaltools.gnu-tools-for-stm32.11.3.rel1.win32_1.1.100.202309141235/tools/bin/../lib/gcc/arm-none-eabi/11.3.1/../../../../arm-none-eabi/lib/thumb/v7e-m+fp/hard\libnosys.a
END GROUP
START GROUP
LOAD D:/ST/STM32CubeIDE_1.14.0/STM32CubeIDE/plugins/com.st.stm32cube.ide.mcu.externaltools.gnu-tools-for-stm32.11.3.rel1.win32_1.1.100.202309141235/tools/bin/../lib/gcc/arm-none-eabi/11.3.1/thumb/v7e-m+fp/hard\libgcc.a
LOAD D:/ST/STM32CubeIDE_1.14.0/STM32CubeIDE/plugins/com.st.stm32cube.ide.mcu.externaltools.gnu-tools-for-stm32.11.3.rel1.win32_1.1.100.202309141235/tools/bin/../lib/gcc/arm-none-eabi/11.3.1/../../../../arm-none-eabi/lib/thumb/v7e-m+fp/hard\libc_nano.a
LOAD D:/ST/STM32CubeIDE_1.14.0/STM32CubeIDE/plugins/com.st.stm32cube.ide.mcu.externaltools.gnu-tools-for-stm32.11.3.rel1.win32_1.1.100.202309141235/tools/bin/../lib/gcc/arm-none-eabi/11.3.1/../../../../arm-none-eabi/lib/thumb/v7e-m+fp/hard\libnosys.a
END GROUP
LOAD D:/ST/STM32CubeIDE_1.14.0/STM32CubeIDE/plugins/com.st.stm32cube.ide.mcu.externaltools.gnu-tools-for-stm32.11.3.rel1.win32_1.1.100.202309141235/tools/bin/../lib/gcc/arm-none-eabi/11.3.1/thumb/v7e-m+fp/hard/crtend.o
LOAD D:/ST/STM32CubeIDE_1.14.0/STM32CubeIDE/plugins/com.st.stm32cube.ide.mcu.externaltools.gnu-tools-for-stm32.11.3.rel1.win32_1.1.100.202309141235/tools/bin/../lib/gcc/arm-none-eabi/11.3.1/thumb/v7e-m+fp/hard/crtn.o
                0x0000000020020000                _estack = (ORIGIN (RAM) + LENGTH (RAM))
                0x0000000000000200                _Min_Heap_Size = 0x200
                0x0000000000000400                _Min_Stack_Size = 0x400

.isr_vector     0x0000000008000000      0x198
                0x0000000008000000                . = ALIGN (0x4)
 *(.isr_vector)
 .isr_vector    0x0000000008000000      0x198 ./Application/User/Startup/startup_stm32f411ceux.o
                0x0000000008000000                g_pfnVectors
                0x0000000008000198                . = ALIGN (0x4)

.text           0x00000000080001a0    0x31dc4
                0x00000000080001a0                . = ALIGN (0x4)
 *(.text)
 .text          0x00000000080001a0       0x40 D:/ST/STM32CubeIDE_1.14.0/STM32CubeIDE/plugins/com.st.stm32cube.ide.mcu.externaltools.gnu-tools-for-stm32.11.3.rel1.win32_1.1.100.202309141235/tools/bin/../lib/gcc/arm-none-eabi/11.3.1/thumb/v7e-m+fp/hard/crtbegin.o
 .text          0x00000000080001e0       0x14 D:/ST/STM32CubeIDE_1.14.0/STM32CubeIDE/plugins/com.st.stm32cube.ide.mcu.externaltools.gnu-tools-for-stm32.11.3.rel1.win32_1.1.100.202309141235/tools/bin/../lib/gcc/arm-none-eabi/11.3.1/../../../../arm-none-eabi/lib/thumb/v7e-m+fp/hard\libc_nano.a(libc_a-strcmp.o)
                0x00000000080001e0                strcmp
 .text          0x00000000080001f4       0x10 D:/ST/STM32CubeIDE_1.14.0/STM32CubeIDE/plugins/com.st.stm32cube.ide.mcu.externaltools.gnu-tools-for-stm32.11.3.rel1.win32_1.1.100.202309141235/tools/bin/../lib/gcc/arm-none-eabi/11.3.1/../../../../arm-none-eabi/lib/thumb/v7e-m+fp/hard\libc_nano.a(libc_a-strlen.o)
                0x00000000080001f4                strlen
 *fill*         0x0000000008000204        0xc 
 .text          0x0000000008000210       0xa0 D:/ST/STM32CubeIDE_1.14.0/STM32CubeIDE/plugins/com.st.stm32cube.ide.mcu.externaltools.gnu-tools-for-stm32.11.3.rel1.win32_1.1.100.202309141235/tools/bin/../lib/gcc/arm-none-eabi/11.3.1/../../../../arm-none-eabi/lib/thumb/v7e-m+fp/hard\libc_nano.a(libc_a-memchr.o)
                0x0000000008000210                memchr
 .text          0x00000000080002b0      0x378 D:/ST/STM32CubeIDE_1.14.0/STM32CubeIDE/plugins/com.st.stm32cube.ide.mcu.externaltools.gnu-tools-for-stm32.11.3.rel1.win32_1.1.100.202309141235/tools/bin/../lib/gcc/arm-none-eabi/11.3.1/thumb/v7e-m+fp/hard\libgcc.a(_arm_addsubdf3.o)
                0x00000000080002b0                __aeabi_drsub
                0x00000000080002b8                __subdf3
                0x00000000080002b8                __aeabi_dsub
                0x00000000080002bc                __aeabi_dadd
                0x00000000080002bc                __adddf3
                0x0000000008000534                __floatunsidf
                0x0000000008000534                __aeabi_ui2d
                0x0000000008000554                __aeabi_i2d
                0x0000000008000554                __floatsidf
                0x0000000008000578                __extendsfdf2
                0x0000000008000578                __aeabi_f2d
                0x00000000080005bc                __floatundidf
                0x00000000080005bc                __aeabi_ul2d
                0x00000000080005cc                __aeabi_l2d
                0x00000000080005cc                __floatdidf
 .text          0x0000000008000628      0x424 D:/ST/STM32CubeIDE_1.14.0/STM32CubeIDE/plugins/com.st.stm32cube.ide.mcu.externaltools.gnu-tools-for-stm32.11.3.rel1.win32_1.1.100.202309141235/tools/bin/../lib/gcc/arm-none-eabi/11.3.1/thumb/v7e-m+fp/hard\libgcc.a(_arm_muldivdf3.o)
                0x0000000008000628                __aeabi_dmul
                0x0000000008000628                __muldf3
                0x000000000800087c                __divdf3
                0x000000000800087c                __aeabi_ddiv
 .text          0x0000000008000a4c      0x110 D:/ST/STM32CubeIDE_1.14.0/STM32CubeIDE/plugins/com.st.stm32cube.ide.mcu.externaltools.gnu-tools-for-stm32.11.3.rel1.win32_1.1.100.202309141235/tools/bin/../lib/gcc/arm-none-eabi/11.3.1/thumb/v7e-m+fp/hard\libgcc.a(_arm_cmpdf2.o)
                0x0000000008000a4c                __gtdf2
                0x0000000008000a4c                __gedf2
                0x0000000008000a54                __ltdf2
                0x0000000008000a54                __ledf2
                0x0000000008000a5c                __nedf2
                0x0000000008000a5c                __cmpdf2
                0x0000000008000a5c                __eqdf2
                0x0000000008000ad8                __aeabi_cdrcmple
                0x0000000008000ae8                __aeabi_cdcmple
                0x0000000008000ae8                __aeabi_cdcmpeq
                0x0000000008000af8                __aeabi_dcmpeq
                0x0000000008000b0c                __aeabi_dcmplt
                0x0000000008000b20                __aeabi_dcmple
                0x0000000008000b34                __aeabi_dcmpge
                0x0000000008000b48                __aeabi_dcmpgt
 .text          0x0000000008000b5c       0x50 D:/ST/STM32CubeIDE_1.14.0/STM32CubeIDE/plugins/com.st.stm32cube.ide.mcu.externaltools.gnu-tools-for-stm32.11.3.rel1.win32_1.1.100.202309141235/tools/bin/../lib/gcc/arm-none-eabi/11.3.1/thumb/v7e-m+fp/hard\libgcc.a(_arm_fixdfsi.o)
                0x0000000008000b5c                __fixdfsi
                0x0000000008000b5c                __aeabi_d2iz
 .text          0x0000000008000bac       0x40 D:/ST/STM32CubeIDE_1.14.0/STM32CubeIDE/plugins/com.st.stm32cube.ide.mcu.externaltools.gnu-tools-for-stm32.11.3.rel1.win32_1.1.100.202309141235/tools/bin/../lib/gcc/arm-none-eabi/11.3.1/thumb/v7e-m+fp/hard\libgcc.a(_arm_fixunsdfsi.o)
                0x0000000008000bac                __fixunsdfsi
                0x0000000008000bac                __aeabi_d2uiz
 .text          0x0000000008000bec       0xa0 D:/ST/STM32CubeIDE_1.14.0/STM32CubeIDE/plugins/com.st.stm32cube.ide.mcu.externaltools.gnu-tools-for-stm32.11.3.rel1.win32_1.1.100.202309141235/tools/bin/../lib/gcc/arm-none-eabi/11.3.1/thumb/v7e-m+fp/hard\libgcc.a(_arm_truncdfsf2.o)
                0x0000000008000bec                __truncdfsf2
                0x0000000008000bec                __aeabi_d2f
 .text          0x0000000008000c8c       0xa0 D:/ST/STM32CubeIDE_1.14.0/STM32CubeIDE/plugins/com.st.stm32cube.ide.mcu.externaltools.gnu-tools-for-stm32.11.3.rel1.win32_1.1.100.202309141235/tools/bin/../lib/gcc/arm-none-eabi/11.3.1/thumb/v7e-m+fp/hard\libgcc.a(_aeabi_ldivmod.o)
                0x0000000008000c8c                __aeabi_ldivmod
 .text          0x0000000008000d2c       0x30 D:/ST/STM32CubeIDE_1.14.0/STM32CubeIDE/plugins/com.st.stm32cube.ide.mcu.externaltools.gnu-tools-for-stm32.11.3.rel1.win32_1.1.100.202309141235/tools/bin/../lib/gcc/arm-none-eabi/11.3.1/thumb/v7e-m+fp/hard\libgcc.a(_aeabi_uldivmod.o)
                0x0000000008000d2c                __aeabi_uldivmod
 .text          0x0000000008000d5c       0x30 D:/ST/STM32CubeIDE_1.14.0/STM32CubeIDE/plugins/com.st.stm32cube.ide.mcu.externaltools.gnu-tools-for-stm32.11.3.rel1.win32_1.1.100.202309141235/tools/bin/../lib/gcc/arm-none-eabi/11.3.1/thumb/v7e-m+fp/hard\libgcc.a(_fixdfdi.o)
                0x0000000008000d5c                __aeabi_d2lz
                0x0000000008000d5c                __fixdfdi
 .text          0x0000000008000d8c       0x3c D:/ST/STM32CubeIDE_1.14.0/STM32CubeIDE/plugins/com.st.stm32cube.ide.mcu.externaltools.gnu-tools-for-stm32.11.3.rel1.win32_1.1.100.202309141235/tools/bin/../lib/gcc/arm-none-eabi/11.3.1/thumb/v7e-m+fp/hard\libgcc.a(_fixunsdfdi.o)
                0x0000000008000d8c                __fixunsdfdi
                0x0000000008000d8c                __aeabi_d2ulz
 .text          0x0000000008000dc8      0x2c8 D:/ST/STM32CubeIDE_1.14.0/STM32CubeIDE/plugins/com.st.stm32cube.ide.mcu.externaltools.gnu-tools-for-stm32.11.3.rel1.win32_1.1.100.202309141235/tools/bin/../lib/gcc/arm-none-eabi/11.3.1/thumb/v7e-m+fp/hard\libgcc.a(_udivmoddi4.o)
                0x0000000008000dc8                __udivmoddi4
 .text          0x0000000008001090        0x4 D:/ST/STM32CubeIDE_1.14.0/STM32CubeIDE/plugins/com.st.stm32cube.ide.mcu.externaltools.gnu-tools-for-stm32.11.3.rel1.win32_1.1.100.202309141235/tools/bin/../lib/gcc/arm-none-eabi/11.3.1/thumb/v7e-m+fp/hard\libgcc.a(_dvmd_tls.o)
                0x0000000008001090                __aeabi_idiv0
                0x0000000008001090                __aeabi_ldiv0
 *(.text*)
 .text.StartDefaultTask
                0x0000000008001094       0x44 ./Application/User/Core/main.o
                0x0000000008001094                StartDefaultTask
 .text.pika_platform_putchar
                0x00000000080010d8       0x1c ./Application/User/Core/main.o
                0x00000000080010d8                pika_platform_putchar
 .text.pika_platform_getchar
                0x00000000080010f4       0x3c ./Application/User/Core/main.o
                0x00000000080010f4                pika_platform_getchar
 .text.pika_platform_fopen
                0x0000000008001130       0x64 ./Application/User/Core/main.o
                0x0000000008001130                pika_platform_fopen
 .text.pika_platform_fclose
                0x0000000008001194       0x8c ./Application/User/Core/main.o
                0x0000000008001194                pika_platform_fclose
 .text.pika_platform_fwrite
                0x0000000008001220       0xa0 ./Application/User/Core/main.o
                0x0000000008001220                pika_platform_fwrite
 .text.pika_platform_reboot
                0x00000000080012c0        0x4 ./Application/User/Core/main.o
                0x00000000080012c0                pika_platform_reboot
 .text.SystemClock_Config
                0x00000000080012c4       0xa0 ./Application/User/Core/main.o
                0x00000000080012c4                SystemClock_Config
 *fill*         0x0000000008001364        0x4 
 .text.startup.main
                0x0000000008001368      0x114 ./Application/User/Core/main.o
                0x0000000008001368                main
 .text.HAL_TIM_PeriodElapsedCallback
                0x000000000800147c       0x14 ./Application/User/Core/main.o
                0x000000000800147c                HAL_TIM_PeriodElapsedCallback
 .text.Error_Handler
                0x0000000008001490        0x4 ./Application/User/Core/main.o
                0x0000000008001490                Error_Handler
 .text.HAL_MspInit
                0x0000000008001494       0x40 ./Application/User/Core/stm32f4xx_hal_msp.o
                0x0000000008001494                HAL_MspInit
 .text.HAL_ADC_MspInit
                0x00000000080014d4       0x30 ./Application/User/Core/stm32f4xx_hal_msp.o
                0x00000000080014d4                HAL_ADC_MspInit
 .text.HAL_UART_MspInit
                0x0000000008001504       0x9c ./Application/User/Core/stm32f4xx_hal_msp.o
                0x0000000008001504                HAL_UART_MspInit
 .text.HAL_UART_MspDeInit
                0x00000000080015a0       0x3c ./Application/User/Core/stm32f4xx_hal_msp.o
                0x00000000080015a0                HAL_UART_MspDeInit
 .text.HAL_InitTick
                0x00000000080015dc       0xa8 ./Application/User/Core/stm32f4xx_hal_timebase_tim.o
                0x00000000080015dc                HAL_InitTick
 .text.NMI_Handler
                0x0000000008001684        0x4 ./Application/User/Core/stm32f4xx_it.o
                0x0000000008001684                NMI_Handler
 .text.HardFault_Handler
                0x0000000008001688        0x4 ./Application/User/Core/stm32f4xx_it.o
                0x0000000008001688                HardFault_Handler
 .text.MemManage_Handler
                0x000000000800168c        0x4 ./Application/User/Core/stm32f4xx_it.o
                0x000000000800168c                MemManage_Handler
 .text.BusFault_Handler
                0x0000000008001690        0x4 ./Application/User/Core/stm32f4xx_it.o
                0x0000000008001690                BusFault_Handler
 .text.UsageFault_Handler
                0x0000000008001694        0x4 ./Application/User/Core/stm32f4xx_it.o
                0x0000000008001694                UsageFault_Handler
 .text.DebugMon_Handler
                0x0000000008001698        0x4 ./Application/User/Core/stm32f4xx_it.o
                0x0000000008001698                DebugMon_Handler
 .text.TIM3_IRQHandler
                0x000000000800169c        0xc ./Application/User/Core/stm32f4xx_it.o
                0x000000000800169c                TIM3_IRQHandler
 .text.OTG_FS_IRQHandler
                0x00000000080016a8        0xc ./Application/User/Core/stm32f4xx_it.o
                0x00000000080016a8                OTG_FS_IRQHandler
 .text._getpid  0x00000000080016b4        0x4 ./Application/User/Core/syscalls.o
                0x00000000080016b4                _getpid
 .text._kill    0x00000000080016b8       0x10 ./Application/User/Core/syscalls.o
                0x00000000080016b8                _kill
 .text._exit    0x00000000080016c8        0xc ./Application/User/Core/syscalls.o
                0x00000000080016c8                _exit
 .text._read    0x00000000080016d4       0x1c ./Application/User/Core/syscalls.o
                0x00000000080016d4                _read
 .text._write   0x00000000080016f0       0x1c ./Application/User/Core/syscalls.o
                0x00000000080016f0                _write
 .text._close   0x000000000800170c        0x8 ./Application/User/Core/syscalls.o
                0x000000000800170c                _close
 .text._fstat   0x0000000008001714        0xc ./Application/User/Core/syscalls.o
                0x0000000008001714                _fstat
 .text._isatty  0x0000000008001720        0x4 ./Application/User/Core/syscalls.o
                0x0000000008001720                _isatty
 .text._lseek   0x0000000008001724        0x4 ./Application/User/Core/syscalls.o
                0x0000000008001724                _lseek
 .text._sbrk    0x0000000008001728       0x44 ./Application/User/Core/sysmem.o
                0x0000000008001728                _sbrk
 .text.Reset_Handler
                0x000000000800176c       0x50 ./Application/User/Startup/startup_stm32f411ceux.o
                0x000000000800176c                Reset_Handler
 .text.Default_Handler
                0x00000000080017bc        0x2 ./Application/User/Startup/startup_stm32f411ceux.o
                0x00000000080017bc                DMA2_Stream5_IRQHandler
                0x00000000080017bc                EXTI1_IRQHandler
                0x00000000080017bc                DMA2_Stream7_IRQHandler
                0x00000000080017bc                OTG_FS_WKUP_IRQHandler
                0x00000000080017bc                SPI2_IRQHandler
                0x00000000080017bc                EXTI9_5_IRQHandler
                0x00000000080017bc                SPI1_IRQHandler
                0x00000000080017bc                PVD_IRQHandler
                0x00000000080017bc                TIM5_IRQHandler
                0x00000000080017bc                ADC_IRQHandler
                0x00000000080017bc                DMA1_Stream6_IRQHandler
                0x00000000080017bc                DMA1_Stream1_IRQHandler
                0x00000000080017bc                WWDG_IRQHandler
                0x00000000080017bc                DMA2_Stream0_IRQHandler
                0x00000000080017bc                I2C3_EV_IRQHandler
                0x00000000080017bc                SPI4_IRQHandler
                0x00000000080017bc                DMA1_Stream2_IRQHandler
                0x00000000080017bc                RCC_IRQHandler
                0x00000000080017bc                I2C1_ER_IRQHandler
                0x00000000080017bc                DMA2_Stream3_IRQHandler
                0x00000000080017bc                TIM1_UP_TIM10_IRQHandler
                0x00000000080017bc                DMA2_Stream4_IRQHandler
                0x00000000080017bc                I2C2_EV_IRQHandler
                0x00000000080017bc                DMA1_Stream0_IRQHandler
                0x00000000080017bc                DMA1_Stream7_IRQHandler
                0x00000000080017bc                DMA1_Stream4_IRQHandler
                0x00000000080017bc                FLASH_IRQHandler
                0x00000000080017bc                SDIO_IRQHandler
                0x00000000080017bc                EXTI15_10_IRQHandler
                0x00000000080017bc                RTC_WKUP_IRQHandler
                0x00000000080017bc                TIM2_IRQHandler
                0x00000000080017bc                TAMP_STAMP_IRQHandler
                0x00000000080017bc                DMA2_Stream6_IRQHandler
                0x00000000080017bc                Default_Handler
                0x00000000080017bc                EXTI2_IRQHandler
                0x00000000080017bc                DMA1_Stream5_IRQHandler
                0x00000000080017bc                TIM4_IRQHandler
                0x00000000080017bc                TIM1_TRG_COM_TIM11_IRQHandler
                0x00000000080017bc                I2C3_ER_IRQHandler
                0x00000000080017bc                TIM1_BRK_TIM9_IRQHandler
                0x00000000080017bc                EXTI3_IRQHandler
                0x00000000080017bc                I2C2_ER_IRQHandler
                0x00000000080017bc                DMA2_Stream2_IRQHandler
                0x00000000080017bc                DMA2_Stream1_IRQHandler
                0x00000000080017bc                FPU_IRQHandler
                0x00000000080017bc                I2C1_EV_IRQHandler
                0x00000000080017bc                TIM1_CC_IRQHandler
                0x00000000080017bc                SPI3_IRQHandler
                0x00000000080017bc                DMA1_Stream3_IRQHandler
                0x00000000080017bc                SPI5_IRQHandler
                0x00000000080017bc                EXTI0_IRQHandler
                0x00000000080017bc                RTC_Alarm_IRQHandler
                0x00000000080017bc                EXTI4_IRQHandler
 *fill*         0x00000000080017be        0x2 
 .text.MX_USB_DEVICE_Init
                0x00000000080017c0       0x74 ./Application/User/USB_DEVICE/App/usb_device.o
                0x00000000080017c0                MX_USB_DEVICE_Init
 .text.CDC_DeInit_FS
                0x0000000008001834        0x4 ./Application/User/USB_DEVICE/App/usbd_cdc_if.o
 .text.CDC_Control_FS
                0x0000000008001838        0x4 ./Application/User/USB_DEVICE/App/usbd_cdc_if.o
 .text.CDC_TransmitCplt_FS
                0x000000000800183c       0x10 ./Application/User/USB_DEVICE/App/usbd_cdc_if.o
 .text.CDC_Receive_FS
                0x000000000800184c       0x64 ./Application/User/USB_DEVICE/App/usbd_cdc_if.o
 .text.CDC_Init_FS
                0x00000000080018b0       0x28 ./Application/User/USB_DEVICE/App/usbd_cdc_if.o
 .text.CDC_Transmit_FS
                0x00000000080018d8       0x48 ./Application/User/USB_DEVICE/App/usbd_cdc_if.o
                0x00000000080018d8                CDC_Transmit_FS
 .text.USBD_FS_DeviceDescriptor
                0x0000000008001920        0xc ./Application/User/USB_DEVICE/App/usbd_desc.o
                0x0000000008001920                USBD_FS_DeviceDescriptor
 .text.USBD_FS_LangIDStrDescriptor
                0x000000000800192c        0xc ./Application/User/USB_DEVICE/App/usbd_desc.o
                0x000000000800192c                USBD_FS_LangIDStrDescriptor
 .text.USBD_FS_ManufacturerStrDescriptor
                0x0000000008001938       0x1c ./Application/User/USB_DEVICE/App/usbd_desc.o
                0x0000000008001938                USBD_FS_ManufacturerStrDescriptor
 .text.USBD_FS_ProductStrDescriptor
                0x0000000008001954       0x1c ./Application/User/USB_DEVICE/App/usbd_desc.o
                0x0000000008001954                USBD_FS_ProductStrDescriptor
 .text.USBD_FS_ConfigStrDescriptor
                0x0000000008001970       0x1c ./Application/User/USB_DEVICE/App/usbd_desc.o
                0x0000000008001970                USBD_FS_ConfigStrDescriptor
 .text.USBD_FS_InterfaceStrDescriptor
                0x000000000800198c       0x1c ./Application/User/USB_DEVICE/App/usbd_desc.o
                0x000000000800198c                USBD_FS_InterfaceStrDescriptor
 .text.USBD_FS_SerialStrDescriptor
                0x00000000080019a8      0x120 ./Application/User/USB_DEVICE/App/usbd_desc.o
                0x00000000080019a8                USBD_FS_SerialStrDescriptor
 .text.HAL_PCD_MspInit
                0x0000000008001ac8       0x84 ./Application/User/USB_DEVICE/Target/usbd_conf.o
                0x0000000008001ac8                HAL_PCD_MspInit
 .text.HAL_PCD_SetupStageCallback
                0x0000000008001b4c        0xc ./Application/User/USB_DEVICE/Target/usbd_conf.o
                0x0000000008001b4c                HAL_PCD_SetupStageCallback
 .text.HAL_PCD_DataOutStageCallback
                0x0000000008001b58       0x14 ./Application/User/USB_DEVICE/Target/usbd_conf.o
                0x0000000008001b58                HAL_PCD_DataOutStageCallback
 .text.HAL_PCD_DataInStageCallback
                0x0000000008001b6c       0x14 ./Application/User/USB_DEVICE/Target/usbd_conf.o
                0x0000000008001b6c                HAL_PCD_DataInStageCallback
 .text.HAL_PCD_SOFCallback
                0x0000000008001b80        0x8 ./Application/User/USB_DEVICE/Target/usbd_conf.o
                0x0000000008001b80                HAL_PCD_SOFCallback
 .text.HAL_PCD_ResetCallback
                0x0000000008001b88       0x24 ./Application/User/USB_DEVICE/Target/usbd_conf.o
                0x0000000008001b88                HAL_PCD_ResetCallback
 .text.HAL_PCD_SuspendCallback
                0x0000000008001bac       0x30 ./Application/User/USB_DEVICE/Target/usbd_conf.o
                0x0000000008001bac                HAL_PCD_SuspendCallback
 .text.HAL_PCD_ResumeCallback
                0x0000000008001bdc        0x8 ./Application/User/USB_DEVICE/Target/usbd_conf.o
                0x0000000008001bdc                HAL_PCD_ResumeCallback
 .text.HAL_PCD_ISOOUTIncompleteCallback
                0x0000000008001be4        0x8 ./Application/User/USB_DEVICE/Target/usbd_conf.o
                0x0000000008001be4                HAL_PCD_ISOOUTIncompleteCallback
 .text.HAL_PCD_ISOINIncompleteCallback
                0x0000000008001bec        0x8 ./Application/User/USB_DEVICE/Target/usbd_conf.o
                0x0000000008001bec                HAL_PCD_ISOINIncompleteCallback
 .text.HAL_PCD_ConnectCallback
                0x0000000008001bf4        0x8 ./Application/User/USB_DEVICE/Target/usbd_conf.o
                0x0000000008001bf4                HAL_PCD_ConnectCallback
 .text.HAL_PCD_DisconnectCallback
                0x0000000008001bfc        0x8 ./Application/User/USB_DEVICE/Target/usbd_conf.o
                0x0000000008001bfc                HAL_PCD_DisconnectCallback
 *fill*         0x0000000008001c04        0x4 
 .text.USBD_LL_Init
                0x0000000008001c08       0x7c ./Application/User/USB_DEVICE/Target/usbd_conf.o
                0x0000000008001c08                USBD_LL_Init
 .text.USBD_LL_Start
                0x0000000008001c84       0x1c ./Application/User/USB_DEVICE/Target/usbd_conf.o
                0x0000000008001c84                USBD_LL_Start
 .text.USBD_LL_OpenEP
                0x0000000008001ca0       0x20 ./Application/User/USB_DEVICE/Target/usbd_conf.o
                0x0000000008001ca0                USBD_LL_OpenEP
 .text.USBD_LL_CloseEP
                0x0000000008001cc0       0x1c ./Application/User/USB_DEVICE/Target/usbd_conf.o
                0x0000000008001cc0                USBD_LL_CloseEP
 .text.USBD_LL_StallEP
                0x0000000008001cdc       0x1c ./Application/User/USB_DEVICE/Target/usbd_conf.o
                0x0000000008001cdc                USBD_LL_StallEP
 .text.USBD_LL_ClearStallEP
                0x0000000008001cf8       0x1c ./Application/User/USB_DEVICE/Target/usbd_conf.o
                0x0000000008001cf8                USBD_LL_ClearStallEP
 .text.USBD_LL_IsStallEP
                0x0000000008001d14       0x28 ./Application/User/USB_DEVICE/Target/usbd_conf.o
                0x0000000008001d14                USBD_LL_IsStallEP
 .text.USBD_LL_SetUSBAddress
                0x0000000008001d3c       0x1c ./Application/User/USB_DEVICE/Target/usbd_conf.o
                0x0000000008001d3c                USBD_LL_SetUSBAddress
 .text.USBD_LL_Transmit
                0x0000000008001d58       0x1c ./Application/User/USB_DEVICE/Target/usbd_conf.o
                0x0000000008001d58                USBD_LL_Transmit
 .text.USBD_LL_PrepareReceive
                0x0000000008001d74       0x1c ./Application/User/USB_DEVICE/Target/usbd_conf.o
                0x0000000008001d74                USBD_LL_PrepareReceive
 .text.USBD_LL_GetRxDataSize
                0x0000000008001d90        0x8 ./Application/User/USB_DEVICE/Target/usbd_conf.o
                0x0000000008001d90                USBD_LL_GetRxDataSize
 .text.USBD_static_malloc
                0x0000000008001d98        0x8 ./Application/User/USB_DEVICE/Target/usbd_conf.o
                0x0000000008001d98                USBD_static_malloc
 .text.USBD_static_free
                0x0000000008001da0        0x4 ./Application/User/USB_DEVICE/Target/usbd_conf.o
                0x0000000008001da0                USBD_static_free
 .text.SystemInit
                0x0000000008001da4       0x14 ./Drivers/CMSIS/system_stm32f4xx.o
                0x0000000008001da4                SystemInit
 .text.HAL_Init
                0x0000000008001db8       0x34 ./Drivers/STM32F4xx_HAL_Driver/stm32f4xx_hal.o
                0x0000000008001db8                HAL_Init
 .text.HAL_IncTick
                0x0000000008001dec       0x18 ./Drivers/STM32F4xx_HAL_Driver/stm32f4xx_hal.o
                0x0000000008001dec                HAL_IncTick
 .text.HAL_GetTick
                0x0000000008001e04        0xc ./Drivers/STM32F4xx_HAL_Driver/stm32f4xx_hal.o
                0x0000000008001e04                HAL_GetTick
 .text.HAL_Delay
                0x0000000008001e10       0x24 ./Drivers/STM32F4xx_HAL_Driver/stm32f4xx_hal.o
                0x0000000008001e10                HAL_Delay
 .text.HAL_ADC_Init
                0x0000000008001e34      0x158 ./Drivers/STM32F4xx_HAL_Driver/stm32f4xx_hal_adc.o
                0x0000000008001e34                HAL_ADC_Init
 .text.HAL_ADC_Start
                0x0000000008001f8c      0x108 ./Drivers/STM32F4xx_HAL_Driver/stm32f4xx_hal_adc.o
                0x0000000008001f8c                HAL_ADC_Start
 .text.HAL_ADC_Stop
                0x0000000008002094       0x38 ./Drivers/STM32F4xx_HAL_Driver/stm32f4xx_hal_adc.o
                0x0000000008002094                HAL_ADC_Stop
 .text.HAL_ADC_PollForConversion
                0x00000000080020cc       0xb4 ./Drivers/STM32F4xx_HAL_Driver/stm32f4xx_hal_adc.o
                0x00000000080020cc                HAL_ADC_PollForConversion
 .text.HAL_ADC_GetValue
                0x0000000008002180        0x8 ./Drivers/STM32F4xx_HAL_Driver/stm32f4xx_hal_adc.o
                0x0000000008002180                HAL_ADC_GetValue
 .text.HAL_ADC_ConfigChannel
                0x0000000008002188      0x178 ./Drivers/STM32F4xx_HAL_Driver/stm32f4xx_hal_adc.o
                0x0000000008002188                HAL_ADC_ConfigChannel
 .text.HAL_NVIC_SetPriorityGrouping
                0x0000000008002300       0x24 ./Drivers/STM32F4xx_HAL_Driver/stm32f4xx_hal_cortex.o
                0x0000000008002300                HAL_NVIC_SetPriorityGrouping
 .text.HAL_NVIC_SetPriority
                0x0000000008002324       0x7c ./Drivers/STM32F4xx_HAL_Driver/stm32f4xx_hal_cortex.o
                0x0000000008002324                HAL_NVIC_SetPriority
 .text.HAL_NVIC_EnableIRQ
                0x00000000080023a0       0x1c ./Drivers/STM32F4xx_HAL_Driver/stm32f4xx_hal_cortex.o
                0x00000000080023a0                HAL_NVIC_EnableIRQ
 .text.HAL_NVIC_SystemReset
                0x00000000080023bc       0x24 ./Drivers/STM32F4xx_HAL_Driver/stm32f4xx_hal_cortex.o
                0x00000000080023bc                HAL_NVIC_SystemReset
 .text.HAL_DMA_Start_IT
                0x00000000080023e0       0x80 ./Drivers/STM32F4xx_HAL_Driver/stm32f4xx_hal_dma.o
                0x00000000080023e0                HAL_DMA_Start_IT
 .text.HAL_DMA_Abort
                0x0000000008002460       0x94 ./Drivers/STM32F4xx_HAL_Driver/stm32f4xx_hal_dma.o
                0x0000000008002460                HAL_DMA_Abort
 .text.HAL_DMA_Abort_IT
                0x00000000080024f4       0x24 ./Drivers/STM32F4xx_HAL_Driver/stm32f4xx_hal_dma.o
                0x00000000080024f4                HAL_DMA_Abort_IT
 .text.FLASH_SetErrorCode
                0x0000000008002518       0x90 ./Drivers/STM32F4xx_HAL_Driver/stm32f4xx_hal_flash.o
 .text.HAL_FLASH_Program
                0x00000000080025a8      0x144 ./Drivers/STM32F4xx_HAL_Driver/stm32f4xx_hal_flash.o
                0x00000000080025a8                HAL_FLASH_Program
 .text.HAL_FLASH_Unlock
                0x00000000080026ec       0x28 ./Drivers/STM32F4xx_HAL_Driver/stm32f4xx_hal_flash.o
                0x00000000080026ec                HAL_FLASH_Unlock
 .text.FLASH_WaitForLastOperation
                0x0000000008002714       0x5c ./Drivers/STM32F4xx_HAL_Driver/stm32f4xx_hal_flash.o
                0x0000000008002714                FLASH_WaitForLastOperation
 .text.FLASH_FlushCaches
                0x0000000008002770       0x58 ./Drivers/STM32F4xx_HAL_Driver/stm32f4xx_hal_flash_ex.o
                0x0000000008002770                FLASH_FlushCaches
 .text.HAL_FLASHEx_Erase
                0x00000000080027c8       0xf0 ./Drivers/STM32F4xx_HAL_Driver/stm32f4xx_hal_flash_ex.o
                0x00000000080027c8                HAL_FLASHEx_Erase
 .text.HAL_GPIO_Init
                0x00000000080028b8      0x1e8 ./Drivers/STM32F4xx_HAL_Driver/stm32f4xx_hal_gpio.o
                0x00000000080028b8                HAL_GPIO_Init
 .text.HAL_GPIO_DeInit
                0x0000000008002aa0      0x118 ./Drivers/STM32F4xx_HAL_Driver/stm32f4xx_hal_gpio.o
                0x0000000008002aa0                HAL_GPIO_DeInit
 .text.HAL_GPIO_ReadPin
                0x0000000008002bb8        0xc ./Drivers/STM32F4xx_HAL_Driver/stm32f4xx_hal_gpio.o
                0x0000000008002bb8                HAL_GPIO_ReadPin
 .text.HAL_GPIO_WritePin
                0x0000000008002bc4        0x8 ./Drivers/STM32F4xx_HAL_Driver/stm32f4xx_hal_gpio.o
                0x0000000008002bc4                HAL_GPIO_WritePin
 .text.HAL_PCD_Init
                0x0000000008002bcc      0x11c ./Drivers/STM32F4xx_HAL_Driver/stm32f4xx_hal_pcd.o
                0x0000000008002bcc                HAL_PCD_Init
 .text.HAL_PCD_Start
                0x0000000008002ce8       0x40 ./Drivers/STM32F4xx_HAL_Driver/stm32f4xx_hal_pcd.o
                0x0000000008002ce8                HAL_PCD_Start
 .text.HAL_PCD_IRQHandler
                0x0000000008002d28      0xb14 ./Drivers/STM32F4xx_HAL_Driver/stm32f4xx_hal_pcd.o
                0x0000000008002d28                HAL_PCD_IRQHandler
 .text.HAL_PCD_SetAddress
                0x000000000800383c       0x28 ./Drivers/STM32F4xx_HAL_Driver/stm32f4xx_hal_pcd.o
                0x000000000800383c                HAL_PCD_SetAddress
 .text.HAL_PCD_EP_Open
                0x0000000008003864       0x7c ./Drivers/STM32F4xx_HAL_Driver/stm32f4xx_hal_pcd.o
                0x0000000008003864                HAL_PCD_EP_Open
 .text.HAL_PCD_EP_Close
                0x00000000080038e0       0x5c ./Drivers/STM32F4xx_HAL_Driver/stm32f4xx_hal_pcd.o
                0x00000000080038e0                HAL_PCD_EP_Close
 .text.HAL_PCD_EP_Receive
                0x000000000800393c       0x50 ./Drivers/STM32F4xx_HAL_Driver/stm32f4xx_hal_pcd.o
                0x000000000800393c                HAL_PCD_EP_Receive
 .text.HAL_PCD_EP_GetRxCount
                0x000000000800398c       0x14 ./Drivers/STM32F4xx_HAL_Driver/stm32f4xx_hal_pcd.o
                0x000000000800398c                HAL_PCD_EP_GetRxCount
 .text.HAL_PCD_EP_Transmit
                0x00000000080039a0       0x50 ./Drivers/STM32F4xx_HAL_Driver/stm32f4xx_hal_pcd.o
                0x00000000080039a0                HAL_PCD_EP_Transmit
 .text.HAL_PCD_EP_SetStall
                0x00000000080039f0       0x88 ./Drivers/STM32F4xx_HAL_Driver/stm32f4xx_hal_pcd.o
                0x00000000080039f0                HAL_PCD_EP_SetStall
 .text.HAL_PCD_EP_ClrStall
                0x0000000008003a78       0x70 ./Drivers/STM32F4xx_HAL_Driver/stm32f4xx_hal_pcd.o
                0x0000000008003a78                HAL_PCD_EP_ClrStall
 .text.HAL_PCDEx_SetTxFiFo
                0x0000000008003ae8       0x4c ./Drivers/STM32F4xx_HAL_Driver/stm32f4xx_hal_pcd_ex.o
                0x0000000008003ae8                HAL_PCDEx_SetTxFiFo
 .text.HAL_PCDEx_SetRxFiFo
                0x0000000008003b34        0x8 ./Drivers/STM32F4xx_HAL_Driver/stm32f4xx_hal_pcd_ex.o
                0x0000000008003b34                HAL_PCDEx_SetRxFiFo
 .text.HAL_PCDEx_LPM_Callback
                0x0000000008003b3c        0x4 ./Drivers/STM32F4xx_HAL_Driver/stm32f4xx_hal_pcd_ex.o
                0x0000000008003b3c                HAL_PCDEx_LPM_Callback
 .text.HAL_RCC_OscConfig
                0x0000000008003b40      0x3c8 ./Drivers/STM32F4xx_HAL_Driver/stm32f4xx_hal_rcc.o
                0x0000000008003b40                HAL_RCC_OscConfig
 .text.HAL_RCC_GetSysClockFreq
                0x0000000008003f08       0x68 ./Drivers/STM32F4xx_HAL_Driver/stm32f4xx_hal_rcc.o
                0x0000000008003f08                HAL_RCC_GetSysClockFreq
 .text.HAL_RCC_ClockConfig
                0x0000000008003f70      0x13c ./Drivers/STM32F4xx_HAL_Driver/stm32f4xx_hal_rcc.o
                0x0000000008003f70                HAL_RCC_ClockConfig
 .text.HAL_RCC_GetHCLKFreq
                0x00000000080040ac        0xc ./Drivers/STM32F4xx_HAL_Driver/stm32f4xx_hal_rcc.o
                0x00000000080040ac                HAL_RCC_GetHCLKFreq
 .text.HAL_RCC_GetPCLK1Freq
                0x00000000080040b8       0x20 ./Drivers/STM32F4xx_HAL_Driver/stm32f4xx_hal_rcc.o
                0x00000000080040b8                HAL_RCC_GetPCLK1Freq
 .text.HAL_RCC_GetPCLK2Freq
                0x00000000080040d8       0x20 ./Drivers/STM32F4xx_HAL_Driver/stm32f4xx_hal_rcc.o
                0x00000000080040d8                HAL_RCC_GetPCLK2Freq
 .text.HAL_RCC_GetClockConfig
                0x00000000080040f8       0x44 ./Drivers/STM32F4xx_HAL_Driver/stm32f4xx_hal_rcc.o
                0x00000000080040f8                HAL_RCC_GetClockConfig
 .text.HAL_TIM_Base_MspInit
                0x000000000800413c        0x4 ./Drivers/STM32F4xx_HAL_Driver/stm32f4xx_hal_tim.o
                0x000000000800413c                HAL_TIM_Base_MspInit
 .text.HAL_TIM_Base_Init
                0x0000000008004140       0xfc ./Drivers/STM32F4xx_HAL_Driver/stm32f4xx_hal_tim.o
                0x0000000008004140                HAL_TIM_Base_Init
 .text.HAL_TIM_Base_Start_IT
                0x000000000800423c       0x68 ./Drivers/STM32F4xx_HAL_Driver/stm32f4xx_hal_tim.o
                0x000000000800423c                HAL_TIM_Base_Start_IT
 .text.HAL_TIM_PWM_MspInit
                0x00000000080042a4        0x4 ./Drivers/STM32F4xx_HAL_Driver/stm32f4xx_hal_tim.o
                0x00000000080042a4                HAL_TIM_PWM_MspInit
 .text.HAL_TIM_PWM_Init
                0x00000000080042a8       0xfc ./Drivers/STM32F4xx_HAL_Driver/stm32f4xx_hal_tim.o
                0x00000000080042a8                HAL_TIM_PWM_Init
 .text.HAL_TIM_PWM_Start
                0x00000000080043a4       0xc4 ./Drivers/STM32F4xx_HAL_Driver/stm32f4xx_hal_tim.o
                0x00000000080043a4                HAL_TIM_PWM_Start
 .text.HAL_TIM_PWM_Stop
                0x0000000008004468       0x98 ./Drivers/STM32F4xx_HAL_Driver/stm32f4xx_hal_tim.o
                0x0000000008004468                HAL_TIM_PWM_Stop
 .text.HAL_TIM_PWM_ConfigChannel
                0x0000000008004500      0x200 ./Drivers/STM32F4xx_HAL_Driver/stm32f4xx_hal_tim.o
                0x0000000008004500                HAL_TIM_PWM_ConfigChannel
 .text.HAL_TIM_ConfigClockSource
                0x0000000008004700      0x160 ./Drivers/STM32F4xx_HAL_Driver/stm32f4xx_hal_tim.o
                0x0000000008004700                HAL_TIM_ConfigClockSource
 .text.HAL_TIM_OC_DelayElapsedCallback
                0x0000000008004860        0x4 ./Drivers/STM32F4xx_HAL_Driver/stm32f4xx_hal_tim.o
                0x0000000008004860                HAL_TIM_OC_DelayElapsedCallback
 .text.HAL_TIM_IC_CaptureCallback
                0x0000000008004864        0x4 ./Drivers/STM32F4xx_HAL_Driver/stm32f4xx_hal_tim.o
                0x0000000008004864                HAL_TIM_IC_CaptureCallback
 .text.HAL_TIM_PWM_PulseFinishedCallback
                0x0000000008004868        0x4 ./Drivers/STM32F4xx_HAL_Driver/stm32f4xx_hal_tim.o
                0x0000000008004868                HAL_TIM_PWM_PulseFinishedCallback
 .text.HAL_TIM_TriggerCallback
                0x000000000800486c        0x4 ./Drivers/STM32F4xx_HAL_Driver/stm32f4xx_hal_tim.o
                0x000000000800486c                HAL_TIM_TriggerCallback
 .text.HAL_TIM_IRQHandler
                0x0000000008004870      0x154 ./Drivers/STM32F4xx_HAL_Driver/stm32f4xx_hal_tim.o
                0x0000000008004870                HAL_TIM_IRQHandler
 .text.HAL_TIMEx_PWMN_Start
                0x00000000080049c4       0xbc ./Drivers/STM32F4xx_HAL_Driver/stm32f4xx_hal_tim_ex.o
                0x00000000080049c4                HAL_TIMEx_PWMN_Start
 .text.HAL_TIMEx_PWMN_Stop
                0x0000000008004a80       0x8c ./Drivers/STM32F4xx_HAL_Driver/stm32f4xx_hal_tim_ex.o
                0x0000000008004a80                HAL_TIMEx_PWMN_Stop
 .text.HAL_TIMEx_MasterConfigSynchronization
                0x0000000008004b0c       0x70 ./Drivers/STM32F4xx_HAL_Driver/stm32f4xx_hal_tim_ex.o
                0x0000000008004b0c                HAL_TIMEx_MasterConfigSynchronization
 .text.HAL_TIMEx_CommutCallback
                0x0000000008004b7c        0x4 ./Drivers/STM32F4xx_HAL_Driver/stm32f4xx_hal_tim_ex.o
                0x0000000008004b7c                HAL_TIMEx_CommutCallback
 .text.HAL_TIMEx_BreakCallback
                0x0000000008004b80        0x4 ./Drivers/STM32F4xx_HAL_Driver/stm32f4xx_hal_tim_ex.o
                0x0000000008004b80                HAL_TIMEx_BreakCallback
 .text.HAL_UART_Init
                0x0000000008004b84      0x134 ./Drivers/STM32F4xx_HAL_Driver/stm32f4xx_hal_uart.o
                0x0000000008004b84                HAL_UART_Init
 .text.HAL_UART_DeInit
                0x0000000008004cb8       0x34 ./Drivers/STM32F4xx_HAL_Driver/stm32f4xx_hal_uart.o
                0x0000000008004cb8                HAL_UART_DeInit
 .text.HAL_UART_Transmit
                0x0000000008004cec      0x15c ./Drivers/STM32F4xx_HAL_Driver/stm32f4xx_hal_uart.o
                0x0000000008004cec                HAL_UART_Transmit
 .text.HAL_UART_Receive_IT
                0x0000000008004e48       0x58 ./Drivers/STM32F4xx_HAL_Driver/stm32f4xx_hal_uart.o
                0x0000000008004e48                HAL_UART_Receive_IT
 .text.HAL_UART_Transmit_DMA
                0x0000000008004ea0       0x88 ./Drivers/STM32F4xx_HAL_Driver/stm32f4xx_hal_uart.o
                0x0000000008004ea0                HAL_UART_Transmit_DMA
 .text.HAL_UART_TxCpltCallback
                0x0000000008004f28        0x4 ./Drivers/STM32F4xx_HAL_Driver/stm32f4xx_hal_uart.o
                0x0000000008004f28                HAL_UART_TxCpltCallback
 .text.UART_DMATransmitCplt
                0x0000000008004f2c       0x4c ./Drivers/STM32F4xx_HAL_Driver/stm32f4xx_hal_uart.o
 .text.HAL_UART_TxHalfCpltCallback
                0x0000000008004f78        0x4 ./Drivers/STM32F4xx_HAL_Driver/stm32f4xx_hal_uart.o
                0x0000000008004f78                HAL_UART_TxHalfCpltCallback
 .text.UART_DMATxHalfCplt
                0x0000000008004f7c        0xc ./Drivers/STM32F4xx_HAL_Driver/stm32f4xx_hal_uart.o
 .text.HAL_UART_ErrorCallback
                0x0000000008004f88        0x4 ./Drivers/STM32F4xx_HAL_Driver/stm32f4xx_hal_uart.o
                0x0000000008004f88                HAL_UART_ErrorCallback
 .text.UART_DMAError
                0x0000000008004f8c       0xbc ./Drivers/STM32F4xx_HAL_Driver/stm32f4xx_hal_uart.o
 .text.UART_DMAAbortOnError
                0x0000000008005048       0x10 ./Drivers/STM32F4xx_HAL_Driver/stm32f4xx_hal_uart.o
 .text.HAL_UARTEx_RxEventCallback
                0x0000000008005058        0x4 ./Drivers/STM32F4xx_HAL_Driver/stm32f4xx_hal_uart.o
                0x0000000008005058                HAL_UARTEx_RxEventCallback
 .text.UART_Receive_IT.part.0.isra.0
                0x000000000800505c       0xcc ./Drivers/STM32F4xx_HAL_Driver/stm32f4xx_hal_uart.o
 .text.HAL_UART_IRQHandler
                0x0000000008005128      0x318 ./Drivers/STM32F4xx_HAL_Driver/stm32f4xx_hal_uart.o
                0x0000000008005128                HAL_UART_IRQHandler
 .text.UART_Start_Receive_IT
                0x0000000008005440       0x3c ./Drivers/STM32F4xx_HAL_Driver/stm32f4xx_hal_uart.o
                0x0000000008005440                UART_Start_Receive_IT
 .text.USB_CoreInit
                0x000000000800547c      0x104 ./Drivers/STM32F4xx_HAL_Driver/stm32f4xx_ll_usb.o
                0x000000000800547c                USB_CoreInit
 .text.USB_SetTurnaroundTime
                0x0000000008005580       0xf4 ./Drivers/STM32F4xx_HAL_Driver/stm32f4xx_ll_usb.o
                0x0000000008005580                USB_SetTurnaroundTime
 .text.USB_EnableGlobalInt
                0x0000000008005674       0x10 ./Drivers/STM32F4xx_HAL_Driver/stm32f4xx_ll_usb.o
                0x0000000008005674                USB_EnableGlobalInt
 .text.USB_DisableGlobalInt
                0x0000000008005684       0x10 ./Drivers/STM32F4xx_HAL_Driver/stm32f4xx_ll_usb.o
                0x0000000008005684                USB_DisableGlobalInt
 .text.USB_SetCurrentMode
                0x0000000008005694       0x70 ./Drivers/STM32F4xx_HAL_Driver/stm32f4xx_ll_usb.o
                0x0000000008005694                USB_SetCurrentMode
 .text.USB_DevInit
                0x0000000008005704      0x234 ./Drivers/STM32F4xx_HAL_Driver/stm32f4xx_ll_usb.o
                0x0000000008005704                USB_DevInit
 .text.USB_FlushTxFifo
                0x0000000008005938       0x54 ./Drivers/STM32F4xx_HAL_Driver/stm32f4xx_ll_usb.o
                0x0000000008005938                USB_FlushTxFifo
 .text.USB_GetDevSpeed
                0x000000000800598c       0x18 ./Drivers/STM32F4xx_HAL_Driver/stm32f4xx_ll_usb.o
                0x000000000800598c                USB_GetDevSpeed
 .text.USB_ActivateEndpoint
                0x00000000080059a4       0x98 ./Drivers/STM32F4xx_HAL_Driver/stm32f4xx_ll_usb.o
                0x00000000080059a4                USB_ActivateEndpoint
 .text.USB_DeactivateEndpoint
                0x0000000008005a3c       0xc4 ./Drivers/STM32F4xx_HAL_Driver/stm32f4xx_ll_usb.o
                0x0000000008005a3c                USB_DeactivateEndpoint
 .text.USB_EPStartXfer
                0x0000000008005b00      0x218 ./Drivers/STM32F4xx_HAL_Driver/stm32f4xx_ll_usb.o
                0x0000000008005b00                USB_EPStartXfer
 .text.USB_EP0StartXfer
                0x0000000008005d18      0x158 ./Drivers/STM32F4xx_HAL_Driver/stm32f4xx_ll_usb.o
                0x0000000008005d18                USB_EP0StartXfer
 .text.USB_EPStopXfer
                0x0000000008005e70       0x88 ./Drivers/STM32F4xx_HAL_Driver/stm32f4xx_ll_usb.o
                0x0000000008005e70                USB_EPStopXfer
 .text.USB_WritePacket
                0x0000000008005ef8       0x2c ./Drivers/STM32F4xx_HAL_Driver/stm32f4xx_ll_usb.o
                0x0000000008005ef8                USB_WritePacket
 .text.USB_ReadPacket
                0x0000000008005f24       0x4c ./Drivers/STM32F4xx_HAL_Driver/stm32f4xx_ll_usb.o
                0x0000000008005f24                USB_ReadPacket
 .text.USB_EPSetStall
                0x0000000008005f70       0x5c ./Drivers/STM32F4xx_HAL_Driver/stm32f4xx_ll_usb.o
                0x0000000008005f70                USB_EPSetStall
 .text.USB_EPClearStall
                0x0000000008005fcc       0x58 ./Drivers/STM32F4xx_HAL_Driver/stm32f4xx_ll_usb.o
                0x0000000008005fcc                USB_EPClearStall
 .text.USB_SetDevAddress
                0x0000000008006024       0x20 ./Drivers/STM32F4xx_HAL_Driver/stm32f4xx_ll_usb.o
                0x0000000008006024                USB_SetDevAddress
 .text.USB_DevConnect
                0x0000000008006044       0x20 ./Drivers/STM32F4xx_HAL_Driver/stm32f4xx_ll_usb.o
                0x0000000008006044                USB_DevConnect
 .text.USB_DevDisconnect
                0x0000000008006064       0x20 ./Drivers/STM32F4xx_HAL_Driver/stm32f4xx_ll_usb.o
                0x0000000008006064                USB_DevDisconnect
 .text.USB_ReadInterrupts
                0x0000000008006084        0x8 ./Drivers/STM32F4xx_HAL_Driver/stm32f4xx_ll_usb.o
                0x0000000008006084                USB_ReadInterrupts
 .text.USB_ReadDevAllOutEpInterrupt
                0x000000000800608c       0x10 ./Drivers/STM32F4xx_HAL_Driver/stm32f4xx_ll_usb.o
                0x000000000800608c                USB_ReadDevAllOutEpInterrupt
 .text.USB_ReadDevAllInEpInterrupt
                0x000000000800609c       0x10 ./Drivers/STM32F4xx_HAL_Driver/stm32f4xx_ll_usb.o
                0x000000000800609c                USB_ReadDevAllInEpInterrupt
 .text.USB_ReadDevOutEPInterrupt
                0x00000000080060ac       0x14 ./Drivers/STM32F4xx_HAL_Driver/stm32f4xx_ll_usb.o
                0x00000000080060ac                USB_ReadDevOutEPInterrupt
 .text.USB_ReadDevInEPInterrupt
                0x00000000080060c0       0x20 ./Drivers/STM32F4xx_HAL_Driver/stm32f4xx_ll_usb.o
                0x00000000080060c0                USB_ReadDevInEPInterrupt
 .text.USB_GetMode
                0x00000000080060e0        0x8 ./Drivers/STM32F4xx_HAL_Driver/stm32f4xx_ll_usb.o
                0x00000000080060e0                USB_GetMode
 .text.USB_ActivateSetup
                0x00000000080060e8       0x24 ./Drivers/STM32F4xx_HAL_Driver/stm32f4xx_ll_usb.o
                0x00000000080060e8                USB_ActivateSetup
 .text.USB_EP0_OutStart
                0x000000000800610c       0x58 ./Drivers/STM32F4xx_HAL_Driver/stm32f4xx_ll_usb.o
                0x000000000800610c                USB_EP0_OutStart
 .text.SysTick_Handler
                0x0000000008006164       0x1c ./Middlewares/FreeRTOS/cmsis_os2.o
                0x0000000008006164                SysTick_Handler
 .text.osKernelInitialize
                0x0000000008006180       0x24 ./Middlewares/FreeRTOS/cmsis_os2.o
                0x0000000008006180                osKernelInitialize
 .text.osKernelStart
                0x00000000080061a4       0x34 ./Middlewares/FreeRTOS/cmsis_os2.o
                0x00000000080061a4                osKernelStart
 .text.osThreadNew
                0x00000000080061d8       0x98 ./Middlewares/FreeRTOS/cmsis_os2.o
                0x00000000080061d8                osThreadNew
 .text.osDelay  0x0000000008006270       0x1c ./Middlewares/FreeRTOS/cmsis_os2.o
                0x0000000008006270                osDelay
 .text.vApplicationGetIdleTaskMemory
                0x000000000800628c       0x1c ./Middlewares/FreeRTOS/cmsis_os2.o
                0x000000000800628c                vApplicationGetIdleTaskMemory
 .text.vApplicationGetTimerTaskMemory
                0x00000000080062a8       0x20 ./Middlewares/FreeRTOS/cmsis_os2.o
                0x00000000080062a8                vApplicationGetTimerTaskMemory
 .text.pvPortMalloc
                0x00000000080062c8      0x178 ./Middlewares/FreeRTOS/heap_4.o
                0x00000000080062c8                pvPortMalloc
 .text.vPortFree
                0x0000000008006440       0xc8 ./Middlewares/FreeRTOS/heap_4.o
                0x0000000008006440                vPortFree
 .text.vListInitialise
                0x0000000008006508       0x18 ./Middlewares/FreeRTOS/list.o
                0x0000000008006508                vListInitialise
 .text.vListInitialiseItem
                0x0000000008006520        0x8 ./Middlewares/FreeRTOS/list.o
                0x0000000008006520                vListInitialiseItem
 .text.vListInsertEnd
                0x0000000008006528       0x20 ./Middlewares/FreeRTOS/list.o
                0x0000000008006528                vListInsertEnd
 .text.vListInsert
                0x0000000008006548       0x30 ./Middlewares/FreeRTOS/list.o
                0x0000000008006548                vListInsert
 .text.uxListRemove
                0x0000000008006578       0x28 ./Middlewares/FreeRTOS/list.o
                0x0000000008006578                uxListRemove
 .text.prvPortStartFirstTask
                0x00000000080065a0       0x28 ./Middlewares/FreeRTOS/port.o
 .text.vPortEnableVFP
                0x00000000080065c8       0x14 ./Middlewares/FreeRTOS/port.o
 .text.prvTaskExitError
                0x00000000080065dc       0x40 ./Middlewares/FreeRTOS/port.o
 .text.pxPortInitialiseStack
                0x000000000800661c       0x28 ./Middlewares/FreeRTOS/port.o
                0x000000000800661c                pxPortInitialiseStack
 *fill*         0x0000000008006644        0xc 
 .text.SVC_Handler
                0x0000000008006650       0x24 ./Middlewares/FreeRTOS/port.o
                0x0000000008006650                SVC_Handler
 .text.vPortEnterCritical
                0x0000000008006674       0x44 ./Middlewares/FreeRTOS/port.o
                0x0000000008006674                vPortEnterCritical
 .text.vPortExitCritical
                0x00000000080066b8       0x28 ./Middlewares/FreeRTOS/port.o
                0x00000000080066b8                vPortExitCritical
 .text.PendSV_Handler
                0x00000000080066e0       0x64 ./Middlewares/FreeRTOS/port.o
                0x00000000080066e0                PendSV_Handler
 .text.xPortSysTickHandler
                0x0000000008006744       0x2c ./Middlewares/FreeRTOS/port.o
                0x0000000008006744                xPortSysTickHandler
 .text.vPortSetupTimerInterrupt
                0x0000000008006770       0x28 ./Middlewares/FreeRTOS/port.o
                0x0000000008006770                vPortSetupTimerInterrupt
 .text.xPortStartScheduler
                0x0000000008006798      0x144 ./Middlewares/FreeRTOS/port.o
                0x0000000008006798                xPortStartScheduler
 .text.prvCopyDataToQueue
                0x00000000080068dc       0x78 ./Middlewares/FreeRTOS/queue.o
 .text.xQueueGenericCreateStatic
                0x0000000008006954       0xdc ./Middlewares/FreeRTOS/queue.o
                0x0000000008006954                xQueueGenericCreateStatic
 .text.xQueueGenericSend
                0x0000000008006a30      0x2fc ./Middlewares/FreeRTOS/queue.o
                0x0000000008006a30                xQueueGenericSend
 .text.xQueueCreateMutex
                0x0000000008006d2c       0x70 ./Middlewares/FreeRTOS/queue.o
                0x0000000008006d2c                xQueueCreateMutex
 .text.xQueueReceive
                0x0000000008006d9c      0x2fc ./Middlewares/FreeRTOS/queue.o
                0x0000000008006d9c                xQueueReceive
 .text.xQueueSemaphoreTake
                0x0000000008007098      0x314 ./Middlewares/FreeRTOS/queue.o
                0x0000000008007098                xQueueSemaphoreTake
 .text.vQueueAddToRegistry
                0x00000000080073ac       0x50 ./Middlewares/FreeRTOS/queue.o
                0x00000000080073ac                vQueueAddToRegistry
 .text.vQueueWaitForMessageRestricted
                0x00000000080073fc       0xc8 ./Middlewares/FreeRTOS/queue.o
                0x00000000080073fc                vQueueWaitForMessageRestricted
 .text.prvAddNewTaskToReadyList
                0x00000000080074c4      0x110 ./Middlewares/FreeRTOS/tasks.o
 .text.prvInitialiseNewTask.constprop.0
                0x00000000080075d4      0x128 ./Middlewares/FreeRTOS/tasks.o
 .text.prvIdleTask
                0x00000000080076fc       0xa0 ./Middlewares/FreeRTOS/tasks.o
 .text.xTaskIncrementTick.part.0
                0x000000000800779c      0x148 ./Middlewares/FreeRTOS/tasks.o
 .text.xTaskResumeAll.part.0
                0x00000000080078e4      0x134 ./Middlewares/FreeRTOS/tasks.o
 .text.xTaskCreateStatic
                0x0000000008007a18       0x74 ./Middlewares/FreeRTOS/tasks.o
                0x0000000008007a18                xTaskCreateStatic
 .text.xTaskCreate
                0x0000000008007a8c       0x64 ./Middlewares/FreeRTOS/tasks.o
                0x0000000008007a8c                xTaskCreate
 .text.vTaskDelete
                0x0000000008007af0      0x10c ./Middlewares/FreeRTOS/tasks.o
                0x0000000008007af0                vTaskDelete
 .text.vTaskDelay
                0x0000000008007bfc       0xac ./Middlewares/FreeRTOS/tasks.o
                0x0000000008007bfc                vTaskDelay
 .text.vTaskStartScheduler
                0x0000000008007ca8       0xf8 ./Middlewares/FreeRTOS/tasks.o
                0x0000000008007ca8                vTaskStartScheduler
 .text.vTaskSuspendAll
                0x0000000008007da0       0x10 ./Middlewares/FreeRTOS/tasks.o
                0x0000000008007da0                vTaskSuspendAll
 .text.xTaskResumeAll
                0x0000000008007db0       0x20 ./Middlewares/FreeRTOS/tasks.o
                0x0000000008007db0                xTaskResumeAll
 .text.xTaskGetTickCount
                0x0000000008007dd0        0xc ./Middlewares/FreeRTOS/tasks.o
                0x0000000008007dd0                xTaskGetTickCount
 .text.xTaskIncrementTick
                0x0000000008007ddc       0x20 ./Middlewares/FreeRTOS/tasks.o
                0x0000000008007ddc                xTaskIncrementTick
 .text.vTaskSwitchContext
                0x0000000008007dfc       0x98 ./Middlewares/FreeRTOS/tasks.o
                0x0000000008007dfc                vTaskSwitchContext
 .text.vTaskPlaceOnEventList
                0x0000000008007e94       0x88 ./Middlewares/FreeRTOS/tasks.o
                0x0000000008007e94                vTaskPlaceOnEventList
 .text.vTaskPlaceOnEventListRestricted
                0x0000000008007f1c       0x94 ./Middlewares/FreeRTOS/tasks.o
                0x0000000008007f1c                vTaskPlaceOnEventListRestricted
 .text.xTaskRemoveFromEventList
                0x0000000008007fb0       0x90 ./Middlewares/FreeRTOS/tasks.o
                0x0000000008007fb0                xTaskRemoveFromEventList
 .text.vTaskInternalSetTimeOutState
                0x0000000008008040       0x18 ./Middlewares/FreeRTOS/tasks.o
                0x0000000008008040                vTaskInternalSetTimeOutState
 .text.xTaskCheckForTimeOut
                0x0000000008008058       0x90 ./Middlewares/FreeRTOS/tasks.o
                0x0000000008008058                xTaskCheckForTimeOut
 .text.vTaskMissedYield
                0x00000000080080e8        0xc ./Middlewares/FreeRTOS/tasks.o
                0x00000000080080e8                vTaskMissedYield
 .text.xTaskGetSchedulerState
                0x00000000080080f4       0x20 ./Middlewares/FreeRTOS/tasks.o
                0x00000000080080f4                xTaskGetSchedulerState
 .text.xTaskPriorityInherit
                0x0000000008008114       0x8c ./Middlewares/FreeRTOS/tasks.o
                0x0000000008008114                xTaskPriorityInherit
 .text.xTaskPriorityDisinherit
                0x00000000080081a0       0x8c ./Middlewares/FreeRTOS/tasks.o
                0x00000000080081a0                xTaskPriorityDisinherit
 .text.vTaskPriorityDisinheritAfterTimeout
                0x000000000800822c       0xa8 ./Middlewares/FreeRTOS/tasks.o
                0x000000000800822c                vTaskPriorityDisinheritAfterTimeout
 .text.pvTaskIncrementMutexHeldCount
                0x00000000080082d4       0x18 ./Middlewares/FreeRTOS/tasks.o
                0x00000000080082d4                pvTaskIncrementMutexHeldCount
 .text.prvSwitchTimerLists
                0x00000000080082ec       0x9c ./Middlewares/FreeRTOS/timers.o
 .text.prvTimerTask
                0x0000000008008388      0x284 ./Middlewares/FreeRTOS/timers.o
 .text.xTimerCreateTimerTask
                0x000000000800860c       0xbc ./Middlewares/FreeRTOS/timers.o
                0x000000000800860c                xTimerCreateTimerTask
 .text.USBD_CDC_EP0_RxReady
                0x00000000080086c8       0x38 ./Middlewares/USB_Device_Library/usbd_cdc.o
 .text.USBD_CDC_GetDeviceQualifierDescriptor
                0x0000000008008700        0xc ./Middlewares/USB_Device_Library/usbd_cdc.o
                0x0000000008008700                USBD_CDC_GetDeviceQualifierDescriptor
 .text.USBD_CDC_GetFSCfgDesc
                0x000000000800870c       0x48 ./Middlewares/USB_Device_Library/usbd_cdc.o
 .text.USBD_CDC_GetHSCfgDesc
                0x0000000008008754       0x48 ./Middlewares/USB_Device_Library/usbd_cdc.o
 .text.USBD_CDC_DataOut
                0x000000000800879c       0x38 ./Middlewares/USB_Device_Library/usbd_cdc.o
 .text.USBD_CDC_DataIn
                0x00000000080087d4       0x74 ./Middlewares/USB_Device_Library/usbd_cdc.o
 .text.USBD_CDC_Setup
                0x0000000008008848      0x11c ./Middlewares/USB_Device_Library/usbd_cdc.o
 .text.USBD_CDC_DeInit
                0x0000000008008964       0x5c ./Middlewares/USB_Device_Library/usbd_cdc.o
 .text.USBD_CDC_Init
                0x00000000080089c0       0xf4 ./Middlewares/USB_Device_Library/usbd_cdc.o
 .text.USBD_CDC_GetOtherSpeedCfgDesc
                0x0000000008008ab4       0x48 ./Middlewares/USB_Device_Library/usbd_cdc.o
 .text.USBD_CDC_RegisterInterface
                0x0000000008008afc       0x18 ./Middlewares/USB_Device_Library/usbd_cdc.o
                0x0000000008008afc                USBD_CDC_RegisterInterface
 .text.USBD_CDC_SetTxBuffer
                0x0000000008008b14       0x1c ./Middlewares/USB_Device_Library/usbd_cdc.o
                0x0000000008008b14                USBD_CDC_SetTxBuffer
 .text.USBD_CDC_SetRxBuffer
                0x0000000008008b30       0x18 ./Middlewares/USB_Device_Library/usbd_cdc.o
                0x0000000008008b30                USBD_CDC_SetRxBuffer
 .text.USBD_CDC_TransmitPacket
                0x0000000008008b48       0x38 ./Middlewares/USB_Device_Library/usbd_cdc.o
                0x0000000008008b48                USBD_CDC_TransmitPacket
 .text.USBD_CDC_ReceivePacket
                0x0000000008008b80       0x38 ./Middlewares/USB_Device_Library/usbd_cdc.o
                0x0000000008008b80                USBD_CDC_ReceivePacket
 .text.USBD_Init
                0x0000000008008bb8       0x28 ./Middlewares/USB_Device_Library/usbd_core.o
                0x0000000008008bb8                USBD_Init
 .text.USBD_RegisterClass
                0x0000000008008be0       0x38 ./Middlewares/USB_Device_Library/usbd_core.o
                0x0000000008008be0                USBD_RegisterClass
 .text.USBD_Start
                0x0000000008008c18        0x4 ./Middlewares/USB_Device_Library/usbd_core.o
                0x0000000008008c18                USBD_Start
 .text.USBD_SetClassConfig
                0x0000000008008c1c       0x10 ./Middlewares/USB_Device_Library/usbd_core.o
                0x0000000008008c1c                USBD_SetClassConfig
 .text.USBD_ClrClassConfig
                0x0000000008008c2c       0x14 ./Middlewares/USB_Device_Library/usbd_core.o
                0x0000000008008c2c                USBD_ClrClassConfig
 .text.USBD_LL_SetupStage
                0x0000000008008c40       0x60 ./Middlewares/USB_Device_Library/usbd_core.o
                0x0000000008008c40                USBD_LL_SetupStage
 .text.USBD_LL_DataOutStage
                0x0000000008008ca0       0x74 ./Middlewares/USB_Device_Library/usbd_core.o
                0x0000000008008ca0                USBD_LL_DataOutStage
 .text.USBD_LL_DataInStage
                0x0000000008008d14       0xb4 ./Middlewares/USB_Device_Library/usbd_core.o
                0x0000000008008d14                USBD_LL_DataInStage
 .text.USBD_LL_Reset
                0x0000000008008dc8       0x5c ./Middlewares/USB_Device_Library/usbd_core.o
                0x0000000008008dc8                USBD_LL_Reset
 .text.USBD_LL_SetSpeed
                0x0000000008008e24        0x8 ./Middlewares/USB_Device_Library/usbd_core.o
                0x0000000008008e24                USBD_LL_SetSpeed
 .text.USBD_LL_Suspend
                0x0000000008008e2c       0x18 ./Middlewares/USB_Device_Library/usbd_core.o
                0x0000000008008e2c                USBD_LL_Suspend
 .text.USBD_LL_Resume
                0x0000000008008e44       0x18 ./Middlewares/USB_Device_Library/usbd_core.o
                0x0000000008008e44                USBD_LL_Resume
 .text.USBD_LL_SOF
                0x0000000008008e5c       0x20 ./Middlewares/USB_Device_Library/usbd_core.o
                0x0000000008008e5c                USBD_LL_SOF
 .text.USBD_LL_IsoINIncomplete
                0x0000000008008e7c       0x2c ./Middlewares/USB_Device_Library/usbd_core.o
                0x0000000008008e7c                USBD_LL_IsoINIncomplete
 .text.USBD_LL_IsoOUTIncomplete
                0x0000000008008ea8       0x2c ./Middlewares/USB_Device_Library/usbd_core.o
                0x0000000008008ea8                USBD_LL_IsoOUTIncomplete
 .text.USBD_LL_DevConnected
                0x0000000008008ed4        0x4 ./Middlewares/USB_Device_Library/usbd_core.o
                0x0000000008008ed4                USBD_LL_DevConnected
 .text.USBD_LL_DevDisconnected
                0x0000000008008ed8       0x24 ./Middlewares/USB_Device_Library/usbd_core.o
                0x0000000008008ed8                USBD_LL_DevDisconnected
 .text.USBD_CoreFindIF
                0x0000000008008efc        0x4 ./Middlewares/USB_Device_Library/usbd_core.o
                0x0000000008008efc                USBD_CoreFindIF
 .text.USBD_CoreFindEP
                0x0000000008008f00        0x4 ./Middlewares/USB_Device_Library/usbd_core.o
                0x0000000008008f00                USBD_CoreFindEP
 .text.USBD_GetEpDesc
                0x0000000008008f04       0x2c ./Middlewares/USB_Device_Library/usbd_core.o
                0x0000000008008f04                USBD_GetEpDesc
 .text.USBD_StdDevReq
                0x0000000008008f30      0x374 ./Middlewares/USB_Device_Library/usbd_ctlreq.o
                0x0000000008008f30                USBD_StdDevReq
 .text.USBD_StdItfReq
                0x00000000080092a4       0x74 ./Middlewares/USB_Device_Library/usbd_ctlreq.o
                0x00000000080092a4                USBD_StdItfReq
 .text.USBD_StdEPReq
                0x0000000008009318      0x154 ./Middlewares/USB_Device_Library/usbd_ctlreq.o
                0x0000000008009318                USBD_StdEPReq
 .text.USBD_ParseSetupRequest
                0x000000000800946c       0x18 ./Middlewares/USB_Device_Library/usbd_ctlreq.o
                0x000000000800946c                USBD_ParseSetupRequest
 .text.USBD_CtlError
                0x0000000008009484       0x18 ./Middlewares/USB_Device_Library/usbd_ctlreq.o
                0x0000000008009484                USBD_CtlError
 .text.USBD_GetString
                0x000000000800949c       0x54 ./Middlewares/USB_Device_Library/usbd_ctlreq.o
                0x000000000800949c                USBD_GetString
 .text.USBD_CtlSendData
                0x00000000080094f0       0x1c ./Middlewares/USB_Device_Library/usbd_ioreq.o
                0x00000000080094f0                USBD_CtlSendData
 .text.USBD_CtlContinueSendData
                0x000000000800950c       0x10 ./Middlewares/USB_Device_Library/usbd_ioreq.o
                0x000000000800950c                USBD_CtlContinueSendData
 .text.USBD_CtlPrepareRx
                0x000000000800951c       0x1c ./Middlewares/USB_Device_Library/usbd_ioreq.o
                0x000000000800951c                USBD_CtlPrepareRx
 .text.USBD_CtlContinueRx
                0x0000000008009538       0x10 ./Middlewares/USB_Device_Library/usbd_ioreq.o
                0x0000000008009538                USBD_CtlContinueRx
 .text.USBD_CtlSendStatus
                0x0000000008009548       0x18 ./Middlewares/USB_Device_Library/usbd_ioreq.o
                0x0000000008009548                USBD_CtlSendStatus
 .text.USBD_CtlReceiveStatus
                0x0000000008009560       0x18 ./Middlewares/USB_Device_Library/usbd_ioreq.o
                0x0000000008009560                USBD_CtlReceiveStatus
 .text.PikaDebug_reset_breakMethod
                0x0000000008009578       0x30 ./pikapython/pikascript-api/__pikaBinding.o
                0x0000000008009578                PikaDebug_reset_breakMethod
 .text.PikaDebug_set_breakMethod
                0x00000000080095a8       0x30 ./pikapython/pikascript-api/__pikaBinding.o
                0x00000000080095a8                PikaDebug_set_breakMethod
 .text.PikaDebug_set_traceMethod
                0x00000000080095d8        0x4 ./pikapython/pikascript-api/__pikaBinding.o
                0x00000000080095d8                PikaDebug_set_traceMethod
 .text.New_PikaDebug
                0x00000000080095dc       0x24 ./pikapython/pikascript-api/__pikaBinding.o
                0x00000000080095dc                New_PikaDebug
 .text.New_PikaDebug_Debuger
                0x0000000008009600       0x24 ./pikapython/pikascript-api/__pikaBinding.o
                0x0000000008009600                New_PikaDebug_Debuger
 .text.New_PikaStdData
                0x0000000008009624       0x24 ./pikapython/pikascript-api/__pikaBinding.o
                0x0000000008009624                New_PikaStdData
 .text.New_PikaStdData_Dict
                0x0000000008009648       0x24 ./pikapython/pikascript-api/__pikaBinding.o
                0x0000000008009648                New_PikaStdData_Dict
 .text.New_PikaStdData_FILEIO
                0x000000000800966c       0x24 ./pikapython/pikascript-api/__pikaBinding.o
                0x000000000800966c                New_PikaStdData_FILEIO
 .text.New_PikaStdData_String
                0x0000000008009690       0x24 ./pikapython/pikascript-api/__pikaBinding.o
                0x0000000008009690                New_PikaStdData_String
 .text.New_PikaStdData_Tuple
                0x00000000080096b4       0x24 ./pikapython/pikascript-api/__pikaBinding.o
                0x00000000080096b4                New_PikaStdData_Tuple
 .text.New_PikaStdData_Utils
                0x00000000080096d8       0x24 ./pikapython/pikascript-api/__pikaBinding.o
                0x00000000080096d8                New_PikaStdData_Utils
 .text.New_PikaStdData_dict_items
                0x00000000080096fc       0x24 ./pikapython/pikascript-api/__pikaBinding.o
                0x00000000080096fc                New_PikaStdData_dict_items
 .text.New_PikaStdData_dict_keys
                0x0000000008009720       0x24 ./pikapython/pikascript-api/__pikaBinding.o
                0x0000000008009720                New_PikaStdData_dict_keys
 .text.New_PikaStdDevice
                0x0000000008009744       0x24 ./pikapython/pikascript-api/__pikaBinding.o
                0x0000000008009744                New_PikaStdDevice
 .text.New_PikaStdDevice_BaseDev
                0x0000000008009768       0x24 ./pikapython/pikascript-api/__pikaBinding.o
                0x0000000008009768                New_PikaStdDevice_BaseDev
 .text.New_PikaStdDevice_Timer
                0x000000000800978c       0x24 ./pikapython/pikascript-api/__pikaBinding.o
                0x000000000800978c                New_PikaStdDevice_Timer
 .text.New_PikaStdDevice_UART
                0x00000000080097b0       0x24 ./pikapython/pikascript-api/__pikaBinding.o
                0x00000000080097b0                New_PikaStdDevice_UART
 .text.New_PikaStdLib
                0x00000000080097d4       0x24 ./pikapython/pikascript-api/__pikaBinding.o
                0x00000000080097d4                New_PikaStdLib
 .text.New_PikaStdLib_MemChecker
                0x00000000080097f8       0x24 ./pikapython/pikascript-api/__pikaBinding.o
                0x00000000080097f8                New_PikaStdLib_MemChecker
 .text.New_PikaStdLib_REPL
                0x000000000800981c       0x24 ./pikapython/pikascript-api/__pikaBinding.o
                0x000000000800981c                New_PikaStdLib_REPL
 .text.New_PikaStdLib_SysObj
                0x0000000008009840       0x24 ./pikapython/pikascript-api/__pikaBinding.o
                0x0000000008009840                New_PikaStdLib_SysObj
 .text.New_STM32
                0x0000000008009864       0x24 ./pikapython/pikascript-api/__pikaBinding.o
                0x0000000008009864                New_STM32
 .text.New__thread
                0x0000000008009888       0x24 ./pikapython/pikascript-api/__pikaBinding.o
                0x0000000008009888                New__thread
 .text.New__time
                0x00000000080098ac       0x24 ./pikapython/pikascript-api/__pikaBinding.o
                0x00000000080098ac                New__time
 .text.New_builtins
                0x00000000080098d0       0x24 ./pikapython/pikascript-api/__pikaBinding.o
                0x00000000080098d0                New_builtins
 .text.New_builtins_BaseException
                0x00000000080098f4       0x24 ./pikapython/pikascript-api/__pikaBinding.o
                0x00000000080098f4                New_builtins_BaseException
 .text.New_builtins_RangeObj
                0x0000000008009918       0x24 ./pikapython/pikascript-api/__pikaBinding.o
                0x0000000008009918                New_builtins_RangeObj
 .text.New_builtins_StringObj
                0x000000000800993c       0x24 ./pikapython/pikascript-api/__pikaBinding.o
                0x000000000800993c                New_builtins_StringObj
 .text.New_builtins_bytearray
                0x0000000008009960       0x24 ./pikapython/pikascript-api/__pikaBinding.o
                0x0000000008009960                New_builtins_bytearray
 .text.New_builtins_object
                0x0000000008009984       0x24 ./pikapython/pikascript-api/__pikaBinding.o
                0x0000000008009984                New_builtins_object
 .text.New_pika_libc
                0x00000000080099a8       0x24 ./pikapython/pikascript-api/__pikaBinding.o
                0x00000000080099a8                New_pika_libc
 .text.PikaDebug_Debuger___init__Method
                0x00000000080099cc        0x4 ./pikapython/pikascript-api/__pikaBinding.o
                0x00000000080099cc                PikaDebug_Debuger___init__Method
 .text.PikaDebug_Debuger_set_traceMethod
                0x00000000080099d0        0x4 ./pikapython/pikascript-api/__pikaBinding.o
                0x00000000080099d0                PikaDebug_Debuger_set_traceMethod
 .text.PikaDebug_DebugerMethod
                0x00000000080099d4       0x1c ./pikapython/pikascript-api/__pikaBinding.o
                0x00000000080099d4                PikaDebug_DebugerMethod
 .text.PikaStdData_ByteArrayMethod
                0x00000000080099f0       0x1c ./pikapython/pikascript-api/__pikaBinding.o
                0x00000000080099f0                PikaStdData_ByteArrayMethod
 .text.PikaStdData_DictMethod
                0x0000000008009a0c       0x1c ./pikapython/pikascript-api/__pikaBinding.o
                0x0000000008009a0c                PikaStdData_DictMethod
 .text.PikaStdData_FILEIOMethod
                0x0000000008009a28       0x1c ./pikapython/pikascript-api/__pikaBinding.o
                0x0000000008009a28                PikaStdData_FILEIOMethod
 .text.PikaStdData_ListMethod
                0x0000000008009a44       0x1c ./pikapython/pikascript-api/__pikaBinding.o
                0x0000000008009a44                PikaStdData_ListMethod
 .text.PikaStdData_StringMethod
                0x0000000008009a60       0x1c ./pikapython/pikascript-api/__pikaBinding.o
                0x0000000008009a60                PikaStdData_StringMethod
 .text.PikaStdData_TupleMethod
                0x0000000008009a7c       0x1c ./pikapython/pikascript-api/__pikaBinding.o
                0x0000000008009a7c                PikaStdData_TupleMethod
 .text.PikaStdData_UtilsMethod
                0x0000000008009a98       0x1c ./pikapython/pikascript-api/__pikaBinding.o
                0x0000000008009a98                PikaStdData_UtilsMethod
 .text.PikaStdData_dict_itemsMethod
                0x0000000008009ab4       0x1c ./pikapython/pikascript-api/__pikaBinding.o
                0x0000000008009ab4                PikaStdData_dict_itemsMethod
 .text.PikaStdData_dict_keysMethod
                0x0000000008009ad0       0x1c ./pikapython/pikascript-api/__pikaBinding.o
                0x0000000008009ad0                PikaStdData_dict_keysMethod
 .text.PikaStdDevice_ADCMethod
                0x0000000008009aec       0x1c ./pikapython/pikascript-api/__pikaBinding.o
                0x0000000008009aec                PikaStdDevice_ADCMethod
 .text.PikaStdDevice_BaseDevMethod
                0x0000000008009b08       0x1c ./pikapython/pikascript-api/__pikaBinding.o
                0x0000000008009b08                PikaStdDevice_BaseDevMethod
 .text.PikaStdDevice_CANMethod
                0x0000000008009b24       0x1c ./pikapython/pikascript-api/__pikaBinding.o
                0x0000000008009b24                PikaStdDevice_CANMethod
 .text.PikaStdDevice_DACMethod
                0x0000000008009b40       0x1c ./pikapython/pikascript-api/__pikaBinding.o
                0x0000000008009b40                PikaStdDevice_DACMethod
 .text.PikaStdDevice_GPIOMethod
                0x0000000008009b5c       0x1c ./pikapython/pikascript-api/__pikaBinding.o
                0x0000000008009b5c                PikaStdDevice_GPIOMethod
 .text.PikaStdDevice_IICMethod
                0x0000000008009b78       0x1c ./pikapython/pikascript-api/__pikaBinding.o
                0x0000000008009b78                PikaStdDevice_IICMethod
 .text.PikaStdDevice_PWMMethod
                0x0000000008009b94       0x1c ./pikapython/pikascript-api/__pikaBinding.o
                0x0000000008009b94                PikaStdDevice_PWMMethod
 .text.PikaStdDevice_SPIMethod
                0x0000000008009bb0       0x1c ./pikapython/pikascript-api/__pikaBinding.o
                0x0000000008009bb0                PikaStdDevice_SPIMethod
 .text.PikaStdDevice_TimerMethod
                0x0000000008009bcc       0x1c ./pikapython/pikascript-api/__pikaBinding.o
                0x0000000008009bcc                PikaStdDevice_TimerMethod
 .text.PikaStdDevice_UARTMethod
                0x0000000008009be8       0x1c ./pikapython/pikascript-api/__pikaBinding.o
                0x0000000008009be8                PikaStdDevice_UARTMethod
 .text.PikaStdLib_MemCheckerMethod
                0x0000000008009c04       0x1c ./pikapython/pikascript-api/__pikaBinding.o
                0x0000000008009c04                PikaStdLib_MemCheckerMethod
 .text.PikaStdLib_REPLMethod
                0x0000000008009c20       0x1c ./pikapython/pikascript-api/__pikaBinding.o
                0x0000000008009c20                PikaStdLib_REPLMethod
 .text.PikaStdLib_SysObjMethod
                0x0000000008009c3c       0x1c ./pikapython/pikascript-api/__pikaBinding.o
                0x0000000008009c3c                PikaStdLib_SysObjMethod
 .text.builtins_ArithmeticErrorMethod
                0x0000000008009c58       0x1c ./pikapython/pikascript-api/__pikaBinding.o
                0x0000000008009c58                builtins_ArithmeticErrorMethod
 .text.builtins_AssertionErrorMethod
                0x0000000008009c74       0x1c ./pikapython/pikascript-api/__pikaBinding.o
                0x0000000008009c74                builtins_AssertionErrorMethod
 .text.builtins_AttributeErrorMethod
                0x0000000008009c90       0x1c ./pikapython/pikascript-api/__pikaBinding.o
                0x0000000008009c90                builtins_AttributeErrorMethod
 .text.builtins_BaseExceptionMethod
                0x0000000008009cac       0x1c ./pikapython/pikascript-api/__pikaBinding.o
                0x0000000008009cac                builtins_BaseExceptionMethod
 .text.builtins_BlockingIOErrorMethod
                0x0000000008009cc8       0x1c ./pikapython/pikascript-api/__pikaBinding.o
                0x0000000008009cc8                builtins_BlockingIOErrorMethod
 .text.builtins_BrokenPipeErrorMethod
                0x0000000008009ce4       0x1c ./pikapython/pikascript-api/__pikaBinding.o
                0x0000000008009ce4                builtins_BrokenPipeErrorMethod
 .text.builtins_BufferErrorMethod
                0x0000000008009d00       0x1c ./pikapython/pikascript-api/__pikaBinding.o
                0x0000000008009d00                builtins_BufferErrorMethod
 .text.builtins_BytesWarningMethod
                0x0000000008009d1c       0x1c ./pikapython/pikascript-api/__pikaBinding.o
                0x0000000008009d1c                builtins_BytesWarningMethod
 .text.builtins_ChildProcessErrorMethod
                0x0000000008009d38       0x1c ./pikapython/pikascript-api/__pikaBinding.o
                0x0000000008009d38                builtins_ChildProcessErrorMethod
 .text.builtins_ConnectionAbortedErrorMethod
                0x0000000008009d54       0x1c ./pikapython/pikascript-api/__pikaBinding.o
                0x0000000008009d54                builtins_ConnectionAbortedErrorMethod
 .text.builtins_ConnectionErrorMethod
                0x0000000008009d70       0x1c ./pikapython/pikascript-api/__pikaBinding.o
                0x0000000008009d70                builtins_ConnectionErrorMethod
 .text.builtins_ConnectionRefusedErrorMethod
                0x0000000008009d8c       0x1c ./pikapython/pikascript-api/__pikaBinding.o
                0x0000000008009d8c                builtins_ConnectionRefusedErrorMethod
 .text.builtins_ConnectionResetErrorMethod
                0x0000000008009da8       0x1c ./pikapython/pikascript-api/__pikaBinding.o
                0x0000000008009da8                builtins_ConnectionResetErrorMethod
 .text.builtins_DeprecationWarningMethod
                0x0000000008009dc4       0x1c ./pikapython/pikascript-api/__pikaBinding.o
                0x0000000008009dc4                builtins_DeprecationWarningMethod
 .text.builtins_EOFErrorMethod
                0x0000000008009de0       0x1c ./pikapython/pikascript-api/__pikaBinding.o
                0x0000000008009de0                builtins_EOFErrorMethod
 .text.builtins_ExceptionMethod
                0x0000000008009dfc       0x1c ./pikapython/pikascript-api/__pikaBinding.o
                0x0000000008009dfc                builtins_ExceptionMethod
 .text.builtins_FileExistsErrorMethod
                0x0000000008009e18       0x1c ./pikapython/pikascript-api/__pikaBinding.o
                0x0000000008009e18                builtins_FileExistsErrorMethod
 .text.builtins_FileNotFoundErrorMethod
                0x0000000008009e34       0x1c ./pikapython/pikascript-api/__pikaBinding.o
                0x0000000008009e34                builtins_FileNotFoundErrorMethod
 .text.builtins_FloatingPointErrorMethod
                0x0000000008009e50       0x1c ./pikapython/pikascript-api/__pikaBinding.o
                0x0000000008009e50                builtins_FloatingPointErrorMethod
 .text.builtins_FutureWarningMethod
                0x0000000008009e6c       0x1c ./pikapython/pikascript-api/__pikaBinding.o
                0x0000000008009e6c                builtins_FutureWarningMethod
 .text.builtins_GeneratorExitMethod
                0x0000000008009e88       0x1c ./pikapython/pikascript-api/__pikaBinding.o
                0x0000000008009e88                builtins_GeneratorExitMethod
 .text.builtins_ImportErrorMethod
                0x0000000008009ea4       0x1c ./pikapython/pikascript-api/__pikaBinding.o
                0x0000000008009ea4                builtins_ImportErrorMethod
 .text.builtins_ImportWarningMethod
                0x0000000008009ec0       0x1c ./pikapython/pikascript-api/__pikaBinding.o
                0x0000000008009ec0                builtins_ImportWarningMethod
 .text.builtins_IndentationErrorMethod
                0x0000000008009edc       0x1c ./pikapython/pikascript-api/__pikaBinding.o
                0x0000000008009edc                builtins_IndentationErrorMethod
 .text.builtins_IndexErrorMethod
                0x0000000008009ef8       0x1c ./pikapython/pikascript-api/__pikaBinding.o
                0x0000000008009ef8                builtins_IndexErrorMethod
 .text.builtins_InterruptedErrorMethod
                0x0000000008009f14       0x1c ./pikapython/pikascript-api/__pikaBinding.o
                0x0000000008009f14                builtins_InterruptedErrorMethod
 .text.builtins_IsADirectoryErrorMethod
                0x0000000008009f30       0x1c ./pikapython/pikascript-api/__pikaBinding.o
                0x0000000008009f30                builtins_IsADirectoryErrorMethod
 .text.builtins_KeyErrorMethod
                0x0000000008009f4c       0x1c ./pikapython/pikascript-api/__pikaBinding.o
                0x0000000008009f4c                builtins_KeyErrorMethod
 .text.builtins_KeyboardInterruptMethod
                0x0000000008009f68       0x1c ./pikapython/pikascript-api/__pikaBinding.o
                0x0000000008009f68                builtins_KeyboardInterruptMethod
 .text.builtins_LookupErrorMethod
                0x0000000008009f84       0x1c ./pikapython/pikascript-api/__pikaBinding.o
                0x0000000008009f84                builtins_LookupErrorMethod
 .text.builtins_MemoryErrorMethod
                0x0000000008009fa0       0x1c ./pikapython/pikascript-api/__pikaBinding.o
                0x0000000008009fa0                builtins_MemoryErrorMethod
 .text.builtins_ModuleNotFoundErrorMethod
                0x0000000008009fbc       0x1c ./pikapython/pikascript-api/__pikaBinding.o
                0x0000000008009fbc                builtins_ModuleNotFoundErrorMethod
 .text.builtins_NameErrorMethod
                0x0000000008009fd8       0x1c ./pikapython/pikascript-api/__pikaBinding.o
                0x0000000008009fd8                builtins_NameErrorMethod
 .text.builtins_NotADirectoryErrorMethod
                0x0000000008009ff4       0x1c ./pikapython/pikascript-api/__pikaBinding.o
                0x0000000008009ff4                builtins_NotADirectoryErrorMethod
 .text.builtins_NotImplementedErrorMethod
                0x000000000800a010       0x1c ./pikapython/pikascript-api/__pikaBinding.o
                0x000000000800a010                builtins_NotImplementedErrorMethod
 .text.builtins_OSErrorMethod
                0x000000000800a02c       0x1c ./pikapython/pikascript-api/__pikaBinding.o
                0x000000000800a02c                builtins_OSErrorMethod
 .text.builtins_OverflowErrorMethod
                0x000000000800a048       0x1c ./pikapython/pikascript-api/__pikaBinding.o
                0x000000000800a048                builtins_OverflowErrorMethod
 .text.builtins_PendingDeprecationWarningMethod
                0x000000000800a064       0x1c ./pikapython/pikascript-api/__pikaBinding.o
                0x000000000800a064                builtins_PendingDeprecationWarningMethod
 .text.builtins_PermissionErrorMethod
                0x000000000800a080       0x1c ./pikapython/pikascript-api/__pikaBinding.o
                0x000000000800a080                builtins_PermissionErrorMethod
 .text.builtins_ProcessLookupErrorMethod
                0x000000000800a09c       0x1c ./pikapython/pikascript-api/__pikaBinding.o
                0x000000000800a09c                builtins_ProcessLookupErrorMethod
 .text.builtins_RangeObjMethod
                0x000000000800a0b8       0x1c ./pikapython/pikascript-api/__pikaBinding.o
                0x000000000800a0b8                builtins_RangeObjMethod
 .text.builtins_RecursionErrorMethod
                0x000000000800a0d4       0x1c ./pikapython/pikascript-api/__pikaBinding.o
                0x000000000800a0d4                builtins_RecursionErrorMethod
 .text.builtins_ReferenceErrorMethod
                0x000000000800a0f0       0x1c ./pikapython/pikascript-api/__pikaBinding.o
                0x000000000800a0f0                builtins_ReferenceErrorMethod
 .text.builtins_ResourceWarningMethod
                0x000000000800a10c       0x1c ./pikapython/pikascript-api/__pikaBinding.o
                0x000000000800a10c                builtins_ResourceWarningMethod
 .text.builtins_RuntimeErrorMethod
                0x000000000800a128       0x1c ./pikapython/pikascript-api/__pikaBinding.o
                0x000000000800a128                builtins_RuntimeErrorMethod
 .text.builtins_RuntimeWarningMethod
                0x000000000800a144       0x1c ./pikapython/pikascript-api/__pikaBinding.o
                0x000000000800a144                builtins_RuntimeWarningMethod
 .text.builtins_StopAsyncIterationMethod
                0x000000000800a160       0x1c ./pikapython/pikascript-api/__pikaBinding.o
                0x000000000800a160                builtins_StopAsyncIterationMethod
 .text.builtins_StopIterationMethod
                0x000000000800a17c       0x1c ./pikapython/pikascript-api/__pikaBinding.o
                0x000000000800a17c                builtins_StopIterationMethod
 .text.builtins_StringObjMethod
                0x000000000800a198       0x1c ./pikapython/pikascript-api/__pikaBinding.o
                0x000000000800a198                builtins_StringObjMethod
 .text.builtins_SyntaxErrorMethod
                0x000000000800a1b4       0x1c ./pikapython/pikascript-api/__pikaBinding.o
                0x000000000800a1b4                builtins_SyntaxErrorMethod
 .text.builtins_SyntaxWarningMethod
                0x000000000800a1d0       0x1c ./pikapython/pikascript-api/__pikaBinding.o
                0x000000000800a1d0                builtins_SyntaxWarningMethod
 .text.builtins_SystemErrorMethod
                0x000000000800a1ec       0x1c ./pikapython/pikascript-api/__pikaBinding.o
                0x000000000800a1ec                builtins_SystemErrorMethod
 .text.builtins_SystemExitMethod
                0x000000000800a208       0x1c ./pikapython/pikascript-api/__pikaBinding.o
                0x000000000800a208                builtins_SystemExitMethod
 .text.builtins_TabErrorMethod
                0x000000000800a224       0x1c ./pikapython/pikascript-api/__pikaBinding.o
                0x000000000800a224                builtins_TabErrorMethod
 .text.builtins_TimeoutErrorMethod
                0x000000000800a240       0x1c ./pikapython/pikascript-api/__pikaBinding.o
                0x000000000800a240                builtins_TimeoutErrorMethod
 .text.builtins_TypeErrorMethod
                0x000000000800a25c       0x1c ./pikapython/pikascript-api/__pikaBinding.o
                0x000000000800a25c                builtins_TypeErrorMethod
 .text.builtins_UnboundLocalErrorMethod
                0x000000000800a278       0x1c ./pikapython/pikascript-api/__pikaBinding.o
                0x000000000800a278                builtins_UnboundLocalErrorMethod
 .text.builtins_UnicodeDecodeErrorMethod
                0x000000000800a294       0x1c ./pikapython/pikascript-api/__pikaBinding.o
                0x000000000800a294                builtins_UnicodeDecodeErrorMethod
 .text.builtins_UnicodeEncodeErrorMethod
                0x000000000800a2b0       0x1c ./pikapython/pikascript-api/__pikaBinding.o
                0x000000000800a2b0                builtins_UnicodeEncodeErrorMethod
 .text.builtins_UnicodeErrorMethod
                0x000000000800a2cc       0x1c ./pikapython/pikascript-api/__pikaBinding.o
                0x000000000800a2cc                builtins_UnicodeErrorMethod
 .text.builtins_UnicodeTranslateErrorMethod
                0x000000000800a2e8       0x1c ./pikapython/pikascript-api/__pikaBinding.o
                0x000000000800a2e8                builtins_UnicodeTranslateErrorMethod
 .text.builtins_UnicodeWarningMethod
                0x000000000800a304       0x1c ./pikapython/pikascript-api/__pikaBinding.o
                0x000000000800a304                builtins_UnicodeWarningMethod
 .text.builtins_UserWarningMethod
                0x000000000800a320       0x1c ./pikapython/pikascript-api/__pikaBinding.o
                0x000000000800a320                builtins_UserWarningMethod
 .text.builtins_ValueErrorMethod
                0x000000000800a33c       0x1c ./pikapython/pikascript-api/__pikaBinding.o
                0x000000000800a33c                builtins_ValueErrorMethod
 .text.builtins_WarningMethod
                0x000000000800a358       0x1c ./pikapython/pikascript-api/__pikaBinding.o
                0x000000000800a358                builtins_WarningMethod
 .text.builtins_ZeroDivisionErrorMethod
                0x000000000800a374       0x1c ./pikapython/pikascript-api/__pikaBinding.o
                0x000000000800a374                builtins_ZeroDivisionErrorMethod
 .text.builtins_bytearrayMethod
                0x000000000800a390       0x1c ./pikapython/pikascript-api/__pikaBinding.o
                0x000000000800a390                builtins_bytearrayMethod
 .text.builtins_objectMethod
                0x000000000800a3ac       0x1c ./pikapython/pikascript-api/__pikaBinding.o
                0x000000000800a3ac                builtins_objectMethod
 .text.PikaStdData_Dict___contains__Method
                0x000000000800a3c8       0x28 ./pikapython/pikascript-api/__pikaBinding.o
                0x000000000800a3c8                PikaStdData_Dict___contains__Method
 .text.PikaStdData_Dict___del__Method
                0x000000000800a3f0        0x4 ./pikapython/pikascript-api/__pikaBinding.o
                0x000000000800a3f0                PikaStdData_Dict___del__Method
 .text.PikaStdData_Dict___eq__Method
                0x000000000800a3f4       0x28 ./pikapython/pikascript-api/__pikaBinding.o
                0x000000000800a3f4                PikaStdData_Dict___eq__Method
 .text.PikaStdData_Dict___getitem__Method
                0x000000000800a41c       0x28 ./pikapython/pikascript-api/__pikaBinding.o
                0x000000000800a41c                PikaStdData_Dict___getitem__Method
 .text.PikaStdData_Dict___init__Method
                0x000000000800a444        0x4 ./pikapython/pikascript-api/__pikaBinding.o
                0x000000000800a444                PikaStdData_Dict___init__Method
 .text.PikaStdData_Dict___iter__Method
                0x000000000800a448       0x14 ./pikapython/pikascript-api/__pikaBinding.o
                0x000000000800a448                PikaStdData_Dict___iter__Method
 .text.PikaStdData_Dict___len__Method
                0x000000000800a45c       0x18 ./pikapython/pikascript-api/__pikaBinding.o
                0x000000000800a45c                PikaStdData_Dict___len__Method
 .text.PikaStdData_Dict___next__Method
                0x000000000800a474       0x14 ./pikapython/pikascript-api/__pikaBinding.o
                0x000000000800a474                PikaStdData_Dict___next__Method
 .text.PikaStdData_Dict___setitem__Method
                0x000000000800a488       0x30 ./pikapython/pikascript-api/__pikaBinding.o
                0x000000000800a488                PikaStdData_Dict___setitem__Method
 .text.PikaStdData_Dict___str__Method
                0x000000000800a4b8       0x14 ./pikapython/pikascript-api/__pikaBinding.o
                0x000000000800a4b8                PikaStdData_Dict___str__Method
 .text.PikaStdData_Dict_getMethod
                0x000000000800a4cc       0x28 ./pikapython/pikascript-api/__pikaBinding.o
                0x000000000800a4cc                PikaStdData_Dict_getMethod
 .text.PikaStdData_Dict_itemsMethod
                0x000000000800a4f4       0x14 ./pikapython/pikascript-api/__pikaBinding.o
                0x000000000800a4f4                PikaStdData_Dict_itemsMethod
 .text.PikaStdData_Dict_keysMethod
                0x000000000800a508       0x14 ./pikapython/pikascript-api/__pikaBinding.o
                0x000000000800a508                PikaStdData_Dict_keysMethod
 .text.PikaStdData_Dict_removeMethod
                0x000000000800a51c       0x1c ./pikapython/pikascript-api/__pikaBinding.o
                0x000000000800a51c                PikaStdData_Dict_removeMethod
 .text.PikaStdData_Dict_setMethod
                0x000000000800a538       0x30 ./pikapython/pikascript-api/__pikaBinding.o
                0x000000000800a538                PikaStdData_Dict_setMethod
 .text.PikaStdData_Dict_updateMethod
                0x000000000800a568       0x1c ./pikapython/pikascript-api/__pikaBinding.o
                0x000000000800a568                PikaStdData_Dict_updateMethod
 .text.PikaStdData_FILEIO_closeMethod
                0x000000000800a584        0x4 ./pikapython/pikascript-api/__pikaBinding.o
                0x000000000800a584                PikaStdData_FILEIO_closeMethod
 .text.PikaStdData_FILEIO_initMethod
                0x000000000800a588       0x38 ./pikapython/pikascript-api/__pikaBinding.o
                0x000000000800a588                PikaStdData_FILEIO_initMethod
 .text.PikaStdData_FILEIO_readMethod
                0x000000000800a5c0       0x28 ./pikapython/pikascript-api/__pikaBinding.o
                0x000000000800a5c0                PikaStdData_FILEIO_readMethod
 .text.PikaStdData_FILEIO_readlineMethod
                0x000000000800a5e8       0x14 ./pikapython/pikascript-api/__pikaBinding.o
                0x000000000800a5e8                PikaStdData_FILEIO_readlineMethod
 .text.PikaStdData_FILEIO_readlinesMethod
                0x000000000800a5fc       0x14 ./pikapython/pikascript-api/__pikaBinding.o
                0x000000000800a5fc                PikaStdData_FILEIO_readlinesMethod
 .text.PikaStdData_FILEIO_seekMethod
                0x000000000800a610       0x38 ./pikapython/pikascript-api/__pikaBinding.o
                0x000000000800a610                PikaStdData_FILEIO_seekMethod
 .text.PikaStdData_FILEIO_tellMethod
                0x000000000800a648       0x18 ./pikapython/pikascript-api/__pikaBinding.o
                0x000000000800a648                PikaStdData_FILEIO_tellMethod
 .text.PikaStdData_FILEIO_writeMethod
                0x000000000800a660       0x28 ./pikapython/pikascript-api/__pikaBinding.o
                0x000000000800a660                PikaStdData_FILEIO_writeMethod
 .text.PikaStdData_FILEIO_writelinesMethod
                0x000000000800a688       0x1c ./pikapython/pikascript-api/__pikaBinding.o
                0x000000000800a688                PikaStdData_FILEIO_writelinesMethod
 .text.PikaStdData_List___add__Method
                0x000000000800a6a4       0x28 ./pikapython/pikascript-api/__pikaBinding.o
                0x000000000800a6a4                PikaStdData_List___add__Method
 .text.PikaStdData_List___init__Method
                0x000000000800a6cc        0x4 ./pikapython/pikascript-api/__pikaBinding.o
                0x000000000800a6cc                PikaStdData_List___init__Method
 .text.PikaStdData_List___mul__Method
                0x000000000800a6d0       0x28 ./pikapython/pikascript-api/__pikaBinding.o
                0x000000000800a6d0                PikaStdData_List___mul__Method
 .text.PikaStdData_List___setitem__Method
                0x000000000800a6f8       0x30 ./pikapython/pikascript-api/__pikaBinding.o
                0x000000000800a6f8                PikaStdData_List___setitem__Method
 .text.PikaStdData_List___str__Method
                0x000000000800a728       0x14 ./pikapython/pikascript-api/__pikaBinding.o
                0x000000000800a728                PikaStdData_List___str__Method
 .text.PikaStdData_List_appendMethod
                0x000000000800a73c       0x1c ./pikapython/pikascript-api/__pikaBinding.o
                0x000000000800a73c                PikaStdData_List_appendMethod
 .text.PikaStdData_List_insertMethod
                0x000000000800a758       0x30 ./pikapython/pikascript-api/__pikaBinding.o
                0x000000000800a758                PikaStdData_List_insertMethod
 .text.PikaStdData_List_popMethod
                0x000000000800a788       0x28 ./pikapython/pikascript-api/__pikaBinding.o
                0x000000000800a788                PikaStdData_List_popMethod
 .text.PikaStdData_List_removeMethod
                0x000000000800a7b0       0x1c ./pikapython/pikascript-api/__pikaBinding.o
                0x000000000800a7b0                PikaStdData_List_removeMethod
 .text.PikaStdData_List_reverseMethod
                0x000000000800a7cc        0x4 ./pikapython/pikascript-api/__pikaBinding.o
                0x000000000800a7cc                PikaStdData_List_reverseMethod
 .text.PikaStdData_List_setMethod
                0x000000000800a7d0       0x30 ./pikapython/pikascript-api/__pikaBinding.o
                0x000000000800a7d0                PikaStdData_List_setMethod
 .text.PikaStdData_String___getitem__Method
                0x000000000800a800       0x28 ./pikapython/pikascript-api/__pikaBinding.o
                0x000000000800a800                PikaStdData_String___getitem__Method
 .text.PikaStdData_String___init__Method
                0x000000000800a828       0x1c ./pikapython/pikascript-api/__pikaBinding.o
                0x000000000800a828                PikaStdData_String___init__Method
 .text.PikaStdData_String___iter__Method
                0x000000000800a844       0x14 ./pikapython/pikascript-api/__pikaBinding.o
                0x000000000800a844                PikaStdData_String___iter__Method
 .text.PikaStdData_String___len__Method
                0x000000000800a858       0x18 ./pikapython/pikascript-api/__pikaBinding.o
                0x000000000800a858                PikaStdData_String___len__Method
 .text.PikaStdData_String___next__Method
                0x000000000800a870       0x14 ./pikapython/pikascript-api/__pikaBinding.o
                0x000000000800a870                PikaStdData_String___next__Method
 .text.PikaStdData_String___setitem__Method
                0x000000000800a884       0x30 ./pikapython/pikascript-api/__pikaBinding.o
                0x000000000800a884                PikaStdData_String___setitem__Method
 .text.PikaStdData_String___str__Method
                0x000000000800a8b4       0x14 ./pikapython/pikascript-api/__pikaBinding.o
                0x000000000800a8b4                PikaStdData_String___str__Method
 .text.PikaStdData_String_encodeMethod
                0x000000000800a8c8       0x28 ./pikapython/pikascript-api/__pikaBinding.o
                0x000000000800a8c8                PikaStdData_String_encodeMethod
 .text.PikaStdData_String_endswithMethod
                0x000000000800a8f0       0x28 ./pikapython/pikascript-api/__pikaBinding.o
                0x000000000800a8f0                PikaStdData_String_endswithMethod
 .text.PikaStdData_String_findMethod
                0x000000000800a918       0x28 ./pikapython/pikascript-api/__pikaBinding.o
                0x000000000800a918                PikaStdData_String_findMethod
 .text.PikaStdData_String_formatMethod
                0x000000000800a940       0x28 ./pikapython/pikascript-api/__pikaBinding.o
                0x000000000800a940                PikaStdData_String_formatMethod
 .text.PikaStdData_String_getMethod
                0x000000000800a968       0x14 ./pikapython/pikascript-api/__pikaBinding.o
                0x000000000800a968                PikaStdData_String_getMethod
 .text.PikaStdData_String_isalnumMethod
                0x000000000800a97c       0x18 ./pikapython/pikascript-api/__pikaBinding.o
                0x000000000800a97c                PikaStdData_String_isalnumMethod
 .text.PikaStdData_String_isalphaMethod
                0x000000000800a994       0x18 ./pikapython/pikascript-api/__pikaBinding.o
                0x000000000800a994                PikaStdData_String_isalphaMethod
 .text.PikaStdData_String_isdigitMethod
                0x000000000800a9ac       0x18 ./pikapython/pikascript-api/__pikaBinding.o
                0x000000000800a9ac                PikaStdData_String_isdigitMethod
 .text.PikaStdData_String_islowerMethod
                0x000000000800a9c4       0x18 ./pikapython/pikascript-api/__pikaBinding.o
                0x000000000800a9c4                PikaStdData_String_islowerMethod
 .text.PikaStdData_String_isspaceMethod
                0x000000000800a9dc       0x18 ./pikapython/pikascript-api/__pikaBinding.o
                0x000000000800a9dc                PikaStdData_String_isspaceMethod
 .text.PikaStdData_String_joinMethod
                0x000000000800a9f4       0x28 ./pikapython/pikascript-api/__pikaBinding.o
                0x000000000800a9f4                PikaStdData_String_joinMethod
 .text.PikaStdData_String_replaceMethod
                0x000000000800aa1c       0x38 ./pikapython/pikascript-api/__pikaBinding.o
                0x000000000800aa1c                PikaStdData_String_replaceMethod
 .text.PikaStdData_String_setMethod
                0x000000000800aa54       0x1c ./pikapython/pikascript-api/__pikaBinding.o
                0x000000000800aa54                PikaStdData_String_setMethod
 .text.PikaStdData_String_splitMethod
                0x000000000800aa70       0x28 ./pikapython/pikascript-api/__pikaBinding.o
                0x000000000800aa70                PikaStdData_String_splitMethod
 .text.PikaStdData_String_startswithMethod
                0x000000000800aa98       0x28 ./pikapython/pikascript-api/__pikaBinding.o
                0x000000000800aa98                PikaStdData_String_startswithMethod
 .text.PikaStdData_String_stripMethod
                0x000000000800aac0       0x28 ./pikapython/pikascript-api/__pikaBinding.o
                0x000000000800aac0                PikaStdData_String_stripMethod
 .text.PikaStdData_Tuple___add__Method
                0x000000000800aae8       0x28 ./pikapython/pikascript-api/__pikaBinding.o
                0x000000000800aae8                PikaStdData_Tuple___add__Method
 .text.PikaStdData_Tuple___del__Method
                0x000000000800ab10        0x4 ./pikapython/pikascript-api/__pikaBinding.o
                0x000000000800ab10                PikaStdData_Tuple___del__Method
 .text.PikaStdData_Tuple___eq__Method
                0x000000000800ab14       0x28 ./pikapython/pikascript-api/__pikaBinding.o
                0x000000000800ab14                PikaStdData_Tuple___eq__Method
 .text.PikaStdData_Tuple___getitem__Method
                0x000000000800ab3c       0x28 ./pikapython/pikascript-api/__pikaBinding.o
                0x000000000800ab3c                PikaStdData_Tuple___getitem__Method
 .text.PikaStdData_Tuple___init__Method
                0x000000000800ab64        0x4 ./pikapython/pikascript-api/__pikaBinding.o
                0x000000000800ab64                PikaStdData_Tuple___init__Method
 .text.PikaStdData_Tuple___iter__Method
                0x000000000800ab68       0x14 ./pikapython/pikascript-api/__pikaBinding.o
                0x000000000800ab68                PikaStdData_Tuple___iter__Method
 .text.PikaStdData_Tuple___len__Method
                0x000000000800ab7c       0x18 ./pikapython/pikascript-api/__pikaBinding.o
                0x000000000800ab7c                PikaStdData_Tuple___len__Method
 .text.PikaStdData_Tuple___mul__Method
                0x000000000800ab94       0x28 ./pikapython/pikascript-api/__pikaBinding.o
                0x000000000800ab94                PikaStdData_Tuple___mul__Method
 .text.PikaStdData_Tuple___next__Method
                0x000000000800abbc       0x14 ./pikapython/pikascript-api/__pikaBinding.o
                0x000000000800abbc                PikaStdData_Tuple___next__Method
 .text.PikaStdData_Tuple___str__Method
                0x000000000800abd0       0x14 ./pikapython/pikascript-api/__pikaBinding.o
                0x000000000800abd0                PikaStdData_Tuple___str__Method
 .text.PikaStdData_Tuple_getMethod
                0x000000000800abe4       0x28 ./pikapython/pikascript-api/__pikaBinding.o
                0x000000000800abe4                PikaStdData_Tuple_getMethod
 .text.PikaStdData_Tuple_lenMethod
                0x000000000800ac0c       0x18 ./pikapython/pikascript-api/__pikaBinding.o
                0x000000000800ac0c                PikaStdData_Tuple_lenMethod
 .text.PikaStdData_Utils_int_to_bytesMethod
                0x000000000800ac24       0x28 ./pikapython/pikascript-api/__pikaBinding.o
                0x000000000800ac24                PikaStdData_Utils_int_to_bytesMethod
 .text.PikaStdData_dict_items___iter__Method
                0x000000000800ac4c       0x14 ./pikapython/pikascript-api/__pikaBinding.o
                0x000000000800ac4c                PikaStdData_dict_items___iter__Method
 .text.PikaStdData_dict_items___len__Method
                0x000000000800ac60       0x18 ./pikapython/pikascript-api/__pikaBinding.o
                0x000000000800ac60                PikaStdData_dict_items___len__Method
 .text.PikaStdData_dict_items___next__Method
                0x000000000800ac78       0x14 ./pikapython/pikascript-api/__pikaBinding.o
                0x000000000800ac78                PikaStdData_dict_items___next__Method
 .text.PikaStdData_dict_items___str__Method
                0x000000000800ac8c       0x14 ./pikapython/pikascript-api/__pikaBinding.o
                0x000000000800ac8c                PikaStdData_dict_items___str__Method
 .text.PikaStdData_dict_keys___iter__Method
                0x000000000800aca0       0x14 ./pikapython/pikascript-api/__pikaBinding.o
                0x000000000800aca0                PikaStdData_dict_keys___iter__Method
 .text.PikaStdData_dict_keys___len__Method
                0x000000000800acb4       0x18 ./pikapython/pikascript-api/__pikaBinding.o
                0x000000000800acb4                PikaStdData_dict_keys___len__Method
 .text.PikaStdData_dict_keys___next__Method
                0x000000000800accc       0x14 ./pikapython/pikascript-api/__pikaBinding.o
                0x000000000800accc                PikaStdData_dict_keys___next__Method
 .text.PikaStdData_dict_keys___str__Method
                0x000000000800ace0       0x14 ./pikapython/pikascript-api/__pikaBinding.o
                0x000000000800ace0                PikaStdData_dict_keys___str__Method
 .text.PikaStdDevice_TimeMethod
                0x000000000800acf4       0x14 ./pikapython/pikascript-api/__pikaBinding.o
                0x000000000800acf4                PikaStdDevice_TimeMethod
 .text.PikaStdDevice_ADC___init__Method
                0x000000000800ad08        0x4 ./pikapython/pikascript-api/__pikaBinding.o
                0x000000000800ad08                PikaStdDevice_ADC___init__Method
 .text.PikaStdDevice_ADC_closeMethod
                0x000000000800ad0c        0x4 ./pikapython/pikascript-api/__pikaBinding.o
                0x000000000800ad0c                PikaStdDevice_ADC_closeMethod
 .text.PikaStdDevice_ADC_disableMethod
                0x000000000800ad10        0x4 ./pikapython/pikascript-api/__pikaBinding.o
                0x000000000800ad10                PikaStdDevice_ADC_disableMethod
 .text.PikaStdDevice_ADC_enableMethod
                0x000000000800ad14        0x4 ./pikapython/pikascript-api/__pikaBinding.o
                0x000000000800ad14                PikaStdDevice_ADC_enableMethod
 .text.PikaStdDevice_ADC_platformDisableMethod
                0x000000000800ad18        0x4 ./pikapython/pikascript-api/__pikaBinding.o
                0x000000000800ad18                PikaStdDevice_ADC_platformDisableMethod
 .text.PikaStdDevice_ADC_platformEnableMethod
                0x000000000800ad1c        0x4 ./pikapython/pikascript-api/__pikaBinding.o
                0x000000000800ad1c                PikaStdDevice_ADC_platformEnableMethod
 .text.PikaStdDevice_ADC_platformReadMethod
                0x000000000800ad20        0x4 ./pikapython/pikascript-api/__pikaBinding.o
                0x000000000800ad20                PikaStdDevice_ADC_platformReadMethod
 .text.PikaStdDevice_ADC_readMethod
                0x000000000800ad24       0x14 ./pikapython/pikascript-api/__pikaBinding.o
                0x000000000800ad24                PikaStdDevice_ADC_readMethod
 .text.PikaStdDevice_ADC_setPinMethod
                0x000000000800ad38       0x1c ./pikapython/pikascript-api/__pikaBinding.o
                0x000000000800ad38                PikaStdDevice_ADC_setPinMethod
 .text.PikaStdDevice_BaseDev_addEventCallBackMethod
                0x000000000800ad54       0x1c ./pikapython/pikascript-api/__pikaBinding.o
                0x000000000800ad54                PikaStdDevice_BaseDev_addEventCallBackMethod
 .text.PikaStdDevice_BaseDev_addEventCallbackMethod
                0x000000000800ad70       0x1c ./pikapython/pikascript-api/__pikaBinding.o
                0x000000000800ad70                PikaStdDevice_BaseDev_addEventCallbackMethod
 .text.PikaStdDevice_BaseDev_platformGetEventIdMethod
                0x000000000800ad8c        0x4 ./pikapython/pikascript-api/__pikaBinding.o
                0x000000000800ad8c                PikaStdDevice_BaseDev_platformGetEventIdMethod
 .text.PikaStdDevice_CAN___init__Method
                0x000000000800ad90        0x4 ./pikapython/pikascript-api/__pikaBinding.o
                0x000000000800ad90                PikaStdDevice_CAN___init__Method
 .text.PikaStdDevice_CAN_addFilterMethod
                0x000000000800ad94       0x74 ./pikapython/pikascript-api/__pikaBinding.o
                0x000000000800ad94                PikaStdDevice_CAN_addFilterMethod
 .text.PikaStdDevice_CAN_disableMethod
                0x000000000800ae08        0x4 ./pikapython/pikascript-api/__pikaBinding.o
                0x000000000800ae08                PikaStdDevice_CAN_disableMethod
 .text.PikaStdDevice_CAN_enableMethod
                0x000000000800ae0c        0x4 ./pikapython/pikascript-api/__pikaBinding.o
                0x000000000800ae0c                PikaStdDevice_CAN_enableMethod
 .text.PikaStdDevice_CAN_platformDisableMethod
                0x000000000800ae10        0x4 ./pikapython/pikascript-api/__pikaBinding.o
                0x000000000800ae10                PikaStdDevice_CAN_platformDisableMethod
 .text.PikaStdDevice_CAN_platformEnableMethod
                0x000000000800ae14        0x4 ./pikapython/pikascript-api/__pikaBinding.o
                0x000000000800ae14                PikaStdDevice_CAN_platformEnableMethod
 .text.PikaStdDevice_CAN_platformReadMethod
                0x000000000800ae18        0x4 ./pikapython/pikascript-api/__pikaBinding.o
                0x000000000800ae18                PikaStdDevice_CAN_platformReadMethod
 .text.PikaStdDevice_CAN_platformReadBytesMethod
                0x000000000800ae1c        0x4 ./pikapython/pikascript-api/__pikaBinding.o
                0x000000000800ae1c                PikaStdDevice_CAN_platformReadBytesMethod
 .text.PikaStdDevice_CAN_platformWriteMethod
                0x000000000800ae20        0x4 ./pikapython/pikascript-api/__pikaBinding.o
                0x000000000800ae20                PikaStdDevice_CAN_platformWriteMethod
 .text.PikaStdDevice_CAN_platformWriteBytesMethod
                0x000000000800ae24        0x4 ./pikapython/pikascript-api/__pikaBinding.o
                0x000000000800ae24                PikaStdDevice_CAN_platformWriteBytesMethod
 .text.PikaStdDevice_CAN_readMethod
                0x000000000800ae28       0x28 ./pikapython/pikascript-api/__pikaBinding.o
                0x000000000800ae28                PikaStdDevice_CAN_readMethod
 .text.PikaStdDevice_CAN_readBytesMethod
                0x000000000800ae50       0x28 ./pikapython/pikascript-api/__pikaBinding.o
                0x000000000800ae50                PikaStdDevice_CAN_readBytesMethod
 .text.PikaStdDevice_CAN_setBaudRateMethod
                0x000000000800ae78       0x1c ./pikapython/pikascript-api/__pikaBinding.o
                0x000000000800ae78                PikaStdDevice_CAN_setBaudRateMethod
 .text.PikaStdDevice_CAN_setIdMethod
                0x000000000800ae94       0x1c ./pikapython/pikascript-api/__pikaBinding.o
                0x000000000800ae94                PikaStdDevice_CAN_setIdMethod
 .text.PikaStdDevice_CAN_setModeMethod
                0x000000000800aeb0       0x1c ./pikapython/pikascript-api/__pikaBinding.o
                0x000000000800aeb0                PikaStdDevice_CAN_setModeMethod
 .text.PikaStdDevice_CAN_setNameMethod
                0x000000000800aecc       0x1c ./pikapython/pikascript-api/__pikaBinding.o
                0x000000000800aecc                PikaStdDevice_CAN_setNameMethod
 .text.PikaStdDevice_CAN_writeMethod
                0x000000000800aee8       0x1c ./pikapython/pikascript-api/__pikaBinding.o
                0x000000000800aee8                PikaStdDevice_CAN_writeMethod
 .text.PikaStdDevice_CAN_writeBytesMethod
                0x000000000800af04       0x30 ./pikapython/pikascript-api/__pikaBinding.o
                0x000000000800af04                PikaStdDevice_CAN_writeBytesMethod
 .text.PikaStdDevice_DAC___init__Method
                0x000000000800af34        0x4 ./pikapython/pikascript-api/__pikaBinding.o
                0x000000000800af34                PikaStdDevice_DAC___init__Method
 .text.PikaStdDevice_DAC_closeMethod
                0x000000000800af38        0x4 ./pikapython/pikascript-api/__pikaBinding.o
                0x000000000800af38                PikaStdDevice_DAC_closeMethod
 .text.PikaStdDevice_DAC_disableMethod
                0x000000000800af3c        0x4 ./pikapython/pikascript-api/__pikaBinding.o
                0x000000000800af3c                PikaStdDevice_DAC_disableMethod
 .text.PikaStdDevice_DAC_enableMethod
                0x000000000800af40        0x4 ./pikapython/pikascript-api/__pikaBinding.o
                0x000000000800af40                PikaStdDevice_DAC_enableMethod
 .text.PikaStdDevice_DAC_setPinMethod
                0x000000000800af44       0x1c ./pikapython/pikascript-api/__pikaBinding.o
                0x000000000800af44                PikaStdDevice_DAC_setPinMethod
 .text.PikaStdDevice_DAC_writeMethod
                0x000000000800af60       0x1c ./pikapython/pikascript-api/__pikaBinding.o
                0x000000000800af60                PikaStdDevice_DAC_writeMethod
 .text.PikaStdDevice_GPIO___init__Method
                0x000000000800af7c        0x4 ./pikapython/pikascript-api/__pikaBinding.o
                0x000000000800af7c                PikaStdDevice_GPIO___init__Method
 .text.PikaStdDevice_GPIO_closeMethod
                0x000000000800af80        0x4 ./pikapython/pikascript-api/__pikaBinding.o
                0x000000000800af80                PikaStdDevice_GPIO_closeMethod
 .text.PikaStdDevice_GPIO_disableMethod
                0x000000000800af84        0x4 ./pikapython/pikascript-api/__pikaBinding.o
                0x000000000800af84                PikaStdDevice_GPIO_disableMethod
 .text.PikaStdDevice_GPIO_enableMethod
                0x000000000800af88        0x4 ./pikapython/pikascript-api/__pikaBinding.o
                0x000000000800af88                PikaStdDevice_GPIO_enableMethod
 .text.PikaStdDevice_GPIO_getIdMethod
                0x000000000800af8c       0x18 ./pikapython/pikascript-api/__pikaBinding.o
                0x000000000800af8c                PikaStdDevice_GPIO_getIdMethod
 .text.PikaStdDevice_GPIO_getModeMethod
                0x000000000800afa4       0x14 ./pikapython/pikascript-api/__pikaBinding.o
                0x000000000800afa4                PikaStdDevice_GPIO_getModeMethod
 .text.PikaStdDevice_GPIO_getPinMethod
                0x000000000800afb8       0x14 ./pikapython/pikascript-api/__pikaBinding.o
                0x000000000800afb8                PikaStdDevice_GPIO_getPinMethod
 .text.PikaStdDevice_GPIO_highMethod
                0x000000000800afcc        0x4 ./pikapython/pikascript-api/__pikaBinding.o
                0x000000000800afcc                PikaStdDevice_GPIO_highMethod
 .text.PikaStdDevice_GPIO_lowMethod
                0x000000000800afd0        0x4 ./pikapython/pikascript-api/__pikaBinding.o
                0x000000000800afd0                PikaStdDevice_GPIO_lowMethod
 .text.PikaStdDevice_GPIO_platformDisableMethod
                0x000000000800afd4        0x4 ./pikapython/pikascript-api/__pikaBinding.o
                0x000000000800afd4                PikaStdDevice_GPIO_platformDisableMethod
 .text.PikaStdDevice_GPIO_platformEnableMethod
                0x000000000800afd8        0x4 ./pikapython/pikascript-api/__pikaBinding.o
                0x000000000800afd8                PikaStdDevice_GPIO_platformEnableMethod
 .text.PikaStdDevice_GPIO_platformHighMethod
                0x000000000800afdc        0x4 ./pikapython/pikascript-api/__pikaBinding.o
                0x000000000800afdc                PikaStdDevice_GPIO_platformHighMethod
 .text.PikaStdDevice_GPIO_platformLowMethod
                0x000000000800afe0        0x4 ./pikapython/pikascript-api/__pikaBinding.o
                0x000000000800afe0                PikaStdDevice_GPIO_platformLowMethod
 .text.PikaStdDevice_GPIO_platformReadMethod
                0x000000000800afe4        0x4 ./pikapython/pikascript-api/__pikaBinding.o
                0x000000000800afe4                PikaStdDevice_GPIO_platformReadMethod
 .text.PikaStdDevice_GPIO_platformSetModeMethod
                0x000000000800afe8        0x4 ./pikapython/pikascript-api/__pikaBinding.o
                0x000000000800afe8                PikaStdDevice_GPIO_platformSetModeMethod
 .text.PikaStdDevice_GPIO_readMethod
                0x000000000800afec       0x18 ./pikapython/pikascript-api/__pikaBinding.o
                0x000000000800afec                PikaStdDevice_GPIO_readMethod
 .text.PikaStdDevice_GPIO_setCallBackMethod
                0x000000000800b004       0x30 ./pikapython/pikascript-api/__pikaBinding.o
                0x000000000800b004                PikaStdDevice_GPIO_setCallBackMethod
 .text.PikaStdDevice_GPIO_setCallbackMethod
                0x000000000800b034       0x30 ./pikapython/pikascript-api/__pikaBinding.o
                0x000000000800b034                PikaStdDevice_GPIO_setCallbackMethod
 .text.PikaStdDevice_GPIO_setIdMethod
                0x000000000800b064       0x1c ./pikapython/pikascript-api/__pikaBinding.o
                0x000000000800b064                PikaStdDevice_GPIO_setIdMethod
 .text.PikaStdDevice_GPIO_setModeMethod
                0x000000000800b080       0x1c ./pikapython/pikascript-api/__pikaBinding.o
                0x000000000800b080                PikaStdDevice_GPIO_setModeMethod
 .text.PikaStdDevice_GPIO_setPinMethod
                0x000000000800b09c       0x1c ./pikapython/pikascript-api/__pikaBinding.o
                0x000000000800b09c                PikaStdDevice_GPIO_setPinMethod
 .text.PikaStdDevice_GPIO_setPullMethod
                0x000000000800b0b8       0x1c ./pikapython/pikascript-api/__pikaBinding.o
                0x000000000800b0b8                PikaStdDevice_GPIO_setPullMethod
 .text.PikaStdDevice_IIC___init__Method
                0x000000000800b0d4        0x4 ./pikapython/pikascript-api/__pikaBinding.o
                0x000000000800b0d4                PikaStdDevice_IIC___init__Method
 .text.PikaStdDevice_IIC_disableMethod
                0x000000000800b0d8        0x4 ./pikapython/pikascript-api/__pikaBinding.o
                0x000000000800b0d8                PikaStdDevice_IIC_disableMethod
 .text.PikaStdDevice_IIC_enableMethod
                0x000000000800b0dc        0x4 ./pikapython/pikascript-api/__pikaBinding.o
                0x000000000800b0dc                PikaStdDevice_IIC_enableMethod
 .text.PikaStdDevice_IIC_platformDisableMethod
                0x000000000800b0e0        0x4 ./pikapython/pikascript-api/__pikaBinding.o
                0x000000000800b0e0                PikaStdDevice_IIC_platformDisableMethod
 .text.PikaStdDevice_IIC_platformEnableMethod
                0x000000000800b0e4        0x4 ./pikapython/pikascript-api/__pikaBinding.o
                0x000000000800b0e4                PikaStdDevice_IIC_platformEnableMethod
 .text.PikaStdDevice_IIC_platformReadMethod
                0x000000000800b0e8        0x4 ./pikapython/pikascript-api/__pikaBinding.o
                0x000000000800b0e8                PikaStdDevice_IIC_platformReadMethod
 .text.PikaStdDevice_IIC_platformReadBytesMethod
                0x000000000800b0ec        0x4 ./pikapython/pikascript-api/__pikaBinding.o
                0x000000000800b0ec                PikaStdDevice_IIC_platformReadBytesMethod
 .text.PikaStdDevice_IIC_platformWriteMethod
                0x000000000800b0f0        0x4 ./pikapython/pikascript-api/__pikaBinding.o
                0x000000000800b0f0                PikaStdDevice_IIC_platformWriteMethod
 .text.PikaStdDevice_IIC_platformWriteBytesMethod
                0x000000000800b0f4        0x4 ./pikapython/pikascript-api/__pikaBinding.o
                0x000000000800b0f4                PikaStdDevice_IIC_platformWriteBytesMethod
 .text.PikaStdDevice_IIC_readMethod
                0x000000000800b0f8       0x38 ./pikapython/pikascript-api/__pikaBinding.o
                0x000000000800b0f8                PikaStdDevice_IIC_readMethod
 .text.PikaStdDevice_IIC_readBytesMethod
                0x000000000800b130       0x38 ./pikapython/pikascript-api/__pikaBinding.o
                0x000000000800b130                PikaStdDevice_IIC_readBytesMethod
 .text.PikaStdDevice_IIC_setDeviceAddrMethod
                0x000000000800b168       0x1c ./pikapython/pikascript-api/__pikaBinding.o
                0x000000000800b168                PikaStdDevice_IIC_setDeviceAddrMethod
 .text.PikaStdDevice_IIC_setPinSCLMethod
                0x000000000800b184       0x1c ./pikapython/pikascript-api/__pikaBinding.o
                0x000000000800b184                PikaStdDevice_IIC_setPinSCLMethod
 .text.PikaStdDevice_IIC_setPinSDAMethod
                0x000000000800b1a0       0x1c ./pikapython/pikascript-api/__pikaBinding.o
                0x000000000800b1a0                PikaStdDevice_IIC_setPinSDAMethod
 .text.PikaStdDevice_IIC_writeMethod
                0x000000000800b1bc       0x30 ./pikapython/pikascript-api/__pikaBinding.o
                0x000000000800b1bc                PikaStdDevice_IIC_writeMethod
 .text.PikaStdDevice_IIC_writeBytesMethod
                0x000000000800b1ec       0x44 ./pikapython/pikascript-api/__pikaBinding.o
                0x000000000800b1ec                PikaStdDevice_IIC_writeBytesMethod
 .text.PikaStdDevice_PWM___init__Method
                0x000000000800b230        0x4 ./pikapython/pikascript-api/__pikaBinding.o
                0x000000000800b230                PikaStdDevice_PWM___init__Method
 .text.PikaStdDevice_PWM_closeMethod
                0x000000000800b234        0x4 ./pikapython/pikascript-api/__pikaBinding.o
                0x000000000800b234                PikaStdDevice_PWM_closeMethod
 .text.PikaStdDevice_PWM_disableMethod
                0x000000000800b238        0x4 ./pikapython/pikascript-api/__pikaBinding.o
                0x000000000800b238                PikaStdDevice_PWM_disableMethod
 .text.PikaStdDevice_PWM_enableMethod
                0x000000000800b23c        0x4 ./pikapython/pikascript-api/__pikaBinding.o
                0x000000000800b23c                PikaStdDevice_PWM_enableMethod
 .text.PikaStdDevice_PWM_getChannelMethod
                0x000000000800b240       0x18 ./pikapython/pikascript-api/__pikaBinding.o
                0x000000000800b240                PikaStdDevice_PWM_getChannelMethod
 .text.PikaStdDevice_PWM_getDutyMethod
                0x000000000800b258       0x14 ./pikapython/pikascript-api/__pikaBinding.o
                0x000000000800b258                PikaStdDevice_PWM_getDutyMethod
 .text.PikaStdDevice_PWM_getFrequencyMethod
                0x000000000800b26c       0x18 ./pikapython/pikascript-api/__pikaBinding.o
                0x000000000800b26c                PikaStdDevice_PWM_getFrequencyMethod
 .text.PikaStdDevice_PWM_getNameMethod
                0x000000000800b284       0x14 ./pikapython/pikascript-api/__pikaBinding.o
                0x000000000800b284                PikaStdDevice_PWM_getNameMethod
 .text.PikaStdDevice_PWM_platformDisableMethod
                0x000000000800b298        0x4 ./pikapython/pikascript-api/__pikaBinding.o
                0x000000000800b298                PikaStdDevice_PWM_platformDisableMethod
 .text.PikaStdDevice_PWM_platformEnableMethod
                0x000000000800b29c        0x4 ./pikapython/pikascript-api/__pikaBinding.o
                0x000000000800b29c                PikaStdDevice_PWM_platformEnableMethod
 .text.PikaStdDevice_PWM_platformSetDutyMethod
                0x000000000800b2a0        0x4 ./pikapython/pikascript-api/__pikaBinding.o
                0x000000000800b2a0                PikaStdDevice_PWM_platformSetDutyMethod
 .text.PikaStdDevice_PWM_platformSetFrequencyMethod
                0x000000000800b2a4        0x4 ./pikapython/pikascript-api/__pikaBinding.o
                0x000000000800b2a4                PikaStdDevice_PWM_platformSetFrequencyMethod
 .text.PikaStdDevice_PWM_setChannelMethod
                0x000000000800b2a8       0x1c ./pikapython/pikascript-api/__pikaBinding.o
                0x000000000800b2a8                PikaStdDevice_PWM_setChannelMethod
 .text.PikaStdDevice_PWM_setDutyMethod
                0x000000000800b2c4       0x1c ./pikapython/pikascript-api/__pikaBinding.o
                0x000000000800b2c4                PikaStdDevice_PWM_setDutyMethod
 .text.PikaStdDevice_PWM_setFreqMethod
                0x000000000800b2e0       0x1c ./pikapython/pikascript-api/__pikaBinding.o
                0x000000000800b2e0                PikaStdDevice_PWM_setFreqMethod
 .text.PikaStdDevice_PWM_setFrequencyMethod
                0x000000000800b2fc       0x1c ./pikapython/pikascript-api/__pikaBinding.o
                0x000000000800b2fc                PikaStdDevice_PWM_setFrequencyMethod
 .text.PikaStdDevice_PWM_setNameMethod
                0x000000000800b318       0x1c ./pikapython/pikascript-api/__pikaBinding.o
                0x000000000800b318                PikaStdDevice_PWM_setNameMethod
 .text.PikaStdDevice_PWM_setPinMethod
                0x000000000800b334       0x1c ./pikapython/pikascript-api/__pikaBinding.o
                0x000000000800b334                PikaStdDevice_PWM_setPinMethod
 .text.PikaStdDevice_SPI___init__Method
                0x000000000800b350        0x4 ./pikapython/pikascript-api/__pikaBinding.o
                0x000000000800b350                PikaStdDevice_SPI___init__Method
 .text.PikaStdDevice_SPI_disableMethod
                0x000000000800b354        0x4 ./pikapython/pikascript-api/__pikaBinding.o
                0x000000000800b354                PikaStdDevice_SPI_disableMethod
 .text.PikaStdDevice_SPI_enableMethod
                0x000000000800b358        0x4 ./pikapython/pikascript-api/__pikaBinding.o
                0x000000000800b358                PikaStdDevice_SPI_enableMethod
 .text.PikaStdDevice_SPI_platformDisableMethod
                0x000000000800b35c        0x4 ./pikapython/pikascript-api/__pikaBinding.o
                0x000000000800b35c                PikaStdDevice_SPI_platformDisableMethod
 .text.PikaStdDevice_SPI_platformEnableMethod
                0x000000000800b360        0x4 ./pikapython/pikascript-api/__pikaBinding.o
                0x000000000800b360                PikaStdDevice_SPI_platformEnableMethod
 .text.PikaStdDevice_SPI_platformReadMethod
                0x000000000800b364        0x4 ./pikapython/pikascript-api/__pikaBinding.o
                0x000000000800b364                PikaStdDevice_SPI_platformReadMethod
 .text.PikaStdDevice_SPI_platformReadBytesMethod
                0x000000000800b368        0x4 ./pikapython/pikascript-api/__pikaBinding.o
                0x000000000800b368                PikaStdDevice_SPI_platformReadBytesMethod
 .text.PikaStdDevice_SPI_platformWriteMethod
                0x000000000800b36c        0x4 ./pikapython/pikascript-api/__pikaBinding.o
                0x000000000800b36c                PikaStdDevice_SPI_platformWriteMethod
 .text.PikaStdDevice_SPI_platformWriteBytesMethod
                0x000000000800b370        0x4 ./pikapython/pikascript-api/__pikaBinding.o
                0x000000000800b370                PikaStdDevice_SPI_platformWriteBytesMethod
 .text.PikaStdDevice_SPI_readMethod
                0x000000000800b374       0x28 ./pikapython/pikascript-api/__pikaBinding.o
                0x000000000800b374                PikaStdDevice_SPI_readMethod
 .text.PikaStdDevice_SPI_readBytesMethod
                0x000000000800b39c       0x28 ./pikapython/pikascript-api/__pikaBinding.o
                0x000000000800b39c                PikaStdDevice_SPI_readBytesMethod
 .text.PikaStdDevice_SPI_setBaudRateMethod
                0x000000000800b3c4       0x1c ./pikapython/pikascript-api/__pikaBinding.o
                0x000000000800b3c4                PikaStdDevice_SPI_setBaudRateMethod
 .text.PikaStdDevice_SPI_setIdMethod
                0x000000000800b3e0       0x1c ./pikapython/pikascript-api/__pikaBinding.o
                0x000000000800b3e0                PikaStdDevice_SPI_setIdMethod
 .text.PikaStdDevice_SPI_setNameMethod
                0x000000000800b3fc       0x1c ./pikapython/pikascript-api/__pikaBinding.o
                0x000000000800b3fc                PikaStdDevice_SPI_setNameMethod
 .text.PikaStdDevice_SPI_setPhaseMethod
                0x000000000800b418       0x1c ./pikapython/pikascript-api/__pikaBinding.o
                0x000000000800b418                PikaStdDevice_SPI_setPhaseMethod
 .text.PikaStdDevice_SPI_setPinMISOMethod
                0x000000000800b434       0x1c ./pikapython/pikascript-api/__pikaBinding.o
                0x000000000800b434                PikaStdDevice_SPI_setPinMISOMethod
 .text.PikaStdDevice_SPI_setPinMOSIMethod
                0x000000000800b450       0x1c ./pikapython/pikascript-api/__pikaBinding.o
                0x000000000800b450                PikaStdDevice_SPI_setPinMOSIMethod
 .text.PikaStdDevice_SPI_setPinSCKMethod
                0x000000000800b46c       0x1c ./pikapython/pikascript-api/__pikaBinding.o
                0x000000000800b46c                PikaStdDevice_SPI_setPinSCKMethod
 .text.PikaStdDevice_SPI_setPolarityMethod
                0x000000000800b488       0x1c ./pikapython/pikascript-api/__pikaBinding.o
                0x000000000800b488                PikaStdDevice_SPI_setPolarityMethod
 .text.PikaStdDevice_SPI_writeMethod
                0x000000000800b4a4       0x1c ./pikapython/pikascript-api/__pikaBinding.o
                0x000000000800b4a4                PikaStdDevice_SPI_writeMethod
 .text.PikaStdDevice_SPI_writeBytesMethod
                0x000000000800b4c0       0x30 ./pikapython/pikascript-api/__pikaBinding.o
                0x000000000800b4c0                PikaStdDevice_SPI_writeBytesMethod
 .text.PikaStdDevice_Timer___init__Method
                0x000000000800b4f0        0x4 ./pikapython/pikascript-api/__pikaBinding.o
                0x000000000800b4f0                PikaStdDevice_Timer___init__Method
 .text.PikaStdDevice_Timer_closeMethod
                0x000000000800b4f4        0x4 ./pikapython/pikascript-api/__pikaBinding.o
                0x000000000800b4f4                PikaStdDevice_Timer_closeMethod
 .text.PikaStdDevice_Timer_disableMethod
                0x000000000800b4f8        0x4 ./pikapython/pikascript-api/__pikaBinding.o
                0x000000000800b4f8                PikaStdDevice_Timer_disableMethod
 .text.PikaStdDevice_Timer_enableMethod
                0x000000000800b4fc        0x4 ./pikapython/pikascript-api/__pikaBinding.o
                0x000000000800b4fc                PikaStdDevice_Timer_enableMethod
 .text.PikaStdDevice_Timer_getIdMethod
                0x000000000800b500       0x18 ./pikapython/pikascript-api/__pikaBinding.o
                0x000000000800b500                PikaStdDevice_Timer_getIdMethod
 .text.PikaStdDevice_Timer_getNameMethod
                0x000000000800b518       0x14 ./pikapython/pikascript-api/__pikaBinding.o
                0x000000000800b518                PikaStdDevice_Timer_getNameMethod
 .text.PikaStdDevice_Timer_setCallbackMethod
                0x000000000800b52c       0x30 ./pikapython/pikascript-api/__pikaBinding.o
                0x000000000800b52c                PikaStdDevice_Timer_setCallbackMethod
 .text.PikaStdDevice_Timer_setIdMethod
                0x000000000800b55c       0x1c ./pikapython/pikascript-api/__pikaBinding.o
                0x000000000800b55c                PikaStdDevice_Timer_setIdMethod
 .text.PikaStdDevice_Timer_setModeMethod
                0x000000000800b578       0x1c ./pikapython/pikascript-api/__pikaBinding.o
                0x000000000800b578                PikaStdDevice_Timer_setModeMethod
 .text.PikaStdDevice_Timer_setNameMethod
                0x000000000800b594       0x1c ./pikapython/pikascript-api/__pikaBinding.o
                0x000000000800b594                PikaStdDevice_Timer_setNameMethod
 .text.PikaStdDevice_Timer_setPeriodMethod
                0x000000000800b5b0       0x1c ./pikapython/pikascript-api/__pikaBinding.o
                0x000000000800b5b0                PikaStdDevice_Timer_setPeriodMethod
 .text.PikaStdDevice_UART___init__Method
                0x000000000800b5cc        0x4 ./pikapython/pikascript-api/__pikaBinding.o
                0x000000000800b5cc                PikaStdDevice_UART___init__Method
 .text.PikaStdDevice_UART_closeMethod
                0x000000000800b5d0        0x4 ./pikapython/pikascript-api/__pikaBinding.o
                0x000000000800b5d0                PikaStdDevice_UART_closeMethod
 .text.PikaStdDevice_UART_disableMethod
                0x000000000800b5d4        0x4 ./pikapython/pikascript-api/__pikaBinding.o
                0x000000000800b5d4                PikaStdDevice_UART_disableMethod
 .text.PikaStdDevice_UART_enableMethod
                0x000000000800b5d8        0x4 ./pikapython/pikascript-api/__pikaBinding.o
                0x000000000800b5d8                PikaStdDevice_UART_enableMethod
 .text.PikaStdDevice_UART_platformDisableMethod
                0x000000000800b5dc        0x4 ./pikapython/pikascript-api/__pikaBinding.o
                0x000000000800b5dc                PikaStdDevice_UART_platformDisableMethod
 .text.PikaStdDevice_UART_platformEnableMethod
                0x000000000800b5e0        0x4 ./pikapython/pikascript-api/__pikaBinding.o
                0x000000000800b5e0                PikaStdDevice_UART_platformEnableMethod
 .text.PikaStdDevice_UART_platformReadMethod
                0x000000000800b5e4        0x4 ./pikapython/pikascript-api/__pikaBinding.o
                0x000000000800b5e4                PikaStdDevice_UART_platformReadMethod
 .text.PikaStdDevice_UART_platformReadBytesMethod
                0x000000000800b5e8        0x4 ./pikapython/pikascript-api/__pikaBinding.o
                0x000000000800b5e8                PikaStdDevice_UART_platformReadBytesMethod
 .text.PikaStdDevice_UART_platformWriteMethod
                0x000000000800b5ec        0x4 ./pikapython/pikascript-api/__pikaBinding.o
                0x000000000800b5ec                PikaStdDevice_UART_platformWriteMethod
 .text.PikaStdDevice_UART_platformWriteBytesMethod
                0x000000000800b5f0        0x4 ./pikapython/pikascript-api/__pikaBinding.o
                0x000000000800b5f0                PikaStdDevice_UART_platformWriteBytesMethod
 .text.PikaStdDevice_UART_readMethod
                0x000000000800b5f4       0x28 ./pikapython/pikascript-api/__pikaBinding.o
                0x000000000800b5f4                PikaStdDevice_UART_readMethod
 .text.PikaStdDevice_UART_readBytesMethod
                0x000000000800b61c       0x28 ./pikapython/pikascript-api/__pikaBinding.o
                0x000000000800b61c                PikaStdDevice_UART_readBytesMethod
 .text.PikaStdDevice_UART_setBaudRateMethod
                0x000000000800b644       0x1c ./pikapython/pikascript-api/__pikaBinding.o
                0x000000000800b644                PikaStdDevice_UART_setBaudRateMethod
 .text.PikaStdDevice_UART_setCallBackMethod
                0x000000000800b660       0x30 ./pikapython/pikascript-api/__pikaBinding.o
                0x000000000800b660                PikaStdDevice_UART_setCallBackMethod
 .text.PikaStdDevice_UART_setCallbackMethod
                0x000000000800b690       0x30 ./pikapython/pikascript-api/__pikaBinding.o
                0x000000000800b690                PikaStdDevice_UART_setCallbackMethod
 .text.PikaStdDevice_UART_setDataBitsMethod
                0x000000000800b6c0       0x1c ./pikapython/pikascript-api/__pikaBinding.o
                0x000000000800b6c0                PikaStdDevice_UART_setDataBitsMethod
 .text.PikaStdDevice_UART_setFlowControlMethod
                0x000000000800b6dc       0x1c ./pikapython/pikascript-api/__pikaBinding.o
                0x000000000800b6dc                PikaStdDevice_UART_setFlowControlMethod
 .text.PikaStdDevice_UART_setIdMethod
                0x000000000800b6f8       0x1c ./pikapython/pikascript-api/__pikaBinding.o
                0x000000000800b6f8                PikaStdDevice_UART_setIdMethod
 .text.PikaStdDevice_UART_setParityMethod
                0x000000000800b714       0x1c ./pikapython/pikascript-api/__pikaBinding.o
                0x000000000800b714                PikaStdDevice_UART_setParityMethod
 .text.PikaStdDevice_UART_setPinCTSMethod
                0x000000000800b730       0x1c ./pikapython/pikascript-api/__pikaBinding.o
                0x000000000800b730                PikaStdDevice_UART_setPinCTSMethod
 .text.PikaStdDevice_UART_setPinRTSMethod
                0x000000000800b74c       0x1c ./pikapython/pikascript-api/__pikaBinding.o
                0x000000000800b74c                PikaStdDevice_UART_setPinRTSMethod
 .text.PikaStdDevice_UART_setPinRXMethod
                0x000000000800b768       0x1c ./pikapython/pikascript-api/__pikaBinding.o
                0x000000000800b768                PikaStdDevice_UART_setPinRXMethod
 .text.PikaStdDevice_UART_setPinTXMethod
                0x000000000800b784       0x1c ./pikapython/pikascript-api/__pikaBinding.o
                0x000000000800b784                PikaStdDevice_UART_setPinTXMethod
 .text.PikaStdDevice_UART_setStopBitsMethod
                0x000000000800b7a0       0x1c ./pikapython/pikascript-api/__pikaBinding.o
                0x000000000800b7a0                PikaStdDevice_UART_setStopBitsMethod
 .text.PikaStdDevice_UART_writeMethod
                0x000000000800b7bc       0x1c ./pikapython/pikascript-api/__pikaBinding.o
                0x000000000800b7bc                PikaStdDevice_UART_writeMethod
 .text.PikaStdDevice_UART_writeBytesMethod
                0x000000000800b7d8       0x30 ./pikapython/pikascript-api/__pikaBinding.o
                0x000000000800b7d8                PikaStdDevice_UART_writeBytesMethod
 .text.PikaStdLib_MemChecker_getMaxMethod
                0x000000000800b808       0x14 ./pikapython/pikascript-api/__pikaBinding.o
                0x000000000800b808                PikaStdLib_MemChecker_getMaxMethod
 .text.PikaStdLib_MemChecker_getNowMethod
                0x000000000800b81c       0x14 ./pikapython/pikascript-api/__pikaBinding.o
                0x000000000800b81c                PikaStdLib_MemChecker_getNowMethod
 .text.PikaStdLib_MemChecker_maxMethod
                0x000000000800b830        0x4 ./pikapython/pikascript-api/__pikaBinding.o
                0x000000000800b830                PikaStdLib_MemChecker_maxMethod
 .text.PikaStdLib_MemChecker_nowMethod
                0x000000000800b834        0x4 ./pikapython/pikascript-api/__pikaBinding.o
                0x000000000800b834                PikaStdLib_MemChecker_nowMethod
 .text.PikaStdLib_MemChecker_resetMaxMethod
                0x000000000800b838        0x4 ./pikapython/pikascript-api/__pikaBinding.o
                0x000000000800b838                PikaStdLib_MemChecker_resetMaxMethod
 .text.PikaStdLib_REPL_setEchoMethod
                0x000000000800b83c       0x20 ./pikapython/pikascript-api/__pikaBinding.o
                0x000000000800b83c                PikaStdLib_REPL_setEchoMethod
 .text._thread_stack_sizeMethod
                0x000000000800b85c       0x28 ./pikapython/pikascript-api/__pikaBinding.o
                0x000000000800b85c                _thread_stack_sizeMethod
 .text._thread_start_new_threadMethod
                0x000000000800b884       0x30 ./pikapython/pikascript-api/__pikaBinding.o
                0x000000000800b884                _thread_start_new_threadMethod
 .text._time___init__Method
                0x000000000800b8b4        0x4 ./pikapython/pikascript-api/__pikaBinding.o
                0x000000000800b8b4                _time___init__Method
 .text._time_asctimeMethod
                0x000000000800b8b8        0x4 ./pikapython/pikascript-api/__pikaBinding.o
                0x000000000800b8b8                _time_asctimeMethod
 .text._time_ctimeMethod
                0x000000000800b8bc       0x1c ./pikapython/pikascript-api/__pikaBinding.o
                0x000000000800b8bc                _time_ctimeMethod
 .text._time_gmtimeMethod
                0x000000000800b8d8       0x1c ./pikapython/pikascript-api/__pikaBinding.o
                0x000000000800b8d8                _time_gmtimeMethod
 .text._time_localtimeMethod
                0x000000000800b8f4       0x1c ./pikapython/pikascript-api/__pikaBinding.o
                0x000000000800b8f4                _time_localtimeMethod
 .text._time_mktimeMethod
                0x000000000800b910       0x18 ./pikapython/pikascript-api/__pikaBinding.o
                0x000000000800b910                _time_mktimeMethod
 .text._time_platformGetTickMethod
                0x000000000800b928        0x4 ./pikapython/pikascript-api/__pikaBinding.o
                0x000000000800b928                _time_platformGetTickMethod
 .text._time_sleep_msMethod
                0x000000000800b92c       0x1c ./pikapython/pikascript-api/__pikaBinding.o
                0x000000000800b92c                _time_sleep_msMethod
 .text._time_sleep_sMethod
                0x000000000800b948       0x1c ./pikapython/pikascript-api/__pikaBinding.o
                0x000000000800b948                _time_sleep_sMethod
 .text._time_timeMethod
                0x000000000800b964       0x14 ./pikapython/pikascript-api/__pikaBinding.o
                0x000000000800b964                _time_timeMethod
 .text._time_time_nsMethod
                0x000000000800b978       0x18 ./pikapython/pikascript-api/__pikaBinding.o
                0x000000000800b978                _time_time_nsMethod
 .text.builtins___getitem__Method
                0x000000000800b990       0x38 ./pikapython/pikascript-api/__pikaBinding.o
                0x000000000800b990                builtins___getitem__Method
 .text.builtins___setitem__Method
                0x000000000800b9c8       0x4c ./pikapython/pikascript-api/__pikaBinding.o
                0x000000000800b9c8                builtins___setitem__Method
 .text.builtins_absMethod
                0x000000000800ba14       0x28 ./pikapython/pikascript-api/__pikaBinding.o
                0x000000000800ba14                builtins_absMethod
 .text.builtins_boolMethod
                0x000000000800ba3c       0x28 ./pikapython/pikascript-api/__pikaBinding.o
                0x000000000800ba3c                builtins_boolMethod
 .text.builtins_bytesMethod
                0x000000000800ba64       0x28 ./pikapython/pikascript-api/__pikaBinding.o
                0x000000000800ba64                builtins_bytesMethod
 .text.builtins_cformatMethod
                0x000000000800ba8c       0x38 ./pikapython/pikascript-api/__pikaBinding.o
                0x000000000800ba8c                builtins_cformatMethod
 .text.builtins_chrMethod
                0x000000000800bac4       0x28 ./pikapython/pikascript-api/__pikaBinding.o
                0x000000000800bac4                builtins_chrMethod
 .text.builtins_clearMethod
                0x000000000800baec        0x4 ./pikapython/pikascript-api/__pikaBinding.o
                0x000000000800baec                builtins_clearMethod
 .text.builtins_dictMethod
                0x000000000800baf0       0x28 ./pikapython/pikascript-api/__pikaBinding.o
                0x000000000800baf0                builtins_dictMethod
 .text.builtins_dirMethod
                0x000000000800bb18       0x28 ./pikapython/pikascript-api/__pikaBinding.o
                0x000000000800bb18                builtins_dirMethod
 .text.builtins_evalMethod
                0x000000000800bb40       0x28 ./pikapython/pikascript-api/__pikaBinding.o
                0x000000000800bb40                builtins_evalMethod
 .text.builtins_execMethod
                0x000000000800bb68       0x1c ./pikapython/pikascript-api/__pikaBinding.o
                0x000000000800bb68                builtins_execMethod
 .text.builtins_exitMethod
                0x000000000800bb84        0x4 ./pikapython/pikascript-api/__pikaBinding.o
                0x000000000800bb84                builtins_exitMethod
 .text.builtins_floatMethod
                0x000000000800bb88       0x24 ./pikapython/pikascript-api/__pikaBinding.o
                0x000000000800bb88                builtins_floatMethod
 .text.builtins_gcdumpMethod
                0x000000000800bbac        0x4 ./pikapython/pikascript-api/__pikaBinding.o
                0x000000000800bbac                builtins_gcdumpMethod
 .text.builtins_getattrMethod
                0x000000000800bbb0       0x38 ./pikapython/pikascript-api/__pikaBinding.o
                0x000000000800bbb0                builtins_getattrMethod
 .text.builtins_hasattrMethod
                0x000000000800bbe8       0x38 ./pikapython/pikascript-api/__pikaBinding.o
                0x000000000800bbe8                builtins_hasattrMethod
 .text.builtins_helpMethod
                0x000000000800bc20       0x1c ./pikapython/pikascript-api/__pikaBinding.o
                0x000000000800bc20                builtins_helpMethod
 .text.builtins_hexMethod
                0x000000000800bc3c       0x28 ./pikapython/pikascript-api/__pikaBinding.o
                0x000000000800bc3c                builtins_hexMethod
 .text.builtins_idMethod
                0x000000000800bc64       0x28 ./pikapython/pikascript-api/__pikaBinding.o
                0x000000000800bc64                builtins_idMethod
 .text.builtins_inputMethod
                0x000000000800bc8c       0x28 ./pikapython/pikascript-api/__pikaBinding.o
                0x000000000800bc8c                builtins_inputMethod
 .text.builtins_intMethod
                0x000000000800bcb4       0x38 ./pikapython/pikascript-api/__pikaBinding.o
                0x000000000800bcb4                builtins_intMethod
 .text.builtins_isinstanceMethod
                0x000000000800bcec       0x38 ./pikapython/pikascript-api/__pikaBinding.o
                0x000000000800bcec                builtins_isinstanceMethod
 .text.builtins_iterMethod
                0x000000000800bd24       0x28 ./pikapython/pikascript-api/__pikaBinding.o
                0x000000000800bd24                builtins_iterMethod
 .text.builtins_lenMethod
                0x000000000800bd4c       0x28 ./pikapython/pikascript-api/__pikaBinding.o
                0x000000000800bd4c                builtins_lenMethod
 .text.builtins_listMethod
                0x000000000800bd74       0x28 ./pikapython/pikascript-api/__pikaBinding.o
                0x000000000800bd74                builtins_listMethod
 .text.builtins_maxMethod
                0x000000000800bd9c       0x28 ./pikapython/pikascript-api/__pikaBinding.o
                0x000000000800bd9c                builtins_maxMethod
 .text.builtins_minMethod
                0x000000000800bdc4       0x28 ./pikapython/pikascript-api/__pikaBinding.o
                0x000000000800bdc4                builtins_minMethod
 .text.builtins_openMethod
                0x000000000800bdec       0x38 ./pikapython/pikascript-api/__pikaBinding.o
                0x000000000800bdec                builtins_openMethod
 .text.builtins_ordMethod
