
f411-cdc.elf:     file format elf32-littlearm

Sections:
Idx Name          Size      VMA       LMA       File off  Algn
  0 .isr_vector   00000198  08000000  08000000  00010000  2**0
                  CONTENTS, ALLOC, LOAD, READONLY, DATA
  1 .text         000318f4  080001a0  080001a0  000101a0  2**4
                  CONTENTS, ALLOC, LOAD, READONLY, CODE
  2 .rodata       0000a814  08031a98  08031a98  00041a98  2**3
                  CONTENTS, ALLOC, LOAD, READONLY, DATA
  3 .ARM.extab    00000000  0803c2ac  0803c2ac  00050860  2**0
                  CONTENTS
  4 .ARM          00000008  0803c2ac  0803c2ac  0004c2ac  2**2
                  CONTENTS, ALLOC, LOAD, READONLY, DATA
  5 .preinit_array 00000000  0803c2b4  0803c2b4  00050860  2**0
                  CONTENTS, ALLOC, LOAD, DATA
  6 .init_array   00000004  0803c2b4  0803c2b4  0004c2b4  2**2
                  CONTENTS, ALLOC, LOAD, DATA
  7 .fini_array   00000004  0803c2b8  0803c2b8  0004c2b8  2**2
                  CONTENTS, ALLOC, LOAD, DATA
  8 .data         00000860  20000000  0803c2bc  00050000  2**3
                  CONTENTS, ALLOC, LOAD, DATA
  9 .bss          00013894  20000860  0803cb1c  00050860  2**3
                  ALLOC
 10 ._user_heap_stack 00000604  200140f4  0803cb1c  000540f4  2**0
                  ALLOC
 11 .ARM.attributes 00000030  00000000  00000000  00050860  2**0
                  CONTENTS, READONLY
 12 .comment      00000043  00000000  00000000  00050890  2**0
                  CONTENTS, READONLY
 13 .debug_frame  00001544  00000000  00000000  000508d4  2**2
                  CONTENTS, READONLY, DEBUGGING, OCTETS

Disassembly of section .text:

080001a0 <__do_global_dtors_aux>:
 80001a0:	b510      	push	{r4, lr}
 80001a2:	4c05      	ldr	r4, [pc, #20]	; (80001b8 <__do_global_dtors_aux+0x18>)
 80001a4:	7823      	ldrb	r3, [r4, #0]
 80001a6:	b933      	cbnz	r3, 80001b6 <__do_global_dtors_aux+0x16>
 80001a8:	4b04      	ldr	r3, [pc, #16]	; (80001bc <__do_global_dtors_aux+0x1c>)
 80001aa:	b113      	cbz	r3, 80001b2 <__do_global_dtors_aux+0x12>
 80001ac:	4804      	ldr	r0, [pc, #16]	; (80001c0 <__do_global_dtors_aux+0x20>)
 80001ae:	f3af 8000 	nop.w
 80001b2:	2301      	movs	r3, #1
 80001b4:	7023      	strb	r3, [r4, #0]
 80001b6:	bd10      	pop	{r4, pc}
 80001b8:	20000860 	.word	0x20000860
 80001bc:	00000000 	.word	0x00000000
 80001c0:	08031a7c 	.word	0x08031a7c

080001c4 <frame_dummy>:
 80001c4:	b508      	push	{r3, lr}
 80001c6:	4b03      	ldr	r3, [pc, #12]	; (80001d4 <frame_dummy+0x10>)
 80001c8:	b11b      	cbz	r3, 80001d2 <frame_dummy+0xe>
 80001ca:	4903      	ldr	r1, [pc, #12]	; (80001d8 <frame_dummy+0x14>)
 80001cc:	4803      	ldr	r0, [pc, #12]	; (80001dc <frame_dummy+0x18>)
 80001ce:	f3af 8000 	nop.w
 80001d2:	bd08      	pop	{r3, pc}
 80001d4:	00000000 	.word	0x00000000
 80001d8:	20000864 	.word	0x20000864
 80001dc:	08031a7c 	.word	0x08031a7c

080001e0 <strcmp>:
 80001e0:	f810 2b01 	ldrb.w	r2, [r0], #1
 80001e4:	f811 3b01 	ldrb.w	r3, [r1], #1
 80001e8:	2a01      	cmp	r2, #1
 80001ea:	bf28      	it	cs
 80001ec:	429a      	cmpcs	r2, r3
 80001ee:	d0f7      	beq.n	80001e0 <strcmp>
 80001f0:	1ad0      	subs	r0, r2, r3
 80001f2:	4770      	bx	lr

080001f4 <strlen>:
 80001f4:	4603      	mov	r3, r0
 80001f6:	f813 2b01 	ldrb.w	r2, [r3], #1
 80001fa:	2a00      	cmp	r2, #0
 80001fc:	d1fb      	bne.n	80001f6 <strlen+0x2>
 80001fe:	1a18      	subs	r0, r3, r0
 8000200:	3801      	subs	r0, #1
 8000202:	4770      	bx	lr
	...

08000210 <memchr>:
 8000210:	f001 01ff 	and.w	r1, r1, #255	; 0xff
 8000214:	2a10      	cmp	r2, #16
 8000216:	db2b      	blt.n	8000270 <memchr+0x60>
 8000218:	f010 0f07 	tst.w	r0, #7
 800021c:	d008      	beq.n	8000230 <memchr+0x20>
 800021e:	f810 3b01 	ldrb.w	r3, [r0], #1
 8000222:	3a01      	subs	r2, #1
 8000224:	428b      	cmp	r3, r1
 8000226:	d02d      	beq.n	8000284 <memchr+0x74>
 8000228:	f010 0f07 	tst.w	r0, #7
 800022c:	b342      	cbz	r2, 8000280 <memchr+0x70>
 800022e:	d1f6      	bne.n	800021e <memchr+0xe>
 8000230:	b4f0      	push	{r4, r5, r6, r7}
 8000232:	ea41 2101 	orr.w	r1, r1, r1, lsl #8
 8000236:	ea41 4101 	orr.w	r1, r1, r1, lsl #16
 800023a:	f022 0407 	bic.w	r4, r2, #7
 800023e:	f07f 0700 	mvns.w	r7, #0
 8000242:	2300      	movs	r3, #0
 8000244:	e8f0 5602 	ldrd	r5, r6, [r0], #8
 8000248:	3c08      	subs	r4, #8
 800024a:	ea85 0501 	eor.w	r5, r5, r1
 800024e:	ea86 0601 	eor.w	r6, r6, r1
 8000252:	fa85 f547 	uadd8	r5, r5, r7
 8000256:	faa3 f587 	sel	r5, r3, r7
 800025a:	fa86 f647 	uadd8	r6, r6, r7
 800025e:	faa5 f687 	sel	r6, r5, r7
 8000262:	b98e      	cbnz	r6, 8000288 <memchr+0x78>
 8000264:	d1ee      	bne.n	8000244 <memchr+0x34>
 8000266:	bcf0      	pop	{r4, r5, r6, r7}
 8000268:	f001 01ff 	and.w	r1, r1, #255	; 0xff
 800026c:	f002 0207 	and.w	r2, r2, #7
 8000270:	b132      	cbz	r2, 8000280 <memchr+0x70>
 8000272:	f810 3b01 	ldrb.w	r3, [r0], #1
 8000276:	3a01      	subs	r2, #1
 8000278:	ea83 0301 	eor.w	r3, r3, r1
 800027c:	b113      	cbz	r3, 8000284 <memchr+0x74>
 800027e:	d1f8      	bne.n	8000272 <memchr+0x62>
 8000280:	2000      	movs	r0, #0
 8000282:	4770      	bx	lr
 8000284:	3801      	subs	r0, #1
 8000286:	4770      	bx	lr
 8000288:	2d00      	cmp	r5, #0
 800028a:	bf06      	itte	eq
 800028c:	4635      	moveq	r5, r6
 800028e:	3803      	subeq	r0, #3
 8000290:	3807      	subne	r0, #7
 8000292:	f015 0f01 	tst.w	r5, #1
 8000296:	d107      	bne.n	80002a8 <memchr+0x98>
 8000298:	3001      	adds	r0, #1
 800029a:	f415 7f80 	tst.w	r5, #256	; 0x100
 800029e:	bf02      	ittt	eq
 80002a0:	3001      	addeq	r0, #1
 80002a2:	f415 3fc0 	tsteq.w	r5, #98304	; 0x18000
 80002a6:	3001      	addeq	r0, #1
 80002a8:	bcf0      	pop	{r4, r5, r6, r7}
 80002aa:	3801      	subs	r0, #1
 80002ac:	4770      	bx	lr
 80002ae:	bf00      	nop

080002b0 <__aeabi_drsub>:
 80002b0:	f081 4100 	eor.w	r1, r1, #2147483648	; 0x80000000
 80002b4:	e002      	b.n	80002bc <__adddf3>
 80002b6:	bf00      	nop

080002b8 <__aeabi_dsub>:
 80002b8:	f083 4300 	eor.w	r3, r3, #2147483648	; 0x80000000

080002bc <__adddf3>:
 80002bc:	b530      	push	{r4, r5, lr}
 80002be:	ea4f 0441 	mov.w	r4, r1, lsl #1
 80002c2:	ea4f 0543 	mov.w	r5, r3, lsl #1
 80002c6:	ea94 0f05 	teq	r4, r5
 80002ca:	bf08      	it	eq
 80002cc:	ea90 0f02 	teqeq	r0, r2
 80002d0:	bf1f      	itttt	ne
 80002d2:	ea54 0c00 	orrsne.w	ip, r4, r0
 80002d6:	ea55 0c02 	orrsne.w	ip, r5, r2
 80002da:	ea7f 5c64 	mvnsne.w	ip, r4, asr #21
 80002de:	ea7f 5c65 	mvnsne.w	ip, r5, asr #21
 80002e2:	f000 80e2 	beq.w	80004aa <__adddf3+0x1ee>
 80002e6:	ea4f 5454 	mov.w	r4, r4, lsr #21
 80002ea:	ebd4 5555 	rsbs	r5, r4, r5, lsr #21
 80002ee:	bfb8      	it	lt
 80002f0:	426d      	neglt	r5, r5
 80002f2:	dd0c      	ble.n	800030e <__adddf3+0x52>
 80002f4:	442c      	add	r4, r5
 80002f6:	ea80 0202 	eor.w	r2, r0, r2
 80002fa:	ea81 0303 	eor.w	r3, r1, r3
 80002fe:	ea82 0000 	eor.w	r0, r2, r0
 8000302:	ea83 0101 	eor.w	r1, r3, r1
 8000306:	ea80 0202 	eor.w	r2, r0, r2
 800030a:	ea81 0303 	eor.w	r3, r1, r3
 800030e:	2d36      	cmp	r5, #54	; 0x36
 8000310:	bf88      	it	hi
 8000312:	bd30      	pophi	{r4, r5, pc}
 8000314:	f011 4f00 	tst.w	r1, #2147483648	; 0x80000000
 8000318:	ea4f 3101 	mov.w	r1, r1, lsl #12
 800031c:	f44f 1c80 	mov.w	ip, #1048576	; 0x100000
 8000320:	ea4c 3111 	orr.w	r1, ip, r1, lsr #12
 8000324:	d002      	beq.n	800032c <__adddf3+0x70>
 8000326:	4240      	negs	r0, r0
 8000328:	eb61 0141 	sbc.w	r1, r1, r1, lsl #1
 800032c:	f013 4f00 	tst.w	r3, #2147483648	; 0x80000000
 8000330:	ea4f 3303 	mov.w	r3, r3, lsl #12
 8000334:	ea4c 3313 	orr.w	r3, ip, r3, lsr #12
 8000338:	d002      	beq.n	8000340 <__adddf3+0x84>
 800033a:	4252      	negs	r2, r2
 800033c:	eb63 0343 	sbc.w	r3, r3, r3, lsl #1
 8000340:	ea94 0f05 	teq	r4, r5
 8000344:	f000 80a7 	beq.w	8000496 <__adddf3+0x1da>
 8000348:	f1a4 0401 	sub.w	r4, r4, #1
 800034c:	f1d5 0e20 	rsbs	lr, r5, #32
 8000350:	db0d      	blt.n	800036e <__adddf3+0xb2>
 8000352:	fa02 fc0e 	lsl.w	ip, r2, lr
 8000356:	fa22 f205 	lsr.w	r2, r2, r5
 800035a:	1880      	adds	r0, r0, r2
 800035c:	f141 0100 	adc.w	r1, r1, #0
 8000360:	fa03 f20e 	lsl.w	r2, r3, lr
 8000364:	1880      	adds	r0, r0, r2
 8000366:	fa43 f305 	asr.w	r3, r3, r5
 800036a:	4159      	adcs	r1, r3
 800036c:	e00e      	b.n	800038c <__adddf3+0xd0>
 800036e:	f1a5 0520 	sub.w	r5, r5, #32
 8000372:	f10e 0e20 	add.w	lr, lr, #32
 8000376:	2a01      	cmp	r2, #1
 8000378:	fa03 fc0e 	lsl.w	ip, r3, lr
 800037c:	bf28      	it	cs
 800037e:	f04c 0c02 	orrcs.w	ip, ip, #2
 8000382:	fa43 f305 	asr.w	r3, r3, r5
 8000386:	18c0      	adds	r0, r0, r3
 8000388:	eb51 71e3 	adcs.w	r1, r1, r3, asr #31
 800038c:	f001 4500 	and.w	r5, r1, #2147483648	; 0x80000000
 8000390:	d507      	bpl.n	80003a2 <__adddf3+0xe6>
 8000392:	f04f 0e00 	mov.w	lr, #0
 8000396:	f1dc 0c00 	rsbs	ip, ip, #0
 800039a:	eb7e 0000 	sbcs.w	r0, lr, r0
 800039e:	eb6e 0101 	sbc.w	r1, lr, r1
 80003a2:	f5b1 1f80 	cmp.w	r1, #1048576	; 0x100000
 80003a6:	d31b      	bcc.n	80003e0 <__adddf3+0x124>
 80003a8:	f5b1 1f00 	cmp.w	r1, #2097152	; 0x200000
 80003ac:	d30c      	bcc.n	80003c8 <__adddf3+0x10c>
 80003ae:	0849      	lsrs	r1, r1, #1
 80003b0:	ea5f 0030 	movs.w	r0, r0, rrx
 80003b4:	ea4f 0c3c 	mov.w	ip, ip, rrx
 80003b8:	f104 0401 	add.w	r4, r4, #1
 80003bc:	ea4f 5244 	mov.w	r2, r4, lsl #21
 80003c0:	f512 0f80 	cmn.w	r2, #4194304	; 0x400000
 80003c4:	f080 809a 	bcs.w	80004fc <__adddf3+0x240>
 80003c8:	f1bc 4f00 	cmp.w	ip, #2147483648	; 0x80000000
 80003cc:	bf08      	it	eq
 80003ce:	ea5f 0c50 	movseq.w	ip, r0, lsr #1
 80003d2:	f150 0000 	adcs.w	r0, r0, #0
 80003d6:	eb41 5104 	adc.w	r1, r1, r4, lsl #20
 80003da:	ea41 0105 	orr.w	r1, r1, r5
 80003de:	bd30      	pop	{r4, r5, pc}
 80003e0:	ea5f 0c4c 	movs.w	ip, ip, lsl #1
 80003e4:	4140      	adcs	r0, r0
 80003e6:	eb41 0101 	adc.w	r1, r1, r1
 80003ea:	3c01      	subs	r4, #1
 80003ec:	bf28      	it	cs
 80003ee:	f5b1 1f80 	cmpcs.w	r1, #1048576	; 0x100000
 80003f2:	d2e9      	bcs.n	80003c8 <__adddf3+0x10c>
 80003f4:	f091 0f00 	teq	r1, #0
 80003f8:	bf04      	itt	eq
 80003fa:	4601      	moveq	r1, r0
 80003fc:	2000      	moveq	r0, #0
 80003fe:	fab1 f381 	clz	r3, r1
 8000402:	bf08      	it	eq
 8000404:	3320      	addeq	r3, #32
 8000406:	f1a3 030b 	sub.w	r3, r3, #11
 800040a:	f1b3 0220 	subs.w	r2, r3, #32
 800040e:	da0c      	bge.n	800042a <__adddf3+0x16e>
 8000410:	320c      	adds	r2, #12
 8000412:	dd08      	ble.n	8000426 <__adddf3+0x16a>
 8000414:	f102 0c14 	add.w	ip, r2, #20
 8000418:	f1c2 020c 	rsb	r2, r2, #12
 800041c:	fa01 f00c 	lsl.w	r0, r1, ip
 8000420:	fa21 f102 	lsr.w	r1, r1, r2
 8000424:	e00c      	b.n	8000440 <__adddf3+0x184>
 8000426:	f102 0214 	add.w	r2, r2, #20
 800042a:	bfd8      	it	le
 800042c:	f1c2 0c20 	rsble	ip, r2, #32
 8000430:	fa01 f102 	lsl.w	r1, r1, r2
 8000434:	fa20 fc0c 	lsr.w	ip, r0, ip
 8000438:	bfdc      	itt	le
 800043a:	ea41 010c 	orrle.w	r1, r1, ip
 800043e:	4090      	lslle	r0, r2
 8000440:	1ae4      	subs	r4, r4, r3
 8000442:	bfa2      	ittt	ge
 8000444:	eb01 5104 	addge.w	r1, r1, r4, lsl #20
 8000448:	4329      	orrge	r1, r5
 800044a:	bd30      	popge	{r4, r5, pc}
 800044c:	ea6f 0404 	mvn.w	r4, r4
 8000450:	3c1f      	subs	r4, #31
 8000452:	da1c      	bge.n	800048e <__adddf3+0x1d2>
 8000454:	340c      	adds	r4, #12
 8000456:	dc0e      	bgt.n	8000476 <__adddf3+0x1ba>
 8000458:	f104 0414 	add.w	r4, r4, #20
 800045c:	f1c4 0220 	rsb	r2, r4, #32
 8000460:	fa20 f004 	lsr.w	r0, r0, r4
 8000464:	fa01 f302 	lsl.w	r3, r1, r2
 8000468:	ea40 0003 	orr.w	r0, r0, r3
 800046c:	fa21 f304 	lsr.w	r3, r1, r4
 8000470:	ea45 0103 	orr.w	r1, r5, r3
 8000474:	bd30      	pop	{r4, r5, pc}
 8000476:	f1c4 040c 	rsb	r4, r4, #12
 800047a:	f1c4 0220 	rsb	r2, r4, #32
 800047e:	fa20 f002 	lsr.w	r0, r0, r2
 8000482:	fa01 f304 	lsl.w	r3, r1, r4
 8000486:	ea40 0003 	orr.w	r0, r0, r3
 800048a:	4629      	mov	r1, r5
 800048c:	bd30      	pop	{r4, r5, pc}
 800048e:	fa21 f004 	lsr.w	r0, r1, r4
 8000492:	4629      	mov	r1, r5
 8000494:	bd30      	pop	{r4, r5, pc}
 8000496:	f094 0f00 	teq	r4, #0
 800049a:	f483 1380 	eor.w	r3, r3, #1048576	; 0x100000
 800049e:	bf06      	itte	eq
 80004a0:	f481 1180 	eoreq.w	r1, r1, #1048576	; 0x100000
 80004a4:	3401      	addeq	r4, #1
 80004a6:	3d01      	subne	r5, #1
 80004a8:	e74e      	b.n	8000348 <__adddf3+0x8c>
 80004aa:	ea7f 5c64 	mvns.w	ip, r4, asr #21
 80004ae:	bf18      	it	ne
 80004b0:	ea7f 5c65 	mvnsne.w	ip, r5, asr #21
 80004b4:	d029      	beq.n	800050a <__adddf3+0x24e>
 80004b6:	ea94 0f05 	teq	r4, r5
 80004ba:	bf08      	it	eq
 80004bc:	ea90 0f02 	teqeq	r0, r2
 80004c0:	d005      	beq.n	80004ce <__adddf3+0x212>
 80004c2:	ea54 0c00 	orrs.w	ip, r4, r0
 80004c6:	bf04      	itt	eq
 80004c8:	4619      	moveq	r1, r3
 80004ca:	4610      	moveq	r0, r2
 80004cc:	bd30      	pop	{r4, r5, pc}
 80004ce:	ea91 0f03 	teq	r1, r3
 80004d2:	bf1e      	ittt	ne
 80004d4:	2100      	movne	r1, #0
 80004d6:	2000      	movne	r0, #0
 80004d8:	bd30      	popne	{r4, r5, pc}
 80004da:	ea5f 5c54 	movs.w	ip, r4, lsr #21
 80004de:	d105      	bne.n	80004ec <__adddf3+0x230>
 80004e0:	0040      	lsls	r0, r0, #1
 80004e2:	4149      	adcs	r1, r1
 80004e4:	bf28      	it	cs
 80004e6:	f041 4100 	orrcs.w	r1, r1, #2147483648	; 0x80000000
 80004ea:	bd30      	pop	{r4, r5, pc}
 80004ec:	f514 0480 	adds.w	r4, r4, #4194304	; 0x400000
 80004f0:	bf3c      	itt	cc
 80004f2:	f501 1180 	addcc.w	r1, r1, #1048576	; 0x100000
 80004f6:	bd30      	popcc	{r4, r5, pc}
 80004f8:	f001 4500 	and.w	r5, r1, #2147483648	; 0x80000000
 80004fc:	f045 41fe 	orr.w	r1, r5, #2130706432	; 0x7f000000
 8000500:	f441 0170 	orr.w	r1, r1, #15728640	; 0xf00000
 8000504:	f04f 0000 	mov.w	r0, #0
 8000508:	bd30      	pop	{r4, r5, pc}
 800050a:	ea7f 5c64 	mvns.w	ip, r4, asr #21
 800050e:	bf1a      	itte	ne
 8000510:	4619      	movne	r1, r3
 8000512:	4610      	movne	r0, r2
 8000514:	ea7f 5c65 	mvnseq.w	ip, r5, asr #21
 8000518:	bf1c      	itt	ne
 800051a:	460b      	movne	r3, r1
 800051c:	4602      	movne	r2, r0
 800051e:	ea50 3401 	orrs.w	r4, r0, r1, lsl #12
 8000522:	bf06      	itte	eq
 8000524:	ea52 3503 	orrseq.w	r5, r2, r3, lsl #12
 8000528:	ea91 0f03 	teqeq	r1, r3
 800052c:	f441 2100 	orrne.w	r1, r1, #524288	; 0x80000
 8000530:	bd30      	pop	{r4, r5, pc}
 8000532:	bf00      	nop

08000534 <__aeabi_ui2d>:
 8000534:	f090 0f00 	teq	r0, #0
 8000538:	bf04      	itt	eq
 800053a:	2100      	moveq	r1, #0
 800053c:	4770      	bxeq	lr
 800053e:	b530      	push	{r4, r5, lr}
 8000540:	f44f 6480 	mov.w	r4, #1024	; 0x400
 8000544:	f104 0432 	add.w	r4, r4, #50	; 0x32
 8000548:	f04f 0500 	mov.w	r5, #0
 800054c:	f04f 0100 	mov.w	r1, #0
 8000550:	e750      	b.n	80003f4 <__adddf3+0x138>
 8000552:	bf00      	nop

08000554 <__aeabi_i2d>:
 8000554:	f090 0f00 	teq	r0, #0
 8000558:	bf04      	itt	eq
 800055a:	2100      	moveq	r1, #0
 800055c:	4770      	bxeq	lr
 800055e:	b530      	push	{r4, r5, lr}
 8000560:	f44f 6480 	mov.w	r4, #1024	; 0x400
 8000564:	f104 0432 	add.w	r4, r4, #50	; 0x32
 8000568:	f010 4500 	ands.w	r5, r0, #2147483648	; 0x80000000
 800056c:	bf48      	it	mi
 800056e:	4240      	negmi	r0, r0
 8000570:	f04f 0100 	mov.w	r1, #0
 8000574:	e73e      	b.n	80003f4 <__adddf3+0x138>
 8000576:	bf00      	nop

08000578 <__aeabi_f2d>:
 8000578:	0042      	lsls	r2, r0, #1
 800057a:	ea4f 01e2 	mov.w	r1, r2, asr #3
 800057e:	ea4f 0131 	mov.w	r1, r1, rrx
 8000582:	ea4f 7002 	mov.w	r0, r2, lsl #28
 8000586:	bf1f      	itttt	ne
 8000588:	f012 437f 	andsne.w	r3, r2, #4278190080	; 0xff000000
 800058c:	f093 4f7f 	teqne	r3, #4278190080	; 0xff000000
 8000590:	f081 5160 	eorne.w	r1, r1, #939524096	; 0x38000000
 8000594:	4770      	bxne	lr
 8000596:	f032 427f 	bics.w	r2, r2, #4278190080	; 0xff000000
 800059a:	bf08      	it	eq
 800059c:	4770      	bxeq	lr
 800059e:	f093 4f7f 	teq	r3, #4278190080	; 0xff000000
 80005a2:	bf04      	itt	eq
 80005a4:	f441 2100 	orreq.w	r1, r1, #524288	; 0x80000
 80005a8:	4770      	bxeq	lr
 80005aa:	b530      	push	{r4, r5, lr}
 80005ac:	f44f 7460 	mov.w	r4, #896	; 0x380
 80005b0:	f001 4500 	and.w	r5, r1, #2147483648	; 0x80000000
 80005b4:	f021 4100 	bic.w	r1, r1, #2147483648	; 0x80000000
 80005b8:	e71c      	b.n	80003f4 <__adddf3+0x138>
 80005ba:	bf00      	nop

080005bc <__aeabi_ul2d>:
 80005bc:	ea50 0201 	orrs.w	r2, r0, r1
 80005c0:	bf08      	it	eq
 80005c2:	4770      	bxeq	lr
 80005c4:	b530      	push	{r4, r5, lr}
 80005c6:	f04f 0500 	mov.w	r5, #0
 80005ca:	e00a      	b.n	80005e2 <__aeabi_l2d+0x16>

080005cc <__aeabi_l2d>:
 80005cc:	ea50 0201 	orrs.w	r2, r0, r1
 80005d0:	bf08      	it	eq
 80005d2:	4770      	bxeq	lr
 80005d4:	b530      	push	{r4, r5, lr}
 80005d6:	f011 4500 	ands.w	r5, r1, #2147483648	; 0x80000000
 80005da:	d502      	bpl.n	80005e2 <__aeabi_l2d+0x16>
 80005dc:	4240      	negs	r0, r0
 80005de:	eb61 0141 	sbc.w	r1, r1, r1, lsl #1
 80005e2:	f44f 6480 	mov.w	r4, #1024	; 0x400
 80005e6:	f104 0432 	add.w	r4, r4, #50	; 0x32
 80005ea:	ea5f 5c91 	movs.w	ip, r1, lsr #22
 80005ee:	f43f aed8 	beq.w	80003a2 <__adddf3+0xe6>
 80005f2:	f04f 0203 	mov.w	r2, #3
 80005f6:	ea5f 0cdc 	movs.w	ip, ip, lsr #3
 80005fa:	bf18      	it	ne
 80005fc:	3203      	addne	r2, #3
 80005fe:	ea5f 0cdc 	movs.w	ip, ip, lsr #3
 8000602:	bf18      	it	ne
 8000604:	3203      	addne	r2, #3
 8000606:	eb02 02dc 	add.w	r2, r2, ip, lsr #3
 800060a:	f1c2 0320 	rsb	r3, r2, #32
 800060e:	fa00 fc03 	lsl.w	ip, r0, r3
 8000612:	fa20 f002 	lsr.w	r0, r0, r2
 8000616:	fa01 fe03 	lsl.w	lr, r1, r3
 800061a:	ea40 000e 	orr.w	r0, r0, lr
 800061e:	fa21 f102 	lsr.w	r1, r1, r2
 8000622:	4414      	add	r4, r2
 8000624:	e6bd      	b.n	80003a2 <__adddf3+0xe6>
 8000626:	bf00      	nop

08000628 <__aeabi_dmul>:
 8000628:	b570      	push	{r4, r5, r6, lr}
 800062a:	f04f 0cff 	mov.w	ip, #255	; 0xff
 800062e:	f44c 6ce0 	orr.w	ip, ip, #1792	; 0x700
 8000632:	ea1c 5411 	ands.w	r4, ip, r1, lsr #20
 8000636:	bf1d      	ittte	ne
 8000638:	ea1c 5513 	andsne.w	r5, ip, r3, lsr #20
 800063c:	ea94 0f0c 	teqne	r4, ip
 8000640:	ea95 0f0c 	teqne	r5, ip
 8000644:	f000 f8de 	bleq	8000804 <__aeabi_dmul+0x1dc>
 8000648:	442c      	add	r4, r5
 800064a:	ea81 0603 	eor.w	r6, r1, r3
 800064e:	ea21 514c 	bic.w	r1, r1, ip, lsl #21
 8000652:	ea23 534c 	bic.w	r3, r3, ip, lsl #21
 8000656:	ea50 3501 	orrs.w	r5, r0, r1, lsl #12
 800065a:	bf18      	it	ne
 800065c:	ea52 3503 	orrsne.w	r5, r2, r3, lsl #12
 8000660:	f441 1180 	orr.w	r1, r1, #1048576	; 0x100000
 8000664:	f443 1380 	orr.w	r3, r3, #1048576	; 0x100000
 8000668:	d038      	beq.n	80006dc <__aeabi_dmul+0xb4>
 800066a:	fba0 ce02 	umull	ip, lr, r0, r2
 800066e:	f04f 0500 	mov.w	r5, #0
 8000672:	fbe1 e502 	umlal	lr, r5, r1, r2
 8000676:	f006 4200 	and.w	r2, r6, #2147483648	; 0x80000000
 800067a:	fbe0 e503 	umlal	lr, r5, r0, r3
 800067e:	f04f 0600 	mov.w	r6, #0
 8000682:	fbe1 5603 	umlal	r5, r6, r1, r3
 8000686:	f09c 0f00 	teq	ip, #0
 800068a:	bf18      	it	ne
 800068c:	f04e 0e01 	orrne.w	lr, lr, #1
 8000690:	f1a4 04ff 	sub.w	r4, r4, #255	; 0xff
 8000694:	f5b6 7f00 	cmp.w	r6, #512	; 0x200
 8000698:	f564 7440 	sbc.w	r4, r4, #768	; 0x300
 800069c:	d204      	bcs.n	80006a8 <__aeabi_dmul+0x80>
 800069e:	ea5f 0e4e 	movs.w	lr, lr, lsl #1
 80006a2:	416d      	adcs	r5, r5
 80006a4:	eb46 0606 	adc.w	r6, r6, r6
 80006a8:	ea42 21c6 	orr.w	r1, r2, r6, lsl #11
 80006ac:	ea41 5155 	orr.w	r1, r1, r5, lsr #21
 80006b0:	ea4f 20c5 	mov.w	r0, r5, lsl #11
 80006b4:	ea40 505e 	orr.w	r0, r0, lr, lsr #21
 80006b8:	ea4f 2ece 	mov.w	lr, lr, lsl #11
 80006bc:	f1b4 0cfd 	subs.w	ip, r4, #253	; 0xfd
 80006c0:	bf88      	it	hi
 80006c2:	f5bc 6fe0 	cmphi.w	ip, #1792	; 0x700
 80006c6:	d81e      	bhi.n	8000706 <__aeabi_dmul+0xde>
 80006c8:	f1be 4f00 	cmp.w	lr, #2147483648	; 0x80000000
 80006cc:	bf08      	it	eq
 80006ce:	ea5f 0e50 	movseq.w	lr, r0, lsr #1
 80006d2:	f150 0000 	adcs.w	r0, r0, #0
 80006d6:	eb41 5104 	adc.w	r1, r1, r4, lsl #20
 80006da:	bd70      	pop	{r4, r5, r6, pc}
 80006dc:	f006 4600 	and.w	r6, r6, #2147483648	; 0x80000000
 80006e0:	ea46 0101 	orr.w	r1, r6, r1
 80006e4:	ea40 0002 	orr.w	r0, r0, r2
 80006e8:	ea81 0103 	eor.w	r1, r1, r3
 80006ec:	ebb4 045c 	subs.w	r4, r4, ip, lsr #1
 80006f0:	bfc2      	ittt	gt
 80006f2:	ebd4 050c 	rsbsgt	r5, r4, ip
 80006f6:	ea41 5104 	orrgt.w	r1, r1, r4, lsl #20
 80006fa:	bd70      	popgt	{r4, r5, r6, pc}
 80006fc:	f441 1180 	orr.w	r1, r1, #1048576	; 0x100000
 8000700:	f04f 0e00 	mov.w	lr, #0
 8000704:	3c01      	subs	r4, #1
 8000706:	f300 80ab 	bgt.w	8000860 <__aeabi_dmul+0x238>
 800070a:	f114 0f36 	cmn.w	r4, #54	; 0x36
 800070e:	bfde      	ittt	le
 8000710:	2000      	movle	r0, #0
 8000712:	f001 4100 	andle.w	r1, r1, #2147483648	; 0x80000000
 8000716:	bd70      	pople	{r4, r5, r6, pc}
 8000718:	f1c4 0400 	rsb	r4, r4, #0
 800071c:	3c20      	subs	r4, #32
 800071e:	da35      	bge.n	800078c <__aeabi_dmul+0x164>
 8000720:	340c      	adds	r4, #12
 8000722:	dc1b      	bgt.n	800075c <__aeabi_dmul+0x134>
 8000724:	f104 0414 	add.w	r4, r4, #20
 8000728:	f1c4 0520 	rsb	r5, r4, #32
 800072c:	fa00 f305 	lsl.w	r3, r0, r5
 8000730:	fa20 f004 	lsr.w	r0, r0, r4
 8000734:	fa01 f205 	lsl.w	r2, r1, r5
 8000738:	ea40 0002 	orr.w	r0, r0, r2
 800073c:	f001 4200 	and.w	r2, r1, #2147483648	; 0x80000000
 8000740:	f021 4100 	bic.w	r1, r1, #2147483648	; 0x80000000
 8000744:	eb10 70d3 	adds.w	r0, r0, r3, lsr #31
 8000748:	fa21 f604 	lsr.w	r6, r1, r4
 800074c:	eb42 0106 	adc.w	r1, r2, r6
 8000750:	ea5e 0e43 	orrs.w	lr, lr, r3, lsl #1
 8000754:	bf08      	it	eq
 8000756:	ea20 70d3 	biceq.w	r0, r0, r3, lsr #31
 800075a:	bd70      	pop	{r4, r5, r6, pc}
 800075c:	f1c4 040c 	rsb	r4, r4, #12
 8000760:	f1c4 0520 	rsb	r5, r4, #32
 8000764:	fa00 f304 	lsl.w	r3, r0, r4
 8000768:	fa20 f005 	lsr.w	r0, r0, r5
 800076c:	fa01 f204 	lsl.w	r2, r1, r4
 8000770:	ea40 0002 	orr.w	r0, r0, r2
 8000774:	f001 4100 	and.w	r1, r1, #2147483648	; 0x80000000
 8000778:	eb10 70d3 	adds.w	r0, r0, r3, lsr #31
 800077c:	f141 0100 	adc.w	r1, r1, #0
 8000780:	ea5e 0e43 	orrs.w	lr, lr, r3, lsl #1
 8000784:	bf08      	it	eq
 8000786:	ea20 70d3 	biceq.w	r0, r0, r3, lsr #31
 800078a:	bd70      	pop	{r4, r5, r6, pc}
 800078c:	f1c4 0520 	rsb	r5, r4, #32
 8000790:	fa00 f205 	lsl.w	r2, r0, r5
 8000794:	ea4e 0e02 	orr.w	lr, lr, r2
 8000798:	fa20 f304 	lsr.w	r3, r0, r4
 800079c:	fa01 f205 	lsl.w	r2, r1, r5
 80007a0:	ea43 0302 	orr.w	r3, r3, r2
 80007a4:	fa21 f004 	lsr.w	r0, r1, r4
 80007a8:	f001 4100 	and.w	r1, r1, #2147483648	; 0x80000000
 80007ac:	fa21 f204 	lsr.w	r2, r1, r4
 80007b0:	ea20 0002 	bic.w	r0, r0, r2
 80007b4:	eb00 70d3 	add.w	r0, r0, r3, lsr #31
 80007b8:	ea5e 0e43 	orrs.w	lr, lr, r3, lsl #1
 80007bc:	bf08      	it	eq
 80007be:	ea20 70d3 	biceq.w	r0, r0, r3, lsr #31
 80007c2:	bd70      	pop	{r4, r5, r6, pc}
 80007c4:	f094 0f00 	teq	r4, #0
 80007c8:	d10f      	bne.n	80007ea <__aeabi_dmul+0x1c2>
 80007ca:	f001 4600 	and.w	r6, r1, #2147483648	; 0x80000000
 80007ce:	0040      	lsls	r0, r0, #1
 80007d0:	eb41 0101 	adc.w	r1, r1, r1
 80007d4:	f411 1f80 	tst.w	r1, #1048576	; 0x100000
 80007d8:	bf08      	it	eq
 80007da:	3c01      	subeq	r4, #1
 80007dc:	d0f7      	beq.n	80007ce <__aeabi_dmul+0x1a6>
 80007de:	ea41 0106 	orr.w	r1, r1, r6
 80007e2:	f095 0f00 	teq	r5, #0
 80007e6:	bf18      	it	ne
 80007e8:	4770      	bxne	lr
 80007ea:	f003 4600 	and.w	r6, r3, #2147483648	; 0x80000000
 80007ee:	0052      	lsls	r2, r2, #1
 80007f0:	eb43 0303 	adc.w	r3, r3, r3
 80007f4:	f413 1f80 	tst.w	r3, #1048576	; 0x100000
 80007f8:	bf08      	it	eq
 80007fa:	3d01      	subeq	r5, #1
 80007fc:	d0f7      	beq.n	80007ee <__aeabi_dmul+0x1c6>
 80007fe:	ea43 0306 	orr.w	r3, r3, r6
 8000802:	4770      	bx	lr
 8000804:	ea94 0f0c 	teq	r4, ip
 8000808:	ea0c 5513 	and.w	r5, ip, r3, lsr #20
 800080c:	bf18      	it	ne
 800080e:	ea95 0f0c 	teqne	r5, ip
 8000812:	d00c      	beq.n	800082e <__aeabi_dmul+0x206>
 8000814:	ea50 0641 	orrs.w	r6, r0, r1, lsl #1
 8000818:	bf18      	it	ne
 800081a:	ea52 0643 	orrsne.w	r6, r2, r3, lsl #1
 800081e:	d1d1      	bne.n	80007c4 <__aeabi_dmul+0x19c>
 8000820:	ea81 0103 	eor.w	r1, r1, r3
 8000824:	f001 4100 	and.w	r1, r1, #2147483648	; 0x80000000
 8000828:	f04f 0000 	mov.w	r0, #0
 800082c:	bd70      	pop	{r4, r5, r6, pc}
 800082e:	ea50 0641 	orrs.w	r6, r0, r1, lsl #1
 8000832:	bf06      	itte	eq
 8000834:	4610      	moveq	r0, r2
 8000836:	4619      	moveq	r1, r3
 8000838:	ea52 0643 	orrsne.w	r6, r2, r3, lsl #1
 800083c:	d019      	beq.n	8000872 <__aeabi_dmul+0x24a>
 800083e:	ea94 0f0c 	teq	r4, ip
 8000842:	d102      	bne.n	800084a <__aeabi_dmul+0x222>
 8000844:	ea50 3601 	orrs.w	r6, r0, r1, lsl #12
 8000848:	d113      	bne.n	8000872 <__aeabi_dmul+0x24a>
 800084a:	ea95 0f0c 	teq	r5, ip
 800084e:	d105      	bne.n	800085c <__aeabi_dmul+0x234>
 8000850:	ea52 3603 	orrs.w	r6, r2, r3, lsl #12
 8000854:	bf1c      	itt	ne
 8000856:	4610      	movne	r0, r2
 8000858:	4619      	movne	r1, r3
 800085a:	d10a      	bne.n	8000872 <__aeabi_dmul+0x24a>
 800085c:	ea81 0103 	eor.w	r1, r1, r3
 8000860:	f001 4100 	and.w	r1, r1, #2147483648	; 0x80000000
 8000864:	f041 41fe 	orr.w	r1, r1, #2130706432	; 0x7f000000
 8000868:	f441 0170 	orr.w	r1, r1, #15728640	; 0xf00000
 800086c:	f04f 0000 	mov.w	r0, #0
 8000870:	bd70      	pop	{r4, r5, r6, pc}
 8000872:	f041 41fe 	orr.w	r1, r1, #2130706432	; 0x7f000000
 8000876:	f441 0178 	orr.w	r1, r1, #16252928	; 0xf80000
 800087a:	bd70      	pop	{r4, r5, r6, pc}

0800087c <__aeabi_ddiv>:
 800087c:	b570      	push	{r4, r5, r6, lr}
 800087e:	f04f 0cff 	mov.w	ip, #255	; 0xff
 8000882:	f44c 6ce0 	orr.w	ip, ip, #1792	; 0x700
 8000886:	ea1c 5411 	ands.w	r4, ip, r1, lsr #20
 800088a:	bf1d      	ittte	ne
 800088c:	ea1c 5513 	andsne.w	r5, ip, r3, lsr #20
 8000890:	ea94 0f0c 	teqne	r4, ip
 8000894:	ea95 0f0c 	teqne	r5, ip
 8000898:	f000 f8a7 	bleq	80009ea <__aeabi_ddiv+0x16e>
 800089c:	eba4 0405 	sub.w	r4, r4, r5
 80008a0:	ea81 0e03 	eor.w	lr, r1, r3
 80008a4:	ea52 3503 	orrs.w	r5, r2, r3, lsl #12
 80008a8:	ea4f 3101 	mov.w	r1, r1, lsl #12
 80008ac:	f000 8088 	beq.w	80009c0 <__aeabi_ddiv+0x144>
 80008b0:	ea4f 3303 	mov.w	r3, r3, lsl #12
 80008b4:	f04f 5580 	mov.w	r5, #268435456	; 0x10000000
 80008b8:	ea45 1313 	orr.w	r3, r5, r3, lsr #4
 80008bc:	ea43 6312 	orr.w	r3, r3, r2, lsr #24
 80008c0:	ea4f 2202 	mov.w	r2, r2, lsl #8
 80008c4:	ea45 1511 	orr.w	r5, r5, r1, lsr #4
 80008c8:	ea45 6510 	orr.w	r5, r5, r0, lsr #24
 80008cc:	ea4f 2600 	mov.w	r6, r0, lsl #8
 80008d0:	f00e 4100 	and.w	r1, lr, #2147483648	; 0x80000000
 80008d4:	429d      	cmp	r5, r3
 80008d6:	bf08      	it	eq
 80008d8:	4296      	cmpeq	r6, r2
 80008da:	f144 04fd 	adc.w	r4, r4, #253	; 0xfd
 80008de:	f504 7440 	add.w	r4, r4, #768	; 0x300
 80008e2:	d202      	bcs.n	80008ea <__aeabi_ddiv+0x6e>
 80008e4:	085b      	lsrs	r3, r3, #1
 80008e6:	ea4f 0232 	mov.w	r2, r2, rrx
 80008ea:	1ab6      	subs	r6, r6, r2
 80008ec:	eb65 0503 	sbc.w	r5, r5, r3
 80008f0:	085b      	lsrs	r3, r3, #1
 80008f2:	ea4f 0232 	mov.w	r2, r2, rrx
 80008f6:	f44f 1080 	mov.w	r0, #1048576	; 0x100000
 80008fa:	f44f 2c00 	mov.w	ip, #524288	; 0x80000
 80008fe:	ebb6 0e02 	subs.w	lr, r6, r2
 8000902:	eb75 0e03 	sbcs.w	lr, r5, r3
 8000906:	bf22      	ittt	cs
 8000908:	1ab6      	subcs	r6, r6, r2
 800090a:	4675      	movcs	r5, lr
 800090c:	ea40 000c 	orrcs.w	r0, r0, ip
 8000910:	085b      	lsrs	r3, r3, #1
 8000912:	ea4f 0232 	mov.w	r2, r2, rrx
 8000916:	ebb6 0e02 	subs.w	lr, r6, r2
 800091a:	eb75 0e03 	sbcs.w	lr, r5, r3
 800091e:	bf22      	ittt	cs
 8000920:	1ab6      	subcs	r6, r6, r2
 8000922:	4675      	movcs	r5, lr
 8000924:	ea40 005c 	orrcs.w	r0, r0, ip, lsr #1
 8000928:	085b      	lsrs	r3, r3, #1
 800092a:	ea4f 0232 	mov.w	r2, r2, rrx
 800092e:	ebb6 0e02 	subs.w	lr, r6, r2
 8000932:	eb75 0e03 	sbcs.w	lr, r5, r3
 8000936:	bf22      	ittt	cs
 8000938:	1ab6      	subcs	r6, r6, r2
 800093a:	4675      	movcs	r5, lr
 800093c:	ea40 009c 	orrcs.w	r0, r0, ip, lsr #2
 8000940:	085b      	lsrs	r3, r3, #1
 8000942:	ea4f 0232 	mov.w	r2, r2, rrx
 8000946:	ebb6 0e02 	subs.w	lr, r6, r2
 800094a:	eb75 0e03 	sbcs.w	lr, r5, r3
 800094e:	bf22      	ittt	cs
 8000950:	1ab6      	subcs	r6, r6, r2
 8000952:	4675      	movcs	r5, lr
 8000954:	ea40 00dc 	orrcs.w	r0, r0, ip, lsr #3
 8000958:	ea55 0e06 	orrs.w	lr, r5, r6
 800095c:	d018      	beq.n	8000990 <__aeabi_ddiv+0x114>
 800095e:	ea4f 1505 	mov.w	r5, r5, lsl #4
 8000962:	ea45 7516 	orr.w	r5, r5, r6, lsr #28
 8000966:	ea4f 1606 	mov.w	r6, r6, lsl #4
 800096a:	ea4f 03c3 	mov.w	r3, r3, lsl #3
 800096e:	ea43 7352 	orr.w	r3, r3, r2, lsr #29
 8000972:	ea4f 02c2 	mov.w	r2, r2, lsl #3
 8000976:	ea5f 1c1c 	movs.w	ip, ip, lsr #4
 800097a:	d1c0      	bne.n	80008fe <__aeabi_ddiv+0x82>
 800097c:	f411 1f80 	tst.w	r1, #1048576	; 0x100000
 8000980:	d10b      	bne.n	800099a <__aeabi_ddiv+0x11e>
 8000982:	ea41 0100 	orr.w	r1, r1, r0
 8000986:	f04f 0000 	mov.w	r0, #0
 800098a:	f04f 4c00 	mov.w	ip, #2147483648	; 0x80000000
 800098e:	e7b6      	b.n	80008fe <__aeabi_ddiv+0x82>
 8000990:	f411 1f80 	tst.w	r1, #1048576	; 0x100000
 8000994:	bf04      	itt	eq
 8000996:	4301      	orreq	r1, r0
 8000998:	2000      	moveq	r0, #0
 800099a:	f1b4 0cfd 	subs.w	ip, r4, #253	; 0xfd
 800099e:	bf88      	it	hi
 80009a0:	f5bc 6fe0 	cmphi.w	ip, #1792	; 0x700
 80009a4:	f63f aeaf 	bhi.w	8000706 <__aeabi_dmul+0xde>
 80009a8:	ebb5 0c03 	subs.w	ip, r5, r3
 80009ac:	bf04      	itt	eq
 80009ae:	ebb6 0c02 	subseq.w	ip, r6, r2
 80009b2:	ea5f 0c50 	movseq.w	ip, r0, lsr #1
 80009b6:	f150 0000 	adcs.w	r0, r0, #0
 80009ba:	eb41 5104 	adc.w	r1, r1, r4, lsl #20
 80009be:	bd70      	pop	{r4, r5, r6, pc}
 80009c0:	f00e 4e00 	and.w	lr, lr, #2147483648	; 0x80000000
 80009c4:	ea4e 3111 	orr.w	r1, lr, r1, lsr #12
 80009c8:	eb14 045c 	adds.w	r4, r4, ip, lsr #1
 80009cc:	bfc2      	ittt	gt
 80009ce:	ebd4 050c 	rsbsgt	r5, r4, ip
 80009d2:	ea41 5104 	orrgt.w	r1, r1, r4, lsl #20
 80009d6:	bd70      	popgt	{r4, r5, r6, pc}
 80009d8:	f441 1180 	orr.w	r1, r1, #1048576	; 0x100000
 80009dc:	f04f 0e00 	mov.w	lr, #0
 80009e0:	3c01      	subs	r4, #1
 80009e2:	e690      	b.n	8000706 <__aeabi_dmul+0xde>
 80009e4:	ea45 0e06 	orr.w	lr, r5, r6
 80009e8:	e68d      	b.n	8000706 <__aeabi_dmul+0xde>
 80009ea:	ea0c 5513 	and.w	r5, ip, r3, lsr #20
 80009ee:	ea94 0f0c 	teq	r4, ip
 80009f2:	bf08      	it	eq
 80009f4:	ea95 0f0c 	teqeq	r5, ip
 80009f8:	f43f af3b 	beq.w	8000872 <__aeabi_dmul+0x24a>
 80009fc:	ea94 0f0c 	teq	r4, ip
 8000a00:	d10a      	bne.n	8000a18 <__aeabi_ddiv+0x19c>
 8000a02:	ea50 3401 	orrs.w	r4, r0, r1, lsl #12
 8000a06:	f47f af34 	bne.w	8000872 <__aeabi_dmul+0x24a>
 8000a0a:	ea95 0f0c 	teq	r5, ip
 8000a0e:	f47f af25 	bne.w	800085c <__aeabi_dmul+0x234>
 8000a12:	4610      	mov	r0, r2
 8000a14:	4619      	mov	r1, r3
 8000a16:	e72c      	b.n	8000872 <__aeabi_dmul+0x24a>
 8000a18:	ea95 0f0c 	teq	r5, ip
 8000a1c:	d106      	bne.n	8000a2c <__aeabi_ddiv+0x1b0>
 8000a1e:	ea52 3503 	orrs.w	r5, r2, r3, lsl #12
 8000a22:	f43f aefd 	beq.w	8000820 <__aeabi_dmul+0x1f8>
 8000a26:	4610      	mov	r0, r2
 8000a28:	4619      	mov	r1, r3
 8000a2a:	e722      	b.n	8000872 <__aeabi_dmul+0x24a>
 8000a2c:	ea50 0641 	orrs.w	r6, r0, r1, lsl #1
 8000a30:	bf18      	it	ne
 8000a32:	ea52 0643 	orrsne.w	r6, r2, r3, lsl #1
 8000a36:	f47f aec5 	bne.w	80007c4 <__aeabi_dmul+0x19c>
 8000a3a:	ea50 0441 	orrs.w	r4, r0, r1, lsl #1
 8000a3e:	f47f af0d 	bne.w	800085c <__aeabi_dmul+0x234>
 8000a42:	ea52 0543 	orrs.w	r5, r2, r3, lsl #1
 8000a46:	f47f aeeb 	bne.w	8000820 <__aeabi_dmul+0x1f8>
 8000a4a:	e712      	b.n	8000872 <__aeabi_dmul+0x24a>

08000a4c <__gedf2>:
 8000a4c:	f04f 3cff 	mov.w	ip, #4294967295
 8000a50:	e006      	b.n	8000a60 <__cmpdf2+0x4>
 8000a52:	bf00      	nop

08000a54 <__ledf2>:
 8000a54:	f04f 0c01 	mov.w	ip, #1
 8000a58:	e002      	b.n	8000a60 <__cmpdf2+0x4>
 8000a5a:	bf00      	nop

08000a5c <__cmpdf2>:
 8000a5c:	f04f 0c01 	mov.w	ip, #1
 8000a60:	f84d cd04 	str.w	ip, [sp, #-4]!
 8000a64:	ea4f 0c41 	mov.w	ip, r1, lsl #1
 8000a68:	ea7f 5c6c 	mvns.w	ip, ip, asr #21
 8000a6c:	ea4f 0c43 	mov.w	ip, r3, lsl #1
 8000a70:	bf18      	it	ne
 8000a72:	ea7f 5c6c 	mvnsne.w	ip, ip, asr #21
 8000a76:	d01b      	beq.n	8000ab0 <__cmpdf2+0x54>
 8000a78:	b001      	add	sp, #4
 8000a7a:	ea50 0c41 	orrs.w	ip, r0, r1, lsl #1
 8000a7e:	bf0c      	ite	eq
 8000a80:	ea52 0c43 	orrseq.w	ip, r2, r3, lsl #1
 8000a84:	ea91 0f03 	teqne	r1, r3
 8000a88:	bf02      	ittt	eq
 8000a8a:	ea90 0f02 	teqeq	r0, r2
 8000a8e:	2000      	moveq	r0, #0
 8000a90:	4770      	bxeq	lr
 8000a92:	f110 0f00 	cmn.w	r0, #0
 8000a96:	ea91 0f03 	teq	r1, r3
 8000a9a:	bf58      	it	pl
 8000a9c:	4299      	cmppl	r1, r3
 8000a9e:	bf08      	it	eq
 8000aa0:	4290      	cmpeq	r0, r2
 8000aa2:	bf2c      	ite	cs
 8000aa4:	17d8      	asrcs	r0, r3, #31
 8000aa6:	ea6f 70e3 	mvncc.w	r0, r3, asr #31
 8000aaa:	f040 0001 	orr.w	r0, r0, #1
 8000aae:	4770      	bx	lr
 8000ab0:	ea4f 0c41 	mov.w	ip, r1, lsl #1
 8000ab4:	ea7f 5c6c 	mvns.w	ip, ip, asr #21
 8000ab8:	d102      	bne.n	8000ac0 <__cmpdf2+0x64>
 8000aba:	ea50 3c01 	orrs.w	ip, r0, r1, lsl #12
 8000abe:	d107      	bne.n	8000ad0 <__cmpdf2+0x74>
 8000ac0:	ea4f 0c43 	mov.w	ip, r3, lsl #1
 8000ac4:	ea7f 5c6c 	mvns.w	ip, ip, asr #21
 8000ac8:	d1d6      	bne.n	8000a78 <__cmpdf2+0x1c>
 8000aca:	ea52 3c03 	orrs.w	ip, r2, r3, lsl #12
 8000ace:	d0d3      	beq.n	8000a78 <__cmpdf2+0x1c>
 8000ad0:	f85d 0b04 	ldr.w	r0, [sp], #4
 8000ad4:	4770      	bx	lr
 8000ad6:	bf00      	nop

08000ad8 <__aeabi_cdrcmple>:
 8000ad8:	4684      	mov	ip, r0
 8000ada:	4610      	mov	r0, r2
 8000adc:	4662      	mov	r2, ip
 8000ade:	468c      	mov	ip, r1
 8000ae0:	4619      	mov	r1, r3
 8000ae2:	4663      	mov	r3, ip
 8000ae4:	e000      	b.n	8000ae8 <__aeabi_cdcmpeq>
 8000ae6:	bf00      	nop

08000ae8 <__aeabi_cdcmpeq>:
 8000ae8:	b501      	push	{r0, lr}
 8000aea:	f7ff ffb7 	bl	8000a5c <__cmpdf2>
 8000aee:	2800      	cmp	r0, #0
 8000af0:	bf48      	it	mi
 8000af2:	f110 0f00 	cmnmi.w	r0, #0
 8000af6:	bd01      	pop	{r0, pc}

08000af8 <__aeabi_dcmpeq>:
 8000af8:	f84d ed08 	str.w	lr, [sp, #-8]!
 8000afc:	f7ff fff4 	bl	8000ae8 <__aeabi_cdcmpeq>
 8000b00:	bf0c      	ite	eq
 8000b02:	2001      	moveq	r0, #1
 8000b04:	2000      	movne	r0, #0
 8000b06:	f85d fb08 	ldr.w	pc, [sp], #8
 8000b0a:	bf00      	nop

08000b0c <__aeabi_dcmplt>:
 8000b0c:	f84d ed08 	str.w	lr, [sp, #-8]!
 8000b10:	f7ff ffea 	bl	8000ae8 <__aeabi_cdcmpeq>
 8000b14:	bf34      	ite	cc
 8000b16:	2001      	movcc	r0, #1
 8000b18:	2000      	movcs	r0, #0
 8000b1a:	f85d fb08 	ldr.w	pc, [sp], #8
 8000b1e:	bf00      	nop

08000b20 <__aeabi_dcmple>:
 8000b20:	f84d ed08 	str.w	lr, [sp, #-8]!
 8000b24:	f7ff ffe0 	bl	8000ae8 <__aeabi_cdcmpeq>
 8000b28:	bf94      	ite	ls
 8000b2a:	2001      	movls	r0, #1
 8000b2c:	2000      	movhi	r0, #0
 8000b2e:	f85d fb08 	ldr.w	pc, [sp], #8
 8000b32:	bf00      	nop

08000b34 <__aeabi_dcmpge>:
 8000b34:	f84d ed08 	str.w	lr, [sp, #-8]!
 8000b38:	f7ff ffce 	bl	8000ad8 <__aeabi_cdrcmple>
 8000b3c:	bf94      	ite	ls
 8000b3e:	2001      	movls	r0, #1
 8000b40:	2000      	movhi	r0, #0
 8000b42:	f85d fb08 	ldr.w	pc, [sp], #8
 8000b46:	bf00      	nop

08000b48 <__aeabi_dcmpgt>:
 8000b48:	f84d ed08 	str.w	lr, [sp, #-8]!
 8000b4c:	f7ff ffc4 	bl	8000ad8 <__aeabi_cdrcmple>
 8000b50:	bf34      	ite	cc
 8000b52:	2001      	movcc	r0, #1
 8000b54:	2000      	movcs	r0, #0
 8000b56:	f85d fb08 	ldr.w	pc, [sp], #8
 8000b5a:	bf00      	nop

08000b5c <__aeabi_d2iz>:
 8000b5c:	ea4f 0241 	mov.w	r2, r1, lsl #1
 8000b60:	f512 1200 	adds.w	r2, r2, #2097152	; 0x200000
 8000b64:	d215      	bcs.n	8000b92 <__aeabi_d2iz+0x36>
 8000b66:	d511      	bpl.n	8000b8c <__aeabi_d2iz+0x30>
 8000b68:	f46f 7378 	mvn.w	r3, #992	; 0x3e0
 8000b6c:	ebb3 5262 	subs.w	r2, r3, r2, asr #21
 8000b70:	d912      	bls.n	8000b98 <__aeabi_d2iz+0x3c>
 8000b72:	ea4f 23c1 	mov.w	r3, r1, lsl #11
 8000b76:	f043 4300 	orr.w	r3, r3, #2147483648	; 0x80000000
 8000b7a:	ea43 5350 	orr.w	r3, r3, r0, lsr #21
 8000b7e:	f011 4f00 	tst.w	r1, #2147483648	; 0x80000000
 8000b82:	fa23 f002 	lsr.w	r0, r3, r2
 8000b86:	bf18      	it	ne
 8000b88:	4240      	negne	r0, r0
 8000b8a:	4770      	bx	lr
 8000b8c:	f04f 0000 	mov.w	r0, #0
 8000b90:	4770      	bx	lr
 8000b92:	ea50 3001 	orrs.w	r0, r0, r1, lsl #12
 8000b96:	d105      	bne.n	8000ba4 <__aeabi_d2iz+0x48>
 8000b98:	f011 4000 	ands.w	r0, r1, #2147483648	; 0x80000000
 8000b9c:	bf08      	it	eq
 8000b9e:	f06f 4000 	mvneq.w	r0, #2147483648	; 0x80000000
 8000ba2:	4770      	bx	lr
 8000ba4:	f04f 0000 	mov.w	r0, #0
 8000ba8:	4770      	bx	lr
 8000baa:	bf00      	nop

08000bac <__aeabi_d2uiz>:
 8000bac:	004a      	lsls	r2, r1, #1
 8000bae:	d211      	bcs.n	8000bd4 <__aeabi_d2uiz+0x28>
 8000bb0:	f512 1200 	adds.w	r2, r2, #2097152	; 0x200000
 8000bb4:	d211      	bcs.n	8000bda <__aeabi_d2uiz+0x2e>
 8000bb6:	d50d      	bpl.n	8000bd4 <__aeabi_d2uiz+0x28>
 8000bb8:	f46f 7378 	mvn.w	r3, #992	; 0x3e0
 8000bbc:	ebb3 5262 	subs.w	r2, r3, r2, asr #21
 8000bc0:	d40e      	bmi.n	8000be0 <__aeabi_d2uiz+0x34>
 8000bc2:	ea4f 23c1 	mov.w	r3, r1, lsl #11
 8000bc6:	f043 4300 	orr.w	r3, r3, #2147483648	; 0x80000000
 8000bca:	ea43 5350 	orr.w	r3, r3, r0, lsr #21
 8000bce:	fa23 f002 	lsr.w	r0, r3, r2
 8000bd2:	4770      	bx	lr
 8000bd4:	f04f 0000 	mov.w	r0, #0
 8000bd8:	4770      	bx	lr
 8000bda:	ea50 3001 	orrs.w	r0, r0, r1, lsl #12
 8000bde:	d102      	bne.n	8000be6 <__aeabi_d2uiz+0x3a>
 8000be0:	f04f 30ff 	mov.w	r0, #4294967295
 8000be4:	4770      	bx	lr
 8000be6:	f04f 0000 	mov.w	r0, #0
 8000bea:	4770      	bx	lr

08000bec <__aeabi_d2f>:
 8000bec:	ea4f 0241 	mov.w	r2, r1, lsl #1
 8000bf0:	f1b2 43e0 	subs.w	r3, r2, #1879048192	; 0x70000000
 8000bf4:	bf24      	itt	cs
 8000bf6:	f5b3 1c00 	subscs.w	ip, r3, #2097152	; 0x200000
 8000bfa:	f1dc 5cfe 	rsbscs	ip, ip, #532676608	; 0x1fc00000
 8000bfe:	d90d      	bls.n	8000c1c <__aeabi_d2f+0x30>
 8000c00:	f001 4c00 	and.w	ip, r1, #2147483648	; 0x80000000
 8000c04:	ea4f 02c0 	mov.w	r2, r0, lsl #3
 8000c08:	ea4c 7050 	orr.w	r0, ip, r0, lsr #29
 8000c0c:	f1b2 4f00 	cmp.w	r2, #2147483648	; 0x80000000
 8000c10:	eb40 0083 	adc.w	r0, r0, r3, lsl #2
 8000c14:	bf08      	it	eq
 8000c16:	f020 0001 	biceq.w	r0, r0, #1
 8000c1a:	4770      	bx	lr
 8000c1c:	f011 4f80 	tst.w	r1, #1073741824	; 0x40000000
 8000c20:	d121      	bne.n	8000c66 <__aeabi_d2f+0x7a>
 8000c22:	f113 7238 	adds.w	r2, r3, #48234496	; 0x2e00000
 8000c26:	bfbc      	itt	lt
 8000c28:	f001 4000 	andlt.w	r0, r1, #2147483648	; 0x80000000
 8000c2c:	4770      	bxlt	lr
 8000c2e:	f441 1180 	orr.w	r1, r1, #1048576	; 0x100000
 8000c32:	ea4f 5252 	mov.w	r2, r2, lsr #21
 8000c36:	f1c2 0218 	rsb	r2, r2, #24
 8000c3a:	f1c2 0c20 	rsb	ip, r2, #32
 8000c3e:	fa10 f30c 	lsls.w	r3, r0, ip
 8000c42:	fa20 f002 	lsr.w	r0, r0, r2
 8000c46:	bf18      	it	ne
 8000c48:	f040 0001 	orrne.w	r0, r0, #1
 8000c4c:	ea4f 23c1 	mov.w	r3, r1, lsl #11
 8000c50:	ea4f 23d3 	mov.w	r3, r3, lsr #11
 8000c54:	fa03 fc0c 	lsl.w	ip, r3, ip
 8000c58:	ea40 000c 	orr.w	r0, r0, ip
 8000c5c:	fa23 f302 	lsr.w	r3, r3, r2
 8000c60:	ea4f 0343 	mov.w	r3, r3, lsl #1
 8000c64:	e7cc      	b.n	8000c00 <__aeabi_d2f+0x14>
 8000c66:	ea7f 5362 	mvns.w	r3, r2, asr #21
 8000c6a:	d107      	bne.n	8000c7c <__aeabi_d2f+0x90>
 8000c6c:	ea50 3301 	orrs.w	r3, r0, r1, lsl #12
 8000c70:	bf1e      	ittt	ne
 8000c72:	f04f 40fe 	movne.w	r0, #2130706432	; 0x7f000000
 8000c76:	f440 0040 	orrne.w	r0, r0, #12582912	; 0xc00000
 8000c7a:	4770      	bxne	lr
 8000c7c:	f001 4000 	and.w	r0, r1, #2147483648	; 0x80000000
 8000c80:	f040 40fe 	orr.w	r0, r0, #2130706432	; 0x7f000000
 8000c84:	f440 0000 	orr.w	r0, r0, #8388608	; 0x800000
 8000c88:	4770      	bx	lr
 8000c8a:	bf00      	nop

08000c8c <__aeabi_ldivmod>:
 8000c8c:	b97b      	cbnz	r3, 8000cae <__aeabi_ldivmod+0x22>
 8000c8e:	b972      	cbnz	r2, 8000cae <__aeabi_ldivmod+0x22>
 8000c90:	2900      	cmp	r1, #0
 8000c92:	bfbe      	ittt	lt
 8000c94:	2000      	movlt	r0, #0
 8000c96:	f04f 4100 	movlt.w	r1, #2147483648	; 0x80000000
 8000c9a:	e006      	blt.n	8000caa <__aeabi_ldivmod+0x1e>
 8000c9c:	bf08      	it	eq
 8000c9e:	2800      	cmpeq	r0, #0
 8000ca0:	bf1c      	itt	ne
 8000ca2:	f06f 4100 	mvnne.w	r1, #2147483648	; 0x80000000
 8000ca6:	f04f 30ff 	movne.w	r0, #4294967295
 8000caa:	f000 b9f1 	b.w	8001090 <__aeabi_idiv0>
 8000cae:	f1ad 0c08 	sub.w	ip, sp, #8
 8000cb2:	e96d ce04 	strd	ip, lr, [sp, #-16]!
 8000cb6:	2900      	cmp	r1, #0
 8000cb8:	db09      	blt.n	8000cce <__aeabi_ldivmod+0x42>
 8000cba:	2b00      	cmp	r3, #0
 8000cbc:	db1a      	blt.n	8000cf4 <__aeabi_ldivmod+0x68>
 8000cbe:	f000 f883 	bl	8000dc8 <__udivmoddi4>
 8000cc2:	f8dd e004 	ldr.w	lr, [sp, #4]
 8000cc6:	e9dd 2302 	ldrd	r2, r3, [sp, #8]
 8000cca:	b004      	add	sp, #16
 8000ccc:	4770      	bx	lr
 8000cce:	4240      	negs	r0, r0
 8000cd0:	eb61 0141 	sbc.w	r1, r1, r1, lsl #1
 8000cd4:	2b00      	cmp	r3, #0
 8000cd6:	db1b      	blt.n	8000d10 <__aeabi_ldivmod+0x84>
 8000cd8:	f000 f876 	bl	8000dc8 <__udivmoddi4>
 8000cdc:	f8dd e004 	ldr.w	lr, [sp, #4]
 8000ce0:	e9dd 2302 	ldrd	r2, r3, [sp, #8]
 8000ce4:	b004      	add	sp, #16
 8000ce6:	4240      	negs	r0, r0
 8000ce8:	eb61 0141 	sbc.w	r1, r1, r1, lsl #1
 8000cec:	4252      	negs	r2, r2
 8000cee:	eb63 0343 	sbc.w	r3, r3, r3, lsl #1
 8000cf2:	4770      	bx	lr
 8000cf4:	4252      	negs	r2, r2
 8000cf6:	eb63 0343 	sbc.w	r3, r3, r3, lsl #1
 8000cfa:	f000 f865 	bl	8000dc8 <__udivmoddi4>
 8000cfe:	f8dd e004 	ldr.w	lr, [sp, #4]
 8000d02:	e9dd 2302 	ldrd	r2, r3, [sp, #8]
 8000d06:	b004      	add	sp, #16
 8000d08:	4240      	negs	r0, r0
 8000d0a:	eb61 0141 	sbc.w	r1, r1, r1, lsl #1
 8000d0e:	4770      	bx	lr
 8000d10:	4252      	negs	r2, r2
 8000d12:	eb63 0343 	sbc.w	r3, r3, r3, lsl #1
 8000d16:	f000 f857 	bl	8000dc8 <__udivmoddi4>
 8000d1a:	f8dd e004 	ldr.w	lr, [sp, #4]
 8000d1e:	e9dd 2302 	ldrd	r2, r3, [sp, #8]
 8000d22:	b004      	add	sp, #16
 8000d24:	4252      	negs	r2, r2
 8000d26:	eb63 0343 	sbc.w	r3, r3, r3, lsl #1
 8000d2a:	4770      	bx	lr

08000d2c <__aeabi_uldivmod>:
 8000d2c:	b953      	cbnz	r3, 8000d44 <__aeabi_uldivmod+0x18>
 8000d2e:	b94a      	cbnz	r2, 8000d44 <__aeabi_uldivmod+0x18>
 8000d30:	2900      	cmp	r1, #0
 8000d32:	bf08      	it	eq
 8000d34:	2800      	cmpeq	r0, #0
 8000d36:	bf1c      	itt	ne
 8000d38:	f04f 31ff 	movne.w	r1, #4294967295
 8000d3c:	f04f 30ff 	movne.w	r0, #4294967295
 8000d40:	f000 b9a6 	b.w	8001090 <__aeabi_idiv0>
 8000d44:	f1ad 0c08 	sub.w	ip, sp, #8
 8000d48:	e96d ce04 	strd	ip, lr, [sp, #-16]!
 8000d4c:	f000 f83c 	bl	8000dc8 <__udivmoddi4>
 8000d50:	f8dd e004 	ldr.w	lr, [sp, #4]
 8000d54:	e9dd 2302 	ldrd	r2, r3, [sp, #8]
 8000d58:	b004      	add	sp, #16
 8000d5a:	4770      	bx	lr

08000d5c <__aeabi_d2lz>:
 8000d5c:	b538      	push	{r3, r4, r5, lr}
 8000d5e:	2200      	movs	r2, #0
 8000d60:	2300      	movs	r3, #0
 8000d62:	4604      	mov	r4, r0
 8000d64:	460d      	mov	r5, r1
 8000d66:	f7ff fed1 	bl	8000b0c <__aeabi_dcmplt>
 8000d6a:	b928      	cbnz	r0, 8000d78 <__aeabi_d2lz+0x1c>
 8000d6c:	4620      	mov	r0, r4
 8000d6e:	4629      	mov	r1, r5
 8000d70:	e8bd 4038 	ldmia.w	sp!, {r3, r4, r5, lr}
 8000d74:	f000 b80a 	b.w	8000d8c <__aeabi_d2ulz>
 8000d78:	4620      	mov	r0, r4
 8000d7a:	f105 4100 	add.w	r1, r5, #2147483648	; 0x80000000
 8000d7e:	f000 f805 	bl	8000d8c <__aeabi_d2ulz>
 8000d82:	4240      	negs	r0, r0
 8000d84:	eb61 0141 	sbc.w	r1, r1, r1, lsl #1
 8000d88:	bd38      	pop	{r3, r4, r5, pc}
 8000d8a:	bf00      	nop

08000d8c <__aeabi_d2ulz>:
 8000d8c:	b5d0      	push	{r4, r6, r7, lr}
 8000d8e:	4b0c      	ldr	r3, [pc, #48]	; (8000dc0 <__aeabi_d2ulz+0x34>)
 8000d90:	2200      	movs	r2, #0
 8000d92:	4606      	mov	r6, r0
 8000d94:	460f      	mov	r7, r1
 8000d96:	f7ff fc47 	bl	8000628 <__aeabi_dmul>
 8000d9a:	f7ff ff07 	bl	8000bac <__aeabi_d2uiz>
 8000d9e:	4604      	mov	r4, r0
 8000da0:	f7ff fbc8 	bl	8000534 <__aeabi_ui2d>
 8000da4:	4b07      	ldr	r3, [pc, #28]	; (8000dc4 <__aeabi_d2ulz+0x38>)
 8000da6:	2200      	movs	r2, #0
 8000da8:	f7ff fc3e 	bl	8000628 <__aeabi_dmul>
 8000dac:	4602      	mov	r2, r0
 8000dae:	460b      	mov	r3, r1
 8000db0:	4630      	mov	r0, r6
 8000db2:	4639      	mov	r1, r7
 8000db4:	f7ff fa80 	bl	80002b8 <__aeabi_dsub>
 8000db8:	f7ff fef8 	bl	8000bac <__aeabi_d2uiz>
 8000dbc:	4621      	mov	r1, r4
 8000dbe:	bdd0      	pop	{r4, r6, r7, pc}
 8000dc0:	3df00000 	.word	0x3df00000
 8000dc4:	41f00000 	.word	0x41f00000

08000dc8 <__udivmoddi4>:
 8000dc8:	e92d 47f0 	stmdb	sp!, {r4, r5, r6, r7, r8, r9, sl, lr}
 8000dcc:	9e08      	ldr	r6, [sp, #32]
 8000dce:	460d      	mov	r5, r1
 8000dd0:	4604      	mov	r4, r0
 8000dd2:	460f      	mov	r7, r1
 8000dd4:	2b00      	cmp	r3, #0
 8000dd6:	d14a      	bne.n	8000e6e <__udivmoddi4+0xa6>
 8000dd8:	428a      	cmp	r2, r1
 8000dda:	4694      	mov	ip, r2
 8000ddc:	d965      	bls.n	8000eaa <__udivmoddi4+0xe2>
 8000dde:	fab2 f382 	clz	r3, r2
 8000de2:	b143      	cbz	r3, 8000df6 <__udivmoddi4+0x2e>
 8000de4:	fa02 fc03 	lsl.w	ip, r2, r3
 8000de8:	f1c3 0220 	rsb	r2, r3, #32
 8000dec:	409f      	lsls	r7, r3
 8000dee:	fa20 f202 	lsr.w	r2, r0, r2
 8000df2:	4317      	orrs	r7, r2
 8000df4:	409c      	lsls	r4, r3
 8000df6:	ea4f 4e1c 	mov.w	lr, ip, lsr #16
 8000dfa:	fa1f f58c 	uxth.w	r5, ip
 8000dfe:	fbb7 f1fe 	udiv	r1, r7, lr
 8000e02:	0c22      	lsrs	r2, r4, #16
 8000e04:	fb0e 7711 	mls	r7, lr, r1, r7
 8000e08:	ea42 4207 	orr.w	r2, r2, r7, lsl #16
 8000e0c:	fb01 f005 	mul.w	r0, r1, r5
 8000e10:	4290      	cmp	r0, r2
 8000e12:	d90a      	bls.n	8000e2a <__udivmoddi4+0x62>
 8000e14:	eb1c 0202 	adds.w	r2, ip, r2
 8000e18:	f101 37ff 	add.w	r7, r1, #4294967295
 8000e1c:	f080 811c 	bcs.w	8001058 <__udivmoddi4+0x290>
 8000e20:	4290      	cmp	r0, r2
 8000e22:	f240 8119 	bls.w	8001058 <__udivmoddi4+0x290>
 8000e26:	3902      	subs	r1, #2
 8000e28:	4462      	add	r2, ip
 8000e2a:	1a12      	subs	r2, r2, r0
 8000e2c:	b2a4      	uxth	r4, r4
 8000e2e:	fbb2 f0fe 	udiv	r0, r2, lr
 8000e32:	fb0e 2210 	mls	r2, lr, r0, r2
 8000e36:	ea44 4402 	orr.w	r4, r4, r2, lsl #16
 8000e3a:	fb00 f505 	mul.w	r5, r0, r5
 8000e3e:	42a5      	cmp	r5, r4
 8000e40:	d90a      	bls.n	8000e58 <__udivmoddi4+0x90>
 8000e42:	eb1c 0404 	adds.w	r4, ip, r4
 8000e46:	f100 32ff 	add.w	r2, r0, #4294967295
 8000e4a:	f080 8107 	bcs.w	800105c <__udivmoddi4+0x294>
 8000e4e:	42a5      	cmp	r5, r4
 8000e50:	f240 8104 	bls.w	800105c <__udivmoddi4+0x294>
 8000e54:	4464      	add	r4, ip
 8000e56:	3802      	subs	r0, #2
 8000e58:	ea40 4001 	orr.w	r0, r0, r1, lsl #16
 8000e5c:	1b64      	subs	r4, r4, r5
 8000e5e:	2100      	movs	r1, #0
 8000e60:	b11e      	cbz	r6, 8000e6a <__udivmoddi4+0xa2>
 8000e62:	40dc      	lsrs	r4, r3
 8000e64:	2300      	movs	r3, #0
 8000e66:	e9c6 4300 	strd	r4, r3, [r6]
 8000e6a:	e8bd 87f0 	ldmia.w	sp!, {r4, r5, r6, r7, r8, r9, sl, pc}
 8000e6e:	428b      	cmp	r3, r1
 8000e70:	d908      	bls.n	8000e84 <__udivmoddi4+0xbc>
 8000e72:	2e00      	cmp	r6, #0
 8000e74:	f000 80ed 	beq.w	8001052 <__udivmoddi4+0x28a>
 8000e78:	2100      	movs	r1, #0
 8000e7a:	e9c6 0500 	strd	r0, r5, [r6]
 8000e7e:	4608      	mov	r0, r1
 8000e80:	e8bd 87f0 	ldmia.w	sp!, {r4, r5, r6, r7, r8, r9, sl, pc}
 8000e84:	fab3 f183 	clz	r1, r3
 8000e88:	2900      	cmp	r1, #0
 8000e8a:	d149      	bne.n	8000f20 <__udivmoddi4+0x158>
 8000e8c:	42ab      	cmp	r3, r5
 8000e8e:	d302      	bcc.n	8000e96 <__udivmoddi4+0xce>
 8000e90:	4282      	cmp	r2, r0
 8000e92:	f200 80f8 	bhi.w	8001086 <__udivmoddi4+0x2be>
 8000e96:	1a84      	subs	r4, r0, r2
 8000e98:	eb65 0203 	sbc.w	r2, r5, r3
 8000e9c:	2001      	movs	r0, #1
 8000e9e:	4617      	mov	r7, r2
 8000ea0:	2e00      	cmp	r6, #0
 8000ea2:	d0e2      	beq.n	8000e6a <__udivmoddi4+0xa2>
 8000ea4:	e9c6 4700 	strd	r4, r7, [r6]
 8000ea8:	e7df      	b.n	8000e6a <__udivmoddi4+0xa2>
 8000eaa:	b902      	cbnz	r2, 8000eae <__udivmoddi4+0xe6>
 8000eac:	deff      	udf	#255	; 0xff
 8000eae:	fab2 f382 	clz	r3, r2
 8000eb2:	2b00      	cmp	r3, #0
 8000eb4:	f040 8090 	bne.w	8000fd8 <__udivmoddi4+0x210>
 8000eb8:	1a8a      	subs	r2, r1, r2
 8000eba:	ea4f 471c 	mov.w	r7, ip, lsr #16
 8000ebe:	fa1f fe8c 	uxth.w	lr, ip
 8000ec2:	2101      	movs	r1, #1
 8000ec4:	fbb2 f5f7 	udiv	r5, r2, r7
 8000ec8:	fb07 2015 	mls	r0, r7, r5, r2
 8000ecc:	0c22      	lsrs	r2, r4, #16
 8000ece:	ea42 4200 	orr.w	r2, r2, r0, lsl #16
 8000ed2:	fb0e f005 	mul.w	r0, lr, r5
 8000ed6:	4290      	cmp	r0, r2
 8000ed8:	d908      	bls.n	8000eec <__udivmoddi4+0x124>
 8000eda:	eb1c 0202 	adds.w	r2, ip, r2
 8000ede:	f105 38ff 	add.w	r8, r5, #4294967295
 8000ee2:	d202      	bcs.n	8000eea <__udivmoddi4+0x122>
 8000ee4:	4290      	cmp	r0, r2
 8000ee6:	f200 80cb 	bhi.w	8001080 <__udivmoddi4+0x2b8>
 8000eea:	4645      	mov	r5, r8
 8000eec:	1a12      	subs	r2, r2, r0
 8000eee:	b2a4      	uxth	r4, r4
 8000ef0:	fbb2 f0f7 	udiv	r0, r2, r7
 8000ef4:	fb07 2210 	mls	r2, r7, r0, r2
 8000ef8:	ea44 4402 	orr.w	r4, r4, r2, lsl #16
 8000efc:	fb0e fe00 	mul.w	lr, lr, r0
 8000f00:	45a6      	cmp	lr, r4
 8000f02:	d908      	bls.n	8000f16 <__udivmoddi4+0x14e>
 8000f04:	eb1c 0404 	adds.w	r4, ip, r4
 8000f08:	f100 32ff 	add.w	r2, r0, #4294967295
 8000f0c:	d202      	bcs.n	8000f14 <__udivmoddi4+0x14c>
 8000f0e:	45a6      	cmp	lr, r4
 8000f10:	f200 80bb 	bhi.w	800108a <__udivmoddi4+0x2c2>
 8000f14:	4610      	mov	r0, r2
 8000f16:	eba4 040e 	sub.w	r4, r4, lr
 8000f1a:	ea40 4005 	orr.w	r0, r0, r5, lsl #16
 8000f1e:	e79f      	b.n	8000e60 <__udivmoddi4+0x98>
 8000f20:	f1c1 0720 	rsb	r7, r1, #32
 8000f24:	408b      	lsls	r3, r1
 8000f26:	fa22 fc07 	lsr.w	ip, r2, r7
 8000f2a:	ea4c 0c03 	orr.w	ip, ip, r3
 8000f2e:	fa05 f401 	lsl.w	r4, r5, r1
 8000f32:	fa20 f307 	lsr.w	r3, r0, r7
 8000f36:	40fd      	lsrs	r5, r7
 8000f38:	ea4f 491c 	mov.w	r9, ip, lsr #16
 8000f3c:	4323      	orrs	r3, r4
 8000f3e:	fbb5 f8f9 	udiv	r8, r5, r9
 8000f42:	fa1f fe8c 	uxth.w	lr, ip
 8000f46:	fb09 5518 	mls	r5, r9, r8, r5
 8000f4a:	0c1c      	lsrs	r4, r3, #16
 8000f4c:	ea44 4405 	orr.w	r4, r4, r5, lsl #16
 8000f50:	fb08 f50e 	mul.w	r5, r8, lr
 8000f54:	42a5      	cmp	r5, r4
 8000f56:	fa02 f201 	lsl.w	r2, r2, r1
 8000f5a:	fa00 f001 	lsl.w	r0, r0, r1
 8000f5e:	d90b      	bls.n	8000f78 <__udivmoddi4+0x1b0>
 8000f60:	eb1c 0404 	adds.w	r4, ip, r4
 8000f64:	f108 3aff 	add.w	sl, r8, #4294967295
 8000f68:	f080 8088 	bcs.w	800107c <__udivmoddi4+0x2b4>
 8000f6c:	42a5      	cmp	r5, r4
 8000f6e:	f240 8085 	bls.w	800107c <__udivmoddi4+0x2b4>
 8000f72:	f1a8 0802 	sub.w	r8, r8, #2
 8000f76:	4464      	add	r4, ip
 8000f78:	1b64      	subs	r4, r4, r5
 8000f7a:	b29d      	uxth	r5, r3
 8000f7c:	fbb4 f3f9 	udiv	r3, r4, r9
 8000f80:	fb09 4413 	mls	r4, r9, r3, r4
 8000f84:	ea45 4404 	orr.w	r4, r5, r4, lsl #16
 8000f88:	fb03 fe0e 	mul.w	lr, r3, lr
 8000f8c:	45a6      	cmp	lr, r4
 8000f8e:	d908      	bls.n	8000fa2 <__udivmoddi4+0x1da>
 8000f90:	eb1c 0404 	adds.w	r4, ip, r4
 8000f94:	f103 35ff 	add.w	r5, r3, #4294967295
 8000f98:	d26c      	bcs.n	8001074 <__udivmoddi4+0x2ac>
 8000f9a:	45a6      	cmp	lr, r4
 8000f9c:	d96a      	bls.n	8001074 <__udivmoddi4+0x2ac>
 8000f9e:	3b02      	subs	r3, #2
 8000fa0:	4464      	add	r4, ip
 8000fa2:	ea43 4308 	orr.w	r3, r3, r8, lsl #16
 8000fa6:	fba3 9502 	umull	r9, r5, r3, r2
 8000faa:	eba4 040e 	sub.w	r4, r4, lr
 8000fae:	42ac      	cmp	r4, r5
 8000fb0:	46c8      	mov	r8, r9
 8000fb2:	46ae      	mov	lr, r5
 8000fb4:	d356      	bcc.n	8001064 <__udivmoddi4+0x29c>
 8000fb6:	d053      	beq.n	8001060 <__udivmoddi4+0x298>
 8000fb8:	b156      	cbz	r6, 8000fd0 <__udivmoddi4+0x208>
 8000fba:	ebb0 0208 	subs.w	r2, r0, r8
 8000fbe:	eb64 040e 	sbc.w	r4, r4, lr
 8000fc2:	fa04 f707 	lsl.w	r7, r4, r7
 8000fc6:	40ca      	lsrs	r2, r1
 8000fc8:	40cc      	lsrs	r4, r1
 8000fca:	4317      	orrs	r7, r2
 8000fcc:	e9c6 7400 	strd	r7, r4, [r6]
 8000fd0:	4618      	mov	r0, r3
 8000fd2:	2100      	movs	r1, #0
 8000fd4:	e8bd 87f0 	ldmia.w	sp!, {r4, r5, r6, r7, r8, r9, sl, pc}
 8000fd8:	f1c3 0120 	rsb	r1, r3, #32
 8000fdc:	fa02 fc03 	lsl.w	ip, r2, r3
 8000fe0:	fa20 f201 	lsr.w	r2, r0, r1
 8000fe4:	fa25 f101 	lsr.w	r1, r5, r1
 8000fe8:	409d      	lsls	r5, r3
 8000fea:	432a      	orrs	r2, r5
 8000fec:	ea4f 471c 	mov.w	r7, ip, lsr #16
 8000ff0:	fa1f fe8c 	uxth.w	lr, ip
 8000ff4:	fbb1 f0f7 	udiv	r0, r1, r7
 8000ff8:	fb07 1510 	mls	r5, r7, r0, r1
 8000ffc:	0c11      	lsrs	r1, r2, #16
 8000ffe:	ea41 4105 	orr.w	r1, r1, r5, lsl #16
 8001002:	fb00 f50e 	mul.w	r5, r0, lr
 8001006:	428d      	cmp	r5, r1
 8001008:	fa04 f403 	lsl.w	r4, r4, r3
 800100c:	d908      	bls.n	8001020 <__udivmoddi4+0x258>
 800100e:	eb1c 0101 	adds.w	r1, ip, r1
 8001012:	f100 38ff 	add.w	r8, r0, #4294967295
 8001016:	d22f      	bcs.n	8001078 <__udivmoddi4+0x2b0>
 8001018:	428d      	cmp	r5, r1
 800101a:	d92d      	bls.n	8001078 <__udivmoddi4+0x2b0>
 800101c:	3802      	subs	r0, #2
 800101e:	4461      	add	r1, ip
 8001020:	1b49      	subs	r1, r1, r5
 8001022:	b292      	uxth	r2, r2
 8001024:	fbb1 f5f7 	udiv	r5, r1, r7
 8001028:	fb07 1115 	mls	r1, r7, r5, r1
 800102c:	ea42 4201 	orr.w	r2, r2, r1, lsl #16
 8001030:	fb05 f10e 	mul.w	r1, r5, lr
 8001034:	4291      	cmp	r1, r2
 8001036:	d908      	bls.n	800104a <__udivmoddi4+0x282>
 8001038:	eb1c 0202 	adds.w	r2, ip, r2
 800103c:	f105 38ff 	add.w	r8, r5, #4294967295
 8001040:	d216      	bcs.n	8001070 <__udivmoddi4+0x2a8>
 8001042:	4291      	cmp	r1, r2
 8001044:	d914      	bls.n	8001070 <__udivmoddi4+0x2a8>
 8001046:	3d02      	subs	r5, #2
 8001048:	4462      	add	r2, ip
 800104a:	1a52      	subs	r2, r2, r1
 800104c:	ea45 4100 	orr.w	r1, r5, r0, lsl #16
 8001050:	e738      	b.n	8000ec4 <__udivmoddi4+0xfc>
 8001052:	4631      	mov	r1, r6
 8001054:	4630      	mov	r0, r6
 8001056:	e708      	b.n	8000e6a <__udivmoddi4+0xa2>
 8001058:	4639      	mov	r1, r7
 800105a:	e6e6      	b.n	8000e2a <__udivmoddi4+0x62>
 800105c:	4610      	mov	r0, r2
 800105e:	e6fb      	b.n	8000e58 <__udivmoddi4+0x90>
 8001060:	4548      	cmp	r0, r9
 8001062:	d2a9      	bcs.n	8000fb8 <__udivmoddi4+0x1f0>
 8001064:	ebb9 0802 	subs.w	r8, r9, r2
 8001068:	eb65 0e0c 	sbc.w	lr, r5, ip
 800106c:	3b01      	subs	r3, #1
 800106e:	e7a3      	b.n	8000fb8 <__udivmoddi4+0x1f0>
 8001070:	4645      	mov	r5, r8
 8001072:	e7ea      	b.n	800104a <__udivmoddi4+0x282>
 8001074:	462b      	mov	r3, r5
 8001076:	e794      	b.n	8000fa2 <__udivmoddi4+0x1da>
 8001078:	4640      	mov	r0, r8
 800107a:	e7d1      	b.n	8001020 <__udivmoddi4+0x258>
 800107c:	46d0      	mov	r8, sl
 800107e:	e77b      	b.n	8000f78 <__udivmoddi4+0x1b0>
 8001080:	3d02      	subs	r5, #2
 8001082:	4462      	add	r2, ip
 8001084:	e732      	b.n	8000eec <__udivmoddi4+0x124>
 8001086:	4608      	mov	r0, r1
 8001088:	e70a      	b.n	8000ea0 <__udivmoddi4+0xd8>
 800108a:	4464      	add	r4, ip
 800108c:	3802      	subs	r0, #2
 800108e:	e742      	b.n	8000f16 <__udivmoddi4+0x14e>

08001090 <__aeabi_idiv0>:
 8001090:	4770      	bx	lr
 8001092:	bf00      	nop

08001094 <StartDefaultTask>:
 8001094:	b508      	push	{r3, lr}
 8001096:	f000 fa61 	bl	800155c <MX_USB_DEVICE_Init>
 800109a:	2108      	movs	r1, #8
 800109c:	4805      	ldr	r0, [pc, #20]	; (80010b4 <StartDefaultTask+0x20>)
 800109e:	f000 fae9 	bl	8001674 <CDC_Transmit_FS>
 80010a2:	f00c f961 	bl	800d368 <pikaPythonInit>
 80010a6:	f00f f8df 	bl	8010268 <pikaPythonShell>
 80010aa:	2001      	movs	r0, #1
 80010ac:	f004 fdcc 	bl	8005c48 <osDelay>
 80010b0:	e7fb      	b.n	80010aa <StartDefaultTask+0x16>
 80010b2:	bf00      	nop
 80010b4:	08031ee4 	.word	0x08031ee4

080010b8 <pika_platform_putchar>:
 80010b8:	b500      	push	{lr}
 80010ba:	b083      	sub	sp, #12
 80010bc:	4603      	mov	r3, r0
 80010be:	2101      	movs	r1, #1
 80010c0:	f10d 0007 	add.w	r0, sp, #7
 80010c4:	f88d 3007 	strb.w	r3, [sp, #7]
 80010c8:	f000 fad4 	bl	8001674 <CDC_Transmit_FS>
 80010cc:	2000      	movs	r0, #0
 80010ce:	b003      	add	sp, #12
 80010d0:	f85d fb04 	ldr.w	pc, [sp], #4

080010d4 <pika_platform_getchar>:
 80010d4:	4a08      	ldr	r2, [pc, #32]	; (80010f8 <pika_platform_getchar+0x24>)
 80010d6:	4909      	ldr	r1, [pc, #36]	; (80010fc <pika_platform_getchar+0x28>)
 80010d8:	6813      	ldr	r3, [r2, #0]
 80010da:	6809      	ldr	r1, [r1, #0]
 80010dc:	428b      	cmp	r3, r1
 80010de:	d100      	bne.n	80010e2 <pika_platform_getchar+0xe>
 80010e0:	e7fe      	b.n	80010e0 <pika_platform_getchar+0xc>
 80010e2:	1c59      	adds	r1, r3, #1
 80010e4:	4806      	ldr	r0, [pc, #24]	; (8001100 <pika_platform_getchar+0x2c>)
 80010e6:	6011      	str	r1, [r2, #0]
 80010e8:	f5b1 6f00 	cmp.w	r1, #2048	; 0x800
 80010ec:	5cc0      	ldrb	r0, [r0, r3]
 80010ee:	bf24      	itt	cs
 80010f0:	2300      	movcs	r3, #0
 80010f2:	6013      	strcs	r3, [r2, #0]
 80010f4:	4770      	bx	lr
 80010f6:	bf00      	nop
 80010f8:	200010c4 	.word	0x200010c4
 80010fc:	200010c8 	.word	0x200010c8
 8001100:	200008c4 	.word	0x200008c4

08001104 <SystemClock_Config>:
 8001104:	b510      	push	{r4, lr}
 8001106:	2300      	movs	r3, #0
 8001108:	b094      	sub	sp, #80	; 0x50
 800110a:	e9cd 330a 	strd	r3, r3, [sp, #40]	; 0x28
 800110e:	e9cd 330c 	strd	r3, r3, [sp, #48]	; 0x30
 8001112:	e9cd 3303 	strd	r3, r3, [sp, #12]
 8001116:	e9cd 3305 	strd	r3, r3, [sp, #20]
 800111a:	4920      	ldr	r1, [pc, #128]	; (800119c <SystemClock_Config+0x98>)
 800111c:	9301      	str	r3, [sp, #4]
 800111e:	9307      	str	r3, [sp, #28]
 8001120:	6c08      	ldr	r0, [r1, #64]	; 0x40
 8001122:	4a1f      	ldr	r2, [pc, #124]	; (80011a0 <SystemClock_Config+0x9c>)
 8001124:	f040 5080 	orr.w	r0, r0, #268435456	; 0x10000000
 8001128:	6408      	str	r0, [r1, #64]	; 0x40
 800112a:	6c09      	ldr	r1, [r1, #64]	; 0x40
 800112c:	f001 5180 	and.w	r1, r1, #268435456	; 0x10000000
 8001130:	9101      	str	r1, [sp, #4]
 8001132:	9901      	ldr	r1, [sp, #4]
 8001134:	9302      	str	r3, [sp, #8]
 8001136:	6813      	ldr	r3, [r2, #0]
 8001138:	f443 4340 	orr.w	r3, r3, #49152	; 0xc000
 800113c:	6013      	str	r3, [r2, #0]
 800113e:	6813      	ldr	r3, [r2, #0]
 8001140:	2001      	movs	r0, #1
 8001142:	f44f 3180 	mov.w	r1, #65536	; 0x10000
 8001146:	f403 4340 	and.w	r3, r3, #49152	; 0xc000
 800114a:	e9cd 0108 	strd	r0, r1, [sp, #32]
 800114e:	9302      	str	r3, [sp, #8]
 8001150:	f44f 0180 	mov.w	r1, #4194304	; 0x400000
 8001154:	2402      	movs	r4, #2
 8001156:	e9cd 410e 	strd	r4, r1, [sp, #56]	; 0x38
 800115a:	9802      	ldr	r0, [sp, #8]
 800115c:	2104      	movs	r1, #4
 800115e:	2002      	movs	r0, #2
 8001160:	e9cd 0112 	strd	r0, r1, [sp, #72]	; 0x48
 8001164:	2219      	movs	r2, #25
 8001166:	23c0      	movs	r3, #192	; 0xc0
 8001168:	a808      	add	r0, sp, #32
 800116a:	9210      	str	r2, [sp, #64]	; 0x40
 800116c:	9311      	str	r3, [sp, #68]	; 0x44
 800116e:	f002 f9d3 	bl	8003518 <HAL_RCC_OscConfig>
 8001172:	b108      	cbz	r0, 8001178 <SystemClock_Config+0x74>
 8001174:	b672      	cpsid	i
 8001176:	e7fe      	b.n	8001176 <SystemClock_Config+0x72>
 8001178:	210f      	movs	r1, #15
 800117a:	4603      	mov	r3, r0
 800117c:	e9cd 1403 	strd	r1, r4, [sp, #12]
 8001180:	f44f 5280 	mov.w	r2, #4096	; 0x1000
 8001184:	a803      	add	r0, sp, #12
 8001186:	2103      	movs	r1, #3
 8001188:	e9cd 3205 	strd	r3, r2, [sp, #20]
 800118c:	9307      	str	r3, [sp, #28]
 800118e:	f002 fbdb 	bl	8003948 <HAL_RCC_ClockConfig>
 8001192:	b108      	cbz	r0, 8001198 <SystemClock_Config+0x94>
 8001194:	b672      	cpsid	i
 8001196:	e7fe      	b.n	8001196 <SystemClock_Config+0x92>
 8001198:	b014      	add	sp, #80	; 0x50
 800119a:	bd10      	pop	{r4, pc}
 800119c:	40023800 	.word	0x40023800
 80011a0:	40007000 	.word	0x40007000

080011a4 <main>:
 80011a4:	b500      	push	{lr}
 80011a6:	b085      	sub	sp, #20
 80011a8:	f000 fcd2 	bl	8001b50 <HAL_Init>
 80011ac:	f7ff ffaa 	bl	8001104 <SystemClock_Config>
 80011b0:	4b1f      	ldr	r3, [pc, #124]	; (8001230 <main+0x8c>)
 80011b2:	4820      	ldr	r0, [pc, #128]	; (8001234 <main+0x90>)
 80011b4:	4c20      	ldr	r4, [pc, #128]	; (8001238 <main+0x94>)
 80011b6:	2200      	movs	r2, #0
 80011b8:	9201      	str	r2, [sp, #4]
 80011ba:	6b19      	ldr	r1, [r3, #48]	; 0x30
 80011bc:	f041 0180 	orr.w	r1, r1, #128	; 0x80
 80011c0:	6319      	str	r1, [r3, #48]	; 0x30
 80011c2:	6b19      	ldr	r1, [r3, #48]	; 0x30
 80011c4:	f001 0180 	and.w	r1, r1, #128	; 0x80
 80011c8:	9101      	str	r1, [sp, #4]
 80011ca:	9901      	ldr	r1, [sp, #4]
 80011cc:	9202      	str	r2, [sp, #8]
 80011ce:	6b19      	ldr	r1, [r3, #48]	; 0x30
 80011d0:	6082      	str	r2, [r0, #8]
 80011d2:	f041 0101 	orr.w	r1, r1, #1
 80011d6:	6319      	str	r1, [r3, #48]	; 0x30
 80011d8:	6b19      	ldr	r1, [r3, #48]	; 0x30
 80011da:	60c2      	str	r2, [r0, #12]
 80011dc:	f001 0101 	and.w	r1, r1, #1
 80011e0:	9102      	str	r1, [sp, #8]
 80011e2:	9902      	ldr	r1, [sp, #8]
 80011e4:	9203      	str	r2, [sp, #12]
 80011e6:	6b19      	ldr	r1, [r3, #48]	; 0x30
 80011e8:	6102      	str	r2, [r0, #16]
 80011ea:	f041 0102 	orr.w	r1, r1, #2
 80011ee:	6319      	str	r1, [r3, #48]	; 0x30
 80011f0:	6b1b      	ldr	r3, [r3, #48]	; 0x30
 80011f2:	6182      	str	r2, [r0, #24]
 80011f4:	f003 0302 	and.w	r3, r3, #2
 80011f8:	9303      	str	r3, [sp, #12]
 80011fa:	f44f 31e1 	mov.w	r1, #115200	; 0x1c200
 80011fe:	230c      	movs	r3, #12
 8001200:	e9c0 4100 	strd	r4, r1, [r0]
 8001204:	9d03      	ldr	r5, [sp, #12]
 8001206:	6143      	str	r3, [r0, #20]
 8001208:	61c2      	str	r2, [r0, #28]
 800120a:	f003 f9a7 	bl	800455c <HAL_UART_Init>
 800120e:	b108      	cbz	r0, 8001214 <main+0x70>
 8001210:	b672      	cpsid	i
 8001212:	e7fe      	b.n	8001212 <main+0x6e>
 8001214:	4604      	mov	r4, r0
 8001216:	f004 fc9f 	bl	8005b58 <osKernelInitialize>
 800121a:	4a08      	ldr	r2, [pc, #32]	; (800123c <main+0x98>)
 800121c:	4808      	ldr	r0, [pc, #32]	; (8001240 <main+0x9c>)
 800121e:	4621      	mov	r1, r4
 8001220:	f004 fcc6 	bl	8005bb0 <osThreadNew>
 8001224:	4b07      	ldr	r3, [pc, #28]	; (8001244 <main+0xa0>)
 8001226:	6018      	str	r0, [r3, #0]
 8001228:	f004 fca8 	bl	8005b7c <osKernelStart>
 800122c:	e7fe      	b.n	800122c <main+0x88>
 800122e:	bf00      	nop
 8001230:	40023800 	.word	0x40023800
 8001234:	20000880 	.word	0x20000880
 8001238:	40011000 	.word	0x40011000
 800123c:	08031ef8 	.word	0x08031ef8
 8001240:	08001095 	.word	0x08001095
 8001244:	2000087c 	.word	0x2000087c

08001248 <HAL_TIM_PeriodElapsedCallback>:
 8001248:	4b03      	ldr	r3, [pc, #12]	; (8001258 <HAL_TIM_PeriodElapsedCallback+0x10>)
 800124a:	6802      	ldr	r2, [r0, #0]
 800124c:	429a      	cmp	r2, r3
 800124e:	d000      	beq.n	8001252 <HAL_TIM_PeriodElapsedCallback+0xa>
 8001250:	4770      	bx	lr
 8001252:	f000 bc97 	b.w	8001b84 <HAL_IncTick>
 8001256:	bf00      	nop
 8001258:	40000400 	.word	0x40000400

0800125c <Error_Handler>:
 800125c:	b672      	cpsid	i
 800125e:	e7fe      	b.n	800125e <Error_Handler+0x2>

08001260 <HAL_MspInit>:
 8001260:	b082      	sub	sp, #8
 8001262:	4b0e      	ldr	r3, [pc, #56]	; (800129c <HAL_MspInit+0x3c>)
 8001264:	2200      	movs	r2, #0
 8001266:	9200      	str	r2, [sp, #0]
 8001268:	6c59      	ldr	r1, [r3, #68]	; 0x44
 800126a:	f441 4180 	orr.w	r1, r1, #16384	; 0x4000
 800126e:	6459      	str	r1, [r3, #68]	; 0x44
 8001270:	6c58      	ldr	r0, [r3, #68]	; 0x44
 8001272:	f400 4080 	and.w	r0, r0, #16384	; 0x4000
 8001276:	9000      	str	r0, [sp, #0]
 8001278:	9800      	ldr	r0, [sp, #0]
 800127a:	9201      	str	r2, [sp, #4]
 800127c:	6c18      	ldr	r0, [r3, #64]	; 0x40
 800127e:	f040 5080 	orr.w	r0, r0, #268435456	; 0x10000000
 8001282:	6418      	str	r0, [r3, #64]	; 0x40
 8001284:	6c1b      	ldr	r3, [r3, #64]	; 0x40
 8001286:	f003 5380 	and.w	r3, r3, #268435456	; 0x10000000
 800128a:	9301      	str	r3, [sp, #4]
 800128c:	9b01      	ldr	r3, [sp, #4]
 800128e:	210f      	movs	r1, #15
 8001290:	f06f 0001 	mvn.w	r0, #1
 8001294:	b002      	add	sp, #8
 8001296:	f000 bf13 	b.w	80020c0 <HAL_NVIC_SetPriority>
 800129a:	bf00      	nop
 800129c:	40023800 	.word	0x40023800

080012a0 <HAL_UART_MspInit>:
 80012a0:	b570      	push	{r4, r5, r6, lr}
 80012a2:	4b23      	ldr	r3, [pc, #140]	; (8001330 <HAL_UART_MspInit+0x90>)
 80012a4:	6802      	ldr	r2, [r0, #0]
 80012a6:	b08a      	sub	sp, #40	; 0x28
 80012a8:	2400      	movs	r4, #0
 80012aa:	429a      	cmp	r2, r3
 80012ac:	e9cd 4404 	strd	r4, r4, [sp, #16]
 80012b0:	e9cd 4406 	strd	r4, r4, [sp, #24]
 80012b4:	9408      	str	r4, [sp, #32]
 80012b6:	d001      	beq.n	80012bc <HAL_UART_MspInit+0x1c>
 80012b8:	b00a      	add	sp, #40	; 0x28
 80012ba:	bd70      	pop	{r4, r5, r6, pc}
 80012bc:	f503 3394 	add.w	r3, r3, #75776	; 0x12800
 80012c0:	9401      	str	r4, [sp, #4]
 80012c2:	6c5a      	ldr	r2, [r3, #68]	; 0x44
 80012c4:	481b      	ldr	r0, [pc, #108]	; (8001334 <HAL_UART_MspInit+0x94>)
 80012c6:	f042 0210 	orr.w	r2, r2, #16
 80012ca:	645a      	str	r2, [r3, #68]	; 0x44
 80012cc:	6c5a      	ldr	r2, [r3, #68]	; 0x44
 80012ce:	f002 0210 	and.w	r2, r2, #16
 80012d2:	9201      	str	r2, [sp, #4]
 80012d4:	9a01      	ldr	r2, [sp, #4]
 80012d6:	9402      	str	r4, [sp, #8]
 80012d8:	6b1a      	ldr	r2, [r3, #48]	; 0x30
 80012da:	f042 0201 	orr.w	r2, r2, #1
 80012de:	631a      	str	r2, [r3, #48]	; 0x30
 80012e0:	6b1a      	ldr	r2, [r3, #48]	; 0x30
 80012e2:	f002 0201 	and.w	r2, r2, #1
 80012e6:	9202      	str	r2, [sp, #8]
 80012e8:	9a02      	ldr	r2, [sp, #8]
 80012ea:	9403      	str	r4, [sp, #12]
 80012ec:	6b1a      	ldr	r2, [r3, #48]	; 0x30
 80012ee:	f042 0202 	orr.w	r2, r2, #2
 80012f2:	631a      	str	r2, [r3, #48]	; 0x30
 80012f4:	6b1b      	ldr	r3, [r3, #48]	; 0x30
 80012f6:	f003 0302 	and.w	r3, r3, #2
 80012fa:	9303      	str	r3, [sp, #12]
 80012fc:	f44f 7200 	mov.w	r2, #512	; 0x200
 8001300:	2603      	movs	r6, #3
 8001302:	2507      	movs	r5, #7
 8001304:	a904      	add	r1, sp, #16
 8001306:	2302      	movs	r3, #2
 8001308:	e9cd 2304 	strd	r2, r3, [sp, #16]
 800130c:	e9cd 6507 	strd	r6, r5, [sp, #28]
 8001310:	9b03      	ldr	r3, [sp, #12]
 8001312:	f000 ffbd 	bl	8002290 <HAL_GPIO_Init>
 8001316:	2308      	movs	r3, #8
 8001318:	9304      	str	r3, [sp, #16]
 800131a:	4807      	ldr	r0, [pc, #28]	; (8001338 <HAL_UART_MspInit+0x98>)
 800131c:	9508      	str	r5, [sp, #32]
 800131e:	2302      	movs	r3, #2
 8001320:	a904      	add	r1, sp, #16
 8001322:	e9cd 4606 	strd	r4, r6, [sp, #24]
 8001326:	9305      	str	r3, [sp, #20]
 8001328:	f000 ffb2 	bl	8002290 <HAL_GPIO_Init>
 800132c:	b00a      	add	sp, #40	; 0x28
 800132e:	bd70      	pop	{r4, r5, r6, pc}
 8001330:	40011000 	.word	0x40011000
 8001334:	40020000 	.word	0x40020000
 8001338:	40020400 	.word	0x40020400

0800133c <HAL_UART_MspDeInit>:
 800133c:	b508      	push	{r3, lr}
 800133e:	6802      	ldr	r2, [r0, #0]
 8001340:	4b09      	ldr	r3, [pc, #36]	; (8001368 <HAL_UART_MspDeInit+0x2c>)
 8001342:	429a      	cmp	r2, r3
 8001344:	d000      	beq.n	8001348 <HAL_UART_MspDeInit+0xc>
 8001346:	bd08      	pop	{r3, pc}
 8001348:	4a08      	ldr	r2, [pc, #32]	; (800136c <HAL_UART_MspDeInit+0x30>)
 800134a:	4809      	ldr	r0, [pc, #36]	; (8001370 <HAL_UART_MspDeInit+0x34>)
 800134c:	6c53      	ldr	r3, [r2, #68]	; 0x44
 800134e:	f023 0310 	bic.w	r3, r3, #16
 8001352:	f44f 7100 	mov.w	r1, #512	; 0x200
 8001356:	6453      	str	r3, [r2, #68]	; 0x44
 8001358:	f001 f88e 	bl	8002478 <HAL_GPIO_DeInit>
 800135c:	e8bd 4008 	ldmia.w	sp!, {r3, lr}
 8001360:	4804      	ldr	r0, [pc, #16]	; (8001374 <HAL_UART_MspDeInit+0x38>)
 8001362:	2108      	movs	r1, #8
 8001364:	f001 b888 	b.w	8002478 <HAL_GPIO_DeInit>
 8001368:	40011000 	.word	0x40011000
 800136c:	40023800 	.word	0x40023800
 8001370:	40020000 	.word	0x40020000
 8001374:	40020400 	.word	0x40020400

08001378 <HAL_InitTick>:
 8001378:	b570      	push	{r4, r5, r6, lr}
 800137a:	b088      	sub	sp, #32
 800137c:	4b23      	ldr	r3, [pc, #140]	; (800140c <HAL_InitTick+0x94>)
 800137e:	2200      	movs	r2, #0
 8001380:	9202      	str	r2, [sp, #8]
 8001382:	6c1a      	ldr	r2, [r3, #64]	; 0x40
 8001384:	f042 0202 	orr.w	r2, r2, #2
 8001388:	641a      	str	r2, [r3, #64]	; 0x40
 800138a:	6c1b      	ldr	r3, [r3, #64]	; 0x40
 800138c:	f003 0302 	and.w	r3, r3, #2
 8001390:	9302      	str	r3, [sp, #8]
 8001392:	4605      	mov	r5, r0
 8001394:	a901      	add	r1, sp, #4
 8001396:	a803      	add	r0, sp, #12
 8001398:	9b02      	ldr	r3, [sp, #8]
 800139a:	f002 fb99 	bl	8003ad0 <HAL_RCC_GetClockConfig>
 800139e:	9b06      	ldr	r3, [sp, #24]
 80013a0:	b9d3      	cbnz	r3, 80013d8 <HAL_InitTick+0x60>
 80013a2:	f002 fb75 	bl	8003a90 <HAL_RCC_GetPCLK1Freq>
 80013a6:	4603      	mov	r3, r0
 80013a8:	4a19      	ldr	r2, [pc, #100]	; (8001410 <HAL_InitTick+0x98>)
 80013aa:	4c1a      	ldr	r4, [pc, #104]	; (8001414 <HAL_InitTick+0x9c>)
 80013ac:	491a      	ldr	r1, [pc, #104]	; (8001418 <HAL_InitTick+0xa0>)
 80013ae:	fba2 2303 	umull	r2, r3, r2, r3
 80013b2:	0c9b      	lsrs	r3, r3, #18
 80013b4:	3b01      	subs	r3, #1
 80013b6:	2200      	movs	r2, #0
 80013b8:	e9c4 1300 	strd	r1, r3, [r4]
 80013bc:	4620      	mov	r0, r4
 80013be:	f240 33e7 	movw	r3, #999	; 0x3e7
 80013c2:	6122      	str	r2, [r4, #16]
 80013c4:	60a2      	str	r2, [r4, #8]
 80013c6:	61a2      	str	r2, [r4, #24]
 80013c8:	60e3      	str	r3, [r4, #12]
 80013ca:	f002 fba5 	bl	8003b18 <HAL_TIM_Base_Init>
 80013ce:	4606      	mov	r6, r0
 80013d0:	b130      	cbz	r0, 80013e0 <HAL_InitTick+0x68>
 80013d2:	4630      	mov	r0, r6
 80013d4:	b008      	add	sp, #32
 80013d6:	bd70      	pop	{r4, r5, r6, pc}
 80013d8:	f002 fb5a 	bl	8003a90 <HAL_RCC_GetPCLK1Freq>
 80013dc:	0043      	lsls	r3, r0, #1
 80013de:	e7e3      	b.n	80013a8 <HAL_InitTick+0x30>
 80013e0:	4620      	mov	r0, r4
 80013e2:	f002 fc17 	bl	8003c14 <HAL_TIM_Base_Start_IT>
 80013e6:	4606      	mov	r6, r0
 80013e8:	2800      	cmp	r0, #0
 80013ea:	d1f2      	bne.n	80013d2 <HAL_InitTick+0x5a>
 80013ec:	201d      	movs	r0, #29
 80013ee:	f000 fea5 	bl	800213c <HAL_NVIC_EnableIRQ>
 80013f2:	2d0f      	cmp	r5, #15
 80013f4:	d901      	bls.n	80013fa <HAL_InitTick+0x82>
 80013f6:	2601      	movs	r6, #1
 80013f8:	e7eb      	b.n	80013d2 <HAL_InitTick+0x5a>
 80013fa:	4632      	mov	r2, r6
 80013fc:	4629      	mov	r1, r5
 80013fe:	201d      	movs	r0, #29
 8001400:	f000 fe5e 	bl	80020c0 <HAL_NVIC_SetPriority>
 8001404:	4b05      	ldr	r3, [pc, #20]	; (800141c <HAL_InitTick+0xa4>)
 8001406:	601d      	str	r5, [r3, #0]
 8001408:	e7e3      	b.n	80013d2 <HAL_InitTick+0x5a>
 800140a:	bf00      	nop
 800140c:	40023800 	.word	0x40023800
 8001410:	431bde83 	.word	0x431bde83
 8001414:	200010cc 	.word	0x200010cc
 8001418:	40000400 	.word	0x40000400
 800141c:	2000006c 	.word	0x2000006c

08001420 <NMI_Handler>:
 8001420:	e7fe      	b.n	8001420 <NMI_Handler>
 8001422:	bf00      	nop

08001424 <HardFault_Handler>:
 8001424:	e7fe      	b.n	8001424 <HardFault_Handler>
 8001426:	bf00      	nop

08001428 <MemManage_Handler>:
 8001428:	e7fe      	b.n	8001428 <MemManage_Handler>
 800142a:	bf00      	nop

0800142c <BusFault_Handler>:
 800142c:	e7fe      	b.n	800142c <BusFault_Handler>
 800142e:	bf00      	nop

08001430 <UsageFault_Handler>:
 8001430:	e7fe      	b.n	8001430 <UsageFault_Handler>
 8001432:	bf00      	nop

08001434 <DebugMon_Handler>:
 8001434:	4770      	bx	lr
 8001436:	bf00      	nop

08001438 <TIM3_IRQHandler>:
 8001438:	4801      	ldr	r0, [pc, #4]	; (8001440 <TIM3_IRQHandler+0x8>)
 800143a:	f002 bf05 	b.w	8004248 <HAL_TIM_IRQHandler>
 800143e:	bf00      	nop
 8001440:	200010cc 	.word	0x200010cc

08001444 <OTG_FS_IRQHandler>:
 8001444:	4801      	ldr	r0, [pc, #4]	; (800144c <OTG_FS_IRQHandler+0x8>)
 8001446:	f001 b95b 	b.w	8002700 <HAL_PCD_IRQHandler>
 800144a:	bf00      	nop
 800144c:	200025f8 	.word	0x200025f8

08001450 <_getpid>:
 8001450:	2001      	movs	r0, #1
 8001452:	4770      	bx	lr

08001454 <_kill>:
 8001454:	b508      	push	{r3, lr}
 8001456:	f02e fc13 	bl	802fc80 <__errno>
 800145a:	2316      	movs	r3, #22
 800145c:	6003      	str	r3, [r0, #0]
 800145e:	f04f 30ff 	mov.w	r0, #4294967295
 8001462:	bd08      	pop	{r3, pc}

08001464 <_exit>:
 8001464:	b508      	push	{r3, lr}
 8001466:	f02e fc0b 	bl	802fc80 <__errno>
 800146a:	2316      	movs	r3, #22
 800146c:	6003      	str	r3, [r0, #0]
 800146e:	e7fe      	b.n	800146e <_exit+0xa>

08001470 <_read>:
 8001470:	b570      	push	{r4, r5, r6, lr}
 8001472:	1e16      	subs	r6, r2, #0
 8001474:	dd07      	ble.n	8001486 <_read+0x16>
 8001476:	460c      	mov	r4, r1
 8001478:	198d      	adds	r5, r1, r6
 800147a:	f3af 8000 	nop.w
 800147e:	f804 0b01 	strb.w	r0, [r4], #1
 8001482:	42a5      	cmp	r5, r4
 8001484:	d1f9      	bne.n	800147a <_read+0xa>
 8001486:	4630      	mov	r0, r6
 8001488:	bd70      	pop	{r4, r5, r6, pc}
 800148a:	bf00      	nop

0800148c <_write>:
 800148c:	b570      	push	{r4, r5, r6, lr}
 800148e:	1e16      	subs	r6, r2, #0
 8001490:	dd07      	ble.n	80014a2 <_write+0x16>
 8001492:	460c      	mov	r4, r1
 8001494:	198d      	adds	r5, r1, r6
 8001496:	f814 0b01 	ldrb.w	r0, [r4], #1
 800149a:	f3af 8000 	nop.w
 800149e:	42ac      	cmp	r4, r5
 80014a0:	d1f9      	bne.n	8001496 <_write+0xa>
 80014a2:	4630      	mov	r0, r6
 80014a4:	bd70      	pop	{r4, r5, r6, pc}
 80014a6:	bf00      	nop

080014a8 <_close>:
 80014a8:	f04f 30ff 	mov.w	r0, #4294967295
 80014ac:	4770      	bx	lr
 80014ae:	bf00      	nop

080014b0 <_fstat>:
 80014b0:	f44f 5300 	mov.w	r3, #8192	; 0x2000
 80014b4:	604b      	str	r3, [r1, #4]
 80014b6:	2000      	movs	r0, #0
 80014b8:	4770      	bx	lr
 80014ba:	bf00      	nop

080014bc <_isatty>:
 80014bc:	2001      	movs	r0, #1
 80014be:	4770      	bx	lr

080014c0 <_lseek>:
 80014c0:	2000      	movs	r0, #0
 80014c2:	4770      	bx	lr

080014c4 <_sbrk>:
 80014c4:	490c      	ldr	r1, [pc, #48]	; (80014f8 <_sbrk+0x34>)
 80014c6:	4a0d      	ldr	r2, [pc, #52]	; (80014fc <_sbrk+0x38>)
 80014c8:	680b      	ldr	r3, [r1, #0]
 80014ca:	b510      	push	{r4, lr}
 80014cc:	4c0c      	ldr	r4, [pc, #48]	; (8001500 <_sbrk+0x3c>)
 80014ce:	1b12      	subs	r2, r2, r4
 80014d0:	b12b      	cbz	r3, 80014de <_sbrk+0x1a>
 80014d2:	4418      	add	r0, r3
 80014d4:	4290      	cmp	r0, r2
 80014d6:	d807      	bhi.n	80014e8 <_sbrk+0x24>
 80014d8:	6008      	str	r0, [r1, #0]
 80014da:	4618      	mov	r0, r3
 80014dc:	bd10      	pop	{r4, pc}
 80014de:	4b09      	ldr	r3, [pc, #36]	; (8001504 <_sbrk+0x40>)
 80014e0:	600b      	str	r3, [r1, #0]
 80014e2:	4418      	add	r0, r3
 80014e4:	4290      	cmp	r0, r2
 80014e6:	d9f7      	bls.n	80014d8 <_sbrk+0x14>
 80014e8:	f02e fbca 	bl	802fc80 <__errno>
 80014ec:	230c      	movs	r3, #12
 80014ee:	6003      	str	r3, [r0, #0]
 80014f0:	f04f 33ff 	mov.w	r3, #4294967295
 80014f4:	4618      	mov	r0, r3
 80014f6:	bd10      	pop	{r4, pc}
 80014f8:	20001114 	.word	0x20001114
 80014fc:	20020000 	.word	0x20020000
 8001500:	00000400 	.word	0x00000400
 8001504:	200140f8 	.word	0x200140f8

08001508 <Reset_Handler>:
 8001508:	f8df d034 	ldr.w	sp, [pc, #52]	; 8001540 <LoopFillZerobss+0x12>
 800150c:	480d      	ldr	r0, [pc, #52]	; (8001544 <LoopFillZerobss+0x16>)
 800150e:	490e      	ldr	r1, [pc, #56]	; (8001548 <LoopFillZerobss+0x1a>)
 8001510:	4a0e      	ldr	r2, [pc, #56]	; (800154c <LoopFillZerobss+0x1e>)
 8001512:	2300      	movs	r3, #0
 8001514:	e002      	b.n	800151c <LoopCopyDataInit>

08001516 <CopyDataInit>:
 8001516:	58d4      	ldr	r4, [r2, r3]
 8001518:	50c4      	str	r4, [r0, r3]
 800151a:	3304      	adds	r3, #4

0800151c <LoopCopyDataInit>:
 800151c:	18c4      	adds	r4, r0, r3
 800151e:	428c      	cmp	r4, r1
 8001520:	d3f9      	bcc.n	8001516 <CopyDataInit>
 8001522:	4a0b      	ldr	r2, [pc, #44]	; (8001550 <LoopFillZerobss+0x22>)
 8001524:	4c0b      	ldr	r4, [pc, #44]	; (8001554 <LoopFillZerobss+0x26>)
 8001526:	2300      	movs	r3, #0
 8001528:	e001      	b.n	800152e <LoopFillZerobss>

0800152a <FillZerobss>:
 800152a:	6013      	str	r3, [r2, #0]
 800152c:	3204      	adds	r2, #4

0800152e <LoopFillZerobss>:
 800152e:	42a2      	cmp	r2, r4
 8001530:	d3fb      	bcc.n	800152a <FillZerobss>
 8001532:	f000 fb03 	bl	8001b3c <SystemInit>
 8001536:	f02e fba9 	bl	802fc8c <__libc_init_array>
 800153a:	f7ff fe33 	bl	80011a4 <main>
 800153e:	4770      	bx	lr
 8001540:	20020000 	.word	0x20020000
 8001544:	20000000 	.word	0x20000000
 8001548:	20000860 	.word	0x20000860
 800154c:	0803c2bc 	.word	0x0803c2bc
 8001550:	20000860 	.word	0x20000860
 8001554:	200140f4 	.word	0x200140f4

08001558 <ADC_IRQHandler>:
 8001558:	e7fe      	b.n	8001558 <ADC_IRQHandler>
	...

0800155c <MX_USB_DEVICE_Init>:
 800155c:	b508      	push	{r3, lr}
 800155e:	4918      	ldr	r1, [pc, #96]	; (80015c0 <MX_USB_DEVICE_Init+0x64>)
 8001560:	4818      	ldr	r0, [pc, #96]	; (80015c4 <MX_USB_DEVICE_Init+0x68>)
 8001562:	2200      	movs	r2, #0
 8001564:	f007 f810 	bl	8008588 <USBD_Init>
 8001568:	b970      	cbnz	r0, 8001588 <MX_USB_DEVICE_Init+0x2c>
 800156a:	4917      	ldr	r1, [pc, #92]	; (80015c8 <MX_USB_DEVICE_Init+0x6c>)
 800156c:	4815      	ldr	r0, [pc, #84]	; (80015c4 <MX_USB_DEVICE_Init+0x68>)
 800156e:	f007 f81f 	bl	80085b0 <USBD_RegisterClass>
 8001572:	b988      	cbnz	r0, 8001598 <MX_USB_DEVICE_Init+0x3c>
 8001574:	4915      	ldr	r1, [pc, #84]	; (80015cc <MX_USB_DEVICE_Init+0x70>)
 8001576:	4813      	ldr	r0, [pc, #76]	; (80015c4 <MX_USB_DEVICE_Init+0x68>)
 8001578:	f006 ffa8 	bl	80084cc <USBD_CDC_RegisterInterface>
 800157c:	b9a0      	cbnz	r0, 80015a8 <MX_USB_DEVICE_Init+0x4c>
 800157e:	4811      	ldr	r0, [pc, #68]	; (80015c4 <MX_USB_DEVICE_Init+0x68>)
 8001580:	f007 f832 	bl	80085e8 <USBD_Start>
 8001584:	b9b8      	cbnz	r0, 80015b6 <MX_USB_DEVICE_Init+0x5a>
 8001586:	bd08      	pop	{r3, pc}
 8001588:	f7ff fe68 	bl	800125c <Error_Handler>
 800158c:	490e      	ldr	r1, [pc, #56]	; (80015c8 <MX_USB_DEVICE_Init+0x6c>)
 800158e:	480d      	ldr	r0, [pc, #52]	; (80015c4 <MX_USB_DEVICE_Init+0x68>)
 8001590:	f007 f80e 	bl	80085b0 <USBD_RegisterClass>
 8001594:	2800      	cmp	r0, #0
 8001596:	d0ed      	beq.n	8001574 <MX_USB_DEVICE_Init+0x18>
 8001598:	f7ff fe60 	bl	800125c <Error_Handler>
 800159c:	490b      	ldr	r1, [pc, #44]	; (80015cc <MX_USB_DEVICE_Init+0x70>)
 800159e:	4809      	ldr	r0, [pc, #36]	; (80015c4 <MX_USB_DEVICE_Init+0x68>)
 80015a0:	f006 ff94 	bl	80084cc <USBD_CDC_RegisterInterface>
 80015a4:	2800      	cmp	r0, #0
 80015a6:	d0ea      	beq.n	800157e <MX_USB_DEVICE_Init+0x22>
 80015a8:	f7ff fe58 	bl	800125c <Error_Handler>
 80015ac:	4805      	ldr	r0, [pc, #20]	; (80015c4 <MX_USB_DEVICE_Init+0x68>)
 80015ae:	f007 f81b 	bl	80085e8 <USBD_Start>
 80015b2:	2800      	cmp	r0, #0
 80015b4:	d0e7      	beq.n	8001586 <MX_USB_DEVICE_Init+0x2a>
 80015b6:	e8bd 4008 	ldmia.w	sp!, {r3, lr}
 80015ba:	f7ff be4f 	b.w	800125c <Error_Handler>
 80015be:	bf00      	nop
 80015c0:	20000014 	.word	0x20000014
 80015c4:	20001118 	.word	0x20001118
 80015c8:	20000074 	.word	0x20000074
 80015cc:	20000000 	.word	0x20000000

080015d0 <CDC_DeInit_FS>:
 80015d0:	2000      	movs	r0, #0
 80015d2:	4770      	bx	lr

080015d4 <CDC_Control_FS>:
 80015d4:	2000      	movs	r0, #0
 80015d6:	4770      	bx	lr

080015d8 <CDC_TransmitCplt_FS>:
 80015d8:	4b02      	ldr	r3, [pc, #8]	; (80015e4 <CDC_TransmitCplt_FS+0xc>)
 80015da:	2201      	movs	r2, #1
 80015dc:	701a      	strb	r2, [r3, #0]
 80015de:	2000      	movs	r0, #0
 80015e0:	4770      	bx	lr
 80015e2:	bf00      	nop
 80015e4:	200023f4 	.word	0x200023f4

080015e8 <CDC_Receive_FS>:
 80015e8:	b5f8      	push	{r3, r4, r5, r6, r7, lr}
 80015ea:	680b      	ldr	r3, [r1, #0]
 80015ec:	b1eb      	cbz	r3, 800162a <CDC_Receive_FS+0x42>
 80015ee:	4b13      	ldr	r3, [pc, #76]	; (800163c <CDC_Receive_FS+0x54>)
 80015f0:	4d13      	ldr	r5, [pc, #76]	; (8001640 <CDC_Receive_FS+0x58>)
 80015f2:	681e      	ldr	r6, [r3, #0]
 80015f4:	682a      	ldr	r2, [r5, #0]
 80015f6:	4f13      	ldr	r7, [pc, #76]	; (8001644 <CDC_Receive_FS+0x5c>)
 80015f8:	f100 3cff 	add.w	ip, r0, #4294967295
 80015fc:	e008      	b.n	8001610 <CDC_Receive_FS+0x28>
 80015fe:	f89c c001 	ldrb.w	ip, [ip, #1]
 8001602:	f807 c004 	strb.w	ip, [r7, r4]
 8001606:	602a      	str	r2, [r5, #0]
 8001608:	680c      	ldr	r4, [r1, #0]
 800160a:	42a3      	cmp	r3, r4
 800160c:	46f4      	mov	ip, lr
 800160e:	d20c      	bcs.n	800162a <CDC_Receive_FS+0x42>
 8001610:	f102 0e01 	add.w	lr, r2, #1
 8001614:	4614      	mov	r4, r2
 8001616:	f3ce 020a 	ubfx	r2, lr, #0, #11
 800161a:	f10c 0302 	add.w	r3, ip, #2
 800161e:	42b2      	cmp	r2, r6
 8001620:	eba3 0300 	sub.w	r3, r3, r0
 8001624:	f10c 0e01 	add.w	lr, ip, #1
 8001628:	d1e9      	bne.n	80015fe <CDC_Receive_FS+0x16>
 800162a:	4601      	mov	r1, r0
 800162c:	4806      	ldr	r0, [pc, #24]	; (8001648 <CDC_Receive_FS+0x60>)
 800162e:	f006 ff67 	bl	8008500 <USBD_CDC_SetRxBuffer>
 8001632:	4805      	ldr	r0, [pc, #20]	; (8001648 <CDC_Receive_FS+0x60>)
 8001634:	f006 ff8c 	bl	8008550 <USBD_CDC_ReceivePacket>
 8001638:	2000      	movs	r0, #0
 800163a:	bdf8      	pop	{r3, r4, r5, r6, r7, pc}
 800163c:	200010c4 	.word	0x200010c4
 8001640:	200010c8 	.word	0x200010c8
 8001644:	200008c4 	.word	0x200008c4
 8001648:	20001118 	.word	0x20001118

0800164c <CDC_Init_FS>:
 800164c:	b510      	push	{r4, lr}
 800164e:	4c06      	ldr	r4, [pc, #24]	; (8001668 <CDC_Init_FS+0x1c>)
 8001650:	4906      	ldr	r1, [pc, #24]	; (800166c <CDC_Init_FS+0x20>)
 8001652:	2200      	movs	r2, #0
 8001654:	4620      	mov	r0, r4
 8001656:	f006 ff45 	bl	80084e4 <USBD_CDC_SetTxBuffer>
 800165a:	4905      	ldr	r1, [pc, #20]	; (8001670 <CDC_Init_FS+0x24>)
 800165c:	4620      	mov	r0, r4
 800165e:	f006 ff4f 	bl	8008500 <USBD_CDC_SetRxBuffer>
 8001662:	2000      	movs	r0, #0
 8001664:	bd10      	pop	{r4, pc}
 8001666:	bf00      	nop
 8001668:	20001118 	.word	0x20001118
 800166c:	20001bf4 	.word	0x20001bf4
 8001670:	200013f4 	.word	0x200013f4

08001674 <CDC_Transmit_FS>:
 8001674:	b5f8      	push	{r3, r4, r5, r6, r7, lr}
 8001676:	4c0f      	ldr	r4, [pc, #60]	; (80016b4 <CDC_Transmit_FS+0x40>)
 8001678:	f8d4 32bc 	ldr.w	r3, [r4, #700]	; 0x2bc
 800167c:	f8d3 7214 	ldr.w	r7, [r3, #532]	; 0x214
 8001680:	b117      	cbz	r7, 8001688 <CDC_Transmit_FS+0x14>
 8001682:	2601      	movs	r6, #1
 8001684:	4630      	mov	r0, r6
 8001686:	bdf8      	pop	{r3, r4, r5, r6, r7, pc}
 8001688:	460a      	mov	r2, r1
 800168a:	4601      	mov	r1, r0
 800168c:	4620      	mov	r0, r4
 800168e:	f006 ff29 	bl	80084e4 <USBD_CDC_SetTxBuffer>
 8001692:	4620      	mov	r0, r4
 8001694:	f006 ff40 	bl	8008518 <USBD_CDC_TransmitPacket>
 8001698:	4d07      	ldr	r5, [pc, #28]	; (80016b8 <CDC_Transmit_FS+0x44>)
 800169a:	4606      	mov	r6, r0
 800169c:	702f      	strb	r7, [r5, #0]
 800169e:	2464      	movs	r4, #100	; 0x64
 80016a0:	2001      	movs	r0, #1
 80016a2:	f005 ff93 	bl	80075cc <vTaskDelay>
 80016a6:	3c01      	subs	r4, #1
 80016a8:	d0ec      	beq.n	8001684 <CDC_Transmit_FS+0x10>
 80016aa:	782b      	ldrb	r3, [r5, #0]
 80016ac:	2b01      	cmp	r3, #1
 80016ae:	d1f7      	bne.n	80016a0 <CDC_Transmit_FS+0x2c>
 80016b0:	4630      	mov	r0, r6
 80016b2:	bdf8      	pop	{r3, r4, r5, r6, r7, pc}
 80016b4:	20001118 	.word	0x20001118
 80016b8:	200023f4 	.word	0x200023f4

080016bc <USBD_FS_DeviceDescriptor>:
 80016bc:	2312      	movs	r3, #18
 80016be:	4801      	ldr	r0, [pc, #4]	; (80016c4 <USBD_FS_DeviceDescriptor+0x8>)
 80016c0:	800b      	strh	r3, [r1, #0]
 80016c2:	4770      	bx	lr
 80016c4:	20000030 	.word	0x20000030

080016c8 <USBD_FS_LangIDStrDescriptor>:
 80016c8:	2304      	movs	r3, #4
 80016ca:	4801      	ldr	r0, [pc, #4]	; (80016d0 <USBD_FS_LangIDStrDescriptor+0x8>)
 80016cc:	800b      	strh	r3, [r1, #0]
 80016ce:	4770      	bx	lr
 80016d0:	20000044 	.word	0x20000044

080016d4 <USBD_FS_ManufacturerStrDescriptor>:
 80016d4:	b510      	push	{r4, lr}
 80016d6:	4c04      	ldr	r4, [pc, #16]	; (80016e8 <USBD_FS_ManufacturerStrDescriptor+0x14>)
 80016d8:	4804      	ldr	r0, [pc, #16]	; (80016ec <USBD_FS_ManufacturerStrDescriptor+0x18>)
 80016da:	460a      	mov	r2, r1
 80016dc:	4621      	mov	r1, r4
 80016de:	f007 fbc5 	bl	8008e6c <USBD_GetString>
 80016e2:	4620      	mov	r0, r4
 80016e4:	bd10      	pop	{r4, pc}
 80016e6:	bf00      	nop
 80016e8:	200023f8 	.word	0x200023f8
 80016ec:	08031f1c 	.word	0x08031f1c

080016f0 <USBD_FS_ProductStrDescriptor>:
 80016f0:	b510      	push	{r4, lr}
 80016f2:	4c04      	ldr	r4, [pc, #16]	; (8001704 <USBD_FS_ProductStrDescriptor+0x14>)
 80016f4:	4804      	ldr	r0, [pc, #16]	; (8001708 <USBD_FS_ProductStrDescriptor+0x18>)
 80016f6:	460a      	mov	r2, r1
 80016f8:	4621      	mov	r1, r4
 80016fa:	f007 fbb7 	bl	8008e6c <USBD_GetString>
 80016fe:	4620      	mov	r0, r4
 8001700:	bd10      	pop	{r4, pc}
 8001702:	bf00      	nop
 8001704:	200023f8 	.word	0x200023f8
 8001708:	08031f30 	.word	0x08031f30

0800170c <USBD_FS_ConfigStrDescriptor>:
 800170c:	b510      	push	{r4, lr}
 800170e:	4c04      	ldr	r4, [pc, #16]	; (8001720 <USBD_FS_ConfigStrDescriptor+0x14>)
 8001710:	4804      	ldr	r0, [pc, #16]	; (8001724 <USBD_FS_ConfigStrDescriptor+0x18>)
 8001712:	460a      	mov	r2, r1
 8001714:	4621      	mov	r1, r4
 8001716:	f007 fba9 	bl	8008e6c <USBD_GetString>
 800171a:	4620      	mov	r0, r4
 800171c:	bd10      	pop	{r4, pc}
 800171e:	bf00      	nop
 8001720:	200023f8 	.word	0x200023f8
 8001724:	08031f48 	.word	0x08031f48

08001728 <USBD_FS_InterfaceStrDescriptor>:
 8001728:	b510      	push	{r4, lr}
 800172a:	4c04      	ldr	r4, [pc, #16]	; (800173c <USBD_FS_InterfaceStrDescriptor+0x14>)
 800172c:	4804      	ldr	r0, [pc, #16]	; (8001740 <USBD_FS_InterfaceStrDescriptor+0x18>)
 800172e:	460a      	mov	r2, r1
 8001730:	4621      	mov	r1, r4
 8001732:	f007 fb9b 	bl	8008e6c <USBD_GetString>
 8001736:	4620      	mov	r0, r4
 8001738:	bd10      	pop	{r4, pc}
 800173a:	bf00      	nop
 800173c:	200023f8 	.word	0x200023f8
 8001740:	08031f54 	.word	0x08031f54

08001744 <USBD_FS_SerialStrDescriptor>:
 8001744:	4a45      	ldr	r2, [pc, #276]	; (800185c <USBD_FS_SerialStrDescriptor+0x118>)
 8001746:	f8d2 3a10 	ldr.w	r3, [r2, #2576]	; 0xa10
 800174a:	f8d2 0a18 	ldr.w	r0, [r2, #2584]	; 0xa18
 800174e:	f04f 0c1a 	mov.w	ip, #26
 8001752:	181b      	adds	r3, r3, r0
 8001754:	f8a1 c000 	strh.w	ip, [r1]
 8001758:	d101      	bne.n	800175e <USBD_FS_SerialStrDescriptor+0x1a>
 800175a:	4841      	ldr	r0, [pc, #260]	; (8001860 <USBD_FS_SerialStrDescriptor+0x11c>)
 800175c:	4770      	bx	lr
 800175e:	f8d2 1a14 	ldr.w	r1, [r2, #2580]	; 0xa14
 8001762:	4a3f      	ldr	r2, [pc, #252]	; (8001860 <USBD_FS_SerialStrDescriptor+0x11c>)
 8001764:	0f18      	lsrs	r0, r3, #28
 8001766:	f1b3 4f20 	cmp.w	r3, #2684354560	; 0xa0000000
 800176a:	bf2c      	ite	cs
 800176c:	3037      	addcs	r0, #55	; 0x37
 800176e:	3030      	addcc	r0, #48	; 0x30
 8001770:	7090      	strb	r0, [r2, #2]
 8001772:	f3c3 6003 	ubfx	r0, r3, #24, #4
 8001776:	2809      	cmp	r0, #9
 8001778:	bf8c      	ite	hi
 800177a:	3037      	addhi	r0, #55	; 0x37
 800177c:	3030      	addls	r0, #48	; 0x30
 800177e:	7110      	strb	r0, [r2, #4]
 8001780:	f3c3 5003 	ubfx	r0, r3, #20, #4
 8001784:	2809      	cmp	r0, #9
 8001786:	bf8c      	ite	hi
 8001788:	3037      	addhi	r0, #55	; 0x37
 800178a:	3030      	addls	r0, #48	; 0x30
 800178c:	7190      	strb	r0, [r2, #6]
 800178e:	f3c3 4003 	ubfx	r0, r3, #16, #4
 8001792:	2809      	cmp	r0, #9
 8001794:	bf8c      	ite	hi
 8001796:	3037      	addhi	r0, #55	; 0x37
 8001798:	3030      	addls	r0, #48	; 0x30
 800179a:	7210      	strb	r0, [r2, #8]
 800179c:	f3c3 3003 	ubfx	r0, r3, #12, #4
 80017a0:	2809      	cmp	r0, #9
 80017a2:	bf8c      	ite	hi
 80017a4:	3037      	addhi	r0, #55	; 0x37
 80017a6:	3030      	addls	r0, #48	; 0x30
 80017a8:	7290      	strb	r0, [r2, #10]
 80017aa:	f3c3 2003 	ubfx	r0, r3, #8, #4
 80017ae:	2809      	cmp	r0, #9
 80017b0:	bf8c      	ite	hi
 80017b2:	3037      	addhi	r0, #55	; 0x37
 80017b4:	3030      	addls	r0, #48	; 0x30
 80017b6:	7310      	strb	r0, [r2, #12]
 80017b8:	f3c3 1003 	ubfx	r0, r3, #4, #4
 80017bc:	2809      	cmp	r0, #9
 80017be:	f003 030f 	and.w	r3, r3, #15
 80017c2:	bf8c      	ite	hi
 80017c4:	3037      	addhi	r0, #55	; 0x37
 80017c6:	3030      	addls	r0, #48	; 0x30
 80017c8:	2b09      	cmp	r3, #9
 80017ca:	bf94      	ite	ls
 80017cc:	3330      	addls	r3, #48	; 0x30
 80017ce:	3337      	addhi	r3, #55	; 0x37
 80017d0:	7413      	strb	r3, [r2, #16]
 80017d2:	2300      	movs	r3, #0
 80017d4:	f1b1 4f20 	cmp.w	r1, #2684354560	; 0xa0000000
 80017d8:	7453      	strb	r3, [r2, #17]
 80017da:	ea4f 7311 	mov.w	r3, r1, lsr #28
 80017de:	bf2c      	ite	cs
 80017e0:	3337      	addcs	r3, #55	; 0x37
 80017e2:	3330      	addcc	r3, #48	; 0x30
 80017e4:	7493      	strb	r3, [r2, #18]
 80017e6:	f3c1 6303 	ubfx	r3, r1, #24, #4
 80017ea:	2b09      	cmp	r3, #9
 80017ec:	bf8c      	ite	hi
 80017ee:	3337      	addhi	r3, #55	; 0x37
 80017f0:	3330      	addls	r3, #48	; 0x30
 80017f2:	7513      	strb	r3, [r2, #20]
 80017f4:	f3c1 5303 	ubfx	r3, r1, #20, #4
 80017f8:	2b09      	cmp	r3, #9
 80017fa:	f04f 0c00 	mov.w	ip, #0
 80017fe:	bf8c      	ite	hi
 8001800:	3337      	addhi	r3, #55	; 0x37
 8001802:	3330      	addls	r3, #48	; 0x30
 8001804:	f882 c003 	strb.w	ip, [r2, #3]
 8001808:	f04f 0c00 	mov.w	ip, #0
 800180c:	f882 c005 	strb.w	ip, [r2, #5]
 8001810:	7390      	strb	r0, [r2, #14]
 8001812:	f04f 0c00 	mov.w	ip, #0
 8001816:	2000      	movs	r0, #0
 8001818:	7593      	strb	r3, [r2, #22]
 800181a:	f3c1 4303 	ubfx	r3, r1, #16, #4
 800181e:	2b09      	cmp	r3, #9
 8001820:	f882 c007 	strb.w	ip, [r2, #7]
 8001824:	73d0      	strb	r0, [r2, #15]
 8001826:	f04f 0c00 	mov.w	ip, #0
 800182a:	f04f 0000 	mov.w	r0, #0
 800182e:	bf94      	ite	ls
 8001830:	3330      	addls	r3, #48	; 0x30
 8001832:	3337      	addhi	r3, #55	; 0x37
 8001834:	f882 c009 	strb.w	ip, [r2, #9]
 8001838:	74d0      	strb	r0, [r2, #19]
 800183a:	f04f 0c00 	mov.w	ip, #0
 800183e:	2000      	movs	r0, #0
 8001840:	f882 c00b 	strb.w	ip, [r2, #11]
 8001844:	7550      	strb	r0, [r2, #21]
 8001846:	f04f 0c00 	mov.w	ip, #0
 800184a:	2000      	movs	r0, #0
 800184c:	7613      	strb	r3, [r2, #24]
 800184e:	2300      	movs	r3, #0
 8001850:	75d0      	strb	r0, [r2, #23]
 8001852:	f882 c00d 	strb.w	ip, [r2, #13]
 8001856:	4802      	ldr	r0, [pc, #8]	; (8001860 <USBD_FS_SerialStrDescriptor+0x11c>)
 8001858:	7653      	strb	r3, [r2, #25]
 800185a:	4770      	bx	lr
 800185c:	1fff7000 	.word	0x1fff7000
 8001860:	20000048 	.word	0x20000048

08001864 <HAL_PCD_MspInit>:
 8001864:	b530      	push	{r4, r5, lr}
 8001866:	6803      	ldr	r3, [r0, #0]
 8001868:	b089      	sub	sp, #36	; 0x24
 800186a:	2400      	movs	r4, #0
 800186c:	f1b3 4fa0 	cmp.w	r3, #1342177280	; 0x50000000
 8001870:	e9cd 4402 	strd	r4, r4, [sp, #8]
 8001874:	e9cd 4404 	strd	r4, r4, [sp, #16]
 8001878:	9406      	str	r4, [sp, #24]
 800187a:	d001      	beq.n	8001880 <HAL_PCD_MspInit+0x1c>
 800187c:	b009      	add	sp, #36	; 0x24
 800187e:	bd30      	pop	{r4, r5, pc}
 8001880:	4d17      	ldr	r5, [pc, #92]	; (80018e0 <HAL_PCD_MspInit+0x7c>)
 8001882:	9400      	str	r4, [sp, #0]
 8001884:	6b2b      	ldr	r3, [r5, #48]	; 0x30
 8001886:	4817      	ldr	r0, [pc, #92]	; (80018e4 <HAL_PCD_MspInit+0x80>)
 8001888:	f043 0301 	orr.w	r3, r3, #1
 800188c:	632b      	str	r3, [r5, #48]	; 0x30
 800188e:	6b2b      	ldr	r3, [r5, #48]	; 0x30
 8001890:	f003 0301 	and.w	r3, r3, #1
 8001894:	9300      	str	r3, [sp, #0]
 8001896:	f44f 52c0 	mov.w	r2, #6144	; 0x1800
 800189a:	2302      	movs	r3, #2
 800189c:	e9cd 2302 	strd	r2, r3, [sp, #8]
 80018a0:	2303      	movs	r3, #3
 80018a2:	a902      	add	r1, sp, #8
 80018a4:	9305      	str	r3, [sp, #20]
 80018a6:	230a      	movs	r3, #10
 80018a8:	9a00      	ldr	r2, [sp, #0]
 80018aa:	9306      	str	r3, [sp, #24]
 80018ac:	f000 fcf0 	bl	8002290 <HAL_GPIO_Init>
 80018b0:	6b6b      	ldr	r3, [r5, #52]	; 0x34
 80018b2:	f043 0380 	orr.w	r3, r3, #128	; 0x80
 80018b6:	636b      	str	r3, [r5, #52]	; 0x34
 80018b8:	9401      	str	r4, [sp, #4]
 80018ba:	6c6b      	ldr	r3, [r5, #68]	; 0x44
 80018bc:	f443 4380 	orr.w	r3, r3, #16384	; 0x4000
 80018c0:	646b      	str	r3, [r5, #68]	; 0x44
 80018c2:	6c6b      	ldr	r3, [r5, #68]	; 0x44
 80018c4:	f403 4380 	and.w	r3, r3, #16384	; 0x4000
 80018c8:	4622      	mov	r2, r4
 80018ca:	2105      	movs	r1, #5
 80018cc:	9301      	str	r3, [sp, #4]
 80018ce:	2043      	movs	r0, #67	; 0x43
 80018d0:	9b01      	ldr	r3, [sp, #4]
 80018d2:	f000 fbf5 	bl	80020c0 <HAL_NVIC_SetPriority>
 80018d6:	2043      	movs	r0, #67	; 0x43
 80018d8:	f000 fc30 	bl	800213c <HAL_NVIC_EnableIRQ>
 80018dc:	b009      	add	sp, #36	; 0x24
 80018de:	bd30      	pop	{r4, r5, pc}
 80018e0:	40023800 	.word	0x40023800
 80018e4:	40020000 	.word	0x40020000

080018e8 <HAL_PCD_SetupStageCallback>:
 80018e8:	f200 41c4 	addw	r1, r0, #1220	; 0x4c4
 80018ec:	f8d0 0508 	ldr.w	r0, [r0, #1288]	; 0x508
 80018f0:	f006 be8e 	b.w	8008610 <USBD_LL_SetupStage>

080018f4 <HAL_PCD_DataOutStageCallback>:
 80018f4:	eb01 03c1 	add.w	r3, r1, r1, lsl #3
 80018f8:	eb00 0383 	add.w	r3, r0, r3, lsl #2
 80018fc:	f8d0 0508 	ldr.w	r0, [r0, #1288]	; 0x508
 8001900:	f8d3 228c 	ldr.w	r2, [r3, #652]	; 0x28c
 8001904:	f006 beb4 	b.w	8008670 <USBD_LL_DataOutStage>

08001908 <HAL_PCD_DataInStageCallback>:
 8001908:	eb01 03c1 	add.w	r3, r1, r1, lsl #3
 800190c:	eb00 0383 	add.w	r3, r0, r3, lsl #2
 8001910:	f8d0 0508 	ldr.w	r0, [r0, #1288]	; 0x508
 8001914:	6cda      	ldr	r2, [r3, #76]	; 0x4c
 8001916:	f006 bee5 	b.w	80086e4 <USBD_LL_DataInStage>
 800191a:	bf00      	nop

0800191c <HAL_PCD_SOFCallback>:
 800191c:	f8d0 0508 	ldr.w	r0, [r0, #1288]	; 0x508
 8001920:	f006 bf84 	b.w	800882c <USBD_LL_SOF>

08001924 <HAL_PCD_ResetCallback>:
 8001924:	68c3      	ldr	r3, [r0, #12]
 8001926:	2b02      	cmp	r3, #2
 8001928:	b510      	push	{r4, lr}
 800192a:	4604      	mov	r4, r0
 800192c:	d001      	beq.n	8001932 <HAL_PCD_ResetCallback+0xe>
 800192e:	f7ff fc95 	bl	800125c <Error_Handler>
 8001932:	f8d4 0508 	ldr.w	r0, [r4, #1288]	; 0x508
 8001936:	2101      	movs	r1, #1
 8001938:	f006 ff5c 	bl	80087f4 <USBD_LL_SetSpeed>
 800193c:	f8d4 0508 	ldr.w	r0, [r4, #1288]	; 0x508
 8001940:	e8bd 4010 	ldmia.w	sp!, {r4, lr}
 8001944:	f006 bf28 	b.w	8008798 <USBD_LL_Reset>

08001948 <HAL_PCD_SuspendCallback>:
 8001948:	b510      	push	{r4, lr}
 800194a:	4604      	mov	r4, r0
 800194c:	f8d0 0508 	ldr.w	r0, [r0, #1288]	; 0x508
 8001950:	f006 ff54 	bl	80087fc <USBD_LL_Suspend>
 8001954:	6822      	ldr	r2, [r4, #0]
 8001956:	f8d2 3e00 	ldr.w	r3, [r2, #3584]	; 0xe00
 800195a:	f043 0301 	orr.w	r3, r3, #1
 800195e:	f8c2 3e00 	str.w	r3, [r2, #3584]	; 0xe00
 8001962:	6a23      	ldr	r3, [r4, #32]
 8001964:	b123      	cbz	r3, 8001970 <HAL_PCD_SuspendCallback+0x28>
 8001966:	4a03      	ldr	r2, [pc, #12]	; (8001974 <HAL_PCD_SuspendCallback+0x2c>)
 8001968:	6913      	ldr	r3, [r2, #16]
 800196a:	f043 0306 	orr.w	r3, r3, #6
 800196e:	6113      	str	r3, [r2, #16]
 8001970:	bd10      	pop	{r4, pc}
 8001972:	bf00      	nop
 8001974:	e000ed00 	.word	0xe000ed00

08001978 <HAL_PCD_ResumeCallback>:
 8001978:	f8d0 0508 	ldr.w	r0, [r0, #1288]	; 0x508
 800197c:	f006 bf4a 	b.w	8008814 <USBD_LL_Resume>

08001980 <HAL_PCD_ISOOUTIncompleteCallback>:
 8001980:	f8d0 0508 	ldr.w	r0, [r0, #1288]	; 0x508
 8001984:	f006 bf78 	b.w	8008878 <USBD_LL_IsoOUTIncomplete>

08001988 <HAL_PCD_ISOINIncompleteCallback>:
 8001988:	f8d0 0508 	ldr.w	r0, [r0, #1288]	; 0x508
 800198c:	f006 bf5e 	b.w	800884c <USBD_LL_IsoINIncomplete>

08001990 <HAL_PCD_ConnectCallback>:
 8001990:	f8d0 0508 	ldr.w	r0, [r0, #1288]	; 0x508
 8001994:	f006 bf86 	b.w	80088a4 <USBD_LL_DevConnected>

08001998 <HAL_PCD_DisconnectCallback>:
 8001998:	f8d0 0508 	ldr.w	r0, [r0, #1288]	; 0x508
 800199c:	f006 bf84 	b.w	80088a8 <USBD_LL_DevDisconnected>

080019a0 <USBD_LL_Init>:
 80019a0:	7802      	ldrb	r2, [r0, #0]
 80019a2:	b10a      	cbz	r2, 80019a8 <USBD_LL_Init+0x8>
 80019a4:	2000      	movs	r0, #0
 80019a6:	4770      	bx	lr
 80019a8:	ed9f 7b17 	vldr	d7, [pc, #92]	; 8001a08 <USBD_LL_Init+0x68>
 80019ac:	4b1a      	ldr	r3, [pc, #104]	; (8001a18 <USBD_LL_Init+0x78>)
 80019ae:	b510      	push	{r4, lr}
 80019b0:	ed83 7b06 	vstr	d7, [r3, #24]
 80019b4:	ed9f 7b16 	vldr	d7, [pc, #88]	; 8001a10 <USBD_LL_Init+0x70>
 80019b8:	f04f 41a0 	mov.w	r1, #1342177280	; 0x50000000
 80019bc:	f8c3 0508 	str.w	r0, [r3, #1288]	; 0x508
 80019c0:	2404      	movs	r4, #4
 80019c2:	f8c0 32c8 	str.w	r3, [r0, #712]	; 0x2c8
 80019c6:	6019      	str	r1, [r3, #0]
 80019c8:	ed83 7b08 	vstr	d7, [r3, #32]
 80019cc:	2102      	movs	r1, #2
 80019ce:	4618      	mov	r0, r3
 80019d0:	e9c3 220b 	strd	r2, r2, [r3, #44]	; 0x2c
 80019d4:	605c      	str	r4, [r3, #4]
 80019d6:	60d9      	str	r1, [r3, #12]
 80019d8:	611a      	str	r2, [r3, #16]
 80019da:	f000 fde3 	bl	80025a4 <HAL_PCD_Init>
 80019de:	b978      	cbnz	r0, 8001a00 <USBD_LL_Init+0x60>
 80019e0:	2180      	movs	r1, #128	; 0x80
 80019e2:	480d      	ldr	r0, [pc, #52]	; (8001a18 <USBD_LL_Init+0x78>)
 80019e4:	f001 fd92 	bl	800350c <HAL_PCDEx_SetRxFiFo>
 80019e8:	2240      	movs	r2, #64	; 0x40
 80019ea:	2100      	movs	r1, #0
 80019ec:	480a      	ldr	r0, [pc, #40]	; (8001a18 <USBD_LL_Init+0x78>)
 80019ee:	f001 fd67 	bl	80034c0 <HAL_PCDEx_SetTxFiFo>
 80019f2:	2280      	movs	r2, #128	; 0x80
 80019f4:	2101      	movs	r1, #1
 80019f6:	4808      	ldr	r0, [pc, #32]	; (8001a18 <USBD_LL_Init+0x78>)
 80019f8:	f001 fd62 	bl	80034c0 <HAL_PCDEx_SetTxFiFo>
 80019fc:	2000      	movs	r0, #0
 80019fe:	bd10      	pop	{r4, pc}
 8001a00:	f7ff fc2c 	bl	800125c <Error_Handler>
 8001a04:	e7ec      	b.n	80019e0 <USBD_LL_Init+0x40>
 8001a06:	bf00      	nop
 8001a08:	00000002 	.word	0x00000002
	...
 8001a18:	200025f8 	.word	0x200025f8

08001a1c <USBD_LL_Start>:
 8001a1c:	b508      	push	{r3, lr}
 8001a1e:	f8d0 02c8 	ldr.w	r0, [r0, #712]	; 0x2c8
 8001a22:	f000 fe4d 	bl	80026c0 <HAL_PCD_Start>
 8001a26:	2803      	cmp	r0, #3
 8001a28:	bf96      	itet	ls
 8001a2a:	4b02      	ldrls	r3, [pc, #8]	; (8001a34 <USBD_LL_Start+0x18>)
 8001a2c:	2003      	movhi	r0, #3
 8001a2e:	5c18      	ldrbls	r0, [r3, r0]
 8001a30:	bd08      	pop	{r3, pc}
 8001a32:	bf00      	nop
 8001a34:	08031f64 	.word	0x08031f64

08001a38 <USBD_LL_OpenEP>:
 8001a38:	4694      	mov	ip, r2
 8001a3a:	b508      	push	{r3, lr}
 8001a3c:	461a      	mov	r2, r3
 8001a3e:	f8d0 02c8 	ldr.w	r0, [r0, #712]	; 0x2c8
 8001a42:	4663      	mov	r3, ip
 8001a44:	f001 fbfa 	bl	800323c <HAL_PCD_EP_Open>
 8001a48:	2803      	cmp	r0, #3
 8001a4a:	bf96      	itet	ls
 8001a4c:	4b01      	ldrls	r3, [pc, #4]	; (8001a54 <USBD_LL_OpenEP+0x1c>)
 8001a4e:	2003      	movhi	r0, #3
 8001a50:	5c18      	ldrbls	r0, [r3, r0]
 8001a52:	bd08      	pop	{r3, pc}
 8001a54:	08031f64 	.word	0x08031f64

08001a58 <USBD_LL_CloseEP>:
 8001a58:	b508      	push	{r3, lr}
 8001a5a:	f8d0 02c8 	ldr.w	r0, [r0, #712]	; 0x2c8
 8001a5e:	f001 fc2b 	bl	80032b8 <HAL_PCD_EP_Close>
 8001a62:	2803      	cmp	r0, #3
 8001a64:	bf96      	itet	ls
 8001a66:	4b02      	ldrls	r3, [pc, #8]	; (8001a70 <USBD_LL_CloseEP+0x18>)
 8001a68:	2003      	movhi	r0, #3
 8001a6a:	5c18      	ldrbls	r0, [r3, r0]
 8001a6c:	bd08      	pop	{r3, pc}
 8001a6e:	bf00      	nop
 8001a70:	08031f64 	.word	0x08031f64

08001a74 <USBD_LL_StallEP>:
 8001a74:	b508      	push	{r3, lr}
 8001a76:	f8d0 02c8 	ldr.w	r0, [r0, #712]	; 0x2c8
 8001a7a:	f001 fca5 	bl	80033c8 <HAL_PCD_EP_SetStall>
 8001a7e:	2803      	cmp	r0, #3
 8001a80:	bf96      	itet	ls
 8001a82:	4b02      	ldrls	r3, [pc, #8]	; (8001a8c <USBD_LL_StallEP+0x18>)
 8001a84:	2003      	movhi	r0, #3
 8001a86:	5c18      	ldrbls	r0, [r3, r0]
 8001a88:	bd08      	pop	{r3, pc}
 8001a8a:	bf00      	nop
 8001a8c:	08031f64 	.word	0x08031f64

08001a90 <USBD_LL_ClearStallEP>:
 8001a90:	b508      	push	{r3, lr}
 8001a92:	f8d0 02c8 	ldr.w	r0, [r0, #712]	; 0x2c8
 8001a96:	f001 fcdb 	bl	8003450 <HAL_PCD_EP_ClrStall>
 8001a9a:	2803      	cmp	r0, #3
 8001a9c:	bf96      	itet	ls
 8001a9e:	4b02      	ldrls	r3, [pc, #8]	; (8001aa8 <USBD_LL_ClearStallEP+0x18>)
 8001aa0:	2003      	movhi	r0, #3
 8001aa2:	5c18      	ldrbls	r0, [r3, r0]
 8001aa4:	bd08      	pop	{r3, pc}
 8001aa6:	bf00      	nop
 8001aa8:	08031f64 	.word	0x08031f64

08001aac <USBD_LL_IsStallEP>:
 8001aac:	060a      	lsls	r2, r1, #24
 8001aae:	f8d0 32c8 	ldr.w	r3, [r0, #712]	; 0x2c8
 8001ab2:	d406      	bmi.n	8001ac2 <USBD_LL_IsStallEP+0x16>
 8001ab4:	eb01 01c1 	add.w	r1, r1, r1, lsl #3
 8001ab8:	eb03 0381 	add.w	r3, r3, r1, lsl #2
 8001abc:	f893 027e 	ldrb.w	r0, [r3, #638]	; 0x27e
 8001ac0:	4770      	bx	lr
 8001ac2:	f001 017f 	and.w	r1, r1, #127	; 0x7f
 8001ac6:	eb01 01c1 	add.w	r1, r1, r1, lsl #3
 8001aca:	eb03 0381 	add.w	r3, r3, r1, lsl #2
 8001ace:	f893 003e 	ldrb.w	r0, [r3, #62]	; 0x3e
 8001ad2:	4770      	bx	lr

08001ad4 <USBD_LL_SetUSBAddress>:
 8001ad4:	b508      	push	{r3, lr}
 8001ad6:	f8d0 02c8 	ldr.w	r0, [r0, #712]	; 0x2c8
 8001ada:	f001 fb9b 	bl	8003214 <HAL_PCD_SetAddress>
 8001ade:	2803      	cmp	r0, #3
 8001ae0:	bf96      	itet	ls
 8001ae2:	4b02      	ldrls	r3, [pc, #8]	; (8001aec <USBD_LL_SetUSBAddress+0x18>)
 8001ae4:	2003      	movhi	r0, #3
 8001ae6:	5c18      	ldrbls	r0, [r3, r0]
 8001ae8:	bd08      	pop	{r3, pc}
 8001aea:	bf00      	nop
 8001aec:	08031f64 	.word	0x08031f64

08001af0 <USBD_LL_Transmit>:
 8001af0:	b508      	push	{r3, lr}
 8001af2:	f8d0 02c8 	ldr.w	r0, [r0, #712]	; 0x2c8
 8001af6:	f001 fc3f 	bl	8003378 <HAL_PCD_EP_Transmit>
 8001afa:	2803      	cmp	r0, #3
 8001afc:	bf96      	itet	ls
 8001afe:	4b02      	ldrls	r3, [pc, #8]	; (8001b08 <USBD_LL_Transmit+0x18>)
 8001b00:	2003      	movhi	r0, #3
 8001b02:	5c18      	ldrbls	r0, [r3, r0]
 8001b04:	bd08      	pop	{r3, pc}
 8001b06:	bf00      	nop
 8001b08:	08031f64 	.word	0x08031f64

08001b0c <USBD_LL_PrepareReceive>:
 8001b0c:	b508      	push	{r3, lr}
 8001b0e:	f8d0 02c8 	ldr.w	r0, [r0, #712]	; 0x2c8
 8001b12:	f001 fbff 	bl	8003314 <HAL_PCD_EP_Receive>
 8001b16:	2803      	cmp	r0, #3
 8001b18:	bf96      	itet	ls
 8001b1a:	4b02      	ldrls	r3, [pc, #8]	; (8001b24 <USBD_LL_PrepareReceive+0x18>)
 8001b1c:	2003      	movhi	r0, #3
 8001b1e:	5c18      	ldrbls	r0, [r3, r0]
 8001b20:	bd08      	pop	{r3, pc}
 8001b22:	bf00      	nop
 8001b24:	08031f64 	.word	0x08031f64

08001b28 <USBD_LL_GetRxDataSize>:
 8001b28:	f8d0 02c8 	ldr.w	r0, [r0, #712]	; 0x2c8
 8001b2c:	f001 bc1a 	b.w	8003364 <HAL_PCD_EP_GetRxCount>

08001b30 <USBD_static_malloc>:
 8001b30:	4800      	ldr	r0, [pc, #0]	; (8001b34 <USBD_static_malloc+0x4>)
 8001b32:	4770      	bx	lr
 8001b34:	20002b04 	.word	0x20002b04

08001b38 <USBD_static_free>:
 8001b38:	4770      	bx	lr
 8001b3a:	bf00      	nop

08001b3c <SystemInit>:
 8001b3c:	4a03      	ldr	r2, [pc, #12]	; (8001b4c <SystemInit+0x10>)
 8001b3e:	f8d2 3088 	ldr.w	r3, [r2, #136]	; 0x88
 8001b42:	f443 0370 	orr.w	r3, r3, #15728640	; 0xf00000
 8001b46:	f8c2 3088 	str.w	r3, [r2, #136]	; 0x88
 8001b4a:	4770      	bx	lr
 8001b4c:	e000ed00 	.word	0xe000ed00

08001b50 <HAL_Init>:
 8001b50:	b508      	push	{r3, lr}
 8001b52:	4b0b      	ldr	r3, [pc, #44]	; (8001b80 <HAL_Init+0x30>)
 8001b54:	681a      	ldr	r2, [r3, #0]
 8001b56:	f442 7200 	orr.w	r2, r2, #512	; 0x200
 8001b5a:	601a      	str	r2, [r3, #0]
 8001b5c:	681a      	ldr	r2, [r3, #0]
 8001b5e:	f442 6280 	orr.w	r2, r2, #1024	; 0x400
 8001b62:	601a      	str	r2, [r3, #0]
 8001b64:	681a      	ldr	r2, [r3, #0]
 8001b66:	f442 7280 	orr.w	r2, r2, #256	; 0x100
 8001b6a:	601a      	str	r2, [r3, #0]
 8001b6c:	2003      	movs	r0, #3
 8001b6e:	f000 fa95 	bl	800209c <HAL_NVIC_SetPriorityGrouping>
 8001b72:	200f      	movs	r0, #15
 8001b74:	f7ff fc00 	bl	8001378 <HAL_InitTick>
 8001b78:	f7ff fb72 	bl	8001260 <HAL_MspInit>
 8001b7c:	2000      	movs	r0, #0
 8001b7e:	bd08      	pop	{r3, pc}
 8001b80:	40023c00 	.word	0x40023c00

08001b84 <HAL_IncTick>:
 8001b84:	4a03      	ldr	r2, [pc, #12]	; (8001b94 <HAL_IncTick+0x10>)
 8001b86:	4b04      	ldr	r3, [pc, #16]	; (8001b98 <HAL_IncTick+0x14>)
 8001b88:	6811      	ldr	r1, [r2, #0]
 8001b8a:	781b      	ldrb	r3, [r3, #0]
 8001b8c:	440b      	add	r3, r1
 8001b8e:	6013      	str	r3, [r2, #0]
 8001b90:	4770      	bx	lr
 8001b92:	bf00      	nop
 8001b94:	20002d24 	.word	0x20002d24
 8001b98:	20000068 	.word	0x20000068

08001b9c <HAL_GetTick>:
 8001b9c:	4b01      	ldr	r3, [pc, #4]	; (8001ba4 <HAL_GetTick+0x8>)
 8001b9e:	6818      	ldr	r0, [r3, #0]
 8001ba0:	4770      	bx	lr
 8001ba2:	bf00      	nop
 8001ba4:	20002d24 	.word	0x20002d24

08001ba8 <HAL_Delay>:
 8001ba8:	b538      	push	{r3, r4, r5, lr}
 8001baa:	4604      	mov	r4, r0
 8001bac:	f7ff fff6 	bl	8001b9c <HAL_GetTick>
 8001bb0:	1c63      	adds	r3, r4, #1
 8001bb2:	4605      	mov	r5, r0
 8001bb4:	d002      	beq.n	8001bbc <HAL_Delay+0x14>
 8001bb6:	4b04      	ldr	r3, [pc, #16]	; (8001bc8 <HAL_Delay+0x20>)
 8001bb8:	781b      	ldrb	r3, [r3, #0]
 8001bba:	441c      	add	r4, r3
 8001bbc:	f7ff ffee 	bl	8001b9c <HAL_GetTick>
 8001bc0:	1b43      	subs	r3, r0, r5
 8001bc2:	42a3      	cmp	r3, r4
 8001bc4:	d3fa      	bcc.n	8001bbc <HAL_Delay+0x14>
 8001bc6:	bd38      	pop	{r3, r4, r5, pc}
 8001bc8:	20000068 	.word	0x20000068

08001bcc <HAL_ADC_MspInit>:
 8001bcc:	4770      	bx	lr
 8001bce:	bf00      	nop

08001bd0 <HAL_ADC_Init>:
 8001bd0:	2800      	cmp	r0, #0
 8001bd2:	f000 809e 	beq.w	8001d12 <HAL_ADC_Init+0x142>
 8001bd6:	b538      	push	{r3, r4, r5, lr}
 8001bd8:	6c05      	ldr	r5, [r0, #64]	; 0x40
 8001bda:	4604      	mov	r4, r0
 8001bdc:	b13d      	cbz	r5, 8001bee <HAL_ADC_Init+0x1e>
 8001bde:	6c23      	ldr	r3, [r4, #64]	; 0x40
 8001be0:	06db      	lsls	r3, r3, #27
 8001be2:	d50c      	bpl.n	8001bfe <HAL_ADC_Init+0x2e>
 8001be4:	2300      	movs	r3, #0
 8001be6:	f884 303c 	strb.w	r3, [r4, #60]	; 0x3c
 8001bea:	2001      	movs	r0, #1
 8001bec:	bd38      	pop	{r3, r4, r5, pc}
 8001bee:	f7ff ffed 	bl	8001bcc <HAL_ADC_MspInit>
 8001bf2:	6465      	str	r5, [r4, #68]	; 0x44
 8001bf4:	6c23      	ldr	r3, [r4, #64]	; 0x40
 8001bf6:	f884 503c 	strb.w	r5, [r4, #60]	; 0x3c
 8001bfa:	06db      	lsls	r3, r3, #27
 8001bfc:	d4f2      	bmi.n	8001be4 <HAL_ADC_Init+0x14>
 8001bfe:	6c23      	ldr	r3, [r4, #64]	; 0x40
 8001c00:	4a47      	ldr	r2, [pc, #284]	; (8001d20 <HAL_ADC_Init+0x150>)
 8001c02:	f423 5388 	bic.w	r3, r3, #4352	; 0x1100
 8001c06:	f023 0302 	bic.w	r3, r3, #2
 8001c0a:	f043 0302 	orr.w	r3, r3, #2
 8001c0e:	6423      	str	r3, [r4, #64]	; 0x40
 8001c10:	6851      	ldr	r1, [r2, #4]
 8001c12:	6823      	ldr	r3, [r4, #0]
 8001c14:	f421 3140 	bic.w	r1, r1, #196608	; 0x30000
 8001c18:	6051      	str	r1, [r2, #4]
 8001c1a:	6851      	ldr	r1, [r2, #4]
 8001c1c:	6860      	ldr	r0, [r4, #4]
 8001c1e:	4301      	orrs	r1, r0
 8001c20:	6051      	str	r1, [r2, #4]
 8001c22:	685a      	ldr	r2, [r3, #4]
 8001c24:	6920      	ldr	r0, [r4, #16]
 8001c26:	68a1      	ldr	r1, [r4, #8]
 8001c28:	f422 7280 	bic.w	r2, r2, #256	; 0x100
 8001c2c:	605a      	str	r2, [r3, #4]
 8001c2e:	685a      	ldr	r2, [r3, #4]
 8001c30:	ea42 2200 	orr.w	r2, r2, r0, lsl #8
 8001c34:	605a      	str	r2, [r3, #4]
 8001c36:	685a      	ldr	r2, [r3, #4]
 8001c38:	68e0      	ldr	r0, [r4, #12]
 8001c3a:	f022 7240 	bic.w	r2, r2, #50331648	; 0x3000000
 8001c3e:	605a      	str	r2, [r3, #4]
 8001c40:	685a      	ldr	r2, [r3, #4]
 8001c42:	430a      	orrs	r2, r1
 8001c44:	605a      	str	r2, [r3, #4]
 8001c46:	689a      	ldr	r2, [r3, #8]
 8001c48:	6aa1      	ldr	r1, [r4, #40]	; 0x28
 8001c4a:	f422 6200 	bic.w	r2, r2, #2048	; 0x800
 8001c4e:	609a      	str	r2, [r3, #8]
 8001c50:	689a      	ldr	r2, [r3, #8]
 8001c52:	4302      	orrs	r2, r0
 8001c54:	609a      	str	r2, [r3, #8]
 8001c56:	4a33      	ldr	r2, [pc, #204]	; (8001d24 <HAL_ADC_Init+0x154>)
 8001c58:	4291      	cmp	r1, r2
 8001c5a:	689a      	ldr	r2, [r3, #8]
 8001c5c:	d051      	beq.n	8001d02 <HAL_ADC_Init+0x132>
 8001c5e:	f022 6270 	bic.w	r2, r2, #251658240	; 0xf000000
 8001c62:	6ae0      	ldr	r0, [r4, #44]	; 0x2c
 8001c64:	609a      	str	r2, [r3, #8]
 8001c66:	689a      	ldr	r2, [r3, #8]
 8001c68:	4311      	orrs	r1, r2
 8001c6a:	6099      	str	r1, [r3, #8]
 8001c6c:	689a      	ldr	r2, [r3, #8]
 8001c6e:	f022 5240 	bic.w	r2, r2, #805306368	; 0x30000000
 8001c72:	609a      	str	r2, [r3, #8]
 8001c74:	689a      	ldr	r2, [r3, #8]
 8001c76:	4302      	orrs	r2, r0
 8001c78:	609a      	str	r2, [r3, #8]
 8001c7a:	689a      	ldr	r2, [r3, #8]
 8001c7c:	f022 0202 	bic.w	r2, r2, #2
 8001c80:	609a      	str	r2, [r3, #8]
 8001c82:	689a      	ldr	r2, [r3, #8]
 8001c84:	7e21      	ldrb	r1, [r4, #24]
 8001c86:	ea42 0241 	orr.w	r2, r2, r1, lsl #1
 8001c8a:	609a      	str	r2, [r3, #8]
 8001c8c:	f894 2020 	ldrb.w	r2, [r4, #32]
 8001c90:	2a00      	cmp	r2, #0
 8001c92:	d040      	beq.n	8001d16 <HAL_ADC_Init+0x146>
 8001c94:	685a      	ldr	r2, [r3, #4]
 8001c96:	6a61      	ldr	r1, [r4, #36]	; 0x24
 8001c98:	f442 6200 	orr.w	r2, r2, #2048	; 0x800
 8001c9c:	605a      	str	r2, [r3, #4]
 8001c9e:	685a      	ldr	r2, [r3, #4]
 8001ca0:	f422 4260 	bic.w	r2, r2, #57344	; 0xe000
 8001ca4:	605a      	str	r2, [r3, #4]
 8001ca6:	685a      	ldr	r2, [r3, #4]
 8001ca8:	3901      	subs	r1, #1
 8001caa:	ea42 3241 	orr.w	r2, r2, r1, lsl #13
 8001cae:	605a      	str	r2, [r3, #4]
 8001cb0:	6ada      	ldr	r2, [r3, #44]	; 0x2c
 8001cb2:	69e1      	ldr	r1, [r4, #28]
 8001cb4:	f422 0270 	bic.w	r2, r2, #15728640	; 0xf00000
 8001cb8:	62da      	str	r2, [r3, #44]	; 0x2c
 8001cba:	6ada      	ldr	r2, [r3, #44]	; 0x2c
 8001cbc:	3901      	subs	r1, #1
 8001cbe:	ea42 5201 	orr.w	r2, r2, r1, lsl #20
 8001cc2:	62da      	str	r2, [r3, #44]	; 0x2c
 8001cc4:	689a      	ldr	r2, [r3, #8]
 8001cc6:	6961      	ldr	r1, [r4, #20]
 8001cc8:	f422 7200 	bic.w	r2, r2, #512	; 0x200
 8001ccc:	609a      	str	r2, [r3, #8]
 8001cce:	689a      	ldr	r2, [r3, #8]
 8001cd0:	f894 0030 	ldrb.w	r0, [r4, #48]	; 0x30
 8001cd4:	ea42 2240 	orr.w	r2, r2, r0, lsl #9
 8001cd8:	609a      	str	r2, [r3, #8]
 8001cda:	689a      	ldr	r2, [r3, #8]
 8001cdc:	f422 6280 	bic.w	r2, r2, #1024	; 0x400
 8001ce0:	609a      	str	r2, [r3, #8]
 8001ce2:	689a      	ldr	r2, [r3, #8]
 8001ce4:	2000      	movs	r0, #0
 8001ce6:	ea42 2281 	orr.w	r2, r2, r1, lsl #10
 8001cea:	609a      	str	r2, [r3, #8]
 8001cec:	6460      	str	r0, [r4, #68]	; 0x44
 8001cee:	6c23      	ldr	r3, [r4, #64]	; 0x40
 8001cf0:	f023 0303 	bic.w	r3, r3, #3
 8001cf4:	f043 0301 	orr.w	r3, r3, #1
 8001cf8:	6423      	str	r3, [r4, #64]	; 0x40
 8001cfa:	2300      	movs	r3, #0
 8001cfc:	f884 303c 	strb.w	r3, [r4, #60]	; 0x3c
 8001d00:	bd38      	pop	{r3, r4, r5, pc}
 8001d02:	f022 6270 	bic.w	r2, r2, #251658240	; 0xf000000
 8001d06:	609a      	str	r2, [r3, #8]
 8001d08:	689a      	ldr	r2, [r3, #8]
 8001d0a:	f022 5240 	bic.w	r2, r2, #805306368	; 0x30000000
 8001d0e:	609a      	str	r2, [r3, #8]
 8001d10:	e7b3      	b.n	8001c7a <HAL_ADC_Init+0xaa>
 8001d12:	2001      	movs	r0, #1
 8001d14:	4770      	bx	lr
 8001d16:	685a      	ldr	r2, [r3, #4]
 8001d18:	f422 6200 	bic.w	r2, r2, #2048	; 0x800
 8001d1c:	605a      	str	r2, [r3, #4]
 8001d1e:	e7c7      	b.n	8001cb0 <HAL_ADC_Init+0xe0>
 8001d20:	40012300 	.word	0x40012300
 8001d24:	0f000001 	.word	0x0f000001

08001d28 <HAL_ADC_Start>:
 8001d28:	b410      	push	{r4}
 8001d2a:	f890 303c 	ldrb.w	r3, [r0, #60]	; 0x3c
 8001d2e:	b083      	sub	sp, #12
 8001d30:	2100      	movs	r1, #0
 8001d32:	2b01      	cmp	r3, #1
 8001d34:	9101      	str	r1, [sp, #4]
 8001d36:	d06d      	beq.n	8001e14 <HAL_ADC_Start+0xec>
 8001d38:	6801      	ldr	r1, [r0, #0]
 8001d3a:	2301      	movs	r3, #1
 8001d3c:	f880 303c 	strb.w	r3, [r0, #60]	; 0x3c
 8001d40:	688b      	ldr	r3, [r1, #8]
 8001d42:	4602      	mov	r2, r0
 8001d44:	07d8      	lsls	r0, r3, #31
 8001d46:	d414      	bmi.n	8001d72 <HAL_ADC_Start+0x4a>
 8001d48:	4b35      	ldr	r3, [pc, #212]	; (8001e20 <HAL_ADC_Start+0xf8>)
 8001d4a:	4c36      	ldr	r4, [pc, #216]	; (8001e24 <HAL_ADC_Start+0xfc>)
 8001d4c:	681b      	ldr	r3, [r3, #0]
 8001d4e:	6888      	ldr	r0, [r1, #8]
 8001d50:	fba4 4303 	umull	r4, r3, r4, r3
 8001d54:	0c9b      	lsrs	r3, r3, #18
 8001d56:	eb03 0343 	add.w	r3, r3, r3, lsl #1
 8001d5a:	f040 0001 	orr.w	r0, r0, #1
 8001d5e:	6088      	str	r0, [r1, #8]
 8001d60:	9301      	str	r3, [sp, #4]
 8001d62:	9b01      	ldr	r3, [sp, #4]
 8001d64:	b12b      	cbz	r3, 8001d72 <HAL_ADC_Start+0x4a>
 8001d66:	9b01      	ldr	r3, [sp, #4]
 8001d68:	3b01      	subs	r3, #1
 8001d6a:	9301      	str	r3, [sp, #4]
 8001d6c:	9b01      	ldr	r3, [sp, #4]
 8001d6e:	2b00      	cmp	r3, #0
 8001d70:	d1f9      	bne.n	8001d66 <HAL_ADC_Start+0x3e>
 8001d72:	6888      	ldr	r0, [r1, #8]
 8001d74:	6c13      	ldr	r3, [r2, #64]	; 0x40
 8001d76:	f010 0001 	ands.w	r0, r0, #1
 8001d7a:	d02e      	beq.n	8001dda <HAL_ADC_Start+0xb2>
 8001d7c:	f423 63e0 	bic.w	r3, r3, #1792	; 0x700
 8001d80:	f023 0301 	bic.w	r3, r3, #1
 8001d84:	f443 7380 	orr.w	r3, r3, #256	; 0x100
 8001d88:	6413      	str	r3, [r2, #64]	; 0x40
 8001d8a:	684b      	ldr	r3, [r1, #4]
 8001d8c:	055b      	lsls	r3, r3, #21
 8001d8e:	d505      	bpl.n	8001d9c <HAL_ADC_Start+0x74>
 8001d90:	6c13      	ldr	r3, [r2, #64]	; 0x40
 8001d92:	f423 5340 	bic.w	r3, r3, #12288	; 0x3000
 8001d96:	f443 5380 	orr.w	r3, r3, #4096	; 0x1000
 8001d9a:	6413      	str	r3, [r2, #64]	; 0x40
 8001d9c:	6c13      	ldr	r3, [r2, #64]	; 0x40
 8001d9e:	f413 5380 	ands.w	r3, r3, #4096	; 0x1000
 8001da2:	bf1c      	itt	ne
 8001da4:	6c53      	ldrne	r3, [r2, #68]	; 0x44
 8001da6:	f023 0306 	bicne.w	r3, r3, #6
 8001daa:	6453      	str	r3, [r2, #68]	; 0x44
 8001dac:	2000      	movs	r0, #0
 8001dae:	4b1e      	ldr	r3, [pc, #120]	; (8001e28 <HAL_ADC_Start+0x100>)
 8001db0:	f882 003c 	strb.w	r0, [r2, #60]	; 0x3c
 8001db4:	f06f 0422 	mvn.w	r4, #34	; 0x22
 8001db8:	600c      	str	r4, [r1, #0]
 8001dba:	685b      	ldr	r3, [r3, #4]
 8001dbc:	f013 031f 	ands.w	r3, r3, #31
 8001dc0:	d116      	bne.n	8001df0 <HAL_ADC_Start+0xc8>
 8001dc2:	6888      	ldr	r0, [r1, #8]
 8001dc4:	f010 5040 	ands.w	r0, r0, #805306368	; 0x30000000
 8001dc8:	d11f      	bne.n	8001e0a <HAL_ADC_Start+0xe2>
 8001dca:	688b      	ldr	r3, [r1, #8]
 8001dcc:	f043 4380 	orr.w	r3, r3, #1073741824	; 0x40000000
 8001dd0:	608b      	str	r3, [r1, #8]
 8001dd2:	b003      	add	sp, #12
 8001dd4:	f85d 4b04 	ldr.w	r4, [sp], #4
 8001dd8:	4770      	bx	lr
 8001dda:	f043 0310 	orr.w	r3, r3, #16
 8001dde:	6413      	str	r3, [r2, #64]	; 0x40
 8001de0:	6c53      	ldr	r3, [r2, #68]	; 0x44
 8001de2:	f043 0301 	orr.w	r3, r3, #1
 8001de6:	6453      	str	r3, [r2, #68]	; 0x44
 8001de8:	b003      	add	sp, #12
 8001dea:	f85d 4b04 	ldr.w	r4, [sp], #4
 8001dee:	4770      	bx	lr
 8001df0:	4b0e      	ldr	r3, [pc, #56]	; (8001e2c <HAL_ADC_Start+0x104>)
 8001df2:	4299      	cmp	r1, r3
 8001df4:	d1f8      	bne.n	8001de8 <HAL_ADC_Start+0xc0>
 8001df6:	688b      	ldr	r3, [r1, #8]
 8001df8:	f013 5340 	ands.w	r3, r3, #805306368	; 0x30000000
 8001dfc:	d1f4      	bne.n	8001de8 <HAL_ADC_Start+0xc0>
 8001dfe:	688a      	ldr	r2, [r1, #8]
 8001e00:	f042 4280 	orr.w	r2, r2, #1073741824	; 0x40000000
 8001e04:	4618      	mov	r0, r3
 8001e06:	608a      	str	r2, [r1, #8]
 8001e08:	e7ee      	b.n	8001de8 <HAL_ADC_Start+0xc0>
 8001e0a:	4618      	mov	r0, r3
 8001e0c:	b003      	add	sp, #12
 8001e0e:	f85d 4b04 	ldr.w	r4, [sp], #4
 8001e12:	4770      	bx	lr
 8001e14:	2002      	movs	r0, #2
 8001e16:	b003      	add	sp, #12
 8001e18:	f85d 4b04 	ldr.w	r4, [sp], #4
 8001e1c:	4770      	bx	lr
 8001e1e:	bf00      	nop
 8001e20:	20000064 	.word	0x20000064
 8001e24:	431bde83 	.word	0x431bde83
 8001e28:	40012300 	.word	0x40012300
 8001e2c:	40012000 	.word	0x40012000

08001e30 <HAL_ADC_Stop>:
 8001e30:	f890 303c 	ldrb.w	r3, [r0, #60]	; 0x3c
 8001e34:	2b01      	cmp	r3, #1
 8001e36:	d014      	beq.n	8001e62 <HAL_ADC_Stop+0x32>
 8001e38:	6803      	ldr	r3, [r0, #0]
 8001e3a:	689a      	ldr	r2, [r3, #8]
 8001e3c:	f022 0201 	bic.w	r2, r2, #1
 8001e40:	609a      	str	r2, [r3, #8]
 8001e42:	689b      	ldr	r3, [r3, #8]
 8001e44:	07db      	lsls	r3, r3, #31
 8001e46:	d407      	bmi.n	8001e58 <HAL_ADC_Stop+0x28>
 8001e48:	6c03      	ldr	r3, [r0, #64]	; 0x40
 8001e4a:	f423 5388 	bic.w	r3, r3, #4352	; 0x1100
 8001e4e:	f023 0301 	bic.w	r3, r3, #1
 8001e52:	f043 0301 	orr.w	r3, r3, #1
 8001e56:	6403      	str	r3, [r0, #64]	; 0x40
 8001e58:	2300      	movs	r3, #0
 8001e5a:	f880 303c 	strb.w	r3, [r0, #60]	; 0x3c
 8001e5e:	4618      	mov	r0, r3
 8001e60:	4770      	bx	lr
 8001e62:	2002      	movs	r0, #2
 8001e64:	4770      	bx	lr
 8001e66:	bf00      	nop

08001e68 <HAL_ADC_PollForConversion>:
 8001e68:	6803      	ldr	r3, [r0, #0]
 8001e6a:	689a      	ldr	r2, [r3, #8]
 8001e6c:	b570      	push	{r4, r5, r6, lr}
 8001e6e:	460d      	mov	r5, r1
 8001e70:	0551      	lsls	r1, r2, #21
 8001e72:	4604      	mov	r4, r0
 8001e74:	d502      	bpl.n	8001e7c <HAL_ADC_PollForConversion+0x14>
 8001e76:	689b      	ldr	r3, [r3, #8]
 8001e78:	05da      	lsls	r2, r3, #23
 8001e7a:	d445      	bmi.n	8001f08 <HAL_ADC_PollForConversion+0xa0>
 8001e7c:	f7ff fe8e 	bl	8001b9c <HAL_GetTick>
 8001e80:	6822      	ldr	r2, [r4, #0]
 8001e82:	4606      	mov	r6, r0
 8001e84:	1c6b      	adds	r3, r5, #1
 8001e86:	d124      	bne.n	8001ed2 <HAL_ADC_PollForConversion+0x6a>
 8001e88:	6813      	ldr	r3, [r2, #0]
 8001e8a:	0798      	lsls	r0, r3, #30
 8001e8c:	d5fc      	bpl.n	8001e88 <HAL_ADC_PollForConversion+0x20>
 8001e8e:	f06f 0312 	mvn.w	r3, #18
 8001e92:	6013      	str	r3, [r2, #0]
 8001e94:	6c23      	ldr	r3, [r4, #64]	; 0x40
 8001e96:	f443 7300 	orr.w	r3, r3, #512	; 0x200
 8001e9a:	6423      	str	r3, [r4, #64]	; 0x40
 8001e9c:	6893      	ldr	r3, [r2, #8]
 8001e9e:	f013 5f40 	tst.w	r3, #805306368	; 0x30000000
 8001ea2:	d114      	bne.n	8001ece <HAL_ADC_PollForConversion+0x66>
 8001ea4:	7e20      	ldrb	r0, [r4, #24]
 8001ea6:	b990      	cbnz	r0, 8001ece <HAL_ADC_PollForConversion+0x66>
 8001ea8:	6ad3      	ldr	r3, [r2, #44]	; 0x2c
 8001eaa:	f413 0f70 	tst.w	r3, #15728640	; 0xf00000
 8001eae:	d002      	beq.n	8001eb6 <HAL_ADC_PollForConversion+0x4e>
 8001eb0:	6893      	ldr	r3, [r2, #8]
 8001eb2:	055a      	lsls	r2, r3, #21
 8001eb4:	d40b      	bmi.n	8001ece <HAL_ADC_PollForConversion+0x66>
 8001eb6:	6c23      	ldr	r3, [r4, #64]	; 0x40
 8001eb8:	f423 7380 	bic.w	r3, r3, #256	; 0x100
 8001ebc:	6423      	str	r3, [r4, #64]	; 0x40
 8001ebe:	6c23      	ldr	r3, [r4, #64]	; 0x40
 8001ec0:	04db      	lsls	r3, r3, #19
 8001ec2:	d404      	bmi.n	8001ece <HAL_ADC_PollForConversion+0x66>
 8001ec4:	6c23      	ldr	r3, [r4, #64]	; 0x40
 8001ec6:	f043 0301 	orr.w	r3, r3, #1
 8001eca:	6423      	str	r3, [r4, #64]	; 0x40
 8001ecc:	bd70      	pop	{r4, r5, r6, pc}
 8001ece:	2000      	movs	r0, #0
 8001ed0:	bd70      	pop	{r4, r5, r6, pc}
 8001ed2:	6813      	ldr	r3, [r2, #0]
 8001ed4:	0799      	lsls	r1, r3, #30
 8001ed6:	d4da      	bmi.n	8001e8e <HAL_ADC_PollForConversion+0x26>
 8001ed8:	b95d      	cbnz	r5, 8001ef2 <HAL_ADC_PollForConversion+0x8a>
 8001eda:	6813      	ldr	r3, [r2, #0]
 8001edc:	f013 0302 	ands.w	r3, r3, #2
 8001ee0:	d1d0      	bne.n	8001e84 <HAL_ADC_PollForConversion+0x1c>
 8001ee2:	6c22      	ldr	r2, [r4, #64]	; 0x40
 8001ee4:	f884 303c 	strb.w	r3, [r4, #60]	; 0x3c
 8001ee8:	f042 0204 	orr.w	r2, r2, #4
 8001eec:	6422      	str	r2, [r4, #64]	; 0x40
 8001eee:	2003      	movs	r0, #3
 8001ef0:	bd70      	pop	{r4, r5, r6, pc}
 8001ef2:	f7ff fe53 	bl	8001b9c <HAL_GetTick>
 8001ef6:	1b80      	subs	r0, r0, r6
 8001ef8:	42a8      	cmp	r0, r5
 8001efa:	6822      	ldr	r2, [r4, #0]
 8001efc:	d9c2      	bls.n	8001e84 <HAL_ADC_PollForConversion+0x1c>
 8001efe:	6813      	ldr	r3, [r2, #0]
 8001f00:	f013 0302 	ands.w	r3, r3, #2
 8001f04:	d1be      	bne.n	8001e84 <HAL_ADC_PollForConversion+0x1c>
 8001f06:	e7ec      	b.n	8001ee2 <HAL_ADC_PollForConversion+0x7a>
 8001f08:	6c03      	ldr	r3, [r0, #64]	; 0x40
 8001f0a:	2200      	movs	r2, #0
 8001f0c:	f043 0320 	orr.w	r3, r3, #32
 8001f10:	f880 203c 	strb.w	r2, [r0, #60]	; 0x3c
 8001f14:	6403      	str	r3, [r0, #64]	; 0x40
 8001f16:	2001      	movs	r0, #1
 8001f18:	bd70      	pop	{r4, r5, r6, pc}
 8001f1a:	bf00      	nop

08001f1c <HAL_ADC_GetValue>:
 8001f1c:	6803      	ldr	r3, [r0, #0]
 8001f1e:	6cd8      	ldr	r0, [r3, #76]	; 0x4c
 8001f20:	4770      	bx	lr
 8001f22:	bf00      	nop

08001f24 <HAL_ADC_ConfigChannel>:
 8001f24:	b530      	push	{r4, r5, lr}
 8001f26:	f890 303c 	ldrb.w	r3, [r0, #60]	; 0x3c
 8001f2a:	b083      	sub	sp, #12
 8001f2c:	2200      	movs	r2, #0
 8001f2e:	2b01      	cmp	r3, #1
 8001f30:	9201      	str	r2, [sp, #4]
 8001f32:	f000 809a 	beq.w	800206a <HAL_ADC_ConfigChannel+0x146>
 8001f36:	2301      	movs	r3, #1
 8001f38:	f880 303c 	strb.w	r3, [r0, #60]	; 0x3c
 8001f3c:	680c      	ldr	r4, [r1, #0]
 8001f3e:	6803      	ldr	r3, [r0, #0]
 8001f40:	2c09      	cmp	r4, #9
 8001f42:	d82c      	bhi.n	8001f9e <HAL_ADC_ConfigChannel+0x7a>
 8001f44:	691a      	ldr	r2, [r3, #16]
 8001f46:	eb04 0544 	add.w	r5, r4, r4, lsl #1
 8001f4a:	f04f 0c07 	mov.w	ip, #7
 8001f4e:	fa0c fc05 	lsl.w	ip, ip, r5
 8001f52:	ea22 020c 	bic.w	r2, r2, ip
 8001f56:	611a      	str	r2, [r3, #16]
 8001f58:	688a      	ldr	r2, [r1, #8]
 8001f5a:	40aa      	lsls	r2, r5
 8001f5c:	691d      	ldr	r5, [r3, #16]
 8001f5e:	432a      	orrs	r2, r5
 8001f60:	611a      	str	r2, [r3, #16]
 8001f62:	684a      	ldr	r2, [r1, #4]
 8001f64:	2a06      	cmp	r2, #6
 8001f66:	46a4      	mov	ip, r4
 8001f68:	d82f      	bhi.n	8001fca <HAL_ADC_ConfigChannel+0xa6>
 8001f6a:	eb02 0282 	add.w	r2, r2, r2, lsl #2
 8001f6e:	6b59      	ldr	r1, [r3, #52]	; 0x34
 8001f70:	3a05      	subs	r2, #5
 8001f72:	f04f 0e1f 	mov.w	lr, #31
 8001f76:	fa0c fc02 	lsl.w	ip, ip, r2
 8001f7a:	fa0e f202 	lsl.w	r2, lr, r2
 8001f7e:	ea21 0202 	bic.w	r2, r1, r2
 8001f82:	635a      	str	r2, [r3, #52]	; 0x34
 8001f84:	6b5a      	ldr	r2, [r3, #52]	; 0x34
 8001f86:	ea4c 0202 	orr.w	r2, ip, r2
 8001f8a:	635a      	str	r2, [r3, #52]	; 0x34
 8001f8c:	4a3e      	ldr	r2, [pc, #248]	; (8002088 <HAL_ADC_ConfigChannel+0x164>)
 8001f8e:	4293      	cmp	r3, r2
 8001f90:	d030      	beq.n	8001ff4 <HAL_ADC_ConfigChannel+0xd0>
 8001f92:	2300      	movs	r3, #0
 8001f94:	f880 303c 	strb.w	r3, [r0, #60]	; 0x3c
 8001f98:	4618      	mov	r0, r3
 8001f9a:	b003      	add	sp, #12
 8001f9c:	bd30      	pop	{r4, r5, pc}
 8001f9e:	fa1f fc84 	uxth.w	ip, r4
 8001fa2:	eb0c 0e4c 	add.w	lr, ip, ip, lsl #1
 8001fa6:	68da      	ldr	r2, [r3, #12]
 8001fa8:	f1ae 0e1e 	sub.w	lr, lr, #30
 8001fac:	2507      	movs	r5, #7
 8001fae:	fa05 f50e 	lsl.w	r5, r5, lr
 8001fb2:	ea22 0205 	bic.w	r2, r2, r5
 8001fb6:	60da      	str	r2, [r3, #12]
 8001fb8:	688a      	ldr	r2, [r1, #8]
 8001fba:	68dd      	ldr	r5, [r3, #12]
 8001fbc:	fa02 f20e 	lsl.w	r2, r2, lr
 8001fc0:	432a      	orrs	r2, r5
 8001fc2:	60da      	str	r2, [r3, #12]
 8001fc4:	684a      	ldr	r2, [r1, #4]
 8001fc6:	2a06      	cmp	r2, #6
 8001fc8:	d9cf      	bls.n	8001f6a <HAL_ADC_ConfigChannel+0x46>
 8001fca:	2a0c      	cmp	r2, #12
 8001fcc:	eb02 0282 	add.w	r2, r2, r2, lsl #2
 8001fd0:	d832      	bhi.n	8002038 <HAL_ADC_ConfigChannel+0x114>
 8001fd2:	6b19      	ldr	r1, [r3, #48]	; 0x30
 8001fd4:	3a23      	subs	r2, #35	; 0x23
 8001fd6:	251f      	movs	r5, #31
 8001fd8:	fa0c fc02 	lsl.w	ip, ip, r2
 8001fdc:	fa05 f202 	lsl.w	r2, r5, r2
 8001fe0:	ea21 0202 	bic.w	r2, r1, r2
 8001fe4:	631a      	str	r2, [r3, #48]	; 0x30
 8001fe6:	6b1a      	ldr	r2, [r3, #48]	; 0x30
 8001fe8:	ea4c 0202 	orr.w	r2, ip, r2
 8001fec:	631a      	str	r2, [r3, #48]	; 0x30
 8001fee:	4a26      	ldr	r2, [pc, #152]	; (8002088 <HAL_ADC_ConfigChannel+0x164>)
 8001ff0:	4293      	cmp	r3, r2
 8001ff2:	d1ce      	bne.n	8001f92 <HAL_ADC_ConfigChannel+0x6e>
 8001ff4:	2c12      	cmp	r4, #18
 8001ff6:	d02e      	beq.n	8002056 <HAL_ADC_ConfigChannel+0x132>
 8001ff8:	4b24      	ldr	r3, [pc, #144]	; (800208c <HAL_ADC_ConfigChannel+0x168>)
 8001ffa:	429c      	cmp	r4, r3
 8001ffc:	d138      	bne.n	8002070 <HAL_ADC_ConfigChannel+0x14c>
 8001ffe:	4b24      	ldr	r3, [pc, #144]	; (8002090 <HAL_ADC_ConfigChannel+0x16c>)
 8002000:	4c24      	ldr	r4, [pc, #144]	; (8002094 <HAL_ADC_ConfigChannel+0x170>)
 8002002:	685a      	ldr	r2, [r3, #4]
 8002004:	4924      	ldr	r1, [pc, #144]	; (8002098 <HAL_ADC_ConfigChannel+0x174>)
 8002006:	f422 0280 	bic.w	r2, r2, #4194304	; 0x400000
 800200a:	605a      	str	r2, [r3, #4]
 800200c:	685a      	ldr	r2, [r3, #4]
 800200e:	f442 0200 	orr.w	r2, r2, #8388608	; 0x800000
 8002012:	605a      	str	r2, [r3, #4]
 8002014:	6823      	ldr	r3, [r4, #0]
 8002016:	fba1 1303 	umull	r1, r3, r1, r3
 800201a:	0c9b      	lsrs	r3, r3, #18
 800201c:	eb03 0383 	add.w	r3, r3, r3, lsl #2
 8002020:	005b      	lsls	r3, r3, #1
 8002022:	9301      	str	r3, [sp, #4]
 8002024:	9b01      	ldr	r3, [sp, #4]
 8002026:	2b00      	cmp	r3, #0
 8002028:	d0b3      	beq.n	8001f92 <HAL_ADC_ConfigChannel+0x6e>
 800202a:	9b01      	ldr	r3, [sp, #4]
 800202c:	3b01      	subs	r3, #1
 800202e:	9301      	str	r3, [sp, #4]
 8002030:	9b01      	ldr	r3, [sp, #4]
 8002032:	2b00      	cmp	r3, #0
 8002034:	d1f9      	bne.n	800202a <HAL_ADC_ConfigChannel+0x106>
 8002036:	e7ac      	b.n	8001f92 <HAL_ADC_ConfigChannel+0x6e>
 8002038:	6ad9      	ldr	r1, [r3, #44]	; 0x2c
 800203a:	3a41      	subs	r2, #65	; 0x41
 800203c:	251f      	movs	r5, #31
 800203e:	fa0c fc02 	lsl.w	ip, ip, r2
 8002042:	fa05 f202 	lsl.w	r2, r5, r2
 8002046:	ea21 0202 	bic.w	r2, r1, r2
 800204a:	62da      	str	r2, [r3, #44]	; 0x2c
 800204c:	6ada      	ldr	r2, [r3, #44]	; 0x2c
 800204e:	ea4c 0202 	orr.w	r2, ip, r2
 8002052:	62da      	str	r2, [r3, #44]	; 0x2c
 8002054:	e79a      	b.n	8001f8c <HAL_ADC_ConfigChannel+0x68>
 8002056:	4b0e      	ldr	r3, [pc, #56]	; (8002090 <HAL_ADC_ConfigChannel+0x16c>)
 8002058:	685a      	ldr	r2, [r3, #4]
 800205a:	f422 0200 	bic.w	r2, r2, #8388608	; 0x800000
 800205e:	605a      	str	r2, [r3, #4]
 8002060:	685a      	ldr	r2, [r3, #4]
 8002062:	f442 0280 	orr.w	r2, r2, #4194304	; 0x400000
 8002066:	605a      	str	r2, [r3, #4]
 8002068:	e793      	b.n	8001f92 <HAL_ADC_ConfigChannel+0x6e>
 800206a:	2002      	movs	r0, #2
 800206c:	b003      	add	sp, #12
 800206e:	bd30      	pop	{r4, r5, pc}
 8002070:	2c11      	cmp	r4, #17
 8002072:	d18e      	bne.n	8001f92 <HAL_ADC_ConfigChannel+0x6e>
 8002074:	4b06      	ldr	r3, [pc, #24]	; (8002090 <HAL_ADC_ConfigChannel+0x16c>)
 8002076:	685a      	ldr	r2, [r3, #4]
 8002078:	f422 0280 	bic.w	r2, r2, #4194304	; 0x400000
 800207c:	605a      	str	r2, [r3, #4]
 800207e:	685a      	ldr	r2, [r3, #4]
 8002080:	f442 0200 	orr.w	r2, r2, #8388608	; 0x800000
 8002084:	605a      	str	r2, [r3, #4]
 8002086:	e784      	b.n	8001f92 <HAL_ADC_ConfigChannel+0x6e>
 8002088:	40012000 	.word	0x40012000
 800208c:	10000012 	.word	0x10000012
 8002090:	40012300 	.word	0x40012300
 8002094:	20000064 	.word	0x20000064
 8002098:	431bde83 	.word	0x431bde83

0800209c <HAL_NVIC_SetPriorityGrouping>:
 800209c:	4907      	ldr	r1, [pc, #28]	; (80020bc <HAL_NVIC_SetPriorityGrouping+0x20>)
 800209e:	68ca      	ldr	r2, [r1, #12]
 80020a0:	0203      	lsls	r3, r0, #8
 80020a2:	f64f 00ff 	movw	r0, #63743	; 0xf8ff
 80020a6:	f403 63e0 	and.w	r3, r3, #1792	; 0x700
 80020aa:	4002      	ands	r2, r0
 80020ac:	4313      	orrs	r3, r2
 80020ae:	f043 63bf 	orr.w	r3, r3, #100139008	; 0x5f80000
 80020b2:	f443 3300 	orr.w	r3, r3, #131072	; 0x20000
 80020b6:	60cb      	str	r3, [r1, #12]
 80020b8:	4770      	bx	lr
 80020ba:	bf00      	nop
 80020bc:	e000ed00 	.word	0xe000ed00

080020c0 <HAL_NVIC_SetPriority>:
 80020c0:	4b1c      	ldr	r3, [pc, #112]	; (8002134 <HAL_NVIC_SetPriority+0x74>)
 80020c2:	68db      	ldr	r3, [r3, #12]
 80020c4:	f3c3 2302 	ubfx	r3, r3, #8, #3
 80020c8:	b500      	push	{lr}
 80020ca:	f1c3 0e07 	rsb	lr, r3, #7
 80020ce:	f1be 0f04 	cmp.w	lr, #4
 80020d2:	f103 0c04 	add.w	ip, r3, #4
 80020d6:	bf28      	it	cs
 80020d8:	f04f 0e04 	movcs.w	lr, #4
 80020dc:	f1bc 0f06 	cmp.w	ip, #6
 80020e0:	d91b      	bls.n	800211a <HAL_NVIC_SetPriority+0x5a>
 80020e2:	3b03      	subs	r3, #3
 80020e4:	f04f 3cff 	mov.w	ip, #4294967295
 80020e8:	fa0c fc03 	lsl.w	ip, ip, r3
 80020ec:	ea22 020c 	bic.w	r2, r2, ip
 80020f0:	f04f 3cff 	mov.w	ip, #4294967295
 80020f4:	fa0c fc0e 	lsl.w	ip, ip, lr
 80020f8:	ea21 010c 	bic.w	r1, r1, ip
 80020fc:	4099      	lsls	r1, r3
 80020fe:	2800      	cmp	r0, #0
 8002100:	ea41 0102 	orr.w	r1, r1, r2
 8002104:	db0c      	blt.n	8002120 <HAL_NVIC_SetPriority+0x60>
 8002106:	f100 4060 	add.w	r0, r0, #3758096384	; 0xe0000000
 800210a:	0109      	lsls	r1, r1, #4
 800210c:	f500 4061 	add.w	r0, r0, #57600	; 0xe100
 8002110:	b2c9      	uxtb	r1, r1
 8002112:	f880 1300 	strb.w	r1, [r0, #768]	; 0x300
 8002116:	f85d fb04 	ldr.w	pc, [sp], #4
 800211a:	2200      	movs	r2, #0
 800211c:	4613      	mov	r3, r2
 800211e:	e7e7      	b.n	80020f0 <HAL_NVIC_SetPriority+0x30>
 8002120:	4b05      	ldr	r3, [pc, #20]	; (8002138 <HAL_NVIC_SetPriority+0x78>)
 8002122:	f000 000f 	and.w	r0, r0, #15
 8002126:	0109      	lsls	r1, r1, #4
 8002128:	4403      	add	r3, r0
 800212a:	b2c9      	uxtb	r1, r1
 800212c:	7619      	strb	r1, [r3, #24]
 800212e:	f85d fb04 	ldr.w	pc, [sp], #4
 8002132:	bf00      	nop
 8002134:	e000ed00 	.word	0xe000ed00
 8002138:	e000ecfc 	.word	0xe000ecfc

0800213c <HAL_NVIC_EnableIRQ>:
 800213c:	2800      	cmp	r0, #0
 800213e:	db07      	blt.n	8002150 <HAL_NVIC_EnableIRQ+0x14>
 8002140:	0941      	lsrs	r1, r0, #5
 8002142:	4a04      	ldr	r2, [pc, #16]	; (8002154 <HAL_NVIC_EnableIRQ+0x18>)
 8002144:	f000 001f 	and.w	r0, r0, #31
 8002148:	2301      	movs	r3, #1
 800214a:	4083      	lsls	r3, r0
 800214c:	f842 3021 	str.w	r3, [r2, r1, lsl #2]
 8002150:	4770      	bx	lr
 8002152:	bf00      	nop
 8002154:	e000e100 	.word	0xe000e100

08002158 <HAL_DMA_Start_IT>:
 8002158:	b470      	push	{r4, r5, r6}
 800215a:	f890 4034 	ldrb.w	r4, [r0, #52]	; 0x34
 800215e:	6d85      	ldr	r5, [r0, #88]	; 0x58
 8002160:	2c01      	cmp	r4, #1
 8002162:	d035      	beq.n	80021d0 <HAL_DMA_Start_IT+0x78>
 8002164:	f890 4035 	ldrb.w	r4, [r0, #53]	; 0x35
 8002168:	f04f 0c01 	mov.w	ip, #1
 800216c:	4564      	cmp	r4, ip
 800216e:	f880 c034 	strb.w	ip, [r0, #52]	; 0x34
 8002172:	d005      	beq.n	8002180 <HAL_DMA_Start_IT+0x28>
 8002174:	2300      	movs	r3, #0
 8002176:	f880 3034 	strb.w	r3, [r0, #52]	; 0x34
 800217a:	bc70      	pop	{r4, r5, r6}
 800217c:	2002      	movs	r0, #2
 800217e:	4770      	bx	lr
 8002180:	2602      	movs	r6, #2
 8002182:	f880 6035 	strb.w	r6, [r0, #53]	; 0x35
 8002186:	6804      	ldr	r4, [r0, #0]
 8002188:	2600      	movs	r6, #0
 800218a:	6546      	str	r6, [r0, #84]	; 0x54
 800218c:	6826      	ldr	r6, [r4, #0]
 800218e:	f426 2680 	bic.w	r6, r6, #262144	; 0x40000
 8002192:	6026      	str	r6, [r4, #0]
 8002194:	6063      	str	r3, [r4, #4]
 8002196:	6883      	ldr	r3, [r0, #8]
 8002198:	2b40      	cmp	r3, #64	; 0x40
 800219a:	bf0e      	itee	eq
 800219c:	60a2      	streq	r2, [r4, #8]
 800219e:	60a1      	strne	r1, [r4, #8]
 80021a0:	60e2      	strne	r2, [r4, #12]
 80021a2:	6dc2      	ldr	r2, [r0, #92]	; 0x5c
 80021a4:	bf08      	it	eq
 80021a6:	60e1      	streq	r1, [r4, #12]
 80021a8:	233f      	movs	r3, #63	; 0x3f
 80021aa:	4093      	lsls	r3, r2
 80021ac:	60ab      	str	r3, [r5, #8]
 80021ae:	6823      	ldr	r3, [r4, #0]
 80021b0:	6c02      	ldr	r2, [r0, #64]	; 0x40
 80021b2:	f043 0316 	orr.w	r3, r3, #22
 80021b6:	6023      	str	r3, [r4, #0]
 80021b8:	b11a      	cbz	r2, 80021c2 <HAL_DMA_Start_IT+0x6a>
 80021ba:	6823      	ldr	r3, [r4, #0]
 80021bc:	f043 0308 	orr.w	r3, r3, #8
 80021c0:	6023      	str	r3, [r4, #0]
 80021c2:	6823      	ldr	r3, [r4, #0]
 80021c4:	f043 0301 	orr.w	r3, r3, #1
 80021c8:	2000      	movs	r0, #0
 80021ca:	6023      	str	r3, [r4, #0]
 80021cc:	bc70      	pop	{r4, r5, r6}
 80021ce:	4770      	bx	lr
 80021d0:	2002      	movs	r0, #2
 80021d2:	bc70      	pop	{r4, r5, r6}
 80021d4:	4770      	bx	lr
 80021d6:	bf00      	nop

080021d8 <HAL_DMA_Abort>:
 80021d8:	b570      	push	{r4, r5, r6, lr}
 80021da:	4604      	mov	r4, r0
 80021dc:	6d86      	ldr	r6, [r0, #88]	; 0x58
 80021de:	f7ff fcdd 	bl	8001b9c <HAL_GetTick>
 80021e2:	f894 3035 	ldrb.w	r3, [r4, #53]	; 0x35
 80021e6:	2b02      	cmp	r3, #2
 80021e8:	d006      	beq.n	80021f8 <HAL_DMA_Abort+0x20>
 80021ea:	2380      	movs	r3, #128	; 0x80
 80021ec:	6563      	str	r3, [r4, #84]	; 0x54
 80021ee:	2300      	movs	r3, #0
 80021f0:	f884 3034 	strb.w	r3, [r4, #52]	; 0x34
 80021f4:	2001      	movs	r0, #1
 80021f6:	bd70      	pop	{r4, r5, r6, pc}
 80021f8:	6823      	ldr	r3, [r4, #0]
 80021fa:	681a      	ldr	r2, [r3, #0]
 80021fc:	f022 0216 	bic.w	r2, r2, #22
 8002200:	601a      	str	r2, [r3, #0]
 8002202:	695a      	ldr	r2, [r3, #20]
 8002204:	f022 0280 	bic.w	r2, r2, #128	; 0x80
 8002208:	615a      	str	r2, [r3, #20]
 800220a:	6c22      	ldr	r2, [r4, #64]	; 0x40
 800220c:	4605      	mov	r5, r0
 800220e:	b342      	cbz	r2, 8002262 <HAL_DMA_Abort+0x8a>
 8002210:	681a      	ldr	r2, [r3, #0]
 8002212:	f022 0208 	bic.w	r2, r2, #8
 8002216:	601a      	str	r2, [r3, #0]
 8002218:	681a      	ldr	r2, [r3, #0]
 800221a:	f022 0201 	bic.w	r2, r2, #1
 800221e:	601a      	str	r2, [r3, #0]
 8002220:	e005      	b.n	800222e <HAL_DMA_Abort+0x56>
 8002222:	f7ff fcbb 	bl	8001b9c <HAL_GetTick>
 8002226:	1b43      	subs	r3, r0, r5
 8002228:	2b05      	cmp	r3, #5
 800222a:	d810      	bhi.n	800224e <HAL_DMA_Abort+0x76>
 800222c:	6823      	ldr	r3, [r4, #0]
 800222e:	681b      	ldr	r3, [r3, #0]
 8002230:	f013 0301 	ands.w	r3, r3, #1
 8002234:	d1f5      	bne.n	8002222 <HAL_DMA_Abort+0x4a>
 8002236:	6de1      	ldr	r1, [r4, #92]	; 0x5c
 8002238:	223f      	movs	r2, #63	; 0x3f
 800223a:	408a      	lsls	r2, r1
 800223c:	4618      	mov	r0, r3
 800223e:	2101      	movs	r1, #1
 8002240:	2300      	movs	r3, #0
 8002242:	60b2      	str	r2, [r6, #8]
 8002244:	f884 1035 	strb.w	r1, [r4, #53]	; 0x35
 8002248:	f884 3034 	strb.w	r3, [r4, #52]	; 0x34
 800224c:	bd70      	pop	{r4, r5, r6, pc}
 800224e:	2303      	movs	r3, #3
 8002250:	2220      	movs	r2, #32
 8002252:	6562      	str	r2, [r4, #84]	; 0x54
 8002254:	4618      	mov	r0, r3
 8002256:	f884 3035 	strb.w	r3, [r4, #53]	; 0x35
 800225a:	2300      	movs	r3, #0
 800225c:	f884 3034 	strb.w	r3, [r4, #52]	; 0x34
 8002260:	bd70      	pop	{r4, r5, r6, pc}
 8002262:	6ca2      	ldr	r2, [r4, #72]	; 0x48
 8002264:	2a00      	cmp	r2, #0
 8002266:	d1d3      	bne.n	8002210 <HAL_DMA_Abort+0x38>
 8002268:	e7d6      	b.n	8002218 <HAL_DMA_Abort+0x40>
 800226a:	bf00      	nop

0800226c <HAL_DMA_Abort_IT>:
 800226c:	f890 3035 	ldrb.w	r3, [r0, #53]	; 0x35
 8002270:	2b02      	cmp	r3, #2
 8002272:	d003      	beq.n	800227c <HAL_DMA_Abort_IT+0x10>
 8002274:	2380      	movs	r3, #128	; 0x80
 8002276:	6543      	str	r3, [r0, #84]	; 0x54
 8002278:	2001      	movs	r0, #1
 800227a:	4770      	bx	lr
 800227c:	6802      	ldr	r2, [r0, #0]
 800227e:	2305      	movs	r3, #5
 8002280:	f880 3035 	strb.w	r3, [r0, #53]	; 0x35
 8002284:	6813      	ldr	r3, [r2, #0]
 8002286:	f023 0301 	bic.w	r3, r3, #1
 800228a:	2000      	movs	r0, #0
 800228c:	6013      	str	r3, [r2, #0]
 800228e:	4770      	bx	lr

08002290 <HAL_GPIO_Init>:
 8002290:	e92d 4ff0 	stmdb	sp!, {r4, r5, r6, r7, r8, r9, sl, fp, lr}
 8002294:	2200      	movs	r2, #0
 8002296:	680c      	ldr	r4, [r1, #0]
 8002298:	4e71      	ldr	r6, [pc, #452]	; (8002460 <HAL_GPIO_Init+0x1d0>)
 800229a:	b085      	sub	sp, #20
 800229c:	4613      	mov	r3, r2
 800229e:	f04f 0a01 	mov.w	sl, #1
 80022a2:	4689      	mov	r9, r1
 80022a4:	e004      	b.n	80022b0 <HAL_GPIO_Init+0x20>
 80022a6:	3301      	adds	r3, #1
 80022a8:	2b10      	cmp	r3, #16
 80022aa:	f102 0202 	add.w	r2, r2, #2
 80022ae:	d079      	beq.n	80023a4 <HAL_GPIO_Init+0x114>
 80022b0:	fa0a f103 	lsl.w	r1, sl, r3
 80022b4:	ea01 0b04 	and.w	fp, r1, r4
 80022b8:	43a1      	bics	r1, r4
 80022ba:	d1f4      	bne.n	80022a6 <HAL_GPIO_Init+0x16>
 80022bc:	f8d9 c004 	ldr.w	ip, [r9, #4]
 80022c0:	f00c 0103 	and.w	r1, ip, #3
 80022c4:	1e4d      	subs	r5, r1, #1
 80022c6:	2d01      	cmp	r5, #1
 80022c8:	d96f      	bls.n	80023aa <HAL_GPIO_Init+0x11a>
 80022ca:	2903      	cmp	r1, #3
 80022cc:	f040 80b0 	bne.w	8002430 <HAL_GPIO_Init+0x1a0>
 80022d0:	4091      	lsls	r1, r2
 80022d2:	43cd      	mvns	r5, r1
 80022d4:	6807      	ldr	r7, [r0, #0]
 80022d6:	403d      	ands	r5, r7
 80022d8:	4329      	orrs	r1, r5
 80022da:	f41c 3f40 	tst.w	ip, #196608	; 0x30000
 80022de:	6001      	str	r1, [r0, #0]
 80022e0:	d0e1      	beq.n	80022a6 <HAL_GPIO_Init+0x16>
 80022e2:	4d60      	ldr	r5, [pc, #384]	; (8002464 <HAL_GPIO_Init+0x1d4>)
 80022e4:	2100      	movs	r1, #0
 80022e6:	9103      	str	r1, [sp, #12]
 80022e8:	6c69      	ldr	r1, [r5, #68]	; 0x44
 80022ea:	f441 4180 	orr.w	r1, r1, #16384	; 0x4000
 80022ee:	6469      	str	r1, [r5, #68]	; 0x44
 80022f0:	6c69      	ldr	r1, [r5, #68]	; 0x44
 80022f2:	f401 4180 	and.w	r1, r1, #16384	; 0x4000
 80022f6:	9103      	str	r1, [sp, #12]
 80022f8:	9903      	ldr	r1, [sp, #12]
 80022fa:	f023 0103 	bic.w	r1, r3, #3
 80022fe:	f101 4180 	add.w	r1, r1, #1073741824	; 0x40000000
 8002302:	f501 319c 	add.w	r1, r1, #79872	; 0x13800
 8002306:	f003 0703 	and.w	r7, r3, #3
 800230a:	688d      	ldr	r5, [r1, #8]
 800230c:	00bf      	lsls	r7, r7, #2
 800230e:	f04f 0e0f 	mov.w	lr, #15
 8002312:	fa0e fe07 	lsl.w	lr, lr, r7
 8002316:	ea25 080e 	bic.w	r8, r5, lr
 800231a:	4d53      	ldr	r5, [pc, #332]	; (8002468 <HAL_GPIO_Init+0x1d8>)
 800231c:	42a8      	cmp	r0, r5
 800231e:	d017      	beq.n	8002350 <HAL_GPIO_Init+0xc0>
 8002320:	f505 6580 	add.w	r5, r5, #1024	; 0x400
 8002324:	42a8      	cmp	r0, r5
 8002326:	f000 8087 	beq.w	8002438 <HAL_GPIO_Init+0x1a8>
 800232a:	4d50      	ldr	r5, [pc, #320]	; (800246c <HAL_GPIO_Init+0x1dc>)
 800232c:	42a8      	cmp	r0, r5
 800232e:	f000 8088 	beq.w	8002442 <HAL_GPIO_Init+0x1b2>
 8002332:	4d4f      	ldr	r5, [pc, #316]	; (8002470 <HAL_GPIO_Init+0x1e0>)
 8002334:	42a8      	cmp	r0, r5
 8002336:	f000 808b 	beq.w	8002450 <HAL_GPIO_Init+0x1c0>
 800233a:	4d4e      	ldr	r5, [pc, #312]	; (8002474 <HAL_GPIO_Init+0x1e4>)
 800233c:	42a8      	cmp	r0, r5
 800233e:	bf0c      	ite	eq
 8002340:	f04f 0e04 	moveq.w	lr, #4
 8002344:	f04f 0e07 	movne.w	lr, #7
 8002348:	fa0e f707 	lsl.w	r7, lr, r7
 800234c:	ea48 0807 	orr.w	r8, r8, r7
 8002350:	f8c1 8008 	str.w	r8, [r1, #8]
 8002354:	68b1      	ldr	r1, [r6, #8]
 8002356:	ea6f 050b 	mvn.w	r5, fp
 800235a:	f41c 1f80 	tst.w	ip, #1048576	; 0x100000
 800235e:	bf0c      	ite	eq
 8002360:	4029      	andeq	r1, r5
 8002362:	ea4b 0101 	orrne.w	r1, fp, r1
 8002366:	60b1      	str	r1, [r6, #8]
 8002368:	68f1      	ldr	r1, [r6, #12]
 800236a:	f41c 1f00 	tst.w	ip, #2097152	; 0x200000
 800236e:	bf0c      	ite	eq
 8002370:	4029      	andeq	r1, r5
 8002372:	ea4b 0101 	orrne.w	r1, fp, r1
 8002376:	60f1      	str	r1, [r6, #12]
 8002378:	6871      	ldr	r1, [r6, #4]
 800237a:	f41c 3f00 	tst.w	ip, #131072	; 0x20000
 800237e:	bf0c      	ite	eq
 8002380:	4029      	andeq	r1, r5
 8002382:	ea4b 0101 	orrne.w	r1, fp, r1
 8002386:	6071      	str	r1, [r6, #4]
 8002388:	6831      	ldr	r1, [r6, #0]
 800238a:	f41c 3f80 	tst.w	ip, #65536	; 0x10000
 800238e:	f103 0301 	add.w	r3, r3, #1
 8002392:	bf0c      	ite	eq
 8002394:	4029      	andeq	r1, r5
 8002396:	ea4b 0101 	orrne.w	r1, fp, r1
 800239a:	2b10      	cmp	r3, #16
 800239c:	6031      	str	r1, [r6, #0]
 800239e:	f102 0202 	add.w	r2, r2, #2
 80023a2:	d185      	bne.n	80022b0 <HAL_GPIO_Init+0x20>
 80023a4:	b005      	add	sp, #20
 80023a6:	e8bd 8ff0 	ldmia.w	sp!, {r4, r5, r6, r7, r8, r9, sl, fp, pc}
 80023aa:	f8d9 500c 	ldr.w	r5, [r9, #12]
 80023ae:	f8d0 e008 	ldr.w	lr, [r0, #8]
 80023b2:	fa05 f702 	lsl.w	r7, r5, r2
 80023b6:	2503      	movs	r5, #3
 80023b8:	fa05 f802 	lsl.w	r8, r5, r2
 80023bc:	ea2e 0e08 	bic.w	lr, lr, r8
 80023c0:	ea47 070e 	orr.w	r7, r7, lr
 80023c4:	6087      	str	r7, [r0, #8]
 80023c6:	6847      	ldr	r7, [r0, #4]
 80023c8:	ea27 0e0b 	bic.w	lr, r7, fp
 80023cc:	f3cc 1700 	ubfx	r7, ip, #4, #1
 80023d0:	409f      	lsls	r7, r3
 80023d2:	ea47 070e 	orr.w	r7, r7, lr
 80023d6:	ea6f 0508 	mvn.w	r5, r8
 80023da:	6047      	str	r7, [r0, #4]
 80023dc:	68c7      	ldr	r7, [r0, #12]
 80023de:	ea07 0e05 	and.w	lr, r7, r5
 80023e2:	f8d9 7008 	ldr.w	r7, [r9, #8]
 80023e6:	4097      	lsls	r7, r2
 80023e8:	ea47 070e 	orr.w	r7, r7, lr
 80023ec:	2902      	cmp	r1, #2
 80023ee:	60c7      	str	r7, [r0, #12]
 80023f0:	fa01 f102 	lsl.w	r1, r1, r2
 80023f4:	f47f af6e 	bne.w	80022d4 <HAL_GPIO_Init+0x44>
 80023f8:	ea4f 0ed3 	mov.w	lr, r3, lsr #3
 80023fc:	eb00 0e8e 	add.w	lr, r0, lr, lsl #2
 8002400:	f003 0807 	and.w	r8, r3, #7
 8002404:	f8de 7020 	ldr.w	r7, [lr, #32]
 8002408:	9700      	str	r7, [sp, #0]
 800240a:	f8d9 7010 	ldr.w	r7, [r9, #16]
 800240e:	ea4f 0888 	mov.w	r8, r8, lsl #2
 8002412:	fa07 f708 	lsl.w	r7, r7, r8
 8002416:	9701      	str	r7, [sp, #4]
 8002418:	270f      	movs	r7, #15
 800241a:	fa07 f808 	lsl.w	r8, r7, r8
 800241e:	9f00      	ldr	r7, [sp, #0]
 8002420:	ea27 0808 	bic.w	r8, r7, r8
 8002424:	9f01      	ldr	r7, [sp, #4]
 8002426:	ea47 0708 	orr.w	r7, r7, r8
 800242a:	f8ce 7020 	str.w	r7, [lr, #32]
 800242e:	e751      	b.n	80022d4 <HAL_GPIO_Init+0x44>
 8002430:	2503      	movs	r5, #3
 8002432:	4095      	lsls	r5, r2
 8002434:	43ed      	mvns	r5, r5
 8002436:	e7d1      	b.n	80023dc <HAL_GPIO_Init+0x14c>
 8002438:	fa0a f707 	lsl.w	r7, sl, r7
 800243c:	ea48 0807 	orr.w	r8, r8, r7
 8002440:	e786      	b.n	8002350 <HAL_GPIO_Init+0xc0>
 8002442:	f04f 0e02 	mov.w	lr, #2
 8002446:	fa0e f707 	lsl.w	r7, lr, r7
 800244a:	ea48 0807 	orr.w	r8, r8, r7
 800244e:	e77f      	b.n	8002350 <HAL_GPIO_Init+0xc0>
 8002450:	f04f 0e03 	mov.w	lr, #3
 8002454:	fa0e f707 	lsl.w	r7, lr, r7
 8002458:	ea48 0807 	orr.w	r8, r8, r7
 800245c:	e778      	b.n	8002350 <HAL_GPIO_Init+0xc0>
 800245e:	bf00      	nop
 8002460:	40013c00 	.word	0x40013c00
 8002464:	40023800 	.word	0x40023800
 8002468:	40020000 	.word	0x40020000
 800246c:	40020800 	.word	0x40020800
 8002470:	40020c00 	.word	0x40020c00
 8002474:	40021000 	.word	0x40021000

08002478 <HAL_GPIO_DeInit>:
 8002478:	e92d 4ff0 	stmdb	sp!, {r4, r5, r6, r7, r8, r9, sl, fp, lr}
 800247c:	2300      	movs	r3, #0
 800247e:	f8df b10c 	ldr.w	fp, [pc, #268]	; 800258c <HAL_GPIO_DeInit+0x114>
 8002482:	2601      	movs	r6, #1
 8002484:	f04f 090f 	mov.w	r9, #15
 8002488:	f04f 0a03 	mov.w	sl, #3
 800248c:	e002      	b.n	8002494 <HAL_GPIO_DeInit+0x1c>
 800248e:	3301      	adds	r3, #1
 8002490:	2b10      	cmp	r3, #16
 8002492:	d064      	beq.n	800255e <HAL_GPIO_DeInit+0xe6>
 8002494:	fa06 f203 	lsl.w	r2, r6, r3
 8002498:	ea32 0401 	bics.w	r4, r2, r1
 800249c:	ea02 0c01 	and.w	ip, r2, r1
 80024a0:	d1f5      	bne.n	800248e <HAL_GPIO_DeInit+0x16>
 80024a2:	f023 0503 	bic.w	r5, r3, #3
 80024a6:	f105 4580 	add.w	r5, r5, #1073741824	; 0x40000000
 80024aa:	f505 359c 	add.w	r5, r5, #79872	; 0x13800
 80024ae:	f003 0403 	and.w	r4, r3, #3
 80024b2:	00a4      	lsls	r4, r4, #2
 80024b4:	f8d5 e008 	ldr.w	lr, [r5, #8]
 80024b8:	fa09 f804 	lsl.w	r8, r9, r4
 80024bc:	4558      	cmp	r0, fp
 80024be:	4627      	mov	r7, r4
 80024c0:	ea08 0e0e 	and.w	lr, r8, lr
 80024c4:	d04d      	beq.n	8002562 <HAL_GPIO_DeInit+0xea>
 80024c6:	4c2c      	ldr	r4, [pc, #176]	; (8002578 <HAL_GPIO_DeInit+0x100>)
 80024c8:	42a0      	cmp	r0, r4
 80024ca:	d04c      	beq.n	8002566 <HAL_GPIO_DeInit+0xee>
 80024cc:	4c2b      	ldr	r4, [pc, #172]	; (800257c <HAL_GPIO_DeInit+0x104>)
 80024ce:	42a0      	cmp	r0, r4
 80024d0:	d04c      	beq.n	800256c <HAL_GPIO_DeInit+0xf4>
 80024d2:	4c2b      	ldr	r4, [pc, #172]	; (8002580 <HAL_GPIO_DeInit+0x108>)
 80024d4:	42a0      	cmp	r0, r4
 80024d6:	d04c      	beq.n	8002572 <HAL_GPIO_DeInit+0xfa>
 80024d8:	4c2a      	ldr	r4, [pc, #168]	; (8002584 <HAL_GPIO_DeInit+0x10c>)
 80024da:	42a0      	cmp	r0, r4
 80024dc:	bf14      	ite	ne
 80024de:	2407      	movne	r4, #7
 80024e0:	2404      	moveq	r4, #4
 80024e2:	40bc      	lsls	r4, r7
 80024e4:	45a6      	cmp	lr, r4
 80024e6:	d115      	bne.n	8002514 <HAL_GPIO_DeInit+0x9c>
 80024e8:	4c27      	ldr	r4, [pc, #156]	; (8002588 <HAL_GPIO_DeInit+0x110>)
 80024ea:	4f27      	ldr	r7, [pc, #156]	; (8002588 <HAL_GPIO_DeInit+0x110>)
 80024ec:	6824      	ldr	r4, [r4, #0]
 80024ee:	ea24 040c 	bic.w	r4, r4, ip
 80024f2:	603c      	str	r4, [r7, #0]
 80024f4:	687c      	ldr	r4, [r7, #4]
 80024f6:	ea24 040c 	bic.w	r4, r4, ip
 80024fa:	607c      	str	r4, [r7, #4]
 80024fc:	68fc      	ldr	r4, [r7, #12]
 80024fe:	ea24 040c 	bic.w	r4, r4, ip
 8002502:	60fc      	str	r4, [r7, #12]
 8002504:	68bc      	ldr	r4, [r7, #8]
 8002506:	ea24 040c 	bic.w	r4, r4, ip
 800250a:	60bc      	str	r4, [r7, #8]
 800250c:	68ac      	ldr	r4, [r5, #8]
 800250e:	ea24 0408 	bic.w	r4, r4, r8
 8002512:	60ac      	str	r4, [r5, #8]
 8002514:	6805      	ldr	r5, [r0, #0]
 8002516:	005c      	lsls	r4, r3, #1
 8002518:	fa0a f404 	lsl.w	r4, sl, r4
 800251c:	ea4f 0cd3 	mov.w	ip, r3, lsr #3
 8002520:	ea25 0504 	bic.w	r5, r5, r4
 8002524:	eb00 0c8c 	add.w	ip, r0, ip, lsl #2
 8002528:	6005      	str	r5, [r0, #0]
 800252a:	f003 0507 	and.w	r5, r3, #7
 800252e:	f8dc e020 	ldr.w	lr, [ip, #32]
 8002532:	00ad      	lsls	r5, r5, #2
 8002534:	fa09 f505 	lsl.w	r5, r9, r5
 8002538:	ea2e 0505 	bic.w	r5, lr, r5
 800253c:	f8cc 5020 	str.w	r5, [ip, #32]
 8002540:	68c5      	ldr	r5, [r0, #12]
 8002542:	ea25 0504 	bic.w	r5, r5, r4
 8002546:	60c5      	str	r5, [r0, #12]
 8002548:	6845      	ldr	r5, [r0, #4]
 800254a:	ea25 0202 	bic.w	r2, r5, r2
 800254e:	6042      	str	r2, [r0, #4]
 8002550:	6882      	ldr	r2, [r0, #8]
 8002552:	3301      	adds	r3, #1
 8002554:	ea22 0204 	bic.w	r2, r2, r4
 8002558:	2b10      	cmp	r3, #16
 800255a:	6082      	str	r2, [r0, #8]
 800255c:	d19a      	bne.n	8002494 <HAL_GPIO_DeInit+0x1c>
 800255e:	e8bd 8ff0 	ldmia.w	sp!, {r4, r5, r6, r7, r8, r9, sl, fp, pc}
 8002562:	2400      	movs	r4, #0
 8002564:	e7be      	b.n	80024e4 <HAL_GPIO_DeInit+0x6c>
 8002566:	fa06 f407 	lsl.w	r4, r6, r7
 800256a:	e7bb      	b.n	80024e4 <HAL_GPIO_DeInit+0x6c>
 800256c:	2402      	movs	r4, #2
 800256e:	40bc      	lsls	r4, r7
 8002570:	e7b8      	b.n	80024e4 <HAL_GPIO_DeInit+0x6c>
 8002572:	fa0a f407 	lsl.w	r4, sl, r7
 8002576:	e7b5      	b.n	80024e4 <HAL_GPIO_DeInit+0x6c>
 8002578:	40020400 	.word	0x40020400
 800257c:	40020800 	.word	0x40020800
 8002580:	40020c00 	.word	0x40020c00
 8002584:	40021000 	.word	0x40021000
 8002588:	40013c00 	.word	0x40013c00
 800258c:	40020000 	.word	0x40020000

08002590 <HAL_GPIO_ReadPin>:
 8002590:	6903      	ldr	r3, [r0, #16]
 8002592:	4219      	tst	r1, r3
 8002594:	bf14      	ite	ne
 8002596:	2001      	movne	r0, #1
 8002598:	2000      	moveq	r0, #0
 800259a:	4770      	bx	lr

0800259c <HAL_GPIO_WritePin>:
 800259c:	b902      	cbnz	r2, 80025a0 <HAL_GPIO_WritePin+0x4>
 800259e:	0409      	lsls	r1, r1, #16
 80025a0:	6181      	str	r1, [r0, #24]
 80025a2:	4770      	bx	lr

080025a4 <HAL_PCD_Init>:
 80025a4:	b5f0      	push	{r4, r5, r6, r7, lr}
 80025a6:	b08b      	sub	sp, #44	; 0x2c
 80025a8:	2800      	cmp	r0, #0
 80025aa:	f000 8085 	beq.w	80026b8 <HAL_PCD_Init+0x114>
 80025ae:	f890 34bd 	ldrb.w	r3, [r0, #1213]	; 0x4bd
 80025b2:	6804      	ldr	r4, [r0, #0]
 80025b4:	4605      	mov	r5, r0
 80025b6:	f003 02ff 	and.w	r2, r3, #255	; 0xff
 80025ba:	2b00      	cmp	r3, #0
 80025bc:	d076      	beq.n	80026ac <HAL_PCD_Init+0x108>
 80025be:	4620      	mov	r0, r4
 80025c0:	2303      	movs	r3, #3
 80025c2:	f885 34bd 	strb.w	r3, [r5, #1213]	; 0x4bd
 80025c6:	6be3      	ldr	r3, [r4, #60]	; 0x3c
 80025c8:	462e      	mov	r6, r5
 80025ca:	f413 7380 	ands.w	r3, r3, #256	; 0x100
 80025ce:	bf08      	it	eq
 80025d0:	612b      	streq	r3, [r5, #16]
 80025d2:	f002 fd43 	bl	800505c <USB_DisableGlobalInt>
 80025d6:	f856 eb10 	ldr.w	lr, [r6], #16
 80025da:	46b4      	mov	ip, r6
 80025dc:	e8bc 000f 	ldmia.w	ip!, {r0, r1, r2, r3}
 80025e0:	466c      	mov	r4, sp
 80025e2:	c40f      	stmia	r4!, {r0, r1, r2, r3}
 80025e4:	e8bc 000f 	ldmia.w	ip!, {r0, r1, r2, r3}
 80025e8:	c40f      	stmia	r4!, {r0, r1, r2, r3}
 80025ea:	e89c 0003 	ldmia.w	ip, {r0, r1}
 80025ee:	e884 0003 	stmia.w	r4, {r0, r1}
 80025f2:	1d2f      	adds	r7, r5, #4
 80025f4:	e897 000e 	ldmia.w	r7, {r1, r2, r3}
 80025f8:	4670      	mov	r0, lr
 80025fa:	f002 fc2b 	bl	8004e54 <USB_CoreInit>
 80025fe:	4604      	mov	r4, r0
 8002600:	b130      	cbz	r0, 8002610 <HAL_PCD_Init+0x6c>
 8002602:	2401      	movs	r4, #1
 8002604:	2302      	movs	r3, #2
 8002606:	4620      	mov	r0, r4
 8002608:	f885 34bd 	strb.w	r3, [r5, #1213]	; 0x4bd
 800260c:	b00b      	add	sp, #44	; 0x2c
 800260e:	bdf0      	pop	{r4, r5, r6, r7, pc}
 8002610:	4601      	mov	r1, r0
 8002612:	6828      	ldr	r0, [r5, #0]
 8002614:	f002 fd2a 	bl	800506c <USB_SetCurrentMode>
 8002618:	6868      	ldr	r0, [r5, #4]
 800261a:	b358      	cbz	r0, 8002674 <HAL_PCD_Init+0xd0>
 800261c:	4622      	mov	r2, r4
 800261e:	f04f 0e01 	mov.w	lr, #1
 8002622:	4621      	mov	r1, r4
 8002624:	eb02 03c2 	add.w	r3, r2, r2, lsl #3
 8002628:	eb05 0383 	add.w	r3, r5, r3, lsl #2
 800262c:	f102 0c01 	add.w	ip, r2, #1
 8002630:	f883 203c 	strb.w	r2, [r3, #60]	; 0x3c
 8002634:	f8a3 2044 	strh.w	r2, [r3, #68]	; 0x44
 8002638:	fa5f f28c 	uxtb.w	r2, ip
 800263c:	4282      	cmp	r2, r0
 800263e:	e9c3 1112 	strd	r1, r1, [r3, #72]	; 0x48
 8002642:	f883 e03d 	strb.w	lr, [r3, #61]	; 0x3d
 8002646:	f883 1040 	strb.w	r1, [r3, #64]	; 0x40
 800264a:	6559      	str	r1, [r3, #84]	; 0x54
 800264c:	d3ea      	bcc.n	8002624 <HAL_PCD_Init+0x80>
 800264e:	2200      	movs	r2, #0
 8002650:	eb04 03c4 	add.w	r3, r4, r4, lsl #3
 8002654:	eb05 0383 	add.w	r3, r5, r3, lsl #2
 8002658:	1c61      	adds	r1, r4, #1
 800265a:	f883 427c 	strb.w	r4, [r3, #636]	; 0x27c
 800265e:	b2cc      	uxtb	r4, r1
 8002660:	4284      	cmp	r4, r0
 8002662:	e9c3 22a2 	strd	r2, r2, [r3, #648]	; 0x288
 8002666:	f883 227d 	strb.w	r2, [r3, #637]	; 0x27d
 800266a:	f883 2280 	strb.w	r2, [r3, #640]	; 0x280
 800266e:	f8c3 2294 	str.w	r2, [r3, #660]	; 0x294
 8002672:	d3ed      	bcc.n	8002650 <HAL_PCD_Init+0xac>
 8002674:	ce0f      	ldmia	r6!, {r0, r1, r2, r3}
 8002676:	466c      	mov	r4, sp
 8002678:	c40f      	stmia	r4!, {r0, r1, r2, r3}
 800267a:	ce0f      	ldmia	r6!, {r0, r1, r2, r3}
 800267c:	c40f      	stmia	r4!, {r0, r1, r2, r3}
 800267e:	e896 0003 	ldmia.w	r6, {r0, r1}
 8002682:	e884 0003 	stmia.w	r4, {r0, r1}
 8002686:	e897 000e 	ldmia.w	r7, {r1, r2, r3}
 800268a:	6828      	ldr	r0, [r5, #0]
 800268c:	f002 fd26 	bl	80050dc <USB_DevInit>
 8002690:	4604      	mov	r4, r0
 8002692:	2800      	cmp	r0, #0
 8002694:	d1b5      	bne.n	8002602 <HAL_PCD_Init+0x5e>
 8002696:	2301      	movs	r3, #1
 8002698:	f885 0038 	strb.w	r0, [r5, #56]	; 0x38
 800269c:	6828      	ldr	r0, [r5, #0]
 800269e:	f885 34bd 	strb.w	r3, [r5, #1213]	; 0x4bd
 80026a2:	f003 f9cb 	bl	8005a3c <USB_DevDisconnect>
 80026a6:	4620      	mov	r0, r4
 80026a8:	b00b      	add	sp, #44	; 0x2c
 80026aa:	bdf0      	pop	{r4, r5, r6, r7, pc}
 80026ac:	f880 24bc 	strb.w	r2, [r0, #1212]	; 0x4bc
 80026b0:	f7ff f8d8 	bl	8001864 <HAL_PCD_MspInit>
 80026b4:	6828      	ldr	r0, [r5, #0]
 80026b6:	e783      	b.n	80025c0 <HAL_PCD_Init+0x1c>
 80026b8:	2401      	movs	r4, #1
 80026ba:	4620      	mov	r0, r4
 80026bc:	b00b      	add	sp, #44	; 0x2c
 80026be:	bdf0      	pop	{r4, r5, r6, r7, pc}

080026c0 <HAL_PCD_Start>:
 80026c0:	b510      	push	{r4, lr}
 80026c2:	f890 34bc 	ldrb.w	r3, [r0, #1212]	; 0x4bc
 80026c6:	2b01      	cmp	r3, #1
 80026c8:	4604      	mov	r4, r0
 80026ca:	6800      	ldr	r0, [r0, #0]
 80026cc:	d016      	beq.n	80026fc <HAL_PCD_Start+0x3c>
 80026ce:	6aa3      	ldr	r3, [r4, #40]	; 0x28
 80026d0:	2201      	movs	r2, #1
 80026d2:	4293      	cmp	r3, r2
 80026d4:	f884 24bc 	strb.w	r2, [r4, #1212]	; 0x4bc
 80026d8:	d008      	beq.n	80026ec <HAL_PCD_Start+0x2c>
 80026da:	f002 fcb7 	bl	800504c <USB_EnableGlobalInt>
 80026de:	6820      	ldr	r0, [r4, #0]
 80026e0:	f003 f99c 	bl	8005a1c <USB_DevConnect>
 80026e4:	2000      	movs	r0, #0
 80026e6:	f884 04bc 	strb.w	r0, [r4, #1212]	; 0x4bc
 80026ea:	bd10      	pop	{r4, pc}
 80026ec:	69a3      	ldr	r3, [r4, #24]
 80026ee:	4293      	cmp	r3, r2
 80026f0:	d0f3      	beq.n	80026da <HAL_PCD_Start+0x1a>
 80026f2:	6b83      	ldr	r3, [r0, #56]	; 0x38
 80026f4:	f443 3380 	orr.w	r3, r3, #65536	; 0x10000
 80026f8:	6383      	str	r3, [r0, #56]	; 0x38
 80026fa:	e7ee      	b.n	80026da <HAL_PCD_Start+0x1a>
 80026fc:	2002      	movs	r0, #2
 80026fe:	bd10      	pop	{r4, pc}

08002700 <HAL_PCD_IRQHandler>:
 8002700:	e92d 4ff0 	stmdb	sp!, {r4, r5, r6, r7, r8, r9, sl, fp, lr}
 8002704:	6805      	ldr	r5, [r0, #0]
 8002706:	b089      	sub	sp, #36	; 0x24
 8002708:	4604      	mov	r4, r0
 800270a:	4628      	mov	r0, r5
 800270c:	f003 f9d4 	bl	8005ab8 <USB_GetMode>
 8002710:	b110      	cbz	r0, 8002718 <HAL_PCD_IRQHandler+0x18>
 8002712:	b009      	add	sp, #36	; 0x24
 8002714:	e8bd 8ff0 	ldmia.w	sp!, {r4, r5, r6, r7, r8, r9, sl, fp, pc}
 8002718:	4683      	mov	fp, r0
 800271a:	6820      	ldr	r0, [r4, #0]
 800271c:	f003 f99e 	bl	8005a5c <USB_ReadInterrupts>
 8002720:	2800      	cmp	r0, #0
 8002722:	d0f6      	beq.n	8002712 <HAL_PCD_IRQHandler+0x12>
 8002724:	f8d5 3808 	ldr.w	r3, [r5, #2056]	; 0x808
 8002728:	6820      	ldr	r0, [r4, #0]
 800272a:	f3c3 230d 	ubfx	r3, r3, #8, #14
 800272e:	f8c4 34fc 	str.w	r3, [r4, #1276]	; 0x4fc
 8002732:	f003 f993 	bl	8005a5c <USB_ReadInterrupts>
 8002736:	f010 0f02 	tst.w	r0, #2
 800273a:	6820      	ldr	r0, [r4, #0]
 800273c:	f505 6300 	add.w	r3, r5, #2048	; 0x800
 8002740:	9303      	str	r3, [sp, #12]
 8002742:	bf1e      	ittt	ne
 8002744:	6943      	ldrne	r3, [r0, #20]
 8002746:	f003 0302 	andne.w	r3, r3, #2
 800274a:	6143      	strne	r3, [r0, #20]
 800274c:	f003 f986 	bl	8005a5c <USB_ReadInterrupts>
 8002750:	f010 0f10 	tst.w	r0, #16
 8002754:	6820      	ldr	r0, [r4, #0]
 8002756:	d012      	beq.n	800277e <HAL_PCD_IRQHandler+0x7e>
 8002758:	6983      	ldr	r3, [r0, #24]
 800275a:	f023 0310 	bic.w	r3, r3, #16
 800275e:	6183      	str	r3, [r0, #24]
 8002760:	6a2e      	ldr	r6, [r5, #32]
 8002762:	f3c6 4343 	ubfx	r3, r6, #17, #4
 8002766:	2b02      	cmp	r3, #2
 8002768:	f006 070f 	and.w	r7, r6, #15
 800276c:	f000 83ca 	beq.w	8002f04 <HAL_PCD_IRQHandler+0x804>
 8002770:	2b06      	cmp	r3, #6
 8002772:	f000 8307 	beq.w	8002d84 <HAL_PCD_IRQHandler+0x684>
 8002776:	6983      	ldr	r3, [r0, #24]
 8002778:	f043 0310 	orr.w	r3, r3, #16
 800277c:	6183      	str	r3, [r0, #24]
 800277e:	f003 f96d 	bl	8005a5c <USB_ReadInterrupts>
 8002782:	0307      	lsls	r7, r0, #12
 8002784:	f100 8269 	bmi.w	8002c5a <HAL_PCD_IRQHandler+0x55a>
 8002788:	6820      	ldr	r0, [r4, #0]
 800278a:	f003 f967 	bl	8005a5c <USB_ReadInterrupts>
 800278e:	0346      	lsls	r6, r0, #13
 8002790:	f100 8211 	bmi.w	8002bb6 <HAL_PCD_IRQHandler+0x4b6>
 8002794:	6820      	ldr	r0, [r4, #0]
 8002796:	f003 f961 	bl	8005a5c <USB_ReadInterrupts>
 800279a:	2800      	cmp	r0, #0
 800279c:	f2c0 8182 	blt.w	8002aa4 <HAL_PCD_IRQHandler+0x3a4>
 80027a0:	6820      	ldr	r0, [r4, #0]
 80027a2:	f003 f95b 	bl	8005a5c <USB_ReadInterrupts>
 80027a6:	0507      	lsls	r7, r0, #20
 80027a8:	f100 813d 	bmi.w	8002a26 <HAL_PCD_IRQHandler+0x326>
 80027ac:	6820      	ldr	r0, [r4, #0]
 80027ae:	f003 f955 	bl	8005a5c <USB_ReadInterrupts>
 80027b2:	04c0      	lsls	r0, r0, #19
 80027b4:	f100 81a0 	bmi.w	8002af8 <HAL_PCD_IRQHandler+0x3f8>
 80027b8:	6820      	ldr	r0, [r4, #0]
 80027ba:	f003 f94f 	bl	8005a5c <USB_ReadInterrupts>
 80027be:	f410 5f00 	tst.w	r0, #8192	; 0x2000
 80027c2:	6820      	ldr	r0, [r4, #0]
 80027c4:	f040 8181 	bne.w	8002aca <HAL_PCD_IRQHandler+0x3ca>
 80027c8:	f003 f948 	bl	8005a5c <USB_ReadInterrupts>
 80027cc:	0701      	lsls	r1, r0, #28
 80027ce:	f100 81e9 	bmi.w	8002ba4 <HAL_PCD_IRQHandler+0x4a4>
 80027d2:	6820      	ldr	r0, [r4, #0]
 80027d4:	f003 f942 	bl	8005a5c <USB_ReadInterrupts>
 80027d8:	0602      	lsls	r2, r0, #24
 80027da:	d571      	bpl.n	80028c0 <HAL_PCD_IRQHandler+0x1c0>
 80027dc:	69aa      	ldr	r2, [r5, #24]
 80027de:	6863      	ldr	r3, [r4, #4]
 80027e0:	f022 0280 	bic.w	r2, r2, #128	; 0x80
 80027e4:	2b01      	cmp	r3, #1
 80027e6:	61aa      	str	r2, [r5, #24]
 80027e8:	d96a      	bls.n	80028c0 <HAL_PCD_IRQHandler+0x1c0>
 80027ea:	f894 22a3 	ldrb.w	r2, [r4, #675]	; 0x2a3
 80027ee:	2a01      	cmp	r2, #1
 80027f0:	f000 83e9 	beq.w	8002fc6 <HAL_PCD_IRQHandler+0x8c6>
 80027f4:	2b02      	cmp	r3, #2
 80027f6:	d963      	bls.n	80028c0 <HAL_PCD_IRQHandler+0x1c0>
 80027f8:	f894 22c7 	ldrb.w	r2, [r4, #711]	; 0x2c7
 80027fc:	2a01      	cmp	r2, #1
 80027fe:	f000 83fd 	beq.w	8002ffc <HAL_PCD_IRQHandler+0x8fc>
 8002802:	2b03      	cmp	r3, #3
 8002804:	d95c      	bls.n	80028c0 <HAL_PCD_IRQHandler+0x1c0>
 8002806:	f894 22eb 	ldrb.w	r2, [r4, #747]	; 0x2eb
 800280a:	2a01      	cmp	r2, #1
 800280c:	f000 82b3 	beq.w	8002d76 <HAL_PCD_IRQHandler+0x676>
 8002810:	2b04      	cmp	r3, #4
 8002812:	d955      	bls.n	80028c0 <HAL_PCD_IRQHandler+0x1c0>
 8002814:	f894 230f 	ldrb.w	r2, [r4, #783]	; 0x30f
 8002818:	2a01      	cmp	r2, #1
 800281a:	f000 82c6 	beq.w	8002daa <HAL_PCD_IRQHandler+0x6aa>
 800281e:	2b05      	cmp	r3, #5
 8002820:	d94e      	bls.n	80028c0 <HAL_PCD_IRQHandler+0x1c0>
 8002822:	f894 2333 	ldrb.w	r2, [r4, #819]	; 0x333
 8002826:	2a01      	cmp	r2, #1
 8002828:	f000 8425 	beq.w	8003076 <HAL_PCD_IRQHandler+0x976>
 800282c:	2b06      	cmp	r3, #6
 800282e:	d947      	bls.n	80028c0 <HAL_PCD_IRQHandler+0x1c0>
 8002830:	f894 2357 	ldrb.w	r2, [r4, #855]	; 0x357
 8002834:	2a01      	cmp	r2, #1
 8002836:	f000 8432 	beq.w	800309e <HAL_PCD_IRQHandler+0x99e>
 800283a:	2b07      	cmp	r3, #7
 800283c:	d940      	bls.n	80028c0 <HAL_PCD_IRQHandler+0x1c0>
 800283e:	f894 237b 	ldrb.w	r2, [r4, #891]	; 0x37b
 8002842:	2a01      	cmp	r2, #1
 8002844:	f000 8448 	beq.w	80030d8 <HAL_PCD_IRQHandler+0x9d8>
 8002848:	2b08      	cmp	r3, #8
 800284a:	d939      	bls.n	80028c0 <HAL_PCD_IRQHandler+0x1c0>
 800284c:	f894 239f 	ldrb.w	r2, [r4, #927]	; 0x39f
 8002850:	2a01      	cmp	r2, #1
 8002852:	f000 8455 	beq.w	8003100 <HAL_PCD_IRQHandler+0xa00>
 8002856:	2b09      	cmp	r3, #9
 8002858:	d932      	bls.n	80028c0 <HAL_PCD_IRQHandler+0x1c0>
 800285a:	f894 23c3 	ldrb.w	r2, [r4, #963]	; 0x3c3
 800285e:	2a01      	cmp	r2, #1
 8002860:	f000 8462 	beq.w	8003128 <HAL_PCD_IRQHandler+0xa28>
 8002864:	2b0a      	cmp	r3, #10
 8002866:	d92b      	bls.n	80028c0 <HAL_PCD_IRQHandler+0x1c0>
 8002868:	f894 23e7 	ldrb.w	r2, [r4, #999]	; 0x3e7
 800286c:	2a01      	cmp	r2, #1
 800286e:	f000 846f 	beq.w	8003150 <HAL_PCD_IRQHandler+0xa50>
 8002872:	2b0b      	cmp	r3, #11
 8002874:	d924      	bls.n	80028c0 <HAL_PCD_IRQHandler+0x1c0>
 8002876:	f894 240b 	ldrb.w	r2, [r4, #1035]	; 0x40b
 800287a:	2a01      	cmp	r2, #1
 800287c:	f000 847c 	beq.w	8003178 <HAL_PCD_IRQHandler+0xa78>
 8002880:	2b0c      	cmp	r3, #12
 8002882:	d91d      	bls.n	80028c0 <HAL_PCD_IRQHandler+0x1c0>
 8002884:	f894 242f 	ldrb.w	r2, [r4, #1071]	; 0x42f
 8002888:	2a01      	cmp	r2, #1
 800288a:	f000 847d 	beq.w	8003188 <HAL_PCD_IRQHandler+0xa88>
 800288e:	2b0d      	cmp	r3, #13
 8002890:	d916      	bls.n	80028c0 <HAL_PCD_IRQHandler+0x1c0>
 8002892:	f894 2453 	ldrb.w	r2, [r4, #1107]	; 0x453
 8002896:	2a01      	cmp	r2, #1
 8002898:	f000 849d 	beq.w	80031d6 <HAL_PCD_IRQHandler+0xad6>
 800289c:	2b0e      	cmp	r3, #14
 800289e:	d90f      	bls.n	80028c0 <HAL_PCD_IRQHandler+0x1c0>
 80028a0:	f894 2477 	ldrb.w	r2, [r4, #1143]	; 0x477
 80028a4:	2a01      	cmp	r2, #1
 80028a6:	f000 84a4 	beq.w	80031f2 <HAL_PCD_IRQHandler+0xaf2>
 80028aa:	2b0f      	cmp	r3, #15
 80028ac:	d908      	bls.n	80028c0 <HAL_PCD_IRQHandler+0x1c0>
 80028ae:	f894 349b 	ldrb.w	r3, [r4, #1179]	; 0x49b
 80028b2:	2b01      	cmp	r3, #1
 80028b4:	d104      	bne.n	80028c0 <HAL_PCD_IRQHandler+0x1c0>
 80028b6:	6820      	ldr	r0, [r4, #0]
 80028b8:	f504 6193 	add.w	r1, r4, #1176	; 0x498
 80028bc:	f002 ffc4 	bl	8005848 <USB_EPStopXfer>
 80028c0:	6820      	ldr	r0, [r4, #0]
 80028c2:	f003 f8cb 	bl	8005a5c <USB_ReadInterrupts>
 80028c6:	02c3      	lsls	r3, r0, #11
 80028c8:	f140 80ab 	bpl.w	8002a22 <HAL_PCD_IRQHandler+0x322>
 80028cc:	6863      	ldr	r3, [r4, #4]
 80028ce:	2b01      	cmp	r3, #1
 80028d0:	f240 8089 	bls.w	80029e6 <HAL_PCD_IRQHandler+0x2e6>
 80028d4:	f894 2064 	ldrb.w	r2, [r4, #100]	; 0x64
 80028d8:	f8d5 1920 	ldr.w	r1, [r5, #2336]	; 0x920
 80028dc:	2a01      	cmp	r2, #1
 80028de:	f000 8213 	beq.w	8002d08 <HAL_PCD_IRQHandler+0x608>
 80028e2:	2b02      	cmp	r3, #2
 80028e4:	d97f      	bls.n	80029e6 <HAL_PCD_IRQHandler+0x2e6>
 80028e6:	f894 2088 	ldrb.w	r2, [r4, #136]	; 0x88
 80028ea:	f8d5 1940 	ldr.w	r1, [r5, #2368]	; 0x940
 80028ee:	2a01      	cmp	r2, #1
 80028f0:	f000 821d 	beq.w	8002d2e <HAL_PCD_IRQHandler+0x62e>
 80028f4:	2b03      	cmp	r3, #3
 80028f6:	d976      	bls.n	80029e6 <HAL_PCD_IRQHandler+0x2e6>
 80028f8:	f894 20ac 	ldrb.w	r2, [r4, #172]	; 0xac
 80028fc:	f8d5 1960 	ldr.w	r1, [r5, #2400]	; 0x960
 8002900:	2a01      	cmp	r2, #1
 8002902:	f000 8220 	beq.w	8002d46 <HAL_PCD_IRQHandler+0x646>
 8002906:	2b04      	cmp	r3, #4
 8002908:	d96d      	bls.n	80029e6 <HAL_PCD_IRQHandler+0x2e6>
 800290a:	f894 20d0 	ldrb.w	r2, [r4, #208]	; 0xd0
 800290e:	f8d5 1980 	ldr.w	r1, [r5, #2432]	; 0x980
 8002912:	2a01      	cmp	r2, #1
 8002914:	f000 8223 	beq.w	8002d5e <HAL_PCD_IRQHandler+0x65e>
 8002918:	2b05      	cmp	r3, #5
 800291a:	d964      	bls.n	80029e6 <HAL_PCD_IRQHandler+0x2e6>
 800291c:	f894 20f4 	ldrb.w	r2, [r4, #244]	; 0xf4
 8002920:	f8d5 19a0 	ldr.w	r1, [r5, #2464]	; 0x9a0
 8002924:	2a01      	cmp	r2, #1
 8002926:	f000 8342 	beq.w	8002fae <HAL_PCD_IRQHandler+0x8ae>
 800292a:	2b06      	cmp	r3, #6
 800292c:	d95b      	bls.n	80029e6 <HAL_PCD_IRQHandler+0x2e6>
 800292e:	f894 2118 	ldrb.w	r2, [r4, #280]	; 0x118
 8002932:	f8d5 19c0 	ldr.w	r1, [r5, #2496]	; 0x9c0
 8002936:	2a01      	cmp	r2, #1
 8002938:	f000 8354 	beq.w	8002fe4 <HAL_PCD_IRQHandler+0x8e4>
 800293c:	2b07      	cmp	r3, #7
 800293e:	d952      	bls.n	80029e6 <HAL_PCD_IRQHandler+0x2e6>
 8002940:	f894 213c 	ldrb.w	r2, [r4, #316]	; 0x13c
 8002944:	f8d5 19e0 	ldr.w	r1, [r5, #2528]	; 0x9e0
 8002948:	2a01      	cmp	r2, #1
 800294a:	f000 835f 	beq.w	800300c <HAL_PCD_IRQHandler+0x90c>
 800294e:	2b08      	cmp	r3, #8
 8002950:	d949      	bls.n	80029e6 <HAL_PCD_IRQHandler+0x2e6>
 8002952:	f894 2160 	ldrb.w	r2, [r4, #352]	; 0x160
 8002956:	f8d5 1a00 	ldr.w	r1, [r5, #2560]	; 0xa00
 800295a:	2a01      	cmp	r2, #1
 800295c:	f000 8362 	beq.w	8003024 <HAL_PCD_IRQHandler+0x924>
 8002960:	2b09      	cmp	r3, #9
 8002962:	d940      	bls.n	80029e6 <HAL_PCD_IRQHandler+0x2e6>
 8002964:	f894 2184 	ldrb.w	r2, [r4, #388]	; 0x184
 8002968:	f8d5 1a20 	ldr.w	r1, [r5, #2592]	; 0xa20
 800296c:	2a01      	cmp	r2, #1
 800296e:	f000 8376 	beq.w	800305e <HAL_PCD_IRQHandler+0x95e>
 8002972:	2b0a      	cmp	r3, #10
 8002974:	d937      	bls.n	80029e6 <HAL_PCD_IRQHandler+0x2e6>
 8002976:	f894 21a8 	ldrb.w	r2, [r4, #424]	; 0x1a8
 800297a:	f8d5 1a40 	ldr.w	r1, [r5, #2624]	; 0xa40
 800297e:	2a01      	cmp	r2, #1
 8002980:	f000 8381 	beq.w	8003086 <HAL_PCD_IRQHandler+0x986>
 8002984:	2b0b      	cmp	r3, #11
 8002986:	d92e      	bls.n	80029e6 <HAL_PCD_IRQHandler+0x2e6>
 8002988:	f894 21cc 	ldrb.w	r2, [r4, #460]	; 0x1cc
 800298c:	f8d5 1a60 	ldr.w	r1, [r5, #2656]	; 0xa60
 8002990:	2a01      	cmp	r2, #1
 8002992:	f000 8395 	beq.w	80030c0 <HAL_PCD_IRQHandler+0x9c0>
 8002996:	2b0c      	cmp	r3, #12
 8002998:	d925      	bls.n	80029e6 <HAL_PCD_IRQHandler+0x2e6>
 800299a:	f894 21f0 	ldrb.w	r2, [r4, #496]	; 0x1f0
 800299e:	f8d5 1a80 	ldr.w	r1, [r5, #2688]	; 0xa80
 80029a2:	2a01      	cmp	r2, #1
 80029a4:	f000 83a0 	beq.w	80030e8 <HAL_PCD_IRQHandler+0x9e8>
 80029a8:	2b0d      	cmp	r3, #13
 80029aa:	d91c      	bls.n	80029e6 <HAL_PCD_IRQHandler+0x2e6>
 80029ac:	f894 2214 	ldrb.w	r2, [r4, #532]	; 0x214
 80029b0:	f8d5 1aa0 	ldr.w	r1, [r5, #2720]	; 0xaa0
 80029b4:	2a01      	cmp	r2, #1
 80029b6:	f000 83ab 	beq.w	8003110 <HAL_PCD_IRQHandler+0xa10>
 80029ba:	2b0e      	cmp	r3, #14
 80029bc:	d913      	bls.n	80029e6 <HAL_PCD_IRQHandler+0x2e6>
 80029be:	f894 2238 	ldrb.w	r2, [r4, #568]	; 0x238
 80029c2:	f8d5 1ac0 	ldr.w	r1, [r5, #2752]	; 0xac0
 80029c6:	2a01      	cmp	r2, #1
 80029c8:	f000 83b6 	beq.w	8003138 <HAL_PCD_IRQHandler+0xa38>
 80029cc:	2b0f      	cmp	r3, #15
 80029ce:	d90a      	bls.n	80029e6 <HAL_PCD_IRQHandler+0x2e6>
 80029d0:	f894 225c 	ldrb.w	r2, [r4, #604]	; 0x25c
 80029d4:	f8d5 1ae0 	ldr.w	r1, [r5, #2784]	; 0xae0
 80029d8:	2a01      	cmp	r2, #1
 80029da:	f000 83c1 	beq.w	8003160 <HAL_PCD_IRQHandler+0xa60>
 80029de:	2b10      	cmp	r3, #16
 80029e0:	d901      	bls.n	80029e6 <HAL_PCD_IRQHandler+0x2e6>
 80029e2:	f8d5 3b00 	ldr.w	r3, [r5, #2816]	; 0xb00
 80029e6:	6820      	ldr	r0, [r4, #0]
 80029e8:	6943      	ldr	r3, [r0, #20]
 80029ea:	f403 1380 	and.w	r3, r3, #1048576	; 0x100000
 80029ee:	6143      	str	r3, [r0, #20]
 80029f0:	f003 f834 	bl	8005a5c <USB_ReadInterrupts>
 80029f4:	0287      	lsls	r7, r0, #10
 80029f6:	d421      	bmi.n	8002a3c <HAL_PCD_IRQHandler+0x33c>
 80029f8:	6820      	ldr	r0, [r4, #0]
 80029fa:	f003 f82f 	bl	8005a5c <USB_ReadInterrupts>
 80029fe:	0040      	lsls	r0, r0, #1
 8002a00:	f100 80c7 	bmi.w	8002b92 <HAL_PCD_IRQHandler+0x492>
 8002a04:	6820      	ldr	r0, [r4, #0]
 8002a06:	f003 f829 	bl	8005a5c <USB_ReadInterrupts>
 8002a0a:	0741      	lsls	r1, r0, #29
 8002a0c:	f57f ae81 	bpl.w	8002712 <HAL_PCD_IRQHandler+0x12>
 8002a10:	6823      	ldr	r3, [r4, #0]
 8002a12:	685d      	ldr	r5, [r3, #4]
 8002a14:	076a      	lsls	r2, r5, #29
 8002a16:	f100 8296 	bmi.w	8002f46 <HAL_PCD_IRQHandler+0x846>
 8002a1a:	685a      	ldr	r2, [r3, #4]
 8002a1c:	432a      	orrs	r2, r5
 8002a1e:	605a      	str	r2, [r3, #4]
 8002a20:	e677      	b.n	8002712 <HAL_PCD_IRQHandler+0x12>
 8002a22:	6820      	ldr	r0, [r4, #0]
 8002a24:	e7e4      	b.n	80029f0 <HAL_PCD_IRQHandler+0x2f0>
 8002a26:	9b03      	ldr	r3, [sp, #12]
 8002a28:	689b      	ldr	r3, [r3, #8]
 8002a2a:	07de      	lsls	r6, r3, #31
 8002a2c:	f100 8287 	bmi.w	8002f3e <HAL_PCD_IRQHandler+0x83e>
 8002a30:	6820      	ldr	r0, [r4, #0]
 8002a32:	6943      	ldr	r3, [r0, #20]
 8002a34:	f403 6300 	and.w	r3, r3, #2048	; 0x800
 8002a38:	6143      	str	r3, [r0, #20]
 8002a3a:	e6b8      	b.n	80027ae <HAL_PCD_IRQHandler+0xae>
 8002a3c:	f8d4 c004 	ldr.w	ip, [r4, #4]
 8002a40:	f1bc 0f01 	cmp.w	ip, #1
 8002a44:	d928      	bls.n	8002a98 <HAL_PCD_IRQHandler+0x398>
 8002a46:	f505 6232 	add.w	r2, r5, #2848	; 0xb20
 8002a4a:	4623      	mov	r3, r4
 8002a4c:	2101      	movs	r1, #1
 8002a4e:	e006      	b.n	8002a5e <HAL_PCD_IRQHandler+0x35e>
 8002a50:	3101      	adds	r1, #1
 8002a52:	4561      	cmp	r1, ip
 8002a54:	f102 0220 	add.w	r2, r2, #32
 8002a58:	f103 0324 	add.w	r3, r3, #36	; 0x24
 8002a5c:	d01c      	beq.n	8002a98 <HAL_PCD_IRQHandler+0x398>
 8002a5e:	f893 02a4 	ldrb.w	r0, [r3, #676]	; 0x2a4
 8002a62:	6816      	ldr	r6, [r2, #0]
 8002a64:	2801      	cmp	r0, #1
 8002a66:	d1f3      	bne.n	8002a50 <HAL_PCD_IRQHandler+0x350>
 8002a68:	2e00      	cmp	r6, #0
 8002a6a:	daf1      	bge.n	8002a50 <HAL_PCD_IRQHandler+0x350>
 8002a6c:	f8d4 74fc 	ldr.w	r7, [r4, #1276]	; 0x4fc
 8002a70:	f406 3680 	and.w	r6, r6, #65536	; 0x10000
 8002a74:	f007 0701 	and.w	r7, r7, #1
 8002a78:	42be      	cmp	r6, r7
 8002a7a:	d1e9      	bne.n	8002a50 <HAL_PCD_IRQHandler+0x350>
 8002a7c:	f883 02a3 	strb.w	r0, [r3, #675]	; 0x2a3
 8002a80:	69a8      	ldr	r0, [r5, #24]
 8002a82:	f040 0080 	orr.w	r0, r0, #128	; 0x80
 8002a86:	61a8      	str	r0, [r5, #24]
 8002a88:	6968      	ldr	r0, [r5, #20]
 8002a8a:	0606      	lsls	r6, r0, #24
 8002a8c:	d4e0      	bmi.n	8002a50 <HAL_PCD_IRQHandler+0x350>
 8002a8e:	9a03      	ldr	r2, [sp, #12]
 8002a90:	6853      	ldr	r3, [r2, #4]
 8002a92:	f443 7300 	orr.w	r3, r3, #512	; 0x200
 8002a96:	6053      	str	r3, [r2, #4]
 8002a98:	6820      	ldr	r0, [r4, #0]
 8002a9a:	6943      	ldr	r3, [r0, #20]
 8002a9c:	f403 1300 	and.w	r3, r3, #2097152	; 0x200000
 8002aa0:	6143      	str	r3, [r0, #20]
 8002aa2:	e7aa      	b.n	80029fa <HAL_PCD_IRQHandler+0x2fa>
 8002aa4:	9a03      	ldr	r2, [sp, #12]
 8002aa6:	6853      	ldr	r3, [r2, #4]
 8002aa8:	f023 0301 	bic.w	r3, r3, #1
 8002aac:	6053      	str	r3, [r2, #4]
 8002aae:	f894 34f4 	ldrb.w	r3, [r4, #1268]	; 0x4f4
 8002ab2:	2b01      	cmp	r3, #1
 8002ab4:	f000 8134 	beq.w	8002d20 <HAL_PCD_IRQHandler+0x620>
 8002ab8:	4620      	mov	r0, r4
 8002aba:	f7fe ff5d 	bl	8001978 <HAL_PCD_ResumeCallback>
 8002abe:	6820      	ldr	r0, [r4, #0]
 8002ac0:	6943      	ldr	r3, [r0, #20]
 8002ac2:	f003 4300 	and.w	r3, r3, #2147483648	; 0x80000000
 8002ac6:	6143      	str	r3, [r0, #20]
 8002ac8:	e66b      	b.n	80027a2 <HAL_PCD_IRQHandler+0xa2>
 8002aca:	f002 fff9 	bl	8005ac0 <USB_ActivateSetup>
 8002ace:	6820      	ldr	r0, [r4, #0]
 8002ad0:	f002 fc48 	bl	8005364 <USB_GetDevSpeed>
 8002ad4:	60e0      	str	r0, [r4, #12]
 8002ad6:	6826      	ldr	r6, [r4, #0]
 8002ad8:	f000 ffd4 	bl	8003a84 <HAL_RCC_GetHCLKFreq>
 8002adc:	7b22      	ldrb	r2, [r4, #12]
 8002ade:	4601      	mov	r1, r0
 8002ae0:	4630      	mov	r0, r6
 8002ae2:	f002 fa39 	bl	8004f58 <USB_SetTurnaroundTime>
 8002ae6:	4620      	mov	r0, r4
 8002ae8:	f7fe ff1c 	bl	8001924 <HAL_PCD_ResetCallback>
 8002aec:	6820      	ldr	r0, [r4, #0]
 8002aee:	6943      	ldr	r3, [r0, #20]
 8002af0:	f403 5300 	and.w	r3, r3, #8192	; 0x2000
 8002af4:	6143      	str	r3, [r0, #20]
 8002af6:	e667      	b.n	80027c8 <HAL_PCD_IRQHandler+0xc8>
 8002af8:	9a03      	ldr	r2, [sp, #12]
 8002afa:	6820      	ldr	r0, [r4, #0]
 8002afc:	6853      	ldr	r3, [r2, #4]
 8002afe:	f023 0301 	bic.w	r3, r3, #1
 8002b02:	6053      	str	r3, [r2, #4]
 8002b04:	2110      	movs	r1, #16
 8002b06:	f002 fc03 	bl	8005310 <USB_FlushTxFifo>
 8002b0a:	6860      	ldr	r0, [r4, #4]
 8002b0c:	b1e0      	cbz	r0, 8002b48 <HAL_PCD_IRQHandler+0x448>
 8002b0e:	f505 6310 	add.w	r3, r5, #2304	; 0x900
 8002b12:	f64f 317f 	movw	r1, #64383	; 0xfb7f
 8002b16:	6099      	str	r1, [r3, #8]
 8002b18:	681a      	ldr	r2, [r3, #0]
 8002b1a:	f422 1200 	bic.w	r2, r2, #2097152	; 0x200000
 8002b1e:	601a      	str	r2, [r3, #0]
 8002b20:	f8c3 1208 	str.w	r1, [r3, #520]	; 0x208
 8002b24:	f8d3 2200 	ldr.w	r2, [r3, #512]	; 0x200
 8002b28:	f422 1200 	bic.w	r2, r2, #2097152	; 0x200000
 8002b2c:	f8c3 2200 	str.w	r2, [r3, #512]	; 0x200
 8002b30:	f8d3 2200 	ldr.w	r2, [r3, #512]	; 0x200
 8002b34:	f10b 0b01 	add.w	fp, fp, #1
 8002b38:	f042 6200 	orr.w	r2, r2, #134217728	; 0x8000000
 8002b3c:	4583      	cmp	fp, r0
 8002b3e:	f8c3 2200 	str.w	r2, [r3, #512]	; 0x200
 8002b42:	f103 0320 	add.w	r3, r3, #32
 8002b46:	d1e6      	bne.n	8002b16 <HAL_PCD_IRQHandler+0x416>
 8002b48:	9903      	ldr	r1, [sp, #12]
 8002b4a:	6b22      	ldr	r2, [r4, #48]	; 0x30
 8002b4c:	69cb      	ldr	r3, [r1, #28]
 8002b4e:	f043 1301 	orr.w	r3, r3, #65537	; 0x10001
 8002b52:	61cb      	str	r3, [r1, #28]
 8002b54:	2a00      	cmp	r2, #0
 8002b56:	f040 80cc 	bne.w	8002cf2 <HAL_PCD_IRQHandler+0x5f2>
 8002b5a:	694b      	ldr	r3, [r1, #20]
 8002b5c:	f443 5300 	orr.w	r3, r3, #8192	; 0x2000
 8002b60:	f043 032b 	orr.w	r3, r3, #43	; 0x2b
 8002b64:	614b      	str	r3, [r1, #20]
 8002b66:	690b      	ldr	r3, [r1, #16]
 8002b68:	f043 030b 	orr.w	r3, r3, #11
 8002b6c:	610b      	str	r3, [r1, #16]
 8002b6e:	f8d5 3800 	ldr.w	r3, [r5, #2048]	; 0x800
 8002b72:	7c21      	ldrb	r1, [r4, #16]
 8002b74:	6820      	ldr	r0, [r4, #0]
 8002b76:	f423 63fe 	bic.w	r3, r3, #2032	; 0x7f0
 8002b7a:	f8c5 3800 	str.w	r3, [r5, #2048]	; 0x800
 8002b7e:	f204 42c4 	addw	r2, r4, #1220	; 0x4c4
 8002b82:	f002 ffaf 	bl	8005ae4 <USB_EP0_OutStart>
 8002b86:	6820      	ldr	r0, [r4, #0]
 8002b88:	6943      	ldr	r3, [r0, #20]
 8002b8a:	f403 5380 	and.w	r3, r3, #4096	; 0x1000
 8002b8e:	6143      	str	r3, [r0, #20]
 8002b90:	e613      	b.n	80027ba <HAL_PCD_IRQHandler+0xba>
 8002b92:	4620      	mov	r0, r4
 8002b94:	f7fe fefc 	bl	8001990 <HAL_PCD_ConnectCallback>
 8002b98:	6820      	ldr	r0, [r4, #0]
 8002b9a:	6943      	ldr	r3, [r0, #20]
 8002b9c:	f003 4380 	and.w	r3, r3, #1073741824	; 0x40000000
 8002ba0:	6143      	str	r3, [r0, #20]
 8002ba2:	e730      	b.n	8002a06 <HAL_PCD_IRQHandler+0x306>
 8002ba4:	4620      	mov	r0, r4
 8002ba6:	f7fe feb9 	bl	800191c <HAL_PCD_SOFCallback>
 8002baa:	6820      	ldr	r0, [r4, #0]
 8002bac:	6943      	ldr	r3, [r0, #20]
 8002bae:	f003 0308 	and.w	r3, r3, #8
 8002bb2:	6143      	str	r3, [r0, #20]
 8002bb4:	e60e      	b.n	80027d4 <HAL_PCD_IRQHandler+0xd4>
 8002bb6:	6820      	ldr	r0, [r4, #0]
 8002bb8:	f002 ff5c 	bl	8005a74 <USB_ReadDevAllInEpInterrupt>
 8002bbc:	4680      	mov	r8, r0
 8002bbe:	2800      	cmp	r0, #0
 8002bc0:	f43f ade8 	beq.w	8002794 <HAL_PCD_IRQHandler+0x94>
 8002bc4:	f04f 0a00 	mov.w	sl, #0
 8002bc8:	6820      	ldr	r0, [r4, #0]
 8002bca:	9504      	str	r5, [sp, #16]
 8002bcc:	4627      	mov	r7, r4
 8002bce:	f505 6910 	add.w	r9, r5, #2304	; 0x900
 8002bd2:	4656      	mov	r6, sl
 8002bd4:	f8cd b014 	str.w	fp, [sp, #20]
 8002bd8:	e009      	b.n	8002bee <HAL_PCD_IRQHandler+0x4ee>
 8002bda:	ea5f 0858 	movs.w	r8, r8, lsr #1
 8002bde:	f106 0601 	add.w	r6, r6, #1
 8002be2:	f107 0724 	add.w	r7, r7, #36	; 0x24
 8002be6:	f109 0920 	add.w	r9, r9, #32
 8002bea:	f000 80e5 	beq.w	8002db8 <HAL_PCD_IRQHandler+0x6b8>
 8002bee:	f018 0f01 	tst.w	r8, #1
 8002bf2:	d0f2      	beq.n	8002bda <HAL_PCD_IRQHandler+0x4da>
 8002bf4:	fa5f fa86 	uxtb.w	sl, r6
 8002bf8:	4651      	mov	r1, sl
 8002bfa:	f002 ff4d 	bl	8005a98 <USB_ReadDevInEPInterrupt>
 8002bfe:	07c2      	lsls	r2, r0, #31
 8002c00:	4605      	mov	r5, r0
 8002c02:	d513      	bpl.n	8002c2c <HAL_PCD_IRQHandler+0x52c>
 8002c04:	9903      	ldr	r1, [sp, #12]
 8002c06:	2001      	movs	r0, #1
 8002c08:	6b4b      	ldr	r3, [r1, #52]	; 0x34
 8002c0a:	f006 020f 	and.w	r2, r6, #15
 8002c0e:	fa00 f202 	lsl.w	r2, r0, r2
 8002c12:	ea23 0302 	bic.w	r3, r3, r2
 8002c16:	634b      	str	r3, [r1, #52]	; 0x34
 8002c18:	6921      	ldr	r1, [r4, #16]
 8002c1a:	f8c9 0008 	str.w	r0, [r9, #8]
 8002c1e:	4281      	cmp	r1, r0
 8002c20:	f000 8196 	beq.w	8002f50 <HAL_PCD_IRQHandler+0x850>
 8002c24:	4651      	mov	r1, sl
 8002c26:	4620      	mov	r0, r4
 8002c28:	f7fe fe6e 	bl	8001908 <HAL_PCD_DataInStageCallback>
 8002c2c:	072b      	lsls	r3, r5, #28
 8002c2e:	bf44      	itt	mi
 8002c30:	2308      	movmi	r3, #8
 8002c32:	f8c9 3008 	strmi.w	r3, [r9, #8]
 8002c36:	06e8      	lsls	r0, r5, #27
 8002c38:	bf44      	itt	mi
 8002c3a:	2310      	movmi	r3, #16
 8002c3c:	f8c9 3008 	strmi.w	r3, [r9, #8]
 8002c40:	0669      	lsls	r1, r5, #25
 8002c42:	bf44      	itt	mi
 8002c44:	2340      	movmi	r3, #64	; 0x40
 8002c46:	f8c9 3008 	strmi.w	r3, [r9, #8]
 8002c4a:	07aa      	lsls	r2, r5, #30
 8002c4c:	f100 814d 	bmi.w	8002eea <HAL_PCD_IRQHandler+0x7ea>
 8002c50:	062b      	lsls	r3, r5, #24
 8002c52:	f100 80f5 	bmi.w	8002e40 <HAL_PCD_IRQHandler+0x740>
 8002c56:	6820      	ldr	r0, [r4, #0]
 8002c58:	e7bf      	b.n	8002bda <HAL_PCD_IRQHandler+0x4da>
 8002c5a:	6820      	ldr	r0, [r4, #0]
 8002c5c:	f002 ff02 	bl	8005a64 <USB_ReadDevAllOutEpInterrupt>
 8002c60:	4606      	mov	r6, r0
 8002c62:	2800      	cmp	r0, #0
 8002c64:	f43f ad90 	beq.w	8002788 <HAL_PCD_IRQHandler+0x88>
 8002c68:	f505 6730 	add.w	r7, r5, #2816	; 0xb00
 8002c6c:	46a2      	mov	sl, r4
 8002c6e:	f04f 0900 	mov.w	r9, #0
 8002c72:	f8cd b010 	str.w	fp, [sp, #16]
 8002c76:	e008      	b.n	8002c8a <HAL_PCD_IRQHandler+0x58a>
 8002c78:	0876      	lsrs	r6, r6, #1
 8002c7a:	f109 0901 	add.w	r9, r9, #1
 8002c7e:	f107 0720 	add.w	r7, r7, #32
 8002c82:	f10a 0a24 	add.w	sl, sl, #36	; 0x24
 8002c86:	f000 809a 	beq.w	8002dbe <HAL_PCD_IRQHandler+0x6be>
 8002c8a:	07f0      	lsls	r0, r6, #31
 8002c8c:	d5f4      	bpl.n	8002c78 <HAL_PCD_IRQHandler+0x578>
 8002c8e:	fa5f fb89 	uxtb.w	fp, r9
 8002c92:	6820      	ldr	r0, [r4, #0]
 8002c94:	4659      	mov	r1, fp
 8002c96:	f002 fef5 	bl	8005a84 <USB_ReadDevOutEPInterrupt>
 8002c9a:	f010 0f01 	tst.w	r0, #1
 8002c9e:	4680      	mov	r8, r0
 8002ca0:	f040 80af 	bne.w	8002e02 <HAL_PCD_IRQHandler+0x702>
 8002ca4:	f018 0f08 	tst.w	r8, #8
 8002ca8:	f040 808c 	bne.w	8002dc4 <HAL_PCD_IRQHandler+0x6c4>
 8002cac:	f018 0f10 	tst.w	r8, #16
 8002cb0:	bf1c      	itt	ne
 8002cb2:	2210      	movne	r2, #16
 8002cb4:	60ba      	strne	r2, [r7, #8]
 8002cb6:	f018 0f02 	tst.w	r8, #2
 8002cba:	d00e      	beq.n	8002cda <HAL_PCD_IRQHandler+0x5da>
 8002cbc:	696a      	ldr	r2, [r5, #20]
 8002cbe:	0611      	lsls	r1, r2, #24
 8002cc0:	d504      	bpl.n	8002ccc <HAL_PCD_IRQHandler+0x5cc>
 8002cc2:	9b03      	ldr	r3, [sp, #12]
 8002cc4:	685a      	ldr	r2, [r3, #4]
 8002cc6:	f442 6280 	orr.w	r2, r2, #1024	; 0x400
 8002cca:	605a      	str	r2, [r3, #4]
 8002ccc:	f89a 227f 	ldrb.w	r2, [sl, #639]	; 0x27f
 8002cd0:	2a01      	cmp	r2, #1
 8002cd2:	f000 817f 	beq.w	8002fd4 <HAL_PCD_IRQHandler+0x8d4>
 8002cd6:	2302      	movs	r3, #2
 8002cd8:	60bb      	str	r3, [r7, #8]
 8002cda:	f018 0f20 	tst.w	r8, #32
 8002cde:	bf1c      	itt	ne
 8002ce0:	2320      	movne	r3, #32
 8002ce2:	60bb      	strne	r3, [r7, #8]
 8002ce4:	f418 5f00 	tst.w	r8, #8192	; 0x2000
 8002ce8:	bf1c      	itt	ne
 8002cea:	f44f 5300 	movne.w	r3, #8192	; 0x2000
 8002cee:	60bb      	strne	r3, [r7, #8]
 8002cf0:	e7c2      	b.n	8002c78 <HAL_PCD_IRQHandler+0x578>
 8002cf2:	f8d1 3084 	ldr.w	r3, [r1, #132]	; 0x84
 8002cf6:	f043 030b 	orr.w	r3, r3, #11
 8002cfa:	f8c1 3084 	str.w	r3, [r1, #132]	; 0x84
 8002cfe:	6c4b      	ldr	r3, [r1, #68]	; 0x44
 8002d00:	f043 030b 	orr.w	r3, r3, #11
 8002d04:	644b      	str	r3, [r1, #68]	; 0x44
 8002d06:	e732      	b.n	8002b6e <HAL_PCD_IRQHandler+0x46e>
 8002d08:	2900      	cmp	r1, #0
 8002d0a:	f6bf adea 	bge.w	80028e2 <HAL_PCD_IRQHandler+0x1e2>
 8002d0e:	4621      	mov	r1, r4
 8002d10:	f884 2063 	strb.w	r2, [r4, #99]	; 0x63
 8002d14:	f851 0b60 	ldr.w	r0, [r1], #96
 8002d18:	f002 fd96 	bl	8005848 <USB_EPStopXfer>
 8002d1c:	6863      	ldr	r3, [r4, #4]
 8002d1e:	e5e0      	b.n	80028e2 <HAL_PCD_IRQHandler+0x1e2>
 8002d20:	2100      	movs	r1, #0
 8002d22:	f884 14f4 	strb.w	r1, [r4, #1268]	; 0x4f4
 8002d26:	4620      	mov	r0, r4
 8002d28:	f000 fbf4 	bl	8003514 <HAL_PCDEx_LPM_Callback>
 8002d2c:	e6c7      	b.n	8002abe <HAL_PCD_IRQHandler+0x3be>
 8002d2e:	2900      	cmp	r1, #0
 8002d30:	f6bf ade0 	bge.w	80028f4 <HAL_PCD_IRQHandler+0x1f4>
 8002d34:	4621      	mov	r1, r4
 8002d36:	f884 2087 	strb.w	r2, [r4, #135]	; 0x87
 8002d3a:	f851 0b84 	ldr.w	r0, [r1], #132
 8002d3e:	f002 fd83 	bl	8005848 <USB_EPStopXfer>
 8002d42:	6863      	ldr	r3, [r4, #4]
 8002d44:	e5d6      	b.n	80028f4 <HAL_PCD_IRQHandler+0x1f4>
 8002d46:	2900      	cmp	r1, #0
 8002d48:	f6bf addd 	bge.w	8002906 <HAL_PCD_IRQHandler+0x206>
 8002d4c:	4621      	mov	r1, r4
 8002d4e:	f884 20ab 	strb.w	r2, [r4, #171]	; 0xab
 8002d52:	f851 0ba8 	ldr.w	r0, [r1], #168
 8002d56:	f002 fd77 	bl	8005848 <USB_EPStopXfer>
 8002d5a:	6863      	ldr	r3, [r4, #4]
 8002d5c:	e5d3      	b.n	8002906 <HAL_PCD_IRQHandler+0x206>
 8002d5e:	2900      	cmp	r1, #0
 8002d60:	f6bf adda 	bge.w	8002918 <HAL_PCD_IRQHandler+0x218>
 8002d64:	4621      	mov	r1, r4
 8002d66:	f884 20cf 	strb.w	r2, [r4, #207]	; 0xcf
 8002d6a:	f851 0bcc 	ldr.w	r0, [r1], #204
 8002d6e:	f002 fd6b 	bl	8005848 <USB_EPStopXfer>
 8002d72:	6863      	ldr	r3, [r4, #4]
 8002d74:	e5d0      	b.n	8002918 <HAL_PCD_IRQHandler+0x218>
 8002d76:	6820      	ldr	r0, [r4, #0]
 8002d78:	f504 713a 	add.w	r1, r4, #744	; 0x2e8
 8002d7c:	f002 fd64 	bl	8005848 <USB_EPStopXfer>
 8002d80:	6863      	ldr	r3, [r4, #4]
 8002d82:	e545      	b.n	8002810 <HAL_PCD_IRQHandler+0x110>
 8002d84:	2208      	movs	r2, #8
 8002d86:	f204 41c4 	addw	r1, r4, #1220	; 0x4c4
 8002d8a:	4628      	mov	r0, r5
 8002d8c:	eb07 07c7 	add.w	r7, r7, r7, lsl #3
 8002d90:	f002 fdb4 	bl	80058fc <USB_ReadPacket>
 8002d94:	eb04 0287 	add.w	r2, r4, r7, lsl #2
 8002d98:	f3c6 130a 	ubfx	r3, r6, #4, #11
 8002d9c:	f8d2 129c 	ldr.w	r1, [r2, #668]	; 0x29c
 8002da0:	6820      	ldr	r0, [r4, #0]
 8002da2:	440b      	add	r3, r1
 8002da4:	f8c2 329c 	str.w	r3, [r2, #668]	; 0x29c
 8002da8:	e4e5      	b.n	8002776 <HAL_PCD_IRQHandler+0x76>
 8002daa:	6820      	ldr	r0, [r4, #0]
 8002dac:	f504 7143 	add.w	r1, r4, #780	; 0x30c
 8002db0:	f002 fd4a 	bl	8005848 <USB_EPStopXfer>
 8002db4:	6863      	ldr	r3, [r4, #4]
 8002db6:	e532      	b.n	800281e <HAL_PCD_IRQHandler+0x11e>
 8002db8:	e9dd 5b04 	ldrd	r5, fp, [sp, #16]
 8002dbc:	e4eb      	b.n	8002796 <HAL_PCD_IRQHandler+0x96>
 8002dbe:	f8dd b010 	ldr.w	fp, [sp, #16]
 8002dc2:	e4e1      	b.n	8002788 <HAL_PCD_IRQHandler+0x88>
 8002dc4:	6821      	ldr	r1, [r4, #0]
 8002dc6:	4bbc      	ldr	r3, [pc, #752]	; (80030b8 <HAL_PCD_IRQHandler+0x9b8>)
 8002dc8:	2208      	movs	r2, #8
 8002dca:	60ba      	str	r2, [r7, #8]
 8002dcc:	f501 6230 	add.w	r2, r1, #2816	; 0xb00
 8002dd0:	6c09      	ldr	r1, [r1, #64]	; 0x40
 8002dd2:	eb02 1249 	add.w	r2, r2, r9, lsl #5
 8002dd6:	4299      	cmp	r1, r3
 8002dd8:	6890      	ldr	r0, [r2, #8]
 8002dda:	f240 80ca 	bls.w	8002f72 <HAL_PCD_IRQHandler+0x872>
 8002dde:	0400      	lsls	r0, r0, #16
 8002de0:	d502      	bpl.n	8002de8 <HAL_PCD_IRQHandler+0x6e8>
 8002de2:	f44f 4100 	mov.w	r1, #32768	; 0x8000
 8002de6:	6091      	str	r1, [r2, #8]
 8002de8:	4620      	mov	r0, r4
 8002dea:	f7fe fd7d 	bl	80018e8 <HAL_PCD_SetupStageCallback>
 8002dee:	6921      	ldr	r1, [r4, #16]
 8002df0:	2901      	cmp	r1, #1
 8002df2:	f47f af5b 	bne.w	8002cac <HAL_PCD_IRQHandler+0x5ac>
 8002df6:	6820      	ldr	r0, [r4, #0]
 8002df8:	f204 42c4 	addw	r2, r4, #1220	; 0x4c4
 8002dfc:	f002 fe72 	bl	8005ae4 <USB_EP0_OutStart>
 8002e00:	e754      	b.n	8002cac <HAL_PCD_IRQHandler+0x5ac>
 8002e02:	6820      	ldr	r0, [r4, #0]
 8002e04:	6921      	ldr	r1, [r4, #16]
 8002e06:	2201      	movs	r2, #1
 8002e08:	60ba      	str	r2, [r7, #8]
 8002e0a:	f500 6230 	add.w	r2, r0, #2816	; 0xb00
 8002e0e:	eb02 1249 	add.w	r2, r2, r9, lsl #5
 8002e12:	2901      	cmp	r1, #1
 8002e14:	f8d0 c040 	ldr.w	ip, [r0, #64]	; 0x40
 8002e18:	6893      	ldr	r3, [r2, #8]
 8002e1a:	f000 80ae 	beq.w	8002f7a <HAL_PCD_IRQHandler+0x87a>
 8002e1e:	49a7      	ldr	r1, [pc, #668]	; (80030bc <HAL_PCD_IRQHandler+0x9bc>)
 8002e20:	458c      	cmp	ip, r1
 8002e22:	f000 810b 	beq.w	800303c <HAL_PCD_IRQHandler+0x93c>
 8002e26:	f1b9 0f00 	cmp.w	r9, #0
 8002e2a:	d104      	bne.n	8002e36 <HAL_PCD_IRQHandler+0x736>
 8002e2c:	f8d4 2294 	ldr.w	r2, [r4, #660]	; 0x294
 8002e30:	2a00      	cmp	r2, #0
 8002e32:	f000 81d8 	beq.w	80031e6 <HAL_PCD_IRQHandler+0xae6>
 8002e36:	4659      	mov	r1, fp
 8002e38:	4620      	mov	r0, r4
 8002e3a:	f7fe fd5b 	bl	80018f4 <HAL_PCD_DataOutStageCallback>
 8002e3e:	e731      	b.n	8002ca4 <HAL_PCD_IRQHandler+0x5a4>
 8002e40:	6dfb      	ldr	r3, [r7, #92]	; 0x5c
 8002e42:	6d7d      	ldr	r5, [r7, #84]	; 0x54
 8002e44:	f8d4 b000 	ldr.w	fp, [r4]
 8002e48:	42ab      	cmp	r3, r5
 8002e4a:	4658      	mov	r0, fp
 8002e4c:	f63f aec5 	bhi.w	8002bda <HAL_PCD_IRQHandler+0x4da>
 8002e50:	f50b 6210 	add.w	r2, fp, #2304	; 0x900
 8002e54:	eb02 1246 	add.w	r2, r2, r6, lsl #5
 8002e58:	4696      	mov	lr, r2
 8002e5a:	6992      	ldr	r2, [r2, #24]
 8002e5c:	6cb9      	ldr	r1, [r7, #72]	; 0x48
 8002e5e:	f8cd b01c 	str.w	fp, [sp, #28]
 8002e62:	fa1f fc82 	uxth.w	ip, r2
 8002e66:	1aea      	subs	r2, r5, r3
 8002e68:	428a      	cmp	r2, r1
 8002e6a:	bf28      	it	cs
 8002e6c:	460a      	movcs	r2, r1
 8002e6e:	3203      	adds	r2, #3
 8002e70:	ebbc 0f92 	cmp.w	ip, r2, lsr #2
 8002e74:	f0c0 8097 	bcc.w	8002fa6 <HAL_PCD_IRQHandler+0x8a6>
 8002e78:	4652      	mov	r2, sl
 8002e7a:	9606      	str	r6, [sp, #24]
 8002e7c:	46ca      	mov	sl, r9
 8002e7e:	4626      	mov	r6, r4
 8002e80:	46c1      	mov	r9, r8
 8002e82:	4674      	mov	r4, lr
 8002e84:	4690      	mov	r8, r2
 8002e86:	e019      	b.n	8002ebc <HAL_PCD_IRQHandler+0x7bc>
 8002e88:	1aed      	subs	r5, r5, r3
 8002e8a:	6cbb      	ldr	r3, [r7, #72]	; 0x48
 8002e8c:	6cf9      	ldr	r1, [r7, #76]	; 0x4c
 8002e8e:	429d      	cmp	r5, r3
 8002e90:	bf28      	it	cs
 8002e92:	461d      	movcs	r5, r3
 8002e94:	7c33      	ldrb	r3, [r6, #16]
 8002e96:	9300      	str	r3, [sp, #0]
 8002e98:	4642      	mov	r2, r8
 8002e9a:	b2ab      	uxth	r3, r5
 8002e9c:	4658      	mov	r0, fp
 8002e9e:	f002 fd17 	bl	80058d0 <USB_WritePacket>
 8002ea2:	6cfb      	ldr	r3, [r7, #76]	; 0x4c
 8002ea4:	69a1      	ldr	r1, [r4, #24]
 8002ea6:	442b      	add	r3, r5
 8002ea8:	64fb      	str	r3, [r7, #76]	; 0x4c
 8002eaa:	6dfb      	ldr	r3, [r7, #92]	; 0x5c
 8002eac:	b289      	uxth	r1, r1
 8002eae:	442b      	add	r3, r5
 8002eb0:	3503      	adds	r5, #3
 8002eb2:	ebb1 0f95 	cmp.w	r1, r5, lsr #2
 8002eb6:	65fb      	str	r3, [r7, #92]	; 0x5c
 8002eb8:	d36d      	bcc.n	8002f96 <HAL_PCD_IRQHandler+0x896>
 8002eba:	6d7d      	ldr	r5, [r7, #84]	; 0x54
 8002ebc:	42ab      	cmp	r3, r5
 8002ebe:	d3e3      	bcc.n	8002e88 <HAL_PCD_IRQHandler+0x788>
 8002ec0:	4634      	mov	r4, r6
 8002ec2:	9e06      	ldr	r6, [sp, #24]
 8002ec4:	f8d4 b000 	ldr.w	fp, [r4]
 8002ec8:	46c8      	mov	r8, r9
 8002eca:	46d1      	mov	r9, sl
 8002ecc:	9b07      	ldr	r3, [sp, #28]
 8002ece:	f006 020f 	and.w	r2, r6, #15
 8002ed2:	f503 6100 	add.w	r1, r3, #2048	; 0x800
 8002ed6:	2501      	movs	r5, #1
 8002ed8:	f8d3 3834 	ldr.w	r3, [r3, #2100]	; 0x834
 8002edc:	fa05 f202 	lsl.w	r2, r5, r2
 8002ee0:	ea23 0302 	bic.w	r3, r3, r2
 8002ee4:	4658      	mov	r0, fp
 8002ee6:	634b      	str	r3, [r1, #52]	; 0x34
 8002ee8:	e677      	b.n	8002bda <HAL_PCD_IRQHandler+0x4da>
 8002eea:	9804      	ldr	r0, [sp, #16]
 8002eec:	4631      	mov	r1, r6
 8002eee:	f002 fa0f 	bl	8005310 <USB_FlushTxFifo>
 8002ef2:	f897 303f 	ldrb.w	r3, [r7, #63]	; 0x3f
 8002ef6:	2b01      	cmp	r3, #1
 8002ef8:	f000 80a8 	beq.w	800304c <HAL_PCD_IRQHandler+0x94c>
 8002efc:	2302      	movs	r3, #2
 8002efe:	f8c9 3008 	str.w	r3, [r9, #8]
 8002f02:	e6a5      	b.n	8002c50 <HAL_PCD_IRQHandler+0x550>
 8002f04:	f647 73f0 	movw	r3, #32752	; 0x7ff0
 8002f08:	421e      	tst	r6, r3
 8002f0a:	f43f ac34 	beq.w	8002776 <HAL_PCD_IRQHandler+0x76>
 8002f0e:	eb07 07c7 	add.w	r7, r7, r7, lsl #3
 8002f12:	eb04 0787 	add.w	r7, r4, r7, lsl #2
 8002f16:	f3c6 120a 	ubfx	r2, r6, #4, #11
 8002f1a:	f8d7 128c 	ldr.w	r1, [r7, #652]	; 0x28c
 8002f1e:	4628      	mov	r0, r5
 8002f20:	4616      	mov	r6, r2
 8002f22:	f002 fceb 	bl	80058fc <USB_ReadPacket>
 8002f26:	f8d7 328c 	ldr.w	r3, [r7, #652]	; 0x28c
 8002f2a:	6820      	ldr	r0, [r4, #0]
 8002f2c:	4433      	add	r3, r6
 8002f2e:	f8c7 328c 	str.w	r3, [r7, #652]	; 0x28c
 8002f32:	f8d7 329c 	ldr.w	r3, [r7, #668]	; 0x29c
 8002f36:	4433      	add	r3, r6
 8002f38:	f8c7 329c 	str.w	r3, [r7, #668]	; 0x29c
 8002f3c:	e41b      	b.n	8002776 <HAL_PCD_IRQHandler+0x76>
 8002f3e:	4620      	mov	r0, r4
 8002f40:	f7fe fd02 	bl	8001948 <HAL_PCD_SuspendCallback>
 8002f44:	e574      	b.n	8002a30 <HAL_PCD_IRQHandler+0x330>
 8002f46:	4620      	mov	r0, r4
 8002f48:	f7fe fd26 	bl	8001998 <HAL_PCD_DisconnectCallback>
 8002f4c:	6823      	ldr	r3, [r4, #0]
 8002f4e:	e564      	b.n	8002a1a <HAL_PCD_IRQHandler+0x31a>
 8002f50:	e9d7 2312 	ldrd	r2, r3, [r7, #72]	; 0x48
 8002f54:	4413      	add	r3, r2
 8002f56:	64fb      	str	r3, [r7, #76]	; 0x4c
 8002f58:	2e00      	cmp	r6, #0
 8002f5a:	f47f ae63 	bne.w	8002c24 <HAL_PCD_IRQHandler+0x524>
 8002f5e:	6d63      	ldr	r3, [r4, #84]	; 0x54
 8002f60:	2b00      	cmp	r3, #0
 8002f62:	f47f ae5f 	bne.w	8002c24 <HAL_PCD_IRQHandler+0x524>
 8002f66:	6820      	ldr	r0, [r4, #0]
 8002f68:	f204 42c4 	addw	r2, r4, #1220	; 0x4c4
 8002f6c:	f002 fdba 	bl	8005ae4 <USB_EP0_OutStart>
 8002f70:	e658      	b.n	8002c24 <HAL_PCD_IRQHandler+0x524>
 8002f72:	4620      	mov	r0, r4
 8002f74:	f7fe fcb8 	bl	80018e8 <HAL_PCD_SetupStageCallback>
 8002f78:	e698      	b.n	8002cac <HAL_PCD_IRQHandler+0x5ac>
 8002f7a:	0719      	lsls	r1, r3, #28
 8002f7c:	f140 8097 	bpl.w	80030ae <HAL_PCD_IRQHandler+0x9ae>
 8002f80:	494d      	ldr	r1, [pc, #308]	; (80030b8 <HAL_PCD_IRQHandler+0x9b8>)
 8002f82:	458c      	cmp	ip, r1
 8002f84:	f67f ae8e 	bls.w	8002ca4 <HAL_PCD_IRQHandler+0x5a4>
 8002f88:	0418      	lsls	r0, r3, #16
 8002f8a:	f57f ae8b 	bpl.w	8002ca4 <HAL_PCD_IRQHandler+0x5a4>
 8002f8e:	f44f 4100 	mov.w	r1, #32768	; 0x8000
 8002f92:	6091      	str	r1, [r2, #8]
 8002f94:	e686      	b.n	8002ca4 <HAL_PCD_IRQHandler+0x5a4>
 8002f96:	4634      	mov	r4, r6
 8002f98:	6d7d      	ldr	r5, [r7, #84]	; 0x54
 8002f9a:	f8d4 b000 	ldr.w	fp, [r4]
 8002f9e:	9e06      	ldr	r6, [sp, #24]
 8002fa0:	46c8      	mov	r8, r9
 8002fa2:	4658      	mov	r0, fp
 8002fa4:	46d1      	mov	r9, sl
 8002fa6:	429d      	cmp	r5, r3
 8002fa8:	f63f ae17 	bhi.w	8002bda <HAL_PCD_IRQHandler+0x4da>
 8002fac:	e78e      	b.n	8002ecc <HAL_PCD_IRQHandler+0x7cc>
 8002fae:	2900      	cmp	r1, #0
 8002fb0:	f6bf acbb 	bge.w	800292a <HAL_PCD_IRQHandler+0x22a>
 8002fb4:	4621      	mov	r1, r4
 8002fb6:	f884 20f3 	strb.w	r2, [r4, #243]	; 0xf3
 8002fba:	f851 0bf0 	ldr.w	r0, [r1], #240
 8002fbe:	f002 fc43 	bl	8005848 <USB_EPStopXfer>
 8002fc2:	6863      	ldr	r3, [r4, #4]
 8002fc4:	e4b1      	b.n	800292a <HAL_PCD_IRQHandler+0x22a>
 8002fc6:	6820      	ldr	r0, [r4, #0]
 8002fc8:	f504 7128 	add.w	r1, r4, #672	; 0x2a0
 8002fcc:	f002 fc3c 	bl	8005848 <USB_EPStopXfer>
 8002fd0:	6863      	ldr	r3, [r4, #4]
 8002fd2:	e40f      	b.n	80027f4 <HAL_PCD_IRQHandler+0xf4>
 8002fd4:	2300      	movs	r3, #0
 8002fd6:	4659      	mov	r1, fp
 8002fd8:	f88a 327f 	strb.w	r3, [sl, #639]	; 0x27f
 8002fdc:	4620      	mov	r0, r4
 8002fde:	f7fe fccf 	bl	8001980 <HAL_PCD_ISOOUTIncompleteCallback>
 8002fe2:	e678      	b.n	8002cd6 <HAL_PCD_IRQHandler+0x5d6>
 8002fe4:	2900      	cmp	r1, #0
 8002fe6:	f6bf aca9 	bge.w	800293c <HAL_PCD_IRQHandler+0x23c>
 8002fea:	6820      	ldr	r0, [r4, #0]
 8002fec:	f884 2117 	strb.w	r2, [r4, #279]	; 0x117
 8002ff0:	f504 718a 	add.w	r1, r4, #276	; 0x114
 8002ff4:	f002 fc28 	bl	8005848 <USB_EPStopXfer>
 8002ff8:	6863      	ldr	r3, [r4, #4]
 8002ffa:	e49f      	b.n	800293c <HAL_PCD_IRQHandler+0x23c>
 8002ffc:	6820      	ldr	r0, [r4, #0]
 8002ffe:	f504 7131 	add.w	r1, r4, #708	; 0x2c4
 8003002:	f002 fc21 	bl	8005848 <USB_EPStopXfer>
 8003006:	6863      	ldr	r3, [r4, #4]
 8003008:	f7ff bbfb 	b.w	8002802 <HAL_PCD_IRQHandler+0x102>
 800300c:	2900      	cmp	r1, #0
 800300e:	f6bf ac9e 	bge.w	800294e <HAL_PCD_IRQHandler+0x24e>
 8003012:	6820      	ldr	r0, [r4, #0]
 8003014:	f884 213b 	strb.w	r2, [r4, #315]	; 0x13b
 8003018:	f504 719c 	add.w	r1, r4, #312	; 0x138
 800301c:	f002 fc14 	bl	8005848 <USB_EPStopXfer>
 8003020:	6863      	ldr	r3, [r4, #4]
 8003022:	e494      	b.n	800294e <HAL_PCD_IRQHandler+0x24e>
 8003024:	2900      	cmp	r1, #0
 8003026:	f6bf ac9b 	bge.w	8002960 <HAL_PCD_IRQHandler+0x260>
 800302a:	6820      	ldr	r0, [r4, #0]
 800302c:	f884 215f 	strb.w	r2, [r4, #351]	; 0x15f
 8003030:	f504 71ae 	add.w	r1, r4, #348	; 0x15c
 8003034:	f002 fc08 	bl	8005848 <USB_EPStopXfer>
 8003038:	6863      	ldr	r3, [r4, #4]
 800303a:	e491      	b.n	8002960 <HAL_PCD_IRQHandler+0x260>
 800303c:	0419      	lsls	r1, r3, #16
 800303e:	d4a6      	bmi.n	8002f8e <HAL_PCD_IRQHandler+0x88e>
 8003040:	069b      	lsls	r3, r3, #26
 8003042:	f57f aef8 	bpl.w	8002e36 <HAL_PCD_IRQHandler+0x736>
 8003046:	2120      	movs	r1, #32
 8003048:	6091      	str	r1, [r2, #8]
 800304a:	e6f4      	b.n	8002e36 <HAL_PCD_IRQHandler+0x736>
 800304c:	f04f 0300 	mov.w	r3, #0
 8003050:	f887 303f 	strb.w	r3, [r7, #63]	; 0x3f
 8003054:	4651      	mov	r1, sl
 8003056:	4620      	mov	r0, r4
 8003058:	f7fe fc96 	bl	8001988 <HAL_PCD_ISOINIncompleteCallback>
 800305c:	e74e      	b.n	8002efc <HAL_PCD_IRQHandler+0x7fc>
 800305e:	2900      	cmp	r1, #0
 8003060:	f6bf ac87 	bge.w	8002972 <HAL_PCD_IRQHandler+0x272>
 8003064:	6820      	ldr	r0, [r4, #0]
 8003066:	f884 2183 	strb.w	r2, [r4, #387]	; 0x183
 800306a:	f504 71c0 	add.w	r1, r4, #384	; 0x180
 800306e:	f002 fbeb 	bl	8005848 <USB_EPStopXfer>
 8003072:	6863      	ldr	r3, [r4, #4]
 8003074:	e47d      	b.n	8002972 <HAL_PCD_IRQHandler+0x272>
 8003076:	6820      	ldr	r0, [r4, #0]
 8003078:	f504 714c 	add.w	r1, r4, #816	; 0x330
 800307c:	f002 fbe4 	bl	8005848 <USB_EPStopXfer>
 8003080:	6863      	ldr	r3, [r4, #4]
 8003082:	f7ff bbd3 	b.w	800282c <HAL_PCD_IRQHandler+0x12c>
 8003086:	2900      	cmp	r1, #0
 8003088:	f6bf ac7c 	bge.w	8002984 <HAL_PCD_IRQHandler+0x284>
 800308c:	6820      	ldr	r0, [r4, #0]
 800308e:	f884 21a7 	strb.w	r2, [r4, #423]	; 0x1a7
 8003092:	f504 71d2 	add.w	r1, r4, #420	; 0x1a4
 8003096:	f002 fbd7 	bl	8005848 <USB_EPStopXfer>
 800309a:	6863      	ldr	r3, [r4, #4]
 800309c:	e472      	b.n	8002984 <HAL_PCD_IRQHandler+0x284>
 800309e:	6820      	ldr	r0, [r4, #0]
 80030a0:	f504 7155 	add.w	r1, r4, #852	; 0x354
 80030a4:	f002 fbd0 	bl	8005848 <USB_EPStopXfer>
 80030a8:	6863      	ldr	r3, [r4, #4]
 80030aa:	f7ff bbc6 	b.w	800283a <HAL_PCD_IRQHandler+0x13a>
 80030ae:	0699      	lsls	r1, r3, #26
 80030b0:	d572      	bpl.n	8003198 <HAL_PCD_IRQHandler+0xa98>
 80030b2:	2120      	movs	r1, #32
 80030b4:	6091      	str	r1, [r2, #8]
 80030b6:	e5f5      	b.n	8002ca4 <HAL_PCD_IRQHandler+0x5a4>
 80030b8:	4f54300a 	.word	0x4f54300a
 80030bc:	4f54310a 	.word	0x4f54310a
 80030c0:	2900      	cmp	r1, #0
 80030c2:	f6bf ac68 	bge.w	8002996 <HAL_PCD_IRQHandler+0x296>
 80030c6:	6820      	ldr	r0, [r4, #0]
 80030c8:	f884 21cb 	strb.w	r2, [r4, #459]	; 0x1cb
 80030cc:	f504 71e4 	add.w	r1, r4, #456	; 0x1c8
 80030d0:	f002 fbba 	bl	8005848 <USB_EPStopXfer>
 80030d4:	6863      	ldr	r3, [r4, #4]
 80030d6:	e45e      	b.n	8002996 <HAL_PCD_IRQHandler+0x296>
 80030d8:	6820      	ldr	r0, [r4, #0]
 80030da:	f504 715e 	add.w	r1, r4, #888	; 0x378
 80030de:	f002 fbb3 	bl	8005848 <USB_EPStopXfer>
 80030e2:	6863      	ldr	r3, [r4, #4]
 80030e4:	f7ff bbb0 	b.w	8002848 <HAL_PCD_IRQHandler+0x148>
 80030e8:	2900      	cmp	r1, #0
 80030ea:	f6bf ac5d 	bge.w	80029a8 <HAL_PCD_IRQHandler+0x2a8>
 80030ee:	6820      	ldr	r0, [r4, #0]
 80030f0:	f884 21ef 	strb.w	r2, [r4, #495]	; 0x1ef
 80030f4:	f504 71f6 	add.w	r1, r4, #492	; 0x1ec
 80030f8:	f002 fba6 	bl	8005848 <USB_EPStopXfer>
 80030fc:	6863      	ldr	r3, [r4, #4]
 80030fe:	e453      	b.n	80029a8 <HAL_PCD_IRQHandler+0x2a8>
 8003100:	6820      	ldr	r0, [r4, #0]
 8003102:	f504 7167 	add.w	r1, r4, #924	; 0x39c
 8003106:	f002 fb9f 	bl	8005848 <USB_EPStopXfer>
 800310a:	6863      	ldr	r3, [r4, #4]
 800310c:	f7ff bba3 	b.w	8002856 <HAL_PCD_IRQHandler+0x156>
 8003110:	2900      	cmp	r1, #0
 8003112:	f6bf ac52 	bge.w	80029ba <HAL_PCD_IRQHandler+0x2ba>
 8003116:	6820      	ldr	r0, [r4, #0]
 8003118:	f884 2213 	strb.w	r2, [r4, #531]	; 0x213
 800311c:	f504 7104 	add.w	r1, r4, #528	; 0x210
 8003120:	f002 fb92 	bl	8005848 <USB_EPStopXfer>
 8003124:	6863      	ldr	r3, [r4, #4]
 8003126:	e448      	b.n	80029ba <HAL_PCD_IRQHandler+0x2ba>
 8003128:	6820      	ldr	r0, [r4, #0]
 800312a:	f504 7170 	add.w	r1, r4, #960	; 0x3c0
 800312e:	f002 fb8b 	bl	8005848 <USB_EPStopXfer>
 8003132:	6863      	ldr	r3, [r4, #4]
 8003134:	f7ff bb96 	b.w	8002864 <HAL_PCD_IRQHandler+0x164>
 8003138:	2900      	cmp	r1, #0
 800313a:	f6bf ac47 	bge.w	80029cc <HAL_PCD_IRQHandler+0x2cc>
 800313e:	6820      	ldr	r0, [r4, #0]
 8003140:	f884 2237 	strb.w	r2, [r4, #567]	; 0x237
 8003144:	f504 710d 	add.w	r1, r4, #564	; 0x234
 8003148:	f002 fb7e 	bl	8005848 <USB_EPStopXfer>
 800314c:	6863      	ldr	r3, [r4, #4]
 800314e:	e43d      	b.n	80029cc <HAL_PCD_IRQHandler+0x2cc>
 8003150:	6820      	ldr	r0, [r4, #0]
 8003152:	f504 7179 	add.w	r1, r4, #996	; 0x3e4
 8003156:	f002 fb77 	bl	8005848 <USB_EPStopXfer>
 800315a:	6863      	ldr	r3, [r4, #4]
 800315c:	f7ff bb89 	b.w	8002872 <HAL_PCD_IRQHandler+0x172>
 8003160:	2900      	cmp	r1, #0
 8003162:	f6bf ac3c 	bge.w	80029de <HAL_PCD_IRQHandler+0x2de>
 8003166:	6820      	ldr	r0, [r4, #0]
 8003168:	f884 225b 	strb.w	r2, [r4, #603]	; 0x25b
 800316c:	f504 7116 	add.w	r1, r4, #600	; 0x258
 8003170:	f002 fb6a 	bl	8005848 <USB_EPStopXfer>
 8003174:	6863      	ldr	r3, [r4, #4]
 8003176:	e432      	b.n	80029de <HAL_PCD_IRQHandler+0x2de>
 8003178:	6820      	ldr	r0, [r4, #0]
 800317a:	f504 6181 	add.w	r1, r4, #1032	; 0x408
 800317e:	f002 fb63 	bl	8005848 <USB_EPStopXfer>
 8003182:	6863      	ldr	r3, [r4, #4]
 8003184:	f7ff bb7c 	b.w	8002880 <HAL_PCD_IRQHandler+0x180>
 8003188:	6820      	ldr	r0, [r4, #0]
 800318a:	f204 412c 	addw	r1, r4, #1068	; 0x42c
 800318e:	f002 fb5b 	bl	8005848 <USB_EPStopXfer>
 8003192:	6863      	ldr	r3, [r4, #4]
 8003194:	f7ff bb7b 	b.w	800288e <HAL_PCD_IRQHandler+0x18e>
 8003198:	f013 0f28 	tst.w	r3, #40	; 0x28
 800319c:	f47f ad82 	bne.w	8002ca4 <HAL_PCD_IRQHandler+0x5a4>
 80031a0:	491b      	ldr	r1, [pc, #108]	; (8003210 <HAL_PCD_IRQHandler+0xb10>)
 80031a2:	458c      	cmp	ip, r1
 80031a4:	d902      	bls.n	80031ac <HAL_PCD_IRQHandler+0xaac>
 80031a6:	041b      	lsls	r3, r3, #16
 80031a8:	f53f aef1 	bmi.w	8002f8e <HAL_PCD_IRQHandler+0x88e>
 80031ac:	6911      	ldr	r1, [r2, #16]
 80031ae:	f8da 2298 	ldr.w	r2, [sl, #664]	; 0x298
 80031b2:	f3c1 0112 	ubfx	r1, r1, #0, #19
 80031b6:	1a52      	subs	r2, r2, r1
 80031b8:	f8ca 229c 	str.w	r2, [sl, #668]	; 0x29c
 80031bc:	f1b9 0f00 	cmp.w	r9, #0
 80031c0:	f47f ae39 	bne.w	8002e36 <HAL_PCD_IRQHandler+0x736>
 80031c4:	f8d4 1294 	ldr.w	r1, [r4, #660]	; 0x294
 80031c8:	b1d9      	cbz	r1, 8003202 <HAL_PCD_IRQHandler+0xb02>
 80031ca:	f8d4 128c 	ldr.w	r1, [r4, #652]	; 0x28c
 80031ce:	4411      	add	r1, r2
 80031d0:	f8c4 128c 	str.w	r1, [r4, #652]	; 0x28c
 80031d4:	e62f      	b.n	8002e36 <HAL_PCD_IRQHandler+0x736>
 80031d6:	6820      	ldr	r0, [r4, #0]
 80031d8:	f504 618a 	add.w	r1, r4, #1104	; 0x450
 80031dc:	f002 fb34 	bl	8005848 <USB_EPStopXfer>
 80031e0:	6863      	ldr	r3, [r4, #4]
 80031e2:	f7ff bb5b 	b.w	800289c <HAL_PCD_IRQHandler+0x19c>
 80031e6:	f204 42c4 	addw	r2, r4, #1220	; 0x4c4
 80031ea:	4649      	mov	r1, r9
 80031ec:	f002 fc7a 	bl	8005ae4 <USB_EP0_OutStart>
 80031f0:	e621      	b.n	8002e36 <HAL_PCD_IRQHandler+0x736>
 80031f2:	6820      	ldr	r0, [r4, #0]
 80031f4:	f204 4174 	addw	r1, r4, #1140	; 0x474
 80031f8:	f002 fb26 	bl	8005848 <USB_EPStopXfer>
 80031fc:	6863      	ldr	r3, [r4, #4]
 80031fe:	f7ff bb54 	b.w	80028aa <HAL_PCD_IRQHandler+0x1aa>
 8003202:	f204 42c4 	addw	r2, r4, #1220	; 0x4c4
 8003206:	2101      	movs	r1, #1
 8003208:	f002 fc6c 	bl	8005ae4 <USB_EP0_OutStart>
 800320c:	e613      	b.n	8002e36 <HAL_PCD_IRQHandler+0x736>
 800320e:	bf00      	nop
 8003210:	4f54300a 	.word	0x4f54300a

08003214 <HAL_PCD_SetAddress>:
 8003214:	f890 24bc 	ldrb.w	r2, [r0, #1212]	; 0x4bc
 8003218:	2a01      	cmp	r2, #1
 800321a:	d00d      	beq.n	8003238 <HAL_PCD_SetAddress+0x24>
 800321c:	b510      	push	{r4, lr}
 800321e:	4604      	mov	r4, r0
 8003220:	2201      	movs	r2, #1
 8003222:	6800      	ldr	r0, [r0, #0]
 8003224:	f884 24bc 	strb.w	r2, [r4, #1212]	; 0x4bc
 8003228:	f884 1038 	strb.w	r1, [r4, #56]	; 0x38
 800322c:	f002 fbe6 	bl	80059fc <USB_SetDevAddress>
 8003230:	2000      	movs	r0, #0
 8003232:	f884 04bc 	strb.w	r0, [r4, #1212]	; 0x4bc
 8003236:	bd10      	pop	{r4, pc}
 8003238:	2002      	movs	r0, #2
 800323a:	4770      	bx	lr

0800323c <HAL_PCD_EP_Open>:
 800323c:	b510      	push	{r4, lr}
 800323e:	f001 0e0f 	and.w	lr, r1, #15
 8003242:	0609      	lsls	r1, r1, #24
 8003244:	4604      	mov	r4, r0
 8003246:	d427      	bmi.n	8003298 <HAL_PCD_EP_Open+0x5c>
 8003248:	f04f 0c24 	mov.w	ip, #36	; 0x24
 800324c:	fb0c 0c0e 	mla	ip, ip, lr, r0
 8003250:	f50c 711f 	add.w	r1, ip, #636	; 0x27c
 8003254:	eb0e 0cce 	add.w	ip, lr, lr, lsl #3
 8003258:	eb00 0c8c 	add.w	ip, r0, ip, lsl #2
 800325c:	2000      	movs	r0, #0
 800325e:	f88c 027d 	strb.w	r0, [ip, #637]	; 0x27d
 8003262:	60ca      	str	r2, [r1, #12]
 8003264:	784a      	ldrb	r2, [r1, #1]
 8003266:	f881 e000 	strb.w	lr, [r1]
 800326a:	710b      	strb	r3, [r1, #4]
 800326c:	b10a      	cbz	r2, 8003272 <HAL_PCD_EP_Open+0x36>
 800326e:	f8a1 e008 	strh.w	lr, [r1, #8]
 8003272:	2b02      	cmp	r3, #2
 8003274:	bf04      	itt	eq
 8003276:	2300      	moveq	r3, #0
 8003278:	714b      	strbeq	r3, [r1, #5]
 800327a:	f894 34bc 	ldrb.w	r3, [r4, #1212]	; 0x4bc
 800327e:	2b01      	cmp	r3, #1
 8003280:	d018      	beq.n	80032b4 <HAL_PCD_EP_Open+0x78>
 8003282:	2301      	movs	r3, #1
 8003284:	f884 34bc 	strb.w	r3, [r4, #1212]	; 0x4bc
 8003288:	6820      	ldr	r0, [r4, #0]
 800328a:	f002 f877 	bl	800537c <USB_ActivateEndpoint>
 800328e:	2300      	movs	r3, #0
 8003290:	f884 34bc 	strb.w	r3, [r4, #1212]	; 0x4bc
 8003294:	4618      	mov	r0, r3
 8003296:	bd10      	pop	{r4, pc}
 8003298:	2024      	movs	r0, #36	; 0x24
 800329a:	fb00 400e 	mla	r0, r0, lr, r4
 800329e:	f100 013c 	add.w	r1, r0, #60	; 0x3c
 80032a2:	eb0e 00ce 	add.w	r0, lr, lr, lsl #3
 80032a6:	eb04 0080 	add.w	r0, r4, r0, lsl #2
 80032aa:	f04f 0c01 	mov.w	ip, #1
 80032ae:	f880 c03d 	strb.w	ip, [r0, #61]	; 0x3d
 80032b2:	e7d6      	b.n	8003262 <HAL_PCD_EP_Open+0x26>
 80032b4:	2002      	movs	r0, #2
 80032b6:	bd10      	pop	{r4, pc}

080032b8 <HAL_PCD_EP_Close>:
 80032b8:	f001 030f 	and.w	r3, r1, #15
 80032bc:	eb03 02c3 	add.w	r2, r3, r3, lsl #3
 80032c0:	f011 0f80 	tst.w	r1, #128	; 0x80
 80032c4:	f04f 0124 	mov.w	r1, #36	; 0x24
 80032c8:	b510      	push	{r4, lr}
 80032ca:	eb00 0282 	add.w	r2, r0, r2, lsl #2
 80032ce:	4604      	mov	r4, r0
 80032d0:	fb01 0103 	mla	r1, r1, r3, r0
 80032d4:	d113      	bne.n	80032fe <HAL_PCD_EP_Close+0x46>
 80032d6:	f501 711f 	add.w	r1, r1, #636	; 0x27c
 80032da:	2000      	movs	r0, #0
 80032dc:	f882 027d 	strb.w	r0, [r2, #637]	; 0x27d
 80032e0:	700b      	strb	r3, [r1, #0]
 80032e2:	f894 34bc 	ldrb.w	r3, [r4, #1212]	; 0x4bc
 80032e6:	2b01      	cmp	r3, #1
 80032e8:	d012      	beq.n	8003310 <HAL_PCD_EP_Close+0x58>
 80032ea:	2301      	movs	r3, #1
 80032ec:	6820      	ldr	r0, [r4, #0]
 80032ee:	f884 34bc 	strb.w	r3, [r4, #1212]	; 0x4bc
 80032f2:	f002 f88f 	bl	8005414 <USB_DeactivateEndpoint>
 80032f6:	2000      	movs	r0, #0
 80032f8:	f884 04bc 	strb.w	r0, [r4, #1212]	; 0x4bc
 80032fc:	bd10      	pop	{r4, pc}
 80032fe:	313c      	adds	r1, #60	; 0x3c
 8003300:	2001      	movs	r0, #1
 8003302:	f882 003d 	strb.w	r0, [r2, #61]	; 0x3d
 8003306:	700b      	strb	r3, [r1, #0]
 8003308:	f894 34bc 	ldrb.w	r3, [r4, #1212]	; 0x4bc
 800330c:	2b01      	cmp	r3, #1
 800330e:	d1ec      	bne.n	80032ea <HAL_PCD_EP_Close+0x32>
 8003310:	2002      	movs	r0, #2
 8003312:	bd10      	pop	{r4, pc}

08003314 <HAL_PCD_EP_Receive>:
 8003314:	b510      	push	{r4, lr}
 8003316:	f001 040f 	and.w	r4, r1, #15
 800331a:	eb04 0cc4 	add.w	ip, r4, r4, lsl #3
 800331e:	eb00 0c8c 	add.w	ip, r0, ip, lsl #2
 8003322:	2124      	movs	r1, #36	; 0x24
 8003324:	f8cc 3294 	str.w	r3, [ip, #660]	; 0x294
 8003328:	2300      	movs	r3, #0
 800332a:	f8cc 228c 	str.w	r2, [ip, #652]	; 0x28c
 800332e:	f88c 427c 	strb.w	r4, [ip, #636]	; 0x27c
 8003332:	f8cc 329c 	str.w	r3, [ip, #668]	; 0x29c
 8003336:	f88c 327d 	strb.w	r3, [ip, #637]	; 0x27d
 800333a:	6903      	ldr	r3, [r0, #16]
 800333c:	fb01 0104 	mla	r1, r1, r4, r0
 8003340:	2b01      	cmp	r3, #1
 8003342:	bf08      	it	eq
 8003344:	f8cc 2290 	streq.w	r2, [ip, #656]	; 0x290
 8003348:	6800      	ldr	r0, [r0, #0]
 800334a:	f501 711f 	add.w	r1, r1, #636	; 0x27c
 800334e:	b2da      	uxtb	r2, r3
 8003350:	b91c      	cbnz	r4, 800335a <HAL_PCD_EP_Receive+0x46>
 8003352:	f002 f9cd 	bl	80056f0 <USB_EP0StartXfer>
 8003356:	2000      	movs	r0, #0
 8003358:	bd10      	pop	{r4, pc}
 800335a:	f002 f8bd 	bl	80054d8 <USB_EPStartXfer>
 800335e:	2000      	movs	r0, #0
 8003360:	bd10      	pop	{r4, pc}
 8003362:	bf00      	nop

08003364 <HAL_PCD_EP_GetRxCount>:
