Archive member included to satisfy reference by file (symbol)

D:/ST/STM32CubeIDE_1.14.0/STM32CubeIDE/plugins/com.st.stm32cube.ide.mcu.externaltools.gnu-tools-for-stm32.11.3.rel1.win32_1.1.100.202309141235/tools/bin/../lib/gcc/arm-none-eabi/11.3.1/../../../../arm-none-eabi/lib/thumb/v7e-m+fp/hard\libc_nano.a(libc_a-abort.o)
                              ./pikapython/pikascript-core/PikaCompiler.o (abort)
D:/ST/STM32CubeIDE_1.14.0/STM32CubeIDE/plugins/com.st.stm32cube.ide.mcu.externaltools.gnu-tools-for-stm32.11.3.rel1.win32_1.1.100.202309141235/tools/bin/../lib/gcc/arm-none-eabi/11.3.1/../../../../arm-none-eabi/lib/thumb/v7e-m+fp/hard\libc_nano.a(libc_a-exit.o)
                              D:/ST/STM32CubeIDE_1.14.0/STM32CubeIDE/plugins/com.st.stm32cube.ide.mcu.externaltools.gnu-tools-for-stm32.11.3.rel1.win32_1.1.100.202309141235/tools/bin/../lib/gcc/arm-none-eabi/11.3.1/../../../../arm-none-eabi/lib/thumb/v7e-m+fp/hard/crt0.o (exit)
D:/ST/STM32CubeIDE_1.14.0/STM32CubeIDE/plugins/com.st.stm32cube.ide.mcu.externaltools.gnu-tools-for-stm32.11.3.rel1.win32_1.1.100.202309141235/tools/bin/../lib/gcc/arm-none-eabi/11.3.1/../../../../arm-none-eabi/lib/thumb/v7e-m+fp/hard\libc_nano.a(libc_a-malloc.o)
                              ./pikapython/pikascript-core/PikaPlatform.o (malloc)
D:/ST/STM32CubeIDE_1.14.0/STM32CubeIDE/plugins/com.st.stm32cube.ide.mcu.externaltools.gnu-tools-for-stm32.11.3.rel1.win32_1.1.100.202309141235/tools/bin/../lib/gcc/arm-none-eabi/11.3.1/../../../../arm-none-eabi/lib/thumb/v7e-m+fp/hard\libc_nano.a(libc_a-mallocr.o)
                              D:/ST/STM32CubeIDE_1.14.0/STM32CubeIDE/plugins/com.st.stm32cube.ide.mcu.externaltools.gnu-tools-for-stm32.11.3.rel1.win32_1.1.100.202309141235/tools/bin/../lib/gcc/arm-none-eabi/11.3.1/../../../../arm-none-eabi/lib/thumb/v7e-m+fp/hard\libc_nano.a(libc_a-malloc.o) (_malloc_r)
D:/ST/STM32CubeIDE_1.14.0/STM32CubeIDE/plugins/com.st.stm32cube.ide.mcu.externaltools.gnu-tools-for-stm32.11.3.rel1.win32_1.1.100.202309141235/tools/bin/../lib/gcc/arm-none-eabi/11.3.1/../../../../arm-none-eabi/lib/thumb/v7e-m+fp/hard\libc_nano.a(libc_a-mlock.o)
                              D:/ST/STM32CubeIDE_1.14.0/STM32CubeIDE/plugins/com.st.stm32cube.ide.mcu.externaltools.gnu-tools-for-stm32.11.3.rel1.win32_1.1.100.202309141235/tools/bin/../lib/gcc/arm-none-eabi/11.3.1/../../../../arm-none-eabi/lib/thumb/v7e-m+fp/hard\libc_nano.a(libc_a-mallocr.o) (__malloc_lock)
D:/ST/STM32CubeIDE_1.14.0/STM32CubeIDE/plugins/com.st.stm32cube.ide.mcu.externaltools.gnu-tools-for-stm32.11.3.rel1.win32_1.1.100.202309141235/tools/bin/../lib/gcc/arm-none-eabi/11.3.1/../../../../arm-none-eabi/lib/thumb/v7e-m+fp/hard\libc_nano.a(libc_a-realloc.o)
                              ./pikapython/pikascript-core/PikaPlatform.o (realloc)
D:/ST/STM32CubeIDE_1.14.0/STM32CubeIDE/plugins/com.st.stm32cube.ide.mcu.externaltools.gnu-tools-for-stm32.11.3.rel1.win32_1.1.100.202309141235/tools/bin/../lib/gcc/arm-none-eabi/11.3.1/../../../../arm-none-eabi/lib/thumb/v7e-m+fp/hard\libc_nano.a(libc_a-reallocr.o)
                              D:/ST/STM32CubeIDE_1.14.0/STM32CubeIDE/plugins/com.st.stm32cube.ide.mcu.externaltools.gnu-tools-for-stm32.11.3.rel1.win32_1.1.100.202309141235/tools/bin/../lib/gcc/arm-none-eabi/11.3.1/../../../../arm-none-eabi/lib/thumb/v7e-m+fp/hard\libc_nano.a(libc_a-realloc.o) (_realloc_r)
D:/ST/STM32CubeIDE_1.14.0/STM32CubeIDE/plugins/com.st.stm32cube.ide.mcu.externaltools.gnu-tools-for-stm32.11.3.rel1.win32_1.1.100.202309141235/tools/bin/../lib/gcc/arm-none-eabi/11.3.1/../../../../arm-none-eabi/lib/thumb/v7e-m+fp/hard\libc_nano.a(libc_a-strtod.o)
                              ./pikapython/pikascript-core/PikaObj.o (strtod)
D:/ST/STM32CubeIDE_1.14.0/STM32CubeIDE/plugins/com.st.stm32cube.ide.mcu.externaltools.gnu-tools-for-stm32.11.3.rel1.win32_1.1.100.202309141235/tools/bin/../lib/gcc/arm-none-eabi/11.3.1/../../../../arm-none-eabi/lib/thumb/v7e-m+fp/hard\libc_nano.a(libc_a-strtoll.o)
                              ./pikapython/pikascript-core/PikaObj.o (strtoll)
D:/ST/STM32CubeIDE_1.14.0/STM32CubeIDE/plugins/com.st.stm32cube.ide.mcu.externaltools.gnu-tools-for-stm32.11.3.rel1.win32_1.1.100.202309141235/tools/bin/../lib/gcc/arm-none-eabi/11.3.1/../../../../arm-none-eabi/lib/thumb/v7e-m+fp/hard\libc_nano.a(libc_a-ctype_.o)
                              ./pikapython/pikascript-lib/PikaStdLib/PikaStdData_String.o (_ctype_)
D:/ST/STM32CubeIDE_1.14.0/STM32CubeIDE/plugins/com.st.stm32cube.ide.mcu.externaltools.gnu-tools-for-stm32.11.3.rel1.win32_1.1.100.202309141235/tools/bin/../lib/gcc/arm-none-eabi/11.3.1/../../../../arm-none-eabi/lib/thumb/v7e-m+fp/hard\libc_nano.a(libc_a-findfp.o)
                              ./Middlewares/FreeRTOS/tasks.o (__sf)
D:/ST/STM32CubeIDE_1.14.0/STM32CubeIDE/plugins/com.st.stm32cube.ide.mcu.externaltools.gnu-tools-for-stm32.11.3.rel1.win32_1.1.100.202309141235/tools/bin/../lib/gcc/arm-none-eabi/11.3.1/../../../../arm-none-eabi/lib/thumb/v7e-m+fp/hard\libc_nano.a(libc_a-fwalk.o)
                              D:/ST/STM32CubeIDE_1.14.0/STM32CubeIDE/plugins/com.st.stm32cube.ide.mcu.externaltools.gnu-tools-for-stm32.11.3.rel1.win32_1.1.100.202309141235/tools/bin/../lib/gcc/arm-none-eabi/11.3.1/../../../../arm-none-eabi/lib/thumb/v7e-m+fp/hard\libc_nano.a(libc_a-findfp.o) (_fwalk_sglue)
D:/ST/STM32CubeIDE_1.14.0/STM32CubeIDE/plugins/com.st.stm32cube.ide.mcu.externaltools.gnu-tools-for-stm32.11.3.rel1.win32_1.1.100.202309141235/tools/bin/../lib/gcc/arm-none-eabi/11.3.1/../../../../arm-none-eabi/lib/thumb/v7e-m+fp/hard\libc_nano.a(libc_a-putchar.o)
                              ./pikapython/pikascript-core/PikaPlatform.o (putchar)
D:/ST/STM32CubeIDE_1.14.0/STM32CubeIDE/plugins/com.st.stm32cube.ide.mcu.externaltools.gnu-tools-for-stm32.11.3.rel1.win32_1.1.100.202309141235/tools/bin/../lib/gcc/arm-none-eabi/11.3.1/../../../../arm-none-eabi/lib/thumb/v7e-m+fp/hard\libc_nano.a(libc_a-sprintf.o)
                              ./pikapython/pikascript-lib/PikaStdDevice/PikaStdDevice_Timer.o (sprintf)
D:/ST/STM32CubeIDE_1.14.0/STM32CubeIDE/plugins/com.st.stm32cube.ide.mcu.externaltools.gnu-tools-for-stm32.11.3.rel1.win32_1.1.100.202309141235/tools/bin/../lib/gcc/arm-none-eabi/11.3.1/../../../../arm-none-eabi/lib/thumb/v7e-m+fp/hard\libc_nano.a(libc_a-stdio.o)
                              D:/ST/STM32CubeIDE_1.14.0/STM32CubeIDE/plugins/com.st.stm32cube.ide.mcu.externaltools.gnu-tools-for-stm32.11.3.rel1.win32_1.1.100.202309141235/tools/bin/../lib/gcc/arm-none-eabi/11.3.1/../../../../arm-none-eabi/lib/thumb/v7e-m+fp/hard\libc_nano.a(libc_a-findfp.o) (__sread)
D:/ST/STM32CubeIDE_1.14.0/STM32CubeIDE/plugins/com.st.stm32cube.ide.mcu.externaltools.gnu-tools-for-stm32.11.3.rel1.win32_1.1.100.202309141235/tools/bin/../lib/gcc/arm-none-eabi/11.3.1/../../../../arm-none-eabi/lib/thumb/v7e-m+fp/hard\libc_nano.a(libc_a-vsnprintf.o)
                              ./pikapython/pikascript-core/PikaPlatform.o (vsnprintf)
D:/ST/STM32CubeIDE_1.14.0/STM32CubeIDE/plugins/com.st.stm32cube.ide.mcu.externaltools.gnu-tools-for-stm32.11.3.rel1.win32_1.1.100.202309141235/tools/bin/../lib/gcc/arm-none-eabi/11.3.1/../../../../arm-none-eabi/lib/thumb/v7e-m+fp/hard\libc_nano.a(libc_a-memcmp.o)
                              ./pikapython/pikascript-core/PikaPlatform.o (memcmp)
D:/ST/STM32CubeIDE_1.14.0/STM32CubeIDE/plugins/com.st.stm32cube.ide.mcu.externaltools.gnu-tools-for-stm32.11.3.rel1.win32_1.1.100.202309141235/tools/bin/../lib/gcc/arm-none-eabi/11.3.1/../../../../arm-none-eabi/lib/thumb/v7e-m+fp/hard\libc_nano.a(libc_a-memmove.o)
                              ./pikapython/pikascript-core/PikaPlatform.o (memmove)
D:/ST/STM32CubeIDE_1.14.0/STM32CubeIDE/plugins/com.st.stm32cube.ide.mcu.externaltools.gnu-tools-for-stm32.11.3.rel1.win32_1.1.100.202309141235/tools/bin/../lib/gcc/arm-none-eabi/11.3.1/../../../../arm-none-eabi/lib/thumb/v7e-m+fp/hard\libc_nano.a(libc_a-memset.o)
                              D:/ST/STM32CubeIDE_1.14.0/STM32CubeIDE/plugins/com.st.stm32cube.ide.mcu.externaltools.gnu-tools-for-stm32.11.3.rel1.win32_1.1.100.202309141235/tools/bin/../lib/gcc/arm-none-eabi/11.3.1/../../../../arm-none-eabi/lib/thumb/v7e-m+fp/hard/crt0.o (memset)
D:/ST/STM32CubeIDE_1.14.0/STM32CubeIDE/plugins/com.st.stm32cube.ide.mcu.externaltools.gnu-tools-for-stm32.11.3.rel1.win32_1.1.100.202309141235/tools/bin/../lib/gcc/arm-none-eabi/11.3.1/../../../../arm-none-eabi/lib/thumb/v7e-m+fp/hard\libc_nano.a(libc_a-strchr.o)
                              ./pikapython/pikascript-core/PikaParser.o (strchr)
D:/ST/STM32CubeIDE_1.14.0/STM32CubeIDE/plugins/com.st.stm32cube.ide.mcu.externaltools.gnu-tools-for-stm32.11.3.rel1.win32_1.1.100.202309141235/tools/bin/../lib/gcc/arm-none-eabi/11.3.1/../../../../arm-none-eabi/lib/thumb/v7e-m+fp/hard\libc_nano.a(libc_a-strncmp.o)
                              ./pikapython/pikascript-core/PikaVM.o (strncmp)
D:/ST/STM32CubeIDE_1.14.0/STM32CubeIDE/plugins/com.st.stm32cube.ide.mcu.externaltools.gnu-tools-for-stm32.11.3.rel1.win32_1.1.100.202309141235/tools/bin/../lib/gcc/arm-none-eabi/11.3.1/../../../../arm-none-eabi/lib/thumb/v7e-m+fp/hard\libc_nano.a(libc_a-strncpy.o)
                              ./pikapython/pikascript-core/PikaPlatform.o (strncpy)
D:/ST/STM32CubeIDE_1.14.0/STM32CubeIDE/plugins/com.st.stm32cube.ide.mcu.externaltools.gnu-tools-for-stm32.11.3.rel1.win32_1.1.100.202309141235/tools/bin/../lib/gcc/arm-none-eabi/11.3.1/../../../../arm-none-eabi/lib/thumb/v7e-m+fp/hard\libc_nano.a(libc_a-strstr.o)
                              ./pikapython/pikascript-core/PikaObj.o (strstr)
D:/ST/STM32CubeIDE_1.14.0/STM32CubeIDE/plugins/com.st.stm32cube.ide.mcu.externaltools.gnu-tools-for-stm32.11.3.rel1.win32_1.1.100.202309141235/tools/bin/../lib/gcc/arm-none-eabi/11.3.1/../../../../arm-none-eabi/lib/thumb/v7e-m+fp/hard\libc_nano.a(libc_a-signal.o)
                              D:/ST/STM32CubeIDE_1.14.0/STM32CubeIDE/plugins/com.st.stm32cube.ide.mcu.externaltools.gnu-tools-for-stm32.11.3.rel1.win32_1.1.100.202309141235/tools/bin/../lib/gcc/arm-none-eabi/11.3.1/../../../../arm-none-eabi/lib/thumb/v7e-m+fp/hard\libc_nano.a(libc_a-abort.o) (raise)
D:/ST/STM32CubeIDE_1.14.0/STM32CubeIDE/plugins/com.st.stm32cube.ide.mcu.externaltools.gnu-tools-for-stm32.11.3.rel1.win32_1.1.100.202309141235/tools/bin/../lib/gcc/arm-none-eabi/11.3.1/../../../../arm-none-eabi/lib/thumb/v7e-m+fp/hard\libc_nano.a(libc_a-locale.o)
                              D:/ST/STM32CubeIDE_1.14.0/STM32CubeIDE/plugins/com.st.stm32cube.ide.mcu.externaltools.gnu-tools-for-stm32.11.3.rel1.win32_1.1.100.202309141235/tools/bin/../lib/gcc/arm-none-eabi/11.3.1/../../../../arm-none-eabi/lib/thumb/v7e-m+fp/hard\libc_nano.a(libc_a-strtod.o) (__global_locale)
D:/ST/STM32CubeIDE_1.14.0/STM32CubeIDE/plugins/com.st.stm32cube.ide.mcu.externaltools.gnu-tools-for-stm32.11.3.rel1.win32_1.1.100.202309141235/tools/bin/../lib/gcc/arm-none-eabi/11.3.1/../../../../arm-none-eabi/lib/thumb/v7e-m+fp/hard\libc_nano.a(libc_a-closer.o)
                              D:/ST/STM32CubeIDE_1.14.0/STM32CubeIDE/plugins/com.st.stm32cube.ide.mcu.externaltools.gnu-tools-for-stm32.11.3.rel1.win32_1.1.100.202309141235/tools/bin/../lib/gcc/arm-none-eabi/11.3.1/../../../../arm-none-eabi/lib/thumb/v7e-m+fp/hard\libc_nano.a(libc_a-stdio.o) (_close_r)
D:/ST/STM32CubeIDE_1.14.0/STM32CubeIDE/plugins/com.st.stm32cube.ide.mcu.externaltools.gnu-tools-for-stm32.11.3.rel1.win32_1.1.100.202309141235/tools/bin/../lib/gcc/arm-none-eabi/11.3.1/../../../../arm-none-eabi/lib/thumb/v7e-m+fp/hard\libc_nano.a(libc_a-reent.o)
                              ./Middlewares/FreeRTOS/tasks.o (_reclaim_reent)
D:/ST/STM32CubeIDE_1.14.0/STM32CubeIDE/plugins/com.st.stm32cube.ide.mcu.externaltools.gnu-tools-for-stm32.11.3.rel1.win32_1.1.100.202309141235/tools/bin/../lib/gcc/arm-none-eabi/11.3.1/../../../../arm-none-eabi/lib/thumb/v7e-m+fp/hard\libc_nano.a(libc_a-impure.o)
                              ./Middlewares/FreeRTOS/tasks.o (_impure_ptr)
D:/ST/STM32CubeIDE_1.14.0/STM32CubeIDE/plugins/com.st.stm32cube.ide.mcu.externaltools.gnu-tools-for-stm32.11.3.rel1.win32_1.1.100.202309141235/tools/bin/../lib/gcc/arm-none-eabi/11.3.1/../../../../arm-none-eabi/lib/thumb/v7e-m+fp/hard\libc_nano.a(libc_a-lseekr.o)
                              D:/ST/STM32CubeIDE_1.14.0/STM32CubeIDE/plugins/com.st.stm32cube.ide.mcu.externaltools.gnu-tools-for-stm32.11.3.rel1.win32_1.1.100.202309141235/tools/bin/../lib/gcc/arm-none-eabi/11.3.1/../../../../arm-none-eabi/lib/thumb/v7e-m+fp/hard\libc_nano.a(libc_a-stdio.o) (_lseek_r)
D:/ST/STM32CubeIDE_1.14.0/STM32CubeIDE/plugins/com.st.stm32cube.ide.mcu.externaltools.gnu-tools-for-stm32.11.3.rel1.win32_1.1.100.202309141235/tools/bin/../lib/gcc/arm-none-eabi/11.3.1/../../../../arm-none-eabi/lib/thumb/v7e-m+fp/hard\libc_nano.a(libc_a-readr.o)
                              D:/ST/STM32CubeIDE_1.14.0/STM32CubeIDE/plugins/com.st.stm32cube.ide.mcu.externaltools.gnu-tools-for-stm32.11.3.rel1.win32_1.1.100.202309141235/tools/bin/../lib/gcc/arm-none-eabi/11.3.1/../../../../arm-none-eabi/lib/thumb/v7e-m+fp/hard\libc_nano.a(libc_a-stdio.o) (_read_r)
D:/ST/STM32CubeIDE_1.14.0/STM32CubeIDE/plugins/com.st.stm32cube.ide.mcu.externaltools.gnu-tools-for-stm32.11.3.rel1.win32_1.1.100.202309141235/tools/bin/../lib/gcc/arm-none-eabi/11.3.1/../../../../arm-none-eabi/lib/thumb/v7e-m+fp/hard\libc_nano.a(libc_a-signalr.o)
                              D:/ST/STM32CubeIDE_1.14.0/STM32CubeIDE/plugins/com.st.stm32cube.ide.mcu.externaltools.gnu-tools-for-stm32.11.3.rel1.win32_1.1.100.202309141235/tools/bin/../lib/gcc/arm-none-eabi/11.3.1/../../../../arm-none-eabi/lib/thumb/v7e-m+fp/hard\libc_nano.a(libc_a-signal.o) (_kill_r)
D:/ST/STM32CubeIDE_1.14.0/STM32CubeIDE/plugins/com.st.stm32cube.ide.mcu.externaltools.gnu-tools-for-stm32.11.3.rel1.win32_1.1.100.202309141235/tools/bin/../lib/gcc/arm-none-eabi/11.3.1/../../../../arm-none-eabi/lib/thumb/v7e-m+fp/hard\libc_nano.a(libc_a-sbrkr.o)
                              D:/ST/STM32CubeIDE_1.14.0/STM32CubeIDE/plugins/com.st.stm32cube.ide.mcu.externaltools.gnu-tools-for-stm32.11.3.rel1.win32_1.1.100.202309141235/tools/bin/../lib/gcc/arm-none-eabi/11.3.1/../../../../arm-none-eabi/lib/thumb/v7e-m+fp/hard\libc_nano.a(libc_a-mallocr.o) (_sbrk_r)
D:/ST/STM32CubeIDE_1.14.0/STM32CubeIDE/plugins/com.st.stm32cube.ide.mcu.externaltools.gnu-tools-for-stm32.11.3.rel1.win32_1.1.100.202309141235/tools/bin/../lib/gcc/arm-none-eabi/11.3.1/../../../../arm-none-eabi/lib/thumb/v7e-m+fp/hard\libc_nano.a(libc_a-writer.o)
                              D:/ST/STM32CubeIDE_1.14.0/STM32CubeIDE/plugins/com.st.stm32cube.ide.mcu.externaltools.gnu-tools-for-stm32.11.3.rel1.win32_1.1.100.202309141235/tools/bin/../lib/gcc/arm-none-eabi/11.3.1/../../../../arm-none-eabi/lib/thumb/v7e-m+fp/hard\libc_nano.a(libc_a-stdio.o) (_write_r)
D:/ST/STM32CubeIDE_1.14.0/STM32CubeIDE/plugins/com.st.stm32cube.ide.mcu.externaltools.gnu-tools-for-stm32.11.3.rel1.win32_1.1.100.202309141235/tools/bin/../lib/gcc/arm-none-eabi/11.3.1/../../../../arm-none-eabi/lib/thumb/v7e-m+fp/hard\libc_nano.a(libc_a-errno.o)
                              ./Application/User/Core/syscalls.o (__errno)
D:/ST/STM32CubeIDE_1.14.0/STM32CubeIDE/plugins/com.st.stm32cube.ide.mcu.externaltools.gnu-tools-for-stm32.11.3.rel1.win32_1.1.100.202309141235/tools/bin/../lib/gcc/arm-none-eabi/11.3.1/../../../../arm-none-eabi/lib/thumb/v7e-m+fp/hard\libc_nano.a(libc_a-init.o)
                              D:/ST/STM32CubeIDE_1.14.0/STM32CubeIDE/plugins/com.st.stm32cube.ide.mcu.externaltools.gnu-tools-for-stm32.11.3.rel1.win32_1.1.100.202309141235/tools/bin/../lib/gcc/arm-none-eabi/11.3.1/../../../../arm-none-eabi/lib/thumb/v7e-m+fp/hard/crt0.o (__libc_init_array)
D:/ST/STM32CubeIDE_1.14.0/STM32CubeIDE/plugins/com.st.stm32cube.ide.mcu.externaltools.gnu-tools-for-stm32.11.3.rel1.win32_1.1.100.202309141235/tools/bin/../lib/gcc/arm-none-eabi/11.3.1/../../../../arm-none-eabi/lib/thumb/v7e-m+fp/hard\libc_nano.a(libc_a-lock.o)
                              D:/ST/STM32CubeIDE_1.14.0/STM32CubeIDE/plugins/com.st.stm32cube.ide.mcu.externaltools.gnu-tools-for-stm32.11.3.rel1.win32_1.1.100.202309141235/tools/bin/../lib/gcc/arm-none-eabi/11.3.1/../../../../arm-none-eabi/lib/thumb/v7e-m+fp/hard\libc_nano.a(libc_a-findfp.o) (__retarget_lock_init_recursive)
D:/ST/STM32CubeIDE_1.14.0/STM32CubeIDE/plugins/com.st.stm32cube.ide.mcu.externaltools.gnu-tools-for-stm32.11.3.rel1.win32_1.1.100.202309141235/tools/bin/../lib/gcc/arm-none-eabi/11.3.1/../../../../arm-none-eabi/lib/thumb/v7e-m+fp/hard\libc_nano.a(libc_a-strcmp.o)
                              ./pikapython/pikascript-core/dataString.o (strcmp)
D:/ST/STM32CubeIDE_1.14.0/STM32CubeIDE/plugins/com.st.stm32cube.ide.mcu.externaltools.gnu-tools-for-stm32.11.3.rel1.win32_1.1.100.202309141235/tools/bin/../lib/gcc/arm-none-eabi/11.3.1/../../../../arm-none-eabi/lib/thumb/v7e-m+fp/hard\libc_nano.a(libc_a-strcpy.o)
                              ./pikapython/pikascript-core/PikaObj.o (strcpy)
D:/ST/STM32CubeIDE_1.14.0/STM32CubeIDE/plugins/com.st.stm32cube.ide.mcu.externaltools.gnu-tools-for-stm32.11.3.rel1.win32_1.1.100.202309141235/tools/bin/../lib/gcc/arm-none-eabi/11.3.1/../../../../arm-none-eabi/lib/thumb/v7e-m+fp/hard\libc_nano.a(libc_a-memcpy-stub.o)
                              ./Middlewares/FreeRTOS/cmsis_os2.o (memcpy)
D:/ST/STM32CubeIDE_1.14.0/STM32CubeIDE/plugins/com.st.stm32cube.ide.mcu.externaltools.gnu-tools-for-stm32.11.3.rel1.win32_1.1.100.202309141235/tools/bin/../lib/gcc/arm-none-eabi/11.3.1/../../../../arm-none-eabi/lib/thumb/v7e-m+fp/hard\libc_nano.a(libc_a-strlen.o)
                              ./pikapython/pikascript-core/PikaCompiler.o (strlen)
D:/ST/STM32CubeIDE_1.14.0/STM32CubeIDE/plugins/com.st.stm32cube.ide.mcu.externaltools.gnu-tools-for-stm32.11.3.rel1.win32_1.1.100.202309141235/tools/bin/../lib/gcc/arm-none-eabi/11.3.1/../../../../arm-none-eabi/lib/thumb/v7e-m+fp/hard\libc_nano.a(libm_a-s_nan.o)
                              D:/ST/STM32CubeIDE_1.14.0/STM32CubeIDE/plugins/com.st.stm32cube.ide.mcu.externaltools.gnu-tools-for-stm32.11.3.rel1.win32_1.1.100.202309141235/tools/bin/../lib/gcc/arm-none-eabi/11.3.1/../../../../arm-none-eabi/lib/thumb/v7e-m+fp/hard\libc_nano.a(libc_a-strtod.o) (nan)
D:/ST/STM32CubeIDE_1.14.0/STM32CubeIDE/plugins/com.st.stm32cube.ide.mcu.externaltools.gnu-tools-for-stm32.11.3.rel1.win32_1.1.100.202309141235/tools/bin/../lib/gcc/arm-none-eabi/11.3.1/../../../../arm-none-eabi/lib/thumb/v7e-m+fp/hard\libc_nano.a(libm_a-sf_nan.o)
                              D:/ST/STM32CubeIDE_1.14.0/STM32CubeIDE/plugins/com.st.stm32cube.ide.mcu.externaltools.gnu-tools-for-stm32.11.3.rel1.win32_1.1.100.202309141235/tools/bin/../lib/gcc/arm-none-eabi/11.3.1/../../../../arm-none-eabi/lib/thumb/v7e-m+fp/hard\libc_nano.a(libc_a-strtod.o) (nanf)
D:/ST/STM32CubeIDE_1.14.0/STM32CubeIDE/plugins/com.st.stm32cube.ide.mcu.externaltools.gnu-tools-for-stm32.11.3.rel1.win32_1.1.100.202309141235/tools/bin/../lib/gcc/arm-none-eabi/11.3.1/../../../../arm-none-eabi/lib/thumb/v7e-m+fp/hard\libc_nano.a(libc_a-freer.o)
                              D:/ST/STM32CubeIDE_1.14.0/STM32CubeIDE/plugins/com.st.stm32cube.ide.mcu.externaltools.gnu-tools-for-stm32.11.3.rel1.win32_1.1.100.202309141235/tools/bin/../lib/gcc/arm-none-eabi/11.3.1/../../../../arm-none-eabi/lib/thumb/v7e-m+fp/hard\libc_nano.a(libc_a-malloc.o) (_free_r)
D:/ST/STM32CubeIDE_1.14.0/STM32CubeIDE/plugins/com.st.stm32cube.ide.mcu.externaltools.gnu-tools-for-stm32.11.3.rel1.win32_1.1.100.202309141235/tools/bin/../lib/gcc/arm-none-eabi/11.3.1/../../../../arm-none-eabi/lib/thumb/v7e-m+fp/hard\libc_nano.a(libc_a-gdtoa-gethex.o)
                              D:/ST/STM32CubeIDE_1.14.0/STM32CubeIDE/plugins/com.st.stm32cube.ide.mcu.externaltools.gnu-tools-for-stm32.11.3.rel1.win32_1.1.100.202309141235/tools/bin/../lib/gcc/arm-none-eabi/11.3.1/../../../../arm-none-eabi/lib/thumb/v7e-m+fp/hard\libc_nano.a(libc_a-strtod.o) (__gethex)
D:/ST/STM32CubeIDE_1.14.0/STM32CubeIDE/plugins/com.st.stm32cube.ide.mcu.externaltools.gnu-tools-for-stm32.11.3.rel1.win32_1.1.100.202309141235/tools/bin/../lib/gcc/arm-none-eabi/11.3.1/../../../../arm-none-eabi/lib/thumb/v7e-m+fp/hard\libc_nano.a(libc_a-gdtoa-hexnan.o)
                              D:/ST/STM32CubeIDE_1.14.0/STM32CubeIDE/plugins/com.st.stm32cube.ide.mcu.externaltools.gnu-tools-for-stm32.11.3.rel1.win32_1.1.100.202309141235/tools/bin/../lib/gcc/arm-none-eabi/11.3.1/../../../../arm-none-eabi/lib/thumb/v7e-m+fp/hard\libc_nano.a(libc_a-strtod.o) (__match)
D:/ST/STM32CubeIDE_1.14.0/STM32CubeIDE/plugins/com.st.stm32cube.ide.mcu.externaltools.gnu-tools-for-stm32.11.3.rel1.win32_1.1.100.202309141235/tools/bin/../lib/gcc/arm-none-eabi/11.3.1/../../../../arm-none-eabi/lib/thumb/v7e-m+fp/hard\libc_nano.a(libc_a-mbtowc_r.o)
                              D:/ST/STM32CubeIDE_1.14.0/STM32CubeIDE/plugins/com.st.stm32cube.ide.mcu.externaltools.gnu-tools-for-stm32.11.3.rel1.win32_1.1.100.202309141235/tools/bin/../lib/gcc/arm-none-eabi/11.3.1/../../../../arm-none-eabi/lib/thumb/v7e-m+fp/hard\libc_nano.a(libc_a-locale.o) (__ascii_mbtowc)
D:/ST/STM32CubeIDE_1.14.0/STM32CubeIDE/plugins/com.st.stm32cube.ide.mcu.externaltools.gnu-tools-for-stm32.11.3.rel1.win32_1.1.100.202309141235/tools/bin/../lib/gcc/arm-none-eabi/11.3.1/../../../../arm-none-eabi/lib/thumb/v7e-m+fp/hard\libc_nano.a(libc_a-mprec.o)
                              D:/ST/STM32CubeIDE_1.14.0/STM32CubeIDE/plugins/com.st.stm32cube.ide.mcu.externaltools.gnu-tools-for-stm32.11.3.rel1.win32_1.1.100.202309141235/tools/bin/../lib/gcc/arm-none-eabi/11.3.1/../../../../arm-none-eabi/lib/thumb/v7e-m+fp/hard\libc_nano.a(libc_a-strtod.o) (_Balloc)
D:/ST/STM32CubeIDE_1.14.0/STM32CubeIDE/plugins/com.st.stm32cube.ide.mcu.externaltools.gnu-tools-for-stm32.11.3.rel1.win32_1.1.100.202309141235/tools/bin/../lib/gcc/arm-none-eabi/11.3.1/../../../../arm-none-eabi/lib/thumb/v7e-m+fp/hard\libc_nano.a(libc_a-msizer.o)
                              D:/ST/STM32CubeIDE_1.14.0/STM32CubeIDE/plugins/com.st.stm32cube.ide.mcu.externaltools.gnu-tools-for-stm32.11.3.rel1.win32_1.1.100.202309141235/tools/bin/../lib/gcc/arm-none-eabi/11.3.1/../../../../arm-none-eabi/lib/thumb/v7e-m+fp/hard\libc_nano.a(libc_a-reallocr.o) (_malloc_usable_size_r)
D:/ST/STM32CubeIDE_1.14.0/STM32CubeIDE/plugins/com.st.stm32cube.ide.mcu.externaltools.gnu-tools-for-stm32.11.3.rel1.win32_1.1.100.202309141235/tools/bin/../lib/gcc/arm-none-eabi/11.3.1/../../../../arm-none-eabi/lib/thumb/v7e-m+fp/hard\libc_nano.a(libc_a-wctomb_r.o)
                              D:/ST/STM32CubeIDE_1.14.0/STM32CubeIDE/plugins/com.st.stm32cube.ide.mcu.externaltools.gnu-tools-for-stm32.11.3.rel1.win32_1.1.100.202309141235/tools/bin/../lib/gcc/arm-none-eabi/11.3.1/../../../../arm-none-eabi/lib/thumb/v7e-m+fp/hard\libc_nano.a(libc_a-locale.o) (__ascii_wctomb)
D:/ST/STM32CubeIDE_1.14.0/STM32CubeIDE/plugins/com.st.stm32cube.ide.mcu.externaltools.gnu-tools-for-stm32.11.3.rel1.win32_1.1.100.202309141235/tools/bin/../lib/gcc/arm-none-eabi/11.3.1/../../../../arm-none-eabi/lib/thumb/v7e-m+fp/hard\libc_nano.a(libc_a-nano-svfprintf.o)
                              D:/ST/STM32CubeIDE_1.14.0/STM32CubeIDE/plugins/com.st.stm32cube.ide.mcu.externaltools.gnu-tools-for-stm32.11.3.rel1.win32_1.1.100.202309141235/tools/bin/../lib/gcc/arm-none-eabi/11.3.1/../../../../arm-none-eabi/lib/thumb/v7e-m+fp/hard\libc_nano.a(libc_a-sprintf.o) (_svfprintf_r)
D:/ST/STM32CubeIDE_1.14.0/STM32CubeIDE/plugins/com.st.stm32cube.ide.mcu.externaltools.gnu-tools-for-stm32.11.3.rel1.win32_1.1.100.202309141235/tools/bin/../lib/gcc/arm-none-eabi/11.3.1/../../../../arm-none-eabi/lib/thumb/v7e-m+fp/hard\libc_nano.a(libc_a-nano-vfprintf_i.o)
                              D:/ST/STM32CubeIDE_1.14.0/STM32CubeIDE/plugins/com.st.stm32cube.ide.mcu.externaltools.gnu-tools-for-stm32.11.3.rel1.win32_1.1.100.202309141235/tools/bin/../lib/gcc/arm-none-eabi/11.3.1/../../../../arm-none-eabi/lib/thumb/v7e-m+fp/hard\libc_nano.a(libc_a-nano-svfprintf.o) (_printf_i)
D:/ST/STM32CubeIDE_1.14.0/STM32CubeIDE/plugins/com.st.stm32cube.ide.mcu.externaltools.gnu-tools-for-stm32.11.3.rel1.win32_1.1.100.202309141235/tools/bin/../lib/gcc/arm-none-eabi/11.3.1/../../../../arm-none-eabi/lib/thumb/v7e-m+fp/hard\libc_nano.a(libc_a-fflush.o)
                              D:/ST/STM32CubeIDE_1.14.0/STM32CubeIDE/plugins/com.st.stm32cube.ide.mcu.externaltools.gnu-tools-for-stm32.11.3.rel1.win32_1.1.100.202309141235/tools/bin/../lib/gcc/arm-none-eabi/11.3.1/../../../../arm-none-eabi/lib/thumb/v7e-m+fp/hard\libc_nano.a(libc_a-findfp.o) (_fflush_r)
D:/ST/STM32CubeIDE_1.14.0/STM32CubeIDE/plugins/com.st.stm32cube.ide.mcu.externaltools.gnu-tools-for-stm32.11.3.rel1.win32_1.1.100.202309141235/tools/bin/../lib/gcc/arm-none-eabi/11.3.1/../../../../arm-none-eabi/lib/thumb/v7e-m+fp/hard\libc_nano.a(libc_a-putc.o)
                              D:/ST/STM32CubeIDE_1.14.0/STM32CubeIDE/plugins/com.st.stm32cube.ide.mcu.externaltools.gnu-tools-for-stm32.11.3.rel1.win32_1.1.100.202309141235/tools/bin/../lib/gcc/arm-none-eabi/11.3.1/../../../../arm-none-eabi/lib/thumb/v7e-m+fp/hard\libc_nano.a(libc_a-putchar.o) (_putc_r)
D:/ST/STM32CubeIDE_1.14.0/STM32CubeIDE/plugins/com.st.stm32cube.ide.mcu.externaltools.gnu-tools-for-stm32.11.3.rel1.win32_1.1.100.202309141235/tools/bin/../lib/gcc/arm-none-eabi/11.3.1/../../../../arm-none-eabi/lib/thumb/v7e-m+fp/hard\libc_nano.a(libc_a-wbuf.o)
                              D:/ST/STM32CubeIDE_1.14.0/STM32CubeIDE/plugins/com.st.stm32cube.ide.mcu.externaltools.gnu-tools-for-stm32.11.3.rel1.win32_1.1.100.202309141235/tools/bin/../lib/gcc/arm-none-eabi/11.3.1/../../../../arm-none-eabi/lib/thumb/v7e-m+fp/hard\libc_nano.a(libc_a-putc.o) (__swbuf_r)
D:/ST/STM32CubeIDE_1.14.0/STM32CubeIDE/plugins/com.st.stm32cube.ide.mcu.externaltools.gnu-tools-for-stm32.11.3.rel1.win32_1.1.100.202309141235/tools/bin/../lib/gcc/arm-none-eabi/11.3.1/../../../../arm-none-eabi/lib/thumb/v7e-m+fp/hard\libc_nano.a(libc_a-wsetup.o)
                              D:/ST/STM32CubeIDE_1.14.0/STM32CubeIDE/plugins/com.st.stm32cube.ide.mcu.externaltools.gnu-tools-for-stm32.11.3.rel1.win32_1.1.100.202309141235/tools/bin/../lib/gcc/arm-none-eabi/11.3.1/../../../../arm-none-eabi/lib/thumb/v7e-m+fp/hard\libc_nano.a(libc_a-wbuf.o) (__swsetup_r)
D:/ST/STM32CubeIDE_1.14.0/STM32CubeIDE/plugins/com.st.stm32cube.ide.mcu.externaltools.gnu-tools-for-stm32.11.3.rel1.win32_1.1.100.202309141235/tools/bin/../lib/gcc/arm-none-eabi/11.3.1/../../../../arm-none-eabi/lib/thumb/v7e-m+fp/hard\libc_nano.a(libc_a-memchr.o)
                              D:/ST/STM32CubeIDE_1.14.0/STM32CubeIDE/plugins/com.st.stm32cube.ide.mcu.externaltools.gnu-tools-for-stm32.11.3.rel1.win32_1.1.100.202309141235/tools/bin/../lib/gcc/arm-none-eabi/11.3.1/../../../../arm-none-eabi/lib/thumb/v7e-m+fp/hard\libc_nano.a(libc_a-nano-svfprintf.o) (memchr)
D:/ST/STM32CubeIDE_1.14.0/STM32CubeIDE/plugins/com.st.stm32cube.ide.mcu.externaltools.gnu-tools-for-stm32.11.3.rel1.win32_1.1.100.202309141235/tools/bin/../lib/gcc/arm-none-eabi/11.3.1/../../../../arm-none-eabi/lib/thumb/v7e-m+fp/hard\libc_nano.a(libc_a-assert.o)
                              D:/ST/STM32CubeIDE_1.14.0/STM32CubeIDE/plugins/com.st.stm32cube.ide.mcu.externaltools.gnu-tools-for-stm32.11.3.rel1.win32_1.1.100.202309141235/tools/bin/../lib/gcc/arm-none-eabi/11.3.1/../../../../arm-none-eabi/lib/thumb/v7e-m+fp/hard\libc_nano.a(libc_a-gdtoa-gethex.o) (__assert_func)
D:/ST/STM32CubeIDE_1.14.0/STM32CubeIDE/plugins/com.st.stm32cube.ide.mcu.externaltools.gnu-tools-for-stm32.11.3.rel1.win32_1.1.100.202309141235/tools/bin/../lib/gcc/arm-none-eabi/11.3.1/../../../../arm-none-eabi/lib/thumb/v7e-m+fp/hard\libc_nano.a(libc_a-callocr.o)
                              D:/ST/STM32CubeIDE_1.14.0/STM32CubeIDE/plugins/com.st.stm32cube.ide.mcu.externaltools.gnu-tools-for-stm32.11.3.rel1.win32_1.1.100.202309141235/tools/bin/../lib/gcc/arm-none-eabi/11.3.1/../../../../arm-none-eabi/lib/thumb/v7e-m+fp/hard\libc_nano.a(libc_a-mprec.o) (_calloc_r)
D:/ST/STM32CubeIDE_1.14.0/STM32CubeIDE/plugins/com.st.stm32cube.ide.mcu.externaltools.gnu-tools-for-stm32.11.3.rel1.win32_1.1.100.202309141235/tools/bin/../lib/gcc/arm-none-eabi/11.3.1/../../../../arm-none-eabi/lib/thumb/v7e-m+fp/hard\libc_nano.a(libc_a-fprintf.o)
                              D:/ST/STM32CubeIDE_1.14.0/STM32CubeIDE/plugins/com.st.stm32cube.ide.mcu.externaltools.gnu-tools-for-stm32.11.3.rel1.win32_1.1.100.202309141235/tools/bin/../lib/gcc/arm-none-eabi/11.3.1/../../../../arm-none-eabi/lib/thumb/v7e-m+fp/hard\libc_nano.a(libc_a-assert.o) (fiprintf)
D:/ST/STM32CubeIDE_1.14.0/STM32CubeIDE/plugins/com.st.stm32cube.ide.mcu.externaltools.gnu-tools-for-stm32.11.3.rel1.win32_1.1.100.202309141235/tools/bin/../lib/gcc/arm-none-eabi/11.3.1/../../../../arm-none-eabi/lib/thumb/v7e-m+fp/hard\libc_nano.a(libc_a-makebuf.o)
                              D:/ST/STM32CubeIDE_1.14.0/STM32CubeIDE/plugins/com.st.stm32cube.ide.mcu.externaltools.gnu-tools-for-stm32.11.3.rel1.win32_1.1.100.202309141235/tools/bin/../lib/gcc/arm-none-eabi/11.3.1/../../../../arm-none-eabi/lib/thumb/v7e-m+fp/hard\libc_nano.a(libc_a-wsetup.o) (__smakebuf_r)
D:/ST/STM32CubeIDE_1.14.0/STM32CubeIDE/plugins/com.st.stm32cube.ide.mcu.externaltools.gnu-tools-for-stm32.11.3.rel1.win32_1.1.100.202309141235/tools/bin/../lib/gcc/arm-none-eabi/11.3.1/../../../../arm-none-eabi/lib/thumb/v7e-m+fp/hard\libc_nano.a(libc_a-fstatr.o)
                              D:/ST/STM32CubeIDE_1.14.0/STM32CubeIDE/plugins/com.st.stm32cube.ide.mcu.externaltools.gnu-tools-for-stm32.11.3.rel1.win32_1.1.100.202309141235/tools/bin/../lib/gcc/arm-none-eabi/11.3.1/../../../../arm-none-eabi/lib/thumb/v7e-m+fp/hard\libc_nano.a(libc_a-makebuf.o) (_fstat_r)
D:/ST/STM32CubeIDE_1.14.0/STM32CubeIDE/plugins/com.st.stm32cube.ide.mcu.externaltools.gnu-tools-for-stm32.11.3.rel1.win32_1.1.100.202309141235/tools/bin/../lib/gcc/arm-none-eabi/11.3.1/../../../../arm-none-eabi/lib/thumb/v7e-m+fp/hard\libc_nano.a(libc_a-isattyr.o)
                              D:/ST/STM32CubeIDE_1.14.0/STM32CubeIDE/plugins/com.st.stm32cube.ide.mcu.externaltools.gnu-tools-for-stm32.11.3.rel1.win32_1.1.100.202309141235/tools/bin/../lib/gcc/arm-none-eabi/11.3.1/../../../../arm-none-eabi/lib/thumb/v7e-m+fp/hard\libc_nano.a(libc_a-makebuf.o) (_isatty_r)
D:/ST/STM32CubeIDE_1.14.0/STM32CubeIDE/plugins/com.st.stm32cube.ide.mcu.externaltools.gnu-tools-for-stm32.11.3.rel1.win32_1.1.100.202309141235/tools/bin/../lib/gcc/arm-none-eabi/11.3.1/../../../../arm-none-eabi/lib/thumb/v7e-m+fp/hard\libc_nano.a(libc_a-nano-vfprintf.o)
                              D:/ST/STM32CubeIDE_1.14.0/STM32CubeIDE/plugins/com.st.stm32cube.ide.mcu.externaltools.gnu-tools-for-stm32.11.3.rel1.win32_1.1.100.202309141235/tools/bin/../lib/gcc/arm-none-eabi/11.3.1/../../../../arm-none-eabi/lib/thumb/v7e-m+fp/hard\libc_nano.a(libc_a-fprintf.o) (_vfprintf_r)
D:/ST/STM32CubeIDE_1.14.0/STM32CubeIDE/plugins/com.st.stm32cube.ide.mcu.externaltools.gnu-tools-for-stm32.11.3.rel1.win32_1.1.100.202309141235/tools/bin/../lib/gcc/arm-none-eabi/11.3.1/../../../../arm-none-eabi/lib/thumb/v7e-m+fp/hard\libc_nano.a(libc_a-fvwrite.o)
                              D:/ST/STM32CubeIDE_1.14.0/STM32CubeIDE/plugins/com.st.stm32cube.ide.mcu.externaltools.gnu-tools-for-stm32.11.3.rel1.win32_1.1.100.202309141235/tools/bin/../lib/gcc/arm-none-eabi/11.3.1/../../../../arm-none-eabi/lib/thumb/v7e-m+fp/hard\libc_nano.a(libc_a-nano-vfprintf.o) (__sfvwrite_r)
D:/ST/STM32CubeIDE_1.14.0/STM32CubeIDE/plugins/com.st.stm32cube.ide.mcu.externaltools.gnu-tools-for-stm32.11.3.rel1.win32_1.1.100.202309141235/tools/bin/../lib/gcc/arm-none-eabi/11.3.1/thumb/v7e-m+fp/hard\libgcc.a(_arm_muldf3.o)
                              ./pikapython/pikascript-core/PikaVM.o (__aeabi_dmul)
D:/ST/STM32CubeIDE_1.14.0/STM32CubeIDE/plugins/com.st.stm32cube.ide.mcu.externaltools.gnu-tools-for-stm32.11.3.rel1.win32_1.1.100.202309141235/tools/bin/../lib/gcc/arm-none-eabi/11.3.1/thumb/v7e-m+fp/hard\libgcc.a(_arm_addsubdf3.o)
                              ./pikapython/pikascript-core/PikaVM.o (__aeabi_dsub)
D:/ST/STM32CubeIDE_1.14.0/STM32CubeIDE/plugins/com.st.stm32cube.ide.mcu.externaltools.gnu-tools-for-stm32.11.3.rel1.win32_1.1.100.202309141235/tools/bin/../lib/gcc/arm-none-eabi/11.3.1/thumb/v7e-m+fp/hard\libgcc.a(_arm_muldivdf3.o)
                              ./pikapython/pikascript-core/PikaVM.o (__aeabi_ddiv)
D:/ST/STM32CubeIDE_1.14.0/STM32CubeIDE/plugins/com.st.stm32cube.ide.mcu.externaltools.gnu-tools-for-stm32.11.3.rel1.win32_1.1.100.202309141235/tools/bin/../lib/gcc/arm-none-eabi/11.3.1/thumb/v7e-m+fp/hard\libgcc.a(_arm_cmpdf2.o)
                              ./pikapython/pikascript-core/PikaVM.o (__aeabi_dcmpeq)
D:/ST/STM32CubeIDE_1.14.0/STM32CubeIDE/plugins/com.st.stm32cube.ide.mcu.externaltools.gnu-tools-for-stm32.11.3.rel1.win32_1.1.100.202309141235/tools/bin/../lib/gcc/arm-none-eabi/11.3.1/thumb/v7e-m+fp/hard\libgcc.a(_arm_unorddf2.o)
                              D:/ST/STM32CubeIDE_1.14.0/STM32CubeIDE/plugins/com.st.stm32cube.ide.mcu.externaltools.gnu-tools-for-stm32.11.3.rel1.win32_1.1.100.202309141235/tools/bin/../lib/gcc/arm-none-eabi/11.3.1/../../../../arm-none-eabi/lib/thumb/v7e-m+fp/hard\libc_nano.a(libc_a-strtod.o) (__aeabi_dcmpun)
D:/ST/STM32CubeIDE_1.14.0/STM32CubeIDE/plugins/com.st.stm32cube.ide.mcu.externaltools.gnu-tools-for-stm32.11.3.rel1.win32_1.1.100.202309141235/tools/bin/../lib/gcc/arm-none-eabi/11.3.1/thumb/v7e-m+fp/hard\libgcc.a(_arm_fixdfsi.o)
                              ./pikapython/pikascript-core/dataArgs.o (__aeabi_d2iz)
D:/ST/STM32CubeIDE_1.14.0/STM32CubeIDE/plugins/com.st.stm32cube.ide.mcu.externaltools.gnu-tools-for-stm32.11.3.rel1.win32_1.1.100.202309141235/tools/bin/../lib/gcc/arm-none-eabi/11.3.1/thumb/v7e-m+fp/hard\libgcc.a(_arm_fixunsdfsi.o)
                              ./pikapython/pikascript-lib/PikaStdDevice/PikaStdDevice_DAC.o (__aeabi_d2uiz)
D:/ST/STM32CubeIDE_1.14.0/STM32CubeIDE/plugins/com.st.stm32cube.ide.mcu.externaltools.gnu-tools-for-stm32.11.3.rel1.win32_1.1.100.202309141235/tools/bin/../lib/gcc/arm-none-eabi/11.3.1/thumb/v7e-m+fp/hard\libgcc.a(_arm_truncdfsf2.o)
                              ./pikapython/pikascript-core/PikaVM.o (__aeabi_d2f)
D:/ST/STM32CubeIDE_1.14.0/STM32CubeIDE/plugins/com.st.stm32cube.ide.mcu.externaltools.gnu-tools-for-stm32.11.3.rel1.win32_1.1.100.202309141235/tools/bin/../lib/gcc/arm-none-eabi/11.3.1/thumb/v7e-m+fp/hard\libgcc.a(_aeabi_ldivmod.o)
                              ./Drivers/STM32F4xx_HAL_Driver/stm32f4xx_hal_rcc.o (__aeabi_ldivmod)
D:/ST/STM32CubeIDE_1.14.0/STM32CubeIDE/plugins/com.st.stm32cube.ide.mcu.externaltools.gnu-tools-for-stm32.11.3.rel1.win32_1.1.100.202309141235/tools/bin/../lib/gcc/arm-none-eabi/11.3.1/thumb/v7e-m+fp/hard\libgcc.a(_aeabi_uldivmod.o)
                              ./Drivers/STM32F4xx_HAL_Driver/stm32f4xx_hal_rcc.o (__aeabi_uldivmod)
D:/ST/STM32CubeIDE_1.14.0/STM32CubeIDE/plugins/com.st.stm32cube.ide.mcu.externaltools.gnu-tools-for-stm32.11.3.rel1.win32_1.1.100.202309141235/tools/bin/../lib/gcc/arm-none-eabi/11.3.1/thumb/v7e-m+fp/hard\libgcc.a(_fixdfdi.o)
                              ./pikapython/pikascript-core/PikaObj.o (__aeabi_d2lz)
D:/ST/STM32CubeIDE_1.14.0/STM32CubeIDE/plugins/com.st.stm32cube.ide.mcu.externaltools.gnu-tools-for-stm32.11.3.rel1.win32_1.1.100.202309141235/tools/bin/../lib/gcc/arm-none-eabi/11.3.1/thumb/v7e-m+fp/hard\libgcc.a(_fixunsdfdi.o)
                              D:/ST/STM32CubeIDE_1.14.0/STM32CubeIDE/plugins/com.st.stm32cube.ide.mcu.externaltools.gnu-tools-for-stm32.11.3.rel1.win32_1.1.100.202309141235/tools/bin/../lib/gcc/arm-none-eabi/11.3.1/thumb/v7e-m+fp/hard\libgcc.a(_fixdfdi.o) (__aeabi_d2ulz)
D:/ST/STM32CubeIDE_1.14.0/STM32CubeIDE/plugins/com.st.stm32cube.ide.mcu.externaltools.gnu-tools-for-stm32.11.3.rel1.win32_1.1.100.202309141235/tools/bin/../lib/gcc/arm-none-eabi/11.3.1/thumb/v7e-m+fp/hard\libgcc.a(_udivmoddi4.o)
                              D:/ST/STM32CubeIDE_1.14.0/STM32CubeIDE/plugins/com.st.stm32cube.ide.mcu.externaltools.gnu-tools-for-stm32.11.3.rel1.win32_1.1.100.202309141235/tools/bin/../lib/gcc/arm-none-eabi/11.3.1/thumb/v7e-m+fp/hard\libgcc.a(_aeabi_ldivmod.o) (__udivmoddi4)
D:/ST/STM32CubeIDE_1.14.0/STM32CubeIDE/plugins/com.st.stm32cube.ide.mcu.externaltools.gnu-tools-for-stm32.11.3.rel1.win32_1.1.100.202309141235/tools/bin/../lib/gcc/arm-none-eabi/11.3.1/thumb/v7e-m+fp/hard\libgcc.a(_dvmd_tls.o)
                              D:/ST/STM32CubeIDE_1.14.0/STM32CubeIDE/plugins/com.st.stm32cube.ide.mcu.externaltools.gnu-tools-for-stm32.11.3.rel1.win32_1.1.100.202309141235/tools/bin/../lib/gcc/arm-none-eabi/11.3.1/thumb/v7e-m+fp/hard\libgcc.a(_aeabi_ldivmod.o) (__aeabi_ldiv0)

Discarded input sections

 .text          0x0000000000000000        0x0 D:/ST/STM32CubeIDE_1.14.0/STM32CubeIDE/plugins/com.st.stm32cube.ide.mcu.externaltools.gnu-tools-for-stm32.11.3.rel1.win32_1.1.100.202309141235/tools/bin/../lib/gcc/arm-none-eabi/11.3.1/thumb/v7e-m+fp/hard/crti.o
 .data          0x0000000000000000        0x0 D:/ST/STM32CubeIDE_1.14.0/STM32CubeIDE/plugins/com.st.stm32cube.ide.mcu.externaltools.gnu-tools-for-stm32.11.3.rel1.win32_1.1.100.202309141235/tools/bin/../lib/gcc/arm-none-eabi/11.3.1/thumb/v7e-m+fp/hard/crti.o
 .bss           0x0000000000000000        0x0 D:/ST/STM32CubeIDE_1.14.0/STM32CubeIDE/plugins/com.st.stm32cube.ide.mcu.externaltools.gnu-tools-for-stm32.11.3.rel1.win32_1.1.100.202309141235/tools/bin/../lib/gcc/arm-none-eabi/11.3.1/thumb/v7e-m+fp/hard/crti.o
 .data          0x0000000000000000        0x4 D:/ST/STM32CubeIDE_1.14.0/STM32CubeIDE/plugins/com.st.stm32cube.ide.mcu.externaltools.gnu-tools-for-stm32.11.3.rel1.win32_1.1.100.202309141235/tools/bin/../lib/gcc/arm-none-eabi/11.3.1/thumb/v7e-m+fp/hard/crtbegin.o
 .rodata        0x0000000000000000       0x24 D:/ST/STM32CubeIDE_1.14.0/STM32CubeIDE/plugins/com.st.stm32cube.ide.mcu.externaltools.gnu-tools-for-stm32.11.3.rel1.win32_1.1.100.202309141235/tools/bin/../lib/gcc/arm-none-eabi/11.3.1/thumb/v7e-m+fp/hard/crtbegin.o
 .text          0x0000000000000000       0x7c D:/ST/STM32CubeIDE_1.14.0/STM32CubeIDE/plugins/com.st.stm32cube.ide.mcu.externaltools.gnu-tools-for-stm32.11.3.rel1.win32_1.1.100.202309141235/tools/bin/../lib/gcc/arm-none-eabi/11.3.1/../../../../arm-none-eabi/lib/thumb/v7e-m+fp/hard/crt0.o
 .data          0x0000000000000000        0x0 D:/ST/STM32CubeIDE_1.14.0/STM32CubeIDE/plugins/com.st.stm32cube.ide.mcu.externaltools.gnu-tools-for-stm32.11.3.rel1.win32_1.1.100.202309141235/tools/bin/../lib/gcc/arm-none-eabi/11.3.1/../../../../arm-none-eabi/lib/thumb/v7e-m+fp/hard/crt0.o
 .bss           0x0000000000000000        0x0 D:/ST/STM32CubeIDE_1.14.0/STM32CubeIDE/plugins/com.st.stm32cube.ide.mcu.externaltools.gnu-tools-for-stm32.11.3.rel1.win32_1.1.100.202309141235/tools/bin/../lib/gcc/arm-none-eabi/11.3.1/../../../../arm-none-eabi/lib/thumb/v7e-m+fp/hard/crt0.o
 .ARM.extab     0x0000000000000000        0x0 D:/ST/STM32CubeIDE_1.14.0/STM32CubeIDE/plugins/com.st.stm32cube.ide.mcu.externaltools.gnu-tools-for-stm32.11.3.rel1.win32_1.1.100.202309141235/tools/bin/../lib/gcc/arm-none-eabi/11.3.1/../../../../arm-none-eabi/lib/thumb/v7e-m+fp/hard/crt0.o
 .ARM.exidx     0x0000000000000000       0x10 D:/ST/STM32CubeIDE_1.14.0/STM32CubeIDE/plugins/com.st.stm32cube.ide.mcu.externaltools.gnu-tools-for-stm32.11.3.rel1.win32_1.1.100.202309141235/tools/bin/../lib/gcc/arm-none-eabi/11.3.1/../../../../arm-none-eabi/lib/thumb/v7e-m+fp/hard/crt0.o
 .debug_line    0x0000000000000000       0x76 D:/ST/STM32CubeIDE_1.14.0/STM32CubeIDE/plugins/com.st.stm32cube.ide.mcu.externaltools.gnu-tools-for-stm32.11.3.rel1.win32_1.1.100.202309141235/tools/bin/../lib/gcc/arm-none-eabi/11.3.1/../../../../arm-none-eabi/lib/thumb/v7e-m+fp/hard/crt0.o
 .debug_line_str
                0x0000000000000000       0xdd D:/ST/STM32CubeIDE_1.14.0/STM32CubeIDE/plugins/com.st.stm32cube.ide.mcu.externaltools.gnu-tools-for-stm32.11.3.rel1.win32_1.1.100.202309141235/tools/bin/../lib/gcc/arm-none-eabi/11.3.1/../../../../arm-none-eabi/lib/thumb/v7e-m+fp/hard/crt0.o
 .debug_info    0x0000000000000000       0x24 D:/ST/STM32CubeIDE_1.14.0/STM32CubeIDE/plugins/com.st.stm32cube.ide.mcu.externaltools.gnu-tools-for-stm32.11.3.rel1.win32_1.1.100.202309141235/tools/bin/../lib/gcc/arm-none-eabi/11.3.1/../../../../arm-none-eabi/lib/thumb/v7e-m+fp/hard/crt0.o
 .debug_abbrev  0x0000000000000000       0x14 D:/ST/STM32CubeIDE_1.14.0/STM32CubeIDE/plugins/com.st.stm32cube.ide.mcu.externaltools.gnu-tools-for-stm32.11.3.rel1.win32_1.1.100.202309141235/tools/bin/../lib/gcc/arm-none-eabi/11.3.1/../../../../arm-none-eabi/lib/thumb/v7e-m+fp/hard/crt0.o
 .debug_aranges
                0x0000000000000000       0x20 D:/ST/STM32CubeIDE_1.14.0/STM32CubeIDE/plugins/com.st.stm32cube.ide.mcu.externaltools.gnu-tools-for-stm32.11.3.rel1.win32_1.1.100.202309141235/tools/bin/../lib/gcc/arm-none-eabi/11.3.1/../../../../arm-none-eabi/lib/thumb/v7e-m+fp/hard/crt0.o
 .debug_str     0x0000000000000000       0xe2 D:/ST/STM32CubeIDE_1.14.0/STM32CubeIDE/plugins/com.st.stm32cube.ide.mcu.externaltools.gnu-tools-for-stm32.11.3.rel1.win32_1.1.100.202309141235/tools/bin/../lib/gcc/arm-none-eabi/11.3.1/../../../../arm-none-eabi/lib/thumb/v7e-m+fp/hard/crt0.o
Memory Configuration

Name             Origin             Length             Attributes
RAM              0x0000000020000000 0x0000000000020000 xrw
FLASH            0x0000000008000000 0x0000000000080000 xr
*default*        0x0000000000000000 0xffffffffffffffff

Linker script and memory map

LOAD D:/ST/STM32CubeIDE_1.14.0/STM32CubeIDE/plugins/com.st.stm32cube.ide.mcu.externaltools.gnu-tools-for-stm32.11.3.rel1.win32_1.1.100.202309141235/tools/bin/../lib/gcc/arm-none-eabi/11.3.1/thumb/v7e-m+fp/hard/crti.o
LOAD D:/ST/STM32CubeIDE_1.14.0/STM32CubeIDE/plugins/com.st.stm32cube.ide.mcu.externaltools.gnu-tools-for-stm32.11.3.rel1.win32_1.1.100.202309141235/tools/bin/../lib/gcc/arm-none-eabi/11.3.1/thumb/v7e-m+fp/hard/crtbegin.o
LOAD D:/ST/STM32CubeIDE_1.14.0/STM32CubeIDE/plugins/com.st.stm32cube.ide.mcu.externaltools.gnu-tools-for-stm32.11.3.rel1.win32_1.1.100.202309141235/tools/bin/../lib/gcc/arm-none-eabi/11.3.1/../../../../arm-none-eabi/lib/thumb/v7e-m+fp/hard/crt0.o
LOAD ./Application/User/Core/freertos.o
LOAD ./Application/User/Core/main.o
LOAD ./Application/User/Core/stm32f4xx_hal_msp.o
LOAD ./Application/User/Core/stm32f4xx_hal_timebase_tim.o
LOAD ./Application/User/Core/stm32f4xx_it.o
LOAD ./Application/User/Core/syscalls.o
LOAD ./Application/User/Core/sysmem.o
LOAD ./Application/User/Startup/startup_stm32f411ceux.o
LOAD ./Application/User/USB_DEVICE/App/usb_device.o
LOAD ./Application/User/USB_DEVICE/App/usbd_cdc_if.o
LOAD ./Application/User/USB_DEVICE/App/usbd_desc.o
LOAD ./Application/User/USB_DEVICE/Target/usbd_conf.o
LOAD ./Drivers/CMSIS/system_stm32f4xx.o
LOAD ./Drivers/STM32F4xx_HAL_Driver/stm32f4xx_hal.o
LOAD ./Drivers/STM32F4xx_HAL_Driver/stm32f4xx_hal_adc.o
LOAD ./Drivers/STM32F4xx_HAL_Driver/stm32f4xx_hal_cortex.o
LOAD ./Drivers/STM32F4xx_HAL_Driver/stm32f4xx_hal_dac.o
LOAD ./Drivers/STM32F4xx_HAL_Driver/stm32f4xx_hal_dma.o
LOAD ./Drivers/STM32F4xx_HAL_Driver/stm32f4xx_hal_dma_ex.o
LOAD ./Drivers/STM32F4xx_HAL_Driver/stm32f4xx_hal_exti.o
LOAD ./Drivers/STM32F4xx_HAL_Driver/stm32f4xx_hal_flash.o
LOAD ./Drivers/STM32F4xx_HAL_Driver/stm32f4xx_hal_flash_ex.o
LOAD ./Drivers/STM32F4xx_HAL_Driver/stm32f4xx_hal_flash_ramfunc.o
LOAD ./Drivers/STM32F4xx_HAL_Driver/stm32f4xx_hal_gpio.o
LOAD ./Drivers/STM32F4xx_HAL_Driver/stm32f4xx_hal_i2c.o
LOAD ./Drivers/STM32F4xx_HAL_Driver/stm32f4xx_hal_i2c_ex.o
LOAD ./Drivers/STM32F4xx_HAL_Driver/stm32f4xx_hal_pcd.o
LOAD ./Drivers/STM32F4xx_HAL_Driver/stm32f4xx_hal_pcd_ex.o
LOAD ./Drivers/STM32F4xx_HAL_Driver/stm32f4xx_hal_pwr.o
LOAD ./Drivers/STM32F4xx_HAL_Driver/stm32f4xx_hal_pwr_ex.o
LOAD ./Drivers/STM32F4xx_HAL_Driver/stm32f4xx_hal_rcc.o
LOAD ./Drivers/STM32F4xx_HAL_Driver/stm32f4xx_hal_rcc_ex.o
LOAD ./Drivers/STM32F4xx_HAL_Driver/stm32f4xx_hal_spi.o
LOAD ./Drivers/STM32F4xx_HAL_Driver/stm32f4xx_hal_tim.o
LOAD ./Drivers/STM32F4xx_HAL_Driver/stm32f4xx_hal_tim_ex.o
LOAD ./Drivers/STM32F4xx_HAL_Driver/stm32f4xx_hal_uart.o
LOAD ./Drivers/STM32F4xx_HAL_Driver/stm32f4xx_ll_adc.o
LOAD ./Drivers/STM32F4xx_HAL_Driver/stm32f4xx_ll_dac.o
LOAD ./Drivers/STM32F4xx_HAL_Driver/stm32f4xx_ll_usb.o
LOAD ./Middlewares/FreeRTOS/cmsis_os2.o
LOAD ./Middlewares/FreeRTOS/croutine.o
LOAD ./Middlewares/FreeRTOS/event_groups.o
LOAD ./Middlewares/FreeRTOS/heap_4.o
LOAD ./Middlewares/FreeRTOS/list.o
LOAD ./Middlewares/FreeRTOS/port.o
LOAD ./Middlewares/FreeRTOS/queue.o
LOAD ./Middlewares/FreeRTOS/stream_buffer.o
LOAD ./Middlewares/FreeRTOS/tasks.o
LOAD ./Middlewares/FreeRTOS/timers.o
LOAD ./Middlewares/USB_Device_Library/usbd_cdc.o
LOAD ./Middlewares/USB_Device_Library/usbd_core.o
LOAD ./Middlewares/USB_Device_Library/usbd_ctlreq.o
LOAD ./Middlewares/USB_Device_Library/usbd_ioreq.o
LOAD ./pikapython/pikascript-api/__asset_pikaModules_py_a.o
LOAD ./pikapython/pikascript-api/__pikaBinding.o
LOAD ./pikapython/pikascript-api/pikaScript.o
LOAD ./pikapython/pikascript-core/BaseObj.o
LOAD ./pikapython/pikascript-core/PikaCompiler.o
LOAD ./pikapython/pikascript-core/PikaObj.o
LOAD ./pikapython/pikascript-core/PikaParser.o
LOAD ./pikapython/pikascript-core/PikaPlatform.o
LOAD ./pikapython/pikascript-core/PikaVM.o
LOAD ./pikapython/pikascript-core/TinyObj.o
LOAD ./pikapython/pikascript-core/dataArg.o
LOAD ./pikapython/pikascript-core/dataArgs.o
LOAD ./pikapython/pikascript-core/dataLink.o
LOAD ./pikapython/pikascript-core/dataLinkNode.o
LOAD ./pikapython/pikascript-core/dataMemory.o
LOAD ./pikapython/pikascript-core/dataQueue.o
LOAD ./pikapython/pikascript-core/dataQueueObj.o
LOAD ./pikapython/pikascript-core/dataStack.o
LOAD ./pikapython/pikascript-core/dataString.o
LOAD ./pikapython/pikascript-core/dataStrs.o
LOAD ./pikapython/pikascript-lib/PikaStdDevice/PikaStdDevice_ADC.o
LOAD ./pikapython/pikascript-lib/PikaStdDevice/PikaStdDevice_BaseDev.o
LOAD ./pikapython/pikascript-lib/PikaStdDevice/PikaStdDevice_CAN.o
LOAD ./pikapython/pikascript-lib/PikaStdDevice/PikaStdDevice_DAC.o
LOAD ./pikapython/pikascript-lib/PikaStdDevice/PikaStdDevice_GPIO.o
LOAD ./pikapython/pikascript-lib/PikaStdDevice/PikaStdDevice_IIC.o
LOAD ./pikapython/pikascript-lib/PikaStdDevice/PikaStdDevice_PWM.o
LOAD ./pikapython/pikascript-lib/PikaStdDevice/PikaStdDevice_SPI.o
LOAD ./pikapython/pikascript-lib/PikaStdDevice/PikaStdDevice_Timer.o
LOAD ./pikapython/pikascript-lib/PikaStdDevice/PikaStdDevice_UART.o
LOAD ./pikapython/pikascript-lib/PikaStdDevice/PikaStdDevice_common.o
LOAD ./pikapython/pikascript-lib/PikaStdDevice/pika_hal.o
LOAD ./pikapython/pikascript-lib/PikaStdDevice/pika_hal_SOFT_IIC.o
LOAD ./pikapython/pikascript-lib/PikaStdDevice/pika_hal_SOFT_SPI.o
LOAD ./pikapython/pikascript-lib/PikaStdDevice/pika_hal_SOFT_TIM.o
LOAD ./pikapython/pikascript-lib/PikaStdDevice/pika_hal_utils.o
LOAD ./pikapython/pikascript-lib/PikaStdLib/PikaDebuger_Debuger.o
LOAD ./pikapython/pikascript-lib/PikaStdLib/PikaStdData_ByteArray.o
LOAD ./pikapython/pikascript-lib/PikaStdLib/PikaStdData_Dict.o
LOAD ./pikapython/pikascript-lib/PikaStdLib/PikaStdData_FILEIO.o
LOAD ./pikapython/pikascript-lib/PikaStdLib/PikaStdData_List.o
LOAD ./pikapython/pikascript-lib/PikaStdLib/PikaStdData_String.o
LOAD ./pikapython/pikascript-lib/PikaStdLib/PikaStdData_Tuple.o
LOAD ./pikapython/pikascript-lib/PikaStdLib/PikaStdData_Utils.o
LOAD ./pikapython/pikascript-lib/PikaStdLib/PikaStdLib_MemChecker.o
LOAD ./pikapython/pikascript-lib/PikaStdLib/PikaStdLib_RangeObj.o
LOAD ./pikapython/pikascript-lib/PikaStdLib/PikaStdLib_StringObj.o
LOAD ./pikapython/pikascript-lib/PikaStdLib/PikaStdLib_SysObj.o
LOAD ./pikapython/pikascript-lib/PikaStdLib/PikaStdTask_Task.o
LOAD ./pikapython/pikascript-lib/STM32/pika_hal_stm32_ADC.o
LOAD ./pikapython/pikascript-lib/STM32/pika_hal_stm32_DAC.o
LOAD ./pikapython/pikascript-lib/STM32/pika_hal_stm32_GPIO.o
LOAD ./pikapython/pikascript-lib/STM32/pika_hal_stm32_PWM.o
LOAD ./pikapython/pikascript-lib/STM32/pika_hal_stm32_UART.o
LOAD ./pikapython/pikascript-lib/STM32/pika_hal_stm32_common.o
LOAD ./pikapython/pikascript-lib/STM32/pika_hal_stm32_time.o
LOAD ./pikapython/pikascript-lib/_thread/_thread.o
LOAD ./pikapython/pikascript-lib/pika_libc/pika_vsnprintf.o
LOAD ./pikapython/pikascript-lib/time/_time.o
START GROUP
LOAD D:/ST/STM32CubeIDE_1.14.0/STM32CubeIDE/plugins/com.st.stm32cube.ide.mcu.externaltools.gnu-tools-for-stm32.11.3.rel1.win32_1.1.100.202309141235/tools/bin/../lib/gcc/arm-none-eabi/11.3.1/../../../../arm-none-eabi/lib/thumb/v7e-m+fp/hard\libc_nano.a
LOAD D:/ST/STM32CubeIDE_1.14.0/STM32CubeIDE/plugins/com.st.stm32cube.ide.mcu.externaltools.gnu-tools-for-stm32.11.3.rel1.win32_1.1.100.202309141235/tools/bin/../lib/gcc/arm-none-eabi/11.3.1/../../../../arm-none-eabi/lib/thumb/v7e-m+fp/hard\libm.a
END GROUP
START GROUP
LOAD D:/ST/STM32CubeIDE_1.14.0/STM32CubeIDE/plugins/com.st.stm32cube.ide.mcu.externaltools.gnu-tools-for-stm32.11.3.rel1.win32_1.1.100.202309141235/tools/bin/../lib/gcc/arm-none-eabi/11.3.1/thumb/v7e-m+fp/hard\libgcc.a
LOAD D:/ST/STM32CubeIDE_1.14.0/STM32CubeIDE/plugins/com.st.stm32cube.ide.mcu.externaltools.gnu-tools-for-stm32.11.3.rel1.win32_1.1.100.202309141235/tools/bin/../lib/gcc/arm-none-eabi/11.3.1/../../../../arm-none-eabi/lib/thumb/v7e-m+fp/hard\libc_nano.a
END GROUP
START GROUP
LOAD D:/ST/STM32CubeIDE_1.14.0/STM32CubeIDE/plugins/com.st.stm32cube.ide.mcu.externaltools.gnu-tools-for-stm32.11.3.rel1.win32_1.1.100.202309141235/tools/bin/../lib/gcc/arm-none-eabi/11.3.1/thumb/v7e-m+fp/hard\libgcc.a
LOAD D:/ST/STM32CubeIDE_1.14.0/STM32CubeIDE/plugins/com.st.stm32cube.ide.mcu.externaltools.gnu-tools-for-stm32.11.3.rel1.win32_1.1.100.202309141235/tools/bin/../lib/gcc/arm-none-eabi/11.3.1/../../../../arm-none-eabi/lib/thumb/v7e-m+fp/hard\libc_nano.a
LOAD D:/ST/STM32CubeIDE_1.14.0/STM32CubeIDE/plugins/com.st.stm32cube.ide.mcu.externaltools.gnu-tools-for-stm32.11.3.rel1.win32_1.1.100.202309141235/tools/bin/../lib/gcc/arm-none-eabi/11.3.1/../../../../arm-none-eabi/lib/thumb/v7e-m+fp/hard\libnosys.a
END GROUP
START GROUP
LOAD D:/ST/STM32CubeIDE_1.14.0/STM32CubeIDE/plugins/com.st.stm32cube.ide.mcu.externaltools.gnu-tools-for-stm32.11.3.rel1.win32_1.1.100.202309141235/tools/bin/../lib/gcc/arm-none-eabi/11.3.1/thumb/v7e-m+fp/hard\libgcc.a
LOAD D:/ST/STM32CubeIDE_1.14.0/STM32CubeIDE/plugins/com.st.stm32cube.ide.mcu.externaltools.gnu-tools-for-stm32.11.3.rel1.win32_1.1.100.202309141235/tools/bin/../lib/gcc/arm-none-eabi/11.3.1/../../../../arm-none-eabi/lib/thumb/v7e-m+fp/hard\libc_nano.a
LOAD D:/ST/STM32CubeIDE_1.14.0/STM32CubeIDE/plugins/com.st.stm32cube.ide.mcu.externaltools.gnu-tools-for-stm32.11.3.rel1.win32_1.1.100.202309141235/tools/bin/../lib/gcc/arm-none-eabi/11.3.1/../../../../arm-none-eabi/lib/thumb/v7e-m+fp/hard\libnosys.a
END GROUP
LOAD D:/ST/STM32CubeIDE_1.14.0/STM32CubeIDE/plugins/com.st.stm32cube.ide.mcu.externaltools.gnu-tools-for-stm32.11.3.rel1.win32_1.1.100.202309141235/tools/bin/../lib/gcc/arm-none-eabi/11.3.1/thumb/v7e-m+fp/hard/crtend.o
LOAD D:/ST/STM32CubeIDE_1.14.0/STM32CubeIDE/plugins/com.st.stm32cube.ide.mcu.externaltools.gnu-tools-for-stm32.11.3.rel1.win32_1.1.100.202309141235/tools/bin/../lib/gcc/arm-none-eabi/11.3.1/thumb/v7e-m+fp/hard/crtn.o
                0x0000000020020000                _estack = (ORIGIN (RAM) + LENGTH (RAM))
                0x0000000000000200                _Min_Heap_Size = 0x200
                0x0000000000000400                _Min_Stack_Size = 0x400

.isr_vector     0x0000000008000000      0x198
                0x0000000008000000                . = ALIGN (0x4)
 *(.isr_vector)
 .isr_vector    0x0000000008000000      0x198 ./Application/User/Startup/startup_stm32f411ceux.o
                0x0000000008000000                g_pfnVectors
                0x0000000008000198                . = ALIGN (0x4)

.text           0x00000000080001a0    0x318f4
                0x00000000080001a0                . = ALIGN (0x4)
 *(.text)
 .text          0x00000000080001a0       0x40 D:/ST/STM32CubeIDE_1.14.0/STM32CubeIDE/plugins/com.st.stm32cube.ide.mcu.externaltools.gnu-tools-for-stm32.11.3.rel1.win32_1.1.100.202309141235/tools/bin/../lib/gcc/arm-none-eabi/11.3.1/thumb/v7e-m+fp/hard/crtbegin.o
 .text          0x00000000080001e0       0x14 D:/ST/STM32CubeIDE_1.14.0/STM32CubeIDE/plugins/com.st.stm32cube.ide.mcu.externaltools.gnu-tools-for-stm32.11.3.rel1.win32_1.1.100.202309141235/tools/bin/../lib/gcc/arm-none-eabi/11.3.1/../../../../arm-none-eabi/lib/thumb/v7e-m+fp/hard\libc_nano.a(libc_a-strcmp.o)
                0x00000000080001e0                strcmp
 .text          0x00000000080001f4       0x10 D:/ST/STM32CubeIDE_1.14.0/STM32CubeIDE/plugins/com.st.stm32cube.ide.mcu.externaltools.gnu-tools-for-stm32.11.3.rel1.win32_1.1.100.202309141235/tools/bin/../lib/gcc/arm-none-eabi/11.3.1/../../../../arm-none-eabi/lib/thumb/v7e-m+fp/hard\libc_nano.a(libc_a-strlen.o)
                0x00000000080001f4                strlen
 *fill*         0x0000000008000204        0xc 
 .text          0x0000000008000210       0xa0 D:/ST/STM32CubeIDE_1.14.0/STM32CubeIDE/plugins/com.st.stm32cube.ide.mcu.externaltools.gnu-tools-for-stm32.11.3.rel1.win32_1.1.100.202309141235/tools/bin/../lib/gcc/arm-none-eabi/11.3.1/../../../../arm-none-eabi/lib/thumb/v7e-m+fp/hard\libc_nano.a(libc_a-memchr.o)
                0x0000000008000210                memchr
 .text          0x00000000080002b0      0x378 D:/ST/STM32CubeIDE_1.14.0/STM32CubeIDE/plugins/com.st.stm32cube.ide.mcu.externaltools.gnu-tools-for-stm32.11.3.rel1.win32_1.1.100.202309141235/tools/bin/../lib/gcc/arm-none-eabi/11.3.1/thumb/v7e-m+fp/hard\libgcc.a(_arm_addsubdf3.o)
                0x00000000080002b0                __aeabi_drsub
                0x00000000080002b8                __subdf3
                0x00000000080002b8                __aeabi_dsub
                0x00000000080002bc                __aeabi_dadd
                0x00000000080002bc                __adddf3
                0x0000000008000534                __floatunsidf
                0x0000000008000534                __aeabi_ui2d
                0x0000000008000554                __aeabi_i2d
                0x0000000008000554                __floatsidf
                0x0000000008000578                __extendsfdf2
                0x0000000008000578                __aeabi_f2d
                0x00000000080005bc                __floatundidf
                0x00000000080005bc                __aeabi_ul2d
                0x00000000080005cc                __aeabi_l2d
                0x00000000080005cc                __floatdidf
 .text          0x0000000008000628      0x424 D:/ST/STM32CubeIDE_1.14.0/STM32CubeIDE/plugins/com.st.stm32cube.ide.mcu.externaltools.gnu-tools-for-stm32.11.3.rel1.win32_1.1.100.202309141235/tools/bin/../lib/gcc/arm-none-eabi/11.3.1/thumb/v7e-m+fp/hard\libgcc.a(_arm_muldivdf3.o)
                0x0000000008000628                __aeabi_dmul
                0x0000000008000628                __muldf3
                0x000000000800087c                __divdf3
                0x000000000800087c                __aeabi_ddiv
 .text          0x0000000008000a4c      0x110 D:/ST/STM32CubeIDE_1.14.0/STM32CubeIDE/plugins/com.st.stm32cube.ide.mcu.externaltools.gnu-tools-for-stm32.11.3.rel1.win32_1.1.100.202309141235/tools/bin/../lib/gcc/arm-none-eabi/11.3.1/thumb/v7e-m+fp/hard\libgcc.a(_arm_cmpdf2.o)
                0x0000000008000a4c                __gtdf2
                0x0000000008000a4c                __gedf2
                0x0000000008000a54                __ltdf2
                0x0000000008000a54                __ledf2
                0x0000000008000a5c                __nedf2
                0x0000000008000a5c                __cmpdf2
                0x0000000008000a5c                __eqdf2
                0x0000000008000ad8                __aeabi_cdrcmple
                0x0000000008000ae8                __aeabi_cdcmple
                0x0000000008000ae8                __aeabi_cdcmpeq
                0x0000000008000af8                __aeabi_dcmpeq
                0x0000000008000b0c                __aeabi_dcmplt
                0x0000000008000b20                __aeabi_dcmple
                0x0000000008000b34                __aeabi_dcmpge
                0x0000000008000b48                __aeabi_dcmpgt
 .text          0x0000000008000b5c       0x50 D:/ST/STM32CubeIDE_1.14.0/STM32CubeIDE/plugins/com.st.stm32cube.ide.mcu.externaltools.gnu-tools-for-stm32.11.3.rel1.win32_1.1.100.202309141235/tools/bin/../lib/gcc/arm-none-eabi/11.3.1/thumb/v7e-m+fp/hard\libgcc.a(_arm_fixdfsi.o)
                0x0000000008000b5c                __fixdfsi
                0x0000000008000b5c                __aeabi_d2iz
 .text          0x0000000008000bac       0x40 D:/ST/STM32CubeIDE_1.14.0/STM32CubeIDE/plugins/com.st.stm32cube.ide.mcu.externaltools.gnu-tools-for-stm32.11.3.rel1.win32_1.1.100.202309141235/tools/bin/../lib/gcc/arm-none-eabi/11.3.1/thumb/v7e-m+fp/hard\libgcc.a(_arm_fixunsdfsi.o)
                0x0000000008000bac                __fixunsdfsi
                0x0000000008000bac                __aeabi_d2uiz
 .text          0x0000000008000bec       0xa0 D:/ST/STM32CubeIDE_1.14.0/STM32CubeIDE/plugins/com.st.stm32cube.ide.mcu.externaltools.gnu-tools-for-stm32.11.3.rel1.win32_1.1.100.202309141235/tools/bin/../lib/gcc/arm-none-eabi/11.3.1/thumb/v7e-m+fp/hard\libgcc.a(_arm_truncdfsf2.o)
                0x0000000008000bec                __truncdfsf2
                0x0000000008000bec                __aeabi_d2f
 .text          0x0000000008000c8c       0xa0 D:/ST/STM32CubeIDE_1.14.0/STM32CubeIDE/plugins/com.st.stm32cube.ide.mcu.externaltools.gnu-tools-for-stm32.11.3.rel1.win32_1.1.100.202309141235/tools/bin/../lib/gcc/arm-none-eabi/11.3.1/thumb/v7e-m+fp/hard\libgcc.a(_aeabi_ldivmod.o)
                0x0000000008000c8c                __aeabi_ldivmod
 .text          0x0000000008000d2c       0x30 D:/ST/STM32CubeIDE_1.14.0/STM32CubeIDE/plugins/com.st.stm32cube.ide.mcu.externaltools.gnu-tools-for-stm32.11.3.rel1.win32_1.1.100.202309141235/tools/bin/../lib/gcc/arm-none-eabi/11.3.1/thumb/v7e-m+fp/hard\libgcc.a(_aeabi_uldivmod.o)
                0x0000000008000d2c                __aeabi_uldivmod
 .text          0x0000000008000d5c       0x30 D:/ST/STM32CubeIDE_1.14.0/STM32CubeIDE/plugins/com.st.stm32cube.ide.mcu.externaltools.gnu-tools-for-stm32.11.3.rel1.win32_1.1.100.202309141235/tools/bin/../lib/gcc/arm-none-eabi/11.3.1/thumb/v7e-m+fp/hard\libgcc.a(_fixdfdi.o)
                0x0000000008000d5c                __aeabi_d2lz
                0x0000000008000d5c                __fixdfdi
 .text          0x0000000008000d8c       0x3c D:/ST/STM32CubeIDE_1.14.0/STM32CubeIDE/plugins/com.st.stm32cube.ide.mcu.externaltools.gnu-tools-for-stm32.11.3.rel1.win32_1.1.100.202309141235/tools/bin/../lib/gcc/arm-none-eabi/11.3.1/thumb/v7e-m+fp/hard\libgcc.a(_fixunsdfdi.o)
                0x0000000008000d8c                __fixunsdfdi
                0x0000000008000d8c                __aeabi_d2ulz
 .text          0x0000000008000dc8      0x2c8 D:/ST/STM32CubeIDE_1.14.0/STM32CubeIDE/plugins/com.st.stm32cube.ide.mcu.externaltools.gnu-tools-for-stm32.11.3.rel1.win32_1.1.100.202309141235/tools/bin/../lib/gcc/arm-none-eabi/11.3.1/thumb/v7e-m+fp/hard\libgcc.a(_udivmoddi4.o)
                0x0000000008000dc8                __udivmoddi4
 .text          0x0000000008001090        0x4 D:/ST/STM32CubeIDE_1.14.0/STM32CubeIDE/plugins/com.st.stm32cube.ide.mcu.externaltools.gnu-tools-for-stm32.11.3.rel1.win32_1.1.100.202309141235/tools/bin/../lib/gcc/arm-none-eabi/11.3.1/thumb/v7e-m+fp/hard\libgcc.a(_dvmd_tls.o)
                0x0000000008001090                __aeabi_idiv0
                0x0000000008001090                __aeabi_ldiv0
 *(.text*)
 .text.StartDefaultTask
                0x0000000008001094       0x24 ./Application/User/Core/main.o
                0x0000000008001094                StartDefaultTask
 .text.pika_platform_putchar
                0x00000000080010b8       0x1c ./Application/User/Core/main.o
                0x00000000080010b8                pika_platform_putchar
 .text.pika_platform_getchar
                0x00000000080010d4       0x30 ./Application/User/Core/main.o
                0x00000000080010d4                pika_platform_getchar
 .text.SystemClock_Config
                0x0000000008001104       0xa0 ./Application/User/Core/main.o
                0x0000000008001104                SystemClock_Config
 .text.startup.main
                0x00000000080011a4       0xa4 ./Application/User/Core/main.o
                0x00000000080011a4                main
 .text.HAL_TIM_PeriodElapsedCallback
                0x0000000008001248       0x14 ./Application/User/Core/main.o
                0x0000000008001248                HAL_TIM_PeriodElapsedCallback
 .text.Error_Handler
                0x000000000800125c        0x4 ./Application/User/Core/main.o
                0x000000000800125c                Error_Handler
 .text.HAL_MspInit
                0x0000000008001260       0x40 ./Application/User/Core/stm32f4xx_hal_msp.o
                0x0000000008001260                HAL_MspInit
 .text.HAL_UART_MspInit
                0x00000000080012a0       0x9c ./Application/User/Core/stm32f4xx_hal_msp.o
                0x00000000080012a0                HAL_UART_MspInit
 .text.HAL_UART_MspDeInit
                0x000000000800133c       0x3c ./Application/User/Core/stm32f4xx_hal_msp.o
                0x000000000800133c                HAL_UART_MspDeInit
 .text.HAL_InitTick
                0x0000000008001378       0xa8 ./Application/User/Core/stm32f4xx_hal_timebase_tim.o
                0x0000000008001378                HAL_InitTick
 .text.NMI_Handler
                0x0000000008001420        0x4 ./Application/User/Core/stm32f4xx_it.o
                0x0000000008001420                NMI_Handler
 .text.HardFault_Handler
                0x0000000008001424        0x4 ./Application/User/Core/stm32f4xx_it.o
                0x0000000008001424                HardFault_Handler
 .text.MemManage_Handler
                0x0000000008001428        0x4 ./Application/User/Core/stm32f4xx_it.o
                0x0000000008001428                MemManage_Handler
 .text.BusFault_Handler
                0x000000000800142c        0x4 ./Application/User/Core/stm32f4xx_it.o
                0x000000000800142c                BusFault_Handler
 .text.UsageFault_Handler
                0x0000000008001430        0x4 ./Application/User/Core/stm32f4xx_it.o
                0x0000000008001430                UsageFault_Handler
 .text.DebugMon_Handler
                0x0000000008001434        0x4 ./Application/User/Core/stm32f4xx_it.o
                0x0000000008001434                DebugMon_Handler
 .text.TIM3_IRQHandler
                0x0000000008001438        0xc ./Application/User/Core/stm32f4xx_it.o
                0x0000000008001438                TIM3_IRQHandler
 .text.OTG_FS_IRQHandler
                0x0000000008001444        0xc ./Application/User/Core/stm32f4xx_it.o
                0x0000000008001444                OTG_FS_IRQHandler
 .text._getpid  0x0000000008001450        0x4 ./Application/User/Core/syscalls.o
                0x0000000008001450                _getpid
 .text._kill    0x0000000008001454       0x10 ./Application/User/Core/syscalls.o
                0x0000000008001454                _kill
 .text._exit    0x0000000008001464        0xc ./Application/User/Core/syscalls.o
                0x0000000008001464                _exit
 .text._read    0x0000000008001470       0x1c ./Application/User/Core/syscalls.o
                0x0000000008001470                _read
 .text._write   0x000000000800148c       0x1c ./Application/User/Core/syscalls.o
                0x000000000800148c                _write
 .text._close   0x00000000080014a8        0x8 ./Application/User/Core/syscalls.o
                0x00000000080014a8                _close
 .text._fstat   0x00000000080014b0        0xc ./Application/User/Core/syscalls.o
                0x00000000080014b0                _fstat
 .text._isatty  0x00000000080014bc        0x4 ./Application/User/Core/syscalls.o
                0x00000000080014bc                _isatty
 .text._lseek   0x00000000080014c0        0x4 ./Application/User/Core/syscalls.o
                0x00000000080014c0                _lseek
 .text._sbrk    0x00000000080014c4       0x44 ./Application/User/Core/sysmem.o
                0x00000000080014c4                _sbrk
 .text.Reset_Handler
                0x0000000008001508       0x50 ./Application/User/Startup/startup_stm32f411ceux.o
                0x0000000008001508                Reset_Handler
 .text.Default_Handler
                0x0000000008001558        0x2 ./Application/User/Startup/startup_stm32f411ceux.o
                0x0000000008001558                DMA2_Stream5_IRQHandler
                0x0000000008001558                EXTI1_IRQHandler
                0x0000000008001558                DMA2_Stream7_IRQHandler
                0x0000000008001558                OTG_FS_WKUP_IRQHandler
                0x0000000008001558                SPI2_IRQHandler
                0x0000000008001558                EXTI9_5_IRQHandler
                0x0000000008001558                SPI1_IRQHandler
                0x0000000008001558                PVD_IRQHandler
                0x0000000008001558                TIM5_IRQHandler
                0x0000000008001558                ADC_IRQHandler
                0x0000000008001558                DMA1_Stream6_IRQHandler
                0x0000000008001558                DMA1_Stream1_IRQHandler
                0x0000000008001558                WWDG_IRQHandler
                0x0000000008001558                DMA2_Stream0_IRQHandler
                0x0000000008001558                I2C3_EV_IRQHandler
                0x0000000008001558                SPI4_IRQHandler
                0x0000000008001558                DMA1_Stream2_IRQHandler
                0x0000000008001558                RCC_IRQHandler
                0x0000000008001558                I2C1_ER_IRQHandler
                0x0000000008001558                DMA2_Stream3_IRQHandler
                0x0000000008001558                TIM1_UP_TIM10_IRQHandler
                0x0000000008001558                DMA2_Stream4_IRQHandler
                0x0000000008001558                I2C2_EV_IRQHandler
                0x0000000008001558                DMA1_Stream0_IRQHandler
                0x0000000008001558                DMA1_Stream7_IRQHandler
                0x0000000008001558                DMA1_Stream4_IRQHandler
                0x0000000008001558                FLASH_IRQHandler
                0x0000000008001558                SDIO_IRQHandler
                0x0000000008001558                EXTI15_10_IRQHandler
                0x0000000008001558                RTC_WKUP_IRQHandler
                0x0000000008001558                TIM2_IRQHandler
                0x0000000008001558                TAMP_STAMP_IRQHandler
                0x0000000008001558                DMA2_Stream6_IRQHandler
                0x0000000008001558                Default_Handler
                0x0000000008001558                EXTI2_IRQHandler
                0x0000000008001558                DMA1_Stream5_IRQHandler
                0x0000000008001558                TIM4_IRQHandler
                0x0000000008001558                TIM1_TRG_COM_TIM11_IRQHandler
                0x0000000008001558                I2C3_ER_IRQHandler
                0x0000000008001558                TIM1_BRK_TIM9_IRQHandler
                0x0000000008001558                EXTI3_IRQHandler
                0x0000000008001558                I2C2_ER_IRQHandler
                0x0000000008001558                DMA2_Stream2_IRQHandler
                0x0000000008001558                DMA2_Stream1_IRQHandler
                0x0000000008001558                FPU_IRQHandler
                0x0000000008001558                I2C1_EV_IRQHandler
                0x0000000008001558                TIM1_CC_IRQHandler
                0x0000000008001558                SPI3_IRQHandler
                0x0000000008001558                DMA1_Stream3_IRQHandler
                0x0000000008001558                SPI5_IRQHandler
                0x0000000008001558                EXTI0_IRQHandler
                0x0000000008001558                RTC_Alarm_IRQHandler
                0x0000000008001558                EXTI4_IRQHandler
 *fill*         0x000000000800155a        0x2 
 .text.MX_USB_DEVICE_Init
                0x000000000800155c       0x74 ./Application/User/USB_DEVICE/App/usb_device.o
                0x000000000800155c                MX_USB_DEVICE_Init
 .text.CDC_DeInit_FS
                0x00000000080015d0        0x4 ./Application/User/USB_DEVICE/App/usbd_cdc_if.o
 .text.CDC_Control_FS
                0x00000000080015d4        0x4 ./Application/User/USB_DEVICE/App/usbd_cdc_if.o
 .text.CDC_TransmitCplt_FS
                0x00000000080015d8       0x10 ./Application/User/USB_DEVICE/App/usbd_cdc_if.o
 .text.CDC_Receive_FS
                0x00000000080015e8       0x64 ./Application/User/USB_DEVICE/App/usbd_cdc_if.o
 .text.CDC_Init_FS
                0x000000000800164c       0x28 ./Application/User/USB_DEVICE/App/usbd_cdc_if.o
 .text.CDC_Transmit_FS
                0x0000000008001674       0x48 ./Application/User/USB_DEVICE/App/usbd_cdc_if.o
                0x0000000008001674                CDC_Transmit_FS
 .text.USBD_FS_DeviceDescriptor
                0x00000000080016bc        0xc ./Application/User/USB_DEVICE/App/usbd_desc.o
                0x00000000080016bc                USBD_FS_DeviceDescriptor
 .text.USBD_FS_LangIDStrDescriptor
                0x00000000080016c8        0xc ./Application/User/USB_DEVICE/App/usbd_desc.o
                0x00000000080016c8                USBD_FS_LangIDStrDescriptor
 .text.USBD_FS_ManufacturerStrDescriptor
                0x00000000080016d4       0x1c ./Application/User/USB_DEVICE/App/usbd_desc.o
                0x00000000080016d4                USBD_FS_ManufacturerStrDescriptor
 .text.USBD_FS_ProductStrDescriptor
                0x00000000080016f0       0x1c ./Application/User/USB_DEVICE/App/usbd_desc.o
                0x00000000080016f0                USBD_FS_ProductStrDescriptor
 .text.USBD_FS_ConfigStrDescriptor
                0x000000000800170c       0x1c ./Application/User/USB_DEVICE/App/usbd_desc.o
                0x000000000800170c                USBD_FS_ConfigStrDescriptor
 .text.USBD_FS_InterfaceStrDescriptor
                0x0000000008001728       0x1c ./Application/User/USB_DEVICE/App/usbd_desc.o
                0x0000000008001728                USBD_FS_InterfaceStrDescriptor
 .text.USBD_FS_SerialStrDescriptor
                0x0000000008001744      0x120 ./Application/User/USB_DEVICE/App/usbd_desc.o
                0x0000000008001744                USBD_FS_SerialStrDescriptor
 .text.HAL_PCD_MspInit
                0x0000000008001864       0x84 ./Application/User/USB_DEVICE/Target/usbd_conf.o
                0x0000000008001864                HAL_PCD_MspInit
 .text.HAL_PCD_SetupStageCallback
                0x00000000080018e8        0xc ./Application/User/USB_DEVICE/Target/usbd_conf.o
                0x00000000080018e8                HAL_PCD_SetupStageCallback
 .text.HAL_PCD_DataOutStageCallback
                0x00000000080018f4       0x14 ./Application/User/USB_DEVICE/Target/usbd_conf.o
                0x00000000080018f4                HAL_PCD_DataOutStageCallback
 .text.HAL_PCD_DataInStageCallback
                0x0000000008001908       0x14 ./Application/User/USB_DEVICE/Target/usbd_conf.o
                0x0000000008001908                HAL_PCD_DataInStageCallback
 .text.HAL_PCD_SOFCallback
                0x000000000800191c        0x8 ./Application/User/USB_DEVICE/Target/usbd_conf.o
                0x000000000800191c                HAL_PCD_SOFCallback
 .text.HAL_PCD_ResetCallback
                0x0000000008001924       0x24 ./Application/User/USB_DEVICE/Target/usbd_conf.o
                0x0000000008001924                HAL_PCD_ResetCallback
 .text.HAL_PCD_SuspendCallback
                0x0000000008001948       0x30 ./Application/User/USB_DEVICE/Target/usbd_conf.o
                0x0000000008001948                HAL_PCD_SuspendCallback
 .text.HAL_PCD_ResumeCallback
                0x0000000008001978        0x8 ./Application/User/USB_DEVICE/Target/usbd_conf.o
                0x0000000008001978                HAL_PCD_ResumeCallback
 .text.HAL_PCD_ISOOUTIncompleteCallback
                0x0000000008001980        0x8 ./Application/User/USB_DEVICE/Target/usbd_conf.o
                0x0000000008001980                HAL_PCD_ISOOUTIncompleteCallback
 .text.HAL_PCD_ISOINIncompleteCallback
                0x0000000008001988        0x8 ./Application/User/USB_DEVICE/Target/usbd_conf.o
                0x0000000008001988                HAL_PCD_ISOINIncompleteCallback
 .text.HAL_PCD_ConnectCallback
                0x0000000008001990        0x8 ./Application/User/USB_DEVICE/Target/usbd_conf.o
                0x0000000008001990                HAL_PCD_ConnectCallback
 .text.HAL_PCD_DisconnectCallback
                0x0000000008001998        0x8 ./Application/User/USB_DEVICE/Target/usbd_conf.o
                0x0000000008001998                HAL_PCD_DisconnectCallback
 .text.USBD_LL_Init
                0x00000000080019a0       0x7c ./Application/User/USB_DEVICE/Target/usbd_conf.o
                0x00000000080019a0                USBD_LL_Init
 .text.USBD_LL_Start
                0x0000000008001a1c       0x1c ./Application/User/USB_DEVICE/Target/usbd_conf.o
                0x0000000008001a1c                USBD_LL_Start
 .text.USBD_LL_OpenEP
                0x0000000008001a38       0x20 ./Application/User/USB_DEVICE/Target/usbd_conf.o
                0x0000000008001a38                USBD_LL_OpenEP
 .text.USBD_LL_CloseEP
                0x0000000008001a58       0x1c ./Application/User/USB_DEVICE/Target/usbd_conf.o
                0x0000000008001a58                USBD_LL_CloseEP
 .text.USBD_LL_StallEP
                0x0000000008001a74       0x1c ./Application/User/USB_DEVICE/Target/usbd_conf.o
                0x0000000008001a74                USBD_LL_StallEP
 .text.USBD_LL_ClearStallEP
                0x0000000008001a90       0x1c ./Application/User/USB_DEVICE/Target/usbd_conf.o
                0x0000000008001a90                USBD_LL_ClearStallEP
 .text.USBD_LL_IsStallEP
                0x0000000008001aac       0x28 ./Application/User/USB_DEVICE/Target/usbd_conf.o
                0x0000000008001aac                USBD_LL_IsStallEP
 .text.USBD_LL_SetUSBAddress
                0x0000000008001ad4       0x1c ./Application/User/USB_DEVICE/Target/usbd_conf.o
                0x0000000008001ad4                USBD_LL_SetUSBAddress
 .text.USBD_LL_Transmit
                0x0000000008001af0       0x1c ./Application/User/USB_DEVICE/Target/usbd_conf.o
                0x0000000008001af0                USBD_LL_Transmit
 .text.USBD_LL_PrepareReceive
                0x0000000008001b0c       0x1c ./Application/User/USB_DEVICE/Target/usbd_conf.o
                0x0000000008001b0c                USBD_LL_PrepareReceive
 .text.USBD_LL_GetRxDataSize
                0x0000000008001b28        0x8 ./Application/User/USB_DEVICE/Target/usbd_conf.o
                0x0000000008001b28                USBD_LL_GetRxDataSize
 .text.USBD_static_malloc
                0x0000000008001b30        0x8 ./Application/User/USB_DEVICE/Target/usbd_conf.o
                0x0000000008001b30                USBD_static_malloc
 .text.USBD_static_free
                0x0000000008001b38        0x4 ./Application/User/USB_DEVICE/Target/usbd_conf.o
                0x0000000008001b38                USBD_static_free
 .text.SystemInit
                0x0000000008001b3c       0x14 ./Drivers/CMSIS/system_stm32f4xx.o
                0x0000000008001b3c                SystemInit
 .text.HAL_Init
                0x0000000008001b50       0x34 ./Drivers/STM32F4xx_HAL_Driver/stm32f4xx_hal.o
                0x0000000008001b50                HAL_Init
 .text.HAL_IncTick
                0x0000000008001b84       0x18 ./Drivers/STM32F4xx_HAL_Driver/stm32f4xx_hal.o
                0x0000000008001b84                HAL_IncTick
 .text.HAL_GetTick
                0x0000000008001b9c        0xc ./Drivers/STM32F4xx_HAL_Driver/stm32f4xx_hal.o
                0x0000000008001b9c                HAL_GetTick
 .text.HAL_Delay
                0x0000000008001ba8       0x24 ./Drivers/STM32F4xx_HAL_Driver/stm32f4xx_hal.o
                0x0000000008001ba8                HAL_Delay
 .text.HAL_ADC_MspInit
                0x0000000008001bcc        0x4 ./Drivers/STM32F4xx_HAL_Driver/stm32f4xx_hal_adc.o
                0x0000000008001bcc                HAL_ADC_MspInit
 .text.HAL_ADC_Init
                0x0000000008001bd0      0x158 ./Drivers/STM32F4xx_HAL_Driver/stm32f4xx_hal_adc.o
                0x0000000008001bd0                HAL_ADC_Init
 .text.HAL_ADC_Start
                0x0000000008001d28      0x108 ./Drivers/STM32F4xx_HAL_Driver/stm32f4xx_hal_adc.o
                0x0000000008001d28                HAL_ADC_Start
 .text.HAL_ADC_Stop
                0x0000000008001e30       0x38 ./Drivers/STM32F4xx_HAL_Driver/stm32f4xx_hal_adc.o
                0x0000000008001e30                HAL_ADC_Stop
 .text.HAL_ADC_PollForConversion
                0x0000000008001e68       0xb4 ./Drivers/STM32F4xx_HAL_Driver/stm32f4xx_hal_adc.o
                0x0000000008001e68                HAL_ADC_PollForConversion
 .text.HAL_ADC_GetValue
                0x0000000008001f1c        0x8 ./Drivers/STM32F4xx_HAL_Driver/stm32f4xx_hal_adc.o
                0x0000000008001f1c                HAL_ADC_GetValue
 .text.HAL_ADC_ConfigChannel
                0x0000000008001f24      0x178 ./Drivers/STM32F4xx_HAL_Driver/stm32f4xx_hal_adc.o
                0x0000000008001f24                HAL_ADC_ConfigChannel
 .text.HAL_NVIC_SetPriorityGrouping
                0x000000000800209c       0x24 ./Drivers/STM32F4xx_HAL_Driver/stm32f4xx_hal_cortex.o
                0x000000000800209c                HAL_NVIC_SetPriorityGrouping
 .text.HAL_NVIC_SetPriority
                0x00000000080020c0       0x7c ./Drivers/STM32F4xx_HAL_Driver/stm32f4xx_hal_cortex.o
                0x00000000080020c0                HAL_NVIC_SetPriority
 .text.HAL_NVIC_EnableIRQ
                0x000000000800213c       0x1c ./Drivers/STM32F4xx_HAL_Driver/stm32f4xx_hal_cortex.o
                0x000000000800213c                HAL_NVIC_EnableIRQ
 .text.HAL_DMA_Start_IT
                0x0000000008002158       0x80 ./Drivers/STM32F4xx_HAL_Driver/stm32f4xx_hal_dma.o
                0x0000000008002158                HAL_DMA_Start_IT
 .text.HAL_DMA_Abort
                0x00000000080021d8       0x94 ./Drivers/STM32F4xx_HAL_Driver/stm32f4xx_hal_dma.o
                0x00000000080021d8                HAL_DMA_Abort
 .text.HAL_DMA_Abort_IT
                0x000000000800226c       0x24 ./Drivers/STM32F4xx_HAL_Driver/stm32f4xx_hal_dma.o
                0x000000000800226c                HAL_DMA_Abort_IT
 .text.HAL_GPIO_Init
                0x0000000008002290      0x1e8 ./Drivers/STM32F4xx_HAL_Driver/stm32f4xx_hal_gpio.o
                0x0000000008002290                HAL_GPIO_Init
 .text.HAL_GPIO_DeInit
                0x0000000008002478      0x118 ./Drivers/STM32F4xx_HAL_Driver/stm32f4xx_hal_gpio.o
                0x0000000008002478                HAL_GPIO_DeInit
 .text.HAL_GPIO_ReadPin
                0x0000000008002590        0xc ./Drivers/STM32F4xx_HAL_Driver/stm32f4xx_hal_gpio.o
                0x0000000008002590                HAL_GPIO_ReadPin
 .text.HAL_GPIO_WritePin
                0x000000000800259c        0x8 ./Drivers/STM32F4xx_HAL_Driver/stm32f4xx_hal_gpio.o
                0x000000000800259c                HAL_GPIO_WritePin
 .text.HAL_PCD_Init
                0x00000000080025a4      0x11c ./Drivers/STM32F4xx_HAL_Driver/stm32f4xx_hal_pcd.o
                0x00000000080025a4                HAL_PCD_Init
 .text.HAL_PCD_Start
                0x00000000080026c0       0x40 ./Drivers/STM32F4xx_HAL_Driver/stm32f4xx_hal_pcd.o
                0x00000000080026c0                HAL_PCD_Start
 .text.HAL_PCD_IRQHandler
                0x0000000008002700      0xb14 ./Drivers/STM32F4xx_HAL_Driver/stm32f4xx_hal_pcd.o
                0x0000000008002700                HAL_PCD_IRQHandler
 .text.HAL_PCD_SetAddress
                0x0000000008003214       0x28 ./Drivers/STM32F4xx_HAL_Driver/stm32f4xx_hal_pcd.o
                0x0000000008003214                HAL_PCD_SetAddress
 .text.HAL_PCD_EP_Open
                0x000000000800323c       0x7c ./Drivers/STM32F4xx_HAL_Driver/stm32f4xx_hal_pcd.o
                0x000000000800323c                HAL_PCD_EP_Open
 .text.HAL_PCD_EP_Close
                0x00000000080032b8       0x5c ./Drivers/STM32F4xx_HAL_Driver/stm32f4xx_hal_pcd.o
                0x00000000080032b8                HAL_PCD_EP_Close
 .text.HAL_PCD_EP_Receive
                0x0000000008003314       0x50 ./Drivers/STM32F4xx_HAL_Driver/stm32f4xx_hal_pcd.o
                0x0000000008003314                HAL_PCD_EP_Receive
 .text.HAL_PCD_EP_GetRxCount
                0x0000000008003364       0x14 ./Drivers/STM32F4xx_HAL_Driver/stm32f4xx_hal_pcd.o
                0x0000000008003364                HAL_PCD_EP_GetRxCount
 .text.HAL_PCD_EP_Transmit
                0x0000000008003378       0x50 ./Drivers/STM32F4xx_HAL_Driver/stm32f4xx_hal_pcd.o
                0x0000000008003378                HAL_PCD_EP_Transmit
 .text.HAL_PCD_EP_SetStall
                0x00000000080033c8       0x88 ./Drivers/STM32F4xx_HAL_Driver/stm32f4xx_hal_pcd.o
                0x00000000080033c8                HAL_PCD_EP_SetStall
 .text.HAL_PCD_EP_ClrStall
                0x0000000008003450       0x70 ./Drivers/STM32F4xx_HAL_Driver/stm32f4xx_hal_pcd.o
                0x0000000008003450                HAL_PCD_EP_ClrStall
 .text.HAL_PCDEx_SetTxFiFo
                0x00000000080034c0       0x4c ./Drivers/STM32F4xx_HAL_Driver/stm32f4xx_hal_pcd_ex.o
                0x00000000080034c0                HAL_PCDEx_SetTxFiFo
 .text.HAL_PCDEx_SetRxFiFo
                0x000000000800350c        0x8 ./Drivers/STM32F4xx_HAL_Driver/stm32f4xx_hal_pcd_ex.o
                0x000000000800350c                HAL_PCDEx_SetRxFiFo
 .text.HAL_PCDEx_LPM_Callback
                0x0000000008003514        0x4 ./Drivers/STM32F4xx_HAL_Driver/stm32f4xx_hal_pcd_ex.o
                0x0000000008003514                HAL_PCDEx_LPM_Callback
 .text.HAL_RCC_OscConfig
                0x0000000008003518      0x3c8 ./Drivers/STM32F4xx_HAL_Driver/stm32f4xx_hal_rcc.o
                0x0000000008003518                HAL_RCC_OscConfig
 .text.HAL_RCC_GetSysClockFreq
                0x00000000080038e0       0x68 ./Drivers/STM32F4xx_HAL_Driver/stm32f4xx_hal_rcc.o
                0x00000000080038e0                HAL_RCC_GetSysClockFreq
 .text.HAL_RCC_ClockConfig
                0x0000000008003948      0x13c ./Drivers/STM32F4xx_HAL_Driver/stm32f4xx_hal_rcc.o
                0x0000000008003948                HAL_RCC_ClockConfig
 .text.HAL_RCC_GetHCLKFreq
                0x0000000008003a84        0xc ./Drivers/STM32F4xx_HAL_Driver/stm32f4xx_hal_rcc.o
                0x0000000008003a84                HAL_RCC_GetHCLKFreq
 .text.HAL_RCC_GetPCLK1Freq
                0x0000000008003a90       0x20 ./Drivers/STM32F4xx_HAL_Driver/stm32f4xx_hal_rcc.o
                0x0000000008003a90                HAL_RCC_GetPCLK1Freq
 .text.HAL_RCC_GetPCLK2Freq
                0x0000000008003ab0       0x20 ./Drivers/STM32F4xx_HAL_Driver/stm32f4xx_hal_rcc.o
                0x0000000008003ab0                HAL_RCC_GetPCLK2Freq
 .text.HAL_RCC_GetClockConfig
                0x0000000008003ad0       0x44 ./Drivers/STM32F4xx_HAL_Driver/stm32f4xx_hal_rcc.o
                0x0000000008003ad0                HAL_RCC_GetClockConfig
 .text.HAL_TIM_Base_MspInit
                0x0000000008003b14        0x4 ./Drivers/STM32F4xx_HAL_Driver/stm32f4xx_hal_tim.o
                0x0000000008003b14                HAL_TIM_Base_MspInit
 .text.HAL_TIM_Base_Init
                0x0000000008003b18       0xfc ./Drivers/STM32F4xx_HAL_Driver/stm32f4xx_hal_tim.o
                0x0000000008003b18                HAL_TIM_Base_Init
 .text.HAL_TIM_Base_Start_IT
                0x0000000008003c14       0x68 ./Drivers/STM32F4xx_HAL_Driver/stm32f4xx_hal_tim.o
                0x0000000008003c14                HAL_TIM_Base_Start_IT
 .text.HAL_TIM_PWM_MspInit
                0x0000000008003c7c        0x4 ./Drivers/STM32F4xx_HAL_Driver/stm32f4xx_hal_tim.o
                0x0000000008003c7c                HAL_TIM_PWM_MspInit
 .text.HAL_TIM_PWM_Init
                0x0000000008003c80       0xfc ./Drivers/STM32F4xx_HAL_Driver/stm32f4xx_hal_tim.o
                0x0000000008003c80                HAL_TIM_PWM_Init
 .text.HAL_TIM_PWM_Start
                0x0000000008003d7c       0xc4 ./Drivers/STM32F4xx_HAL_Driver/stm32f4xx_hal_tim.o
                0x0000000008003d7c                HAL_TIM_PWM_Start
 .text.HAL_TIM_PWM_Stop
                0x0000000008003e40       0x98 ./Drivers/STM32F4xx_HAL_Driver/stm32f4xx_hal_tim.o
                0x0000000008003e40                HAL_TIM_PWM_Stop
 .text.HAL_TIM_PWM_ConfigChannel
                0x0000000008003ed8      0x200 ./Drivers/STM32F4xx_HAL_Driver/stm32f4xx_hal_tim.o
                0x0000000008003ed8                HAL_TIM_PWM_ConfigChannel
 .text.HAL_TIM_ConfigClockSource
                0x00000000080040d8      0x160 ./Drivers/STM32F4xx_HAL_Driver/stm32f4xx_hal_tim.o
                0x00000000080040d8                HAL_TIM_ConfigClockSource
 .text.HAL_TIM_OC_DelayElapsedCallback
                0x0000000008004238        0x4 ./Drivers/STM32F4xx_HAL_Driver/stm32f4xx_hal_tim.o
                0x0000000008004238                HAL_TIM_OC_DelayElapsedCallback
 .text.HAL_TIM_IC_CaptureCallback
                0x000000000800423c        0x4 ./Drivers/STM32F4xx_HAL_Driver/stm32f4xx_hal_tim.o
                0x000000000800423c                HAL_TIM_IC_CaptureCallback
 .text.HAL_TIM_PWM_PulseFinishedCallback
                0x0000000008004240        0x4 ./Drivers/STM32F4xx_HAL_Driver/stm32f4xx_hal_tim.o
                0x0000000008004240                HAL_TIM_PWM_PulseFinishedCallback
 .text.HAL_TIM_TriggerCallback
                0x0000000008004244        0x4 ./Drivers/STM32F4xx_HAL_Driver/stm32f4xx_hal_tim.o
                0x0000000008004244                HAL_TIM_TriggerCallback
 .text.HAL_TIM_IRQHandler
                0x0000000008004248      0x154 ./Drivers/STM32F4xx_HAL_Driver/stm32f4xx_hal_tim.o
                0x0000000008004248                HAL_TIM_IRQHandler
 .text.HAL_TIMEx_PWMN_Start
                0x000000000800439c       0xbc ./Drivers/STM32F4xx_HAL_Driver/stm32f4xx_hal_tim_ex.o
                0x000000000800439c                HAL_TIMEx_PWMN_Start
 .text.HAL_TIMEx_PWMN_Stop
                0x0000000008004458       0x8c ./Drivers/STM32F4xx_HAL_Driver/stm32f4xx_hal_tim_ex.o
                0x0000000008004458                HAL_TIMEx_PWMN_Stop
 .text.HAL_TIMEx_MasterConfigSynchronization
                0x00000000080044e4       0x70 ./Drivers/STM32F4xx_HAL_Driver/stm32f4xx_hal_tim_ex.o
                0x00000000080044e4                HAL_TIMEx_MasterConfigSynchronization
 .text.HAL_TIMEx_CommutCallback
                0x0000000008004554        0x4 ./Drivers/STM32F4xx_HAL_Driver/stm32f4xx_hal_tim_ex.o
                0x0000000008004554                HAL_TIMEx_CommutCallback
 .text.HAL_TIMEx_BreakCallback
                0x0000000008004558        0x4 ./Drivers/STM32F4xx_HAL_Driver/stm32f4xx_hal_tim_ex.o
                0x0000000008004558                HAL_TIMEx_BreakCallback
 .text.HAL_UART_Init
                0x000000000800455c      0x134 ./Drivers/STM32F4xx_HAL_Driver/stm32f4xx_hal_uart.o
                0x000000000800455c                HAL_UART_Init
 .text.HAL_UART_DeInit
                0x0000000008004690       0x34 ./Drivers/STM32F4xx_HAL_Driver/stm32f4xx_hal_uart.o
                0x0000000008004690                HAL_UART_DeInit
 .text.HAL_UART_Transmit
                0x00000000080046c4      0x15c ./Drivers/STM32F4xx_HAL_Driver/stm32f4xx_hal_uart.o
                0x00000000080046c4                HAL_UART_Transmit
 .text.HAL_UART_Receive_IT
                0x0000000008004820       0x58 ./Drivers/STM32F4xx_HAL_Driver/stm32f4xx_hal_uart.o
                0x0000000008004820                HAL_UART_Receive_IT
 .text.HAL_UART_Transmit_DMA
                0x0000000008004878       0x88 ./Drivers/STM32F4xx_HAL_Driver/stm32f4xx_hal_uart.o
                0x0000000008004878                HAL_UART_Transmit_DMA
 .text.HAL_UART_TxCpltCallback
                0x0000000008004900        0x4 ./Drivers/STM32F4xx_HAL_Driver/stm32f4xx_hal_uart.o
                0x0000000008004900                HAL_UART_TxCpltCallback
 .text.UART_DMATransmitCplt
                0x0000000008004904       0x4c ./Drivers/STM32F4xx_HAL_Driver/stm32f4xx_hal_uart.o
 .text.HAL_UART_TxHalfCpltCallback
                0x0000000008004950        0x4 ./Drivers/STM32F4xx_HAL_Driver/stm32f4xx_hal_uart.o
                0x0000000008004950                HAL_UART_TxHalfCpltCallback
 .text.UART_DMATxHalfCplt
                0x0000000008004954        0xc ./Drivers/STM32F4xx_HAL_Driver/stm32f4xx_hal_uart.o
 .text.HAL_UART_ErrorCallback
                0x0000000008004960        0x4 ./Drivers/STM32F4xx_HAL_Driver/stm32f4xx_hal_uart.o
                0x0000000008004960                HAL_UART_ErrorCallback
 .text.UART_DMAError
                0x0000000008004964       0xbc ./Drivers/STM32F4xx_HAL_Driver/stm32f4xx_hal_uart.o
 .text.UART_DMAAbortOnError
                0x0000000008004a20       0x10 ./Drivers/STM32F4xx_HAL_Driver/stm32f4xx_hal_uart.o
 .text.HAL_UARTEx_RxEventCallback
                0x0000000008004a30        0x4 ./Drivers/STM32F4xx_HAL_Driver/stm32f4xx_hal_uart.o
                0x0000000008004a30                HAL_UARTEx_RxEventCallback
 .text.UART_Receive_IT.part.0.isra.0
                0x0000000008004a34       0xcc ./Drivers/STM32F4xx_HAL_Driver/stm32f4xx_hal_uart.o
 .text.HAL_UART_IRQHandler
                0x0000000008004b00      0x318 ./Drivers/STM32F4xx_HAL_Driver/stm32f4xx_hal_uart.o
                0x0000000008004b00                HAL_UART_IRQHandler
 .text.UART_Start_Receive_IT
                0x0000000008004e18       0x3c ./Drivers/STM32F4xx_HAL_Driver/stm32f4xx_hal_uart.o
                0x0000000008004e18                UART_Start_Receive_IT
 .text.USB_CoreInit
                0x0000000008004e54      0x104 ./Drivers/STM32F4xx_HAL_Driver/stm32f4xx_ll_usb.o
                0x0000000008004e54                USB_CoreInit
 .text.USB_SetTurnaroundTime
                0x0000000008004f58       0xf4 ./Drivers/STM32F4xx_HAL_Driver/stm32f4xx_ll_usb.o
                0x0000000008004f58                USB_SetTurnaroundTime
 .text.USB_EnableGlobalInt
                0x000000000800504c       0x10 ./Drivers/STM32F4xx_HAL_Driver/stm32f4xx_ll_usb.o
                0x000000000800504c                USB_EnableGlobalInt
 .text.USB_DisableGlobalInt
                0x000000000800505c       0x10 ./Drivers/STM32F4xx_HAL_Driver/stm32f4xx_ll_usb.o
                0x000000000800505c                USB_DisableGlobalInt
 .text.USB_SetCurrentMode
                0x000000000800506c       0x70 ./Drivers/STM32F4xx_HAL_Driver/stm32f4xx_ll_usb.o
                0x000000000800506c                USB_SetCurrentMode
 .text.USB_DevInit
                0x00000000080050dc      0x234 ./Drivers/STM32F4xx_HAL_Driver/stm32f4xx_ll_usb.o
                0x00000000080050dc                USB_DevInit
 .text.USB_FlushTxFifo
                0x0000000008005310       0x54 ./Drivers/STM32F4xx_HAL_Driver/stm32f4xx_ll_usb.o
                0x0000000008005310                USB_FlushTxFifo
 .text.USB_GetDevSpeed
                0x0000000008005364       0x18 ./Drivers/STM32F4xx_HAL_Driver/stm32f4xx_ll_usb.o
                0x0000000008005364                USB_GetDevSpeed
 .text.USB_ActivateEndpoint
                0x000000000800537c       0x98 ./Drivers/STM32F4xx_HAL_Driver/stm32f4xx_ll_usb.o
                0x000000000800537c                USB_ActivateEndpoint
 .text.USB_DeactivateEndpoint
                0x0000000008005414       0xc4 ./Drivers/STM32F4xx_HAL_Driver/stm32f4xx_ll_usb.o
                0x0000000008005414                USB_DeactivateEndpoint
 .text.USB_EPStartXfer
                0x00000000080054d8      0x218 ./Drivers/STM32F4xx_HAL_Driver/stm32f4xx_ll_usb.o
                0x00000000080054d8                USB_EPStartXfer
 .text.USB_EP0StartXfer
                0x00000000080056f0      0x158 ./Drivers/STM32F4xx_HAL_Driver/stm32f4xx_ll_usb.o
                0x00000000080056f0                USB_EP0StartXfer
 .text.USB_EPStopXfer
                0x0000000008005848       0x88 ./Drivers/STM32F4xx_HAL_Driver/stm32f4xx_ll_usb.o
                0x0000000008005848                USB_EPStopXfer
 .text.USB_WritePacket
                0x00000000080058d0       0x2c ./Drivers/STM32F4xx_HAL_Driver/stm32f4xx_ll_usb.o
                0x00000000080058d0                USB_WritePacket
 .text.USB_ReadPacket
                0x00000000080058fc       0x4c ./Drivers/STM32F4xx_HAL_Driver/stm32f4xx_ll_usb.o
                0x00000000080058fc                USB_ReadPacket
 .text.USB_EPSetStall
                0x0000000008005948       0x5c ./Drivers/STM32F4xx_HAL_Driver/stm32f4xx_ll_usb.o
                0x0000000008005948                USB_EPSetStall
 .text.USB_EPClearStall
                0x00000000080059a4       0x58 ./Drivers/STM32F4xx_HAL_Driver/stm32f4xx_ll_usb.o
                0x00000000080059a4                USB_EPClearStall
 .text.USB_SetDevAddress
                0x00000000080059fc       0x20 ./Drivers/STM32F4xx_HAL_Driver/stm32f4xx_ll_usb.o
                0x00000000080059fc                USB_SetDevAddress
 .text.USB_DevConnect
                0x0000000008005a1c       0x20 ./Drivers/STM32F4xx_HAL_Driver/stm32f4xx_ll_usb.o
                0x0000000008005a1c                USB_DevConnect
 .text.USB_DevDisconnect
                0x0000000008005a3c       0x20 ./Drivers/STM32F4xx_HAL_Driver/stm32f4xx_ll_usb.o
                0x0000000008005a3c                USB_DevDisconnect
 .text.USB_ReadInterrupts
                0x0000000008005a5c        0x8 ./Drivers/STM32F4xx_HAL_Driver/stm32f4xx_ll_usb.o
                0x0000000008005a5c                USB_ReadInterrupts
 .text.USB_ReadDevAllOutEpInterrupt
                0x0000000008005a64       0x10 ./Drivers/STM32F4xx_HAL_Driver/stm32f4xx_ll_usb.o
                0x0000000008005a64                USB_ReadDevAllOutEpInterrupt
 .text.USB_ReadDevAllInEpInterrupt
                0x0000000008005a74       0x10 ./Drivers/STM32F4xx_HAL_Driver/stm32f4xx_ll_usb.o
                0x0000000008005a74                USB_ReadDevAllInEpInterrupt
 .text.USB_ReadDevOutEPInterrupt
                0x0000000008005a84       0x14 ./Drivers/STM32F4xx_HAL_Driver/stm32f4xx_ll_usb.o
                0x0000000008005a84                USB_ReadDevOutEPInterrupt
 .text.USB_ReadDevInEPInterrupt
                0x0000000008005a98       0x20 ./Drivers/STM32F4xx_HAL_Driver/stm32f4xx_ll_usb.o
                0x0000000008005a98                USB_ReadDevInEPInterrupt
 .text.USB_GetMode
                0x0000000008005ab8        0x8 ./Drivers/STM32F4xx_HAL_Driver/stm32f4xx_ll_usb.o
                0x0000000008005ab8                USB_GetMode
 .text.USB_ActivateSetup
                0x0000000008005ac0       0x24 ./Drivers/STM32F4xx_HAL_Driver/stm32f4xx_ll_usb.o
                0x0000000008005ac0                USB_ActivateSetup
 .text.USB_EP0_OutStart
                0x0000000008005ae4       0x58 ./Drivers/STM32F4xx_HAL_Driver/stm32f4xx_ll_usb.o
                0x0000000008005ae4                USB_EP0_OutStart
 .text.SysTick_Handler
                0x0000000008005b3c       0x1c ./Middlewares/FreeRTOS/cmsis_os2.o
                0x0000000008005b3c                SysTick_Handler
 .text.osKernelInitialize
                0x0000000008005b58       0x24 ./Middlewares/FreeRTOS/cmsis_os2.o
                0x0000000008005b58                osKernelInitialize
 .text.osKernelStart
                0x0000000008005b7c       0x34 ./Middlewares/FreeRTOS/cmsis_os2.o
                0x0000000008005b7c                osKernelStart
 .text.osThreadNew
                0x0000000008005bb0       0x98 ./Middlewares/FreeRTOS/cmsis_os2.o
                0x0000000008005bb0                osThreadNew
 .text.osDelay  0x0000000008005c48       0x1c ./Middlewares/FreeRTOS/cmsis_os2.o
                0x0000000008005c48                osDelay
 .text.vApplicationGetIdleTaskMemory
                0x0000000008005c64       0x1c ./Middlewares/FreeRTOS/cmsis_os2.o
                0x0000000008005c64                vApplicationGetIdleTaskMemory
 .text.vApplicationGetTimerTaskMemory
                0x0000000008005c80       0x20 ./Middlewares/FreeRTOS/cmsis_os2.o
                0x0000000008005c80                vApplicationGetTimerTaskMemory
 .text.pvPortMalloc
                0x0000000008005ca0      0x178 ./Middlewares/FreeRTOS/heap_4.o
                0x0000000008005ca0                pvPortMalloc
 .text.vPortFree
                0x0000000008005e18       0xc8 ./Middlewares/FreeRTOS/heap_4.o
                0x0000000008005e18                vPortFree
 .text.vListInitialise
                0x0000000008005ee0       0x18 ./Middlewares/FreeRTOS/list.o
                0x0000000008005ee0                vListInitialise
 .text.vListInitialiseItem
                0x0000000008005ef8        0x8 ./Middlewares/FreeRTOS/list.o
                0x0000000008005ef8                vListInitialiseItem
 .text.vListInsertEnd
                0x0000000008005f00       0x20 ./Middlewares/FreeRTOS/list.o
                0x0000000008005f00                vListInsertEnd
 .text.vListInsert
                0x0000000008005f20       0x30 ./Middlewares/FreeRTOS/list.o
                0x0000000008005f20                vListInsert
 .text.uxListRemove
                0x0000000008005f50       0x28 ./Middlewares/FreeRTOS/list.o
                0x0000000008005f50                uxListRemove
 .text.prvPortStartFirstTask
                0x0000000008005f78       0x28 ./Middlewares/FreeRTOS/port.o
 .text.vPortEnableVFP
                0x0000000008005fa0       0x14 ./Middlewares/FreeRTOS/port.o
 .text.prvTaskExitError
                0x0000000008005fb4       0x40 ./Middlewares/FreeRTOS/port.o
 .text.pxPortInitialiseStack
                0x0000000008005ff4       0x28 ./Middlewares/FreeRTOS/port.o
                0x0000000008005ff4                pxPortInitialiseStack
 *fill*         0x000000000800601c        0x4 
 .text.SVC_Handler
                0x0000000008006020       0x24 ./Middlewares/FreeRTOS/port.o
                0x0000000008006020                SVC_Handler
 .text.vPortEnterCritical
                0x0000000008006044       0x44 ./Middlewares/FreeRTOS/port.o
                0x0000000008006044                vPortEnterCritical
 .text.vPortExitCritical
                0x0000000008006088       0x28 ./Middlewares/FreeRTOS/port.o
                0x0000000008006088                vPortExitCritical
 .text.PendSV_Handler
                0x00000000080060b0       0x64 ./Middlewares/FreeRTOS/port.o
                0x00000000080060b0                PendSV_Handler
 .text.xPortSysTickHandler
                0x0000000008006114       0x2c ./Middlewares/FreeRTOS/port.o
                0x0000000008006114                xPortSysTickHandler
 .text.vPortSetupTimerInterrupt
                0x0000000008006140       0x28 ./Middlewares/FreeRTOS/port.o
                0x0000000008006140                vPortSetupTimerInterrupt
 .text.xPortStartScheduler
                0x0000000008006168      0x144 ./Middlewares/FreeRTOS/port.o
                0x0000000008006168                xPortStartScheduler
 .text.prvCopyDataToQueue
                0x00000000080062ac       0x78 ./Middlewares/FreeRTOS/queue.o
 .text.xQueueGenericCreateStatic
                0x0000000008006324       0xdc ./Middlewares/FreeRTOS/queue.o
                0x0000000008006324                xQueueGenericCreateStatic
 .text.xQueueGenericSend
                0x0000000008006400      0x2fc ./Middlewares/FreeRTOS/queue.o
                0x0000000008006400                xQueueGenericSend
 .text.xQueueCreateMutex
                0x00000000080066fc       0x70 ./Middlewares/FreeRTOS/queue.o
                0x00000000080066fc                xQueueCreateMutex
 .text.xQueueReceive
                0x000000000800676c      0x2fc ./Middlewares/FreeRTOS/queue.o
                0x000000000800676c                xQueueReceive
 .text.xQueueSemaphoreTake
                0x0000000008006a68      0x314 ./Middlewares/FreeRTOS/queue.o
                0x0000000008006a68                xQueueSemaphoreTake
 .text.vQueueAddToRegistry
                0x0000000008006d7c       0x50 ./Middlewares/FreeRTOS/queue.o
                0x0000000008006d7c                vQueueAddToRegistry
 .text.vQueueWaitForMessageRestricted
                0x0000000008006dcc       0xc8 ./Middlewares/FreeRTOS/queue.o
                0x0000000008006dcc                vQueueWaitForMessageRestricted
 .text.prvAddNewTaskToReadyList
                0x0000000008006e94      0x110 ./Middlewares/FreeRTOS/tasks.o
 .text.prvInitialiseNewTask.constprop.0
                0x0000000008006fa4      0x128 ./Middlewares/FreeRTOS/tasks.o
 .text.prvIdleTask
                0x00000000080070cc       0xa0 ./Middlewares/FreeRTOS/tasks.o
 .text.xTaskIncrementTick.part.0
                0x000000000800716c      0x148 ./Middlewares/FreeRTOS/tasks.o
 .text.xTaskResumeAll.part.0
                0x00000000080072b4      0x134 ./Middlewares/FreeRTOS/tasks.o
 .text.xTaskCreateStatic
                0x00000000080073e8       0x74 ./Middlewares/FreeRTOS/tasks.o
                0x00000000080073e8                xTaskCreateStatic
 .text.xTaskCreate
                0x000000000800745c       0x64 ./Middlewares/FreeRTOS/tasks.o
                0x000000000800745c                xTaskCreate
 .text.vTaskDelete
                0x00000000080074c0      0x10c ./Middlewares/FreeRTOS/tasks.o
                0x00000000080074c0                vTaskDelete
 .text.vTaskDelay
                0x00000000080075cc       0xac ./Middlewares/FreeRTOS/tasks.o
                0x00000000080075cc                vTaskDelay
 .text.vTaskStartScheduler
                0x0000000008007678       0xf8 ./Middlewares/FreeRTOS/tasks.o
                0x0000000008007678                vTaskStartScheduler
 .text.vTaskSuspendAll
                0x0000000008007770       0x10 ./Middlewares/FreeRTOS/tasks.o
                0x0000000008007770                vTaskSuspendAll
 .text.xTaskResumeAll
                0x0000000008007780       0x20 ./Middlewares/FreeRTOS/tasks.o
                0x0000000008007780                xTaskResumeAll
 .text.xTaskGetTickCount
                0x00000000080077a0        0xc ./Middlewares/FreeRTOS/tasks.o
                0x00000000080077a0                xTaskGetTickCount
 .text.xTaskIncrementTick
                0x00000000080077ac       0x20 ./Middlewares/FreeRTOS/tasks.o
                0x00000000080077ac                xTaskIncrementTick
 .text.vTaskSwitchContext
                0x00000000080077cc       0x98 ./Middlewares/FreeRTOS/tasks.o
                0x00000000080077cc                vTaskSwitchContext
 .text.vTaskPlaceOnEventList
                0x0000000008007864       0x88 ./Middlewares/FreeRTOS/tasks.o
                0x0000000008007864                vTaskPlaceOnEventList
 .text.vTaskPlaceOnEventListRestricted
                0x00000000080078ec       0x94 ./Middlewares/FreeRTOS/tasks.o
                0x00000000080078ec                vTaskPlaceOnEventListRestricted
 .text.xTaskRemoveFromEventList
                0x0000000008007980       0x90 ./Middlewares/FreeRTOS/tasks.o
                0x0000000008007980                xTaskRemoveFromEventList
 .text.vTaskInternalSetTimeOutState
                0x0000000008007a10       0x18 ./Middlewares/FreeRTOS/tasks.o
                0x0000000008007a10                vTaskInternalSetTimeOutState
 .text.xTaskCheckForTimeOut
                0x0000000008007a28       0x90 ./Middlewares/FreeRTOS/tasks.o
                0x0000000008007a28                xTaskCheckForTimeOut
 .text.vTaskMissedYield
                0x0000000008007ab8        0xc ./Middlewares/FreeRTOS/tasks.o
                0x0000000008007ab8                vTaskMissedYield
 .text.xTaskGetSchedulerState
                0x0000000008007ac4       0x20 ./Middlewares/FreeRTOS/tasks.o
                0x0000000008007ac4                xTaskGetSchedulerState
 .text.xTaskPriorityInherit
                0x0000000008007ae4       0x8c ./Middlewares/FreeRTOS/tasks.o
                0x0000000008007ae4                xTaskPriorityInherit
 .text.xTaskPriorityDisinherit
                0x0000000008007b70       0x8c ./Middlewares/FreeRTOS/tasks.o
                0x0000000008007b70                xTaskPriorityDisinherit
 .text.vTaskPriorityDisinheritAfterTimeout
                0x0000000008007bfc       0xa8 ./Middlewares/FreeRTOS/tasks.o
                0x0000000008007bfc                vTaskPriorityDisinheritAfterTimeout
 .text.pvTaskIncrementMutexHeldCount
                0x0000000008007ca4       0x18 ./Middlewares/FreeRTOS/tasks.o
                0x0000000008007ca4                pvTaskIncrementMutexHeldCount
 .text.prvSwitchTimerLists
                0x0000000008007cbc       0x9c ./Middlewares/FreeRTOS/timers.o
 .text.prvTimerTask
                0x0000000008007d58      0x284 ./Middlewares/FreeRTOS/timers.o
 .text.xTimerCreateTimerTask
                0x0000000008007fdc       0xbc ./Middlewares/FreeRTOS/timers.o
                0x0000000008007fdc                xTimerCreateTimerTask
 .text.USBD_CDC_EP0_RxReady
                0x0000000008008098       0x38 ./Middlewares/USB_Device_Library/usbd_cdc.o
 .text.USBD_CDC_GetDeviceQualifierDescriptor
                0x00000000080080d0        0xc ./Middlewares/USB_Device_Library/usbd_cdc.o
                0x00000000080080d0                USBD_CDC_GetDeviceQualifierDescriptor
 .text.USBD_CDC_GetFSCfgDesc
                0x00000000080080dc       0x48 ./Middlewares/USB_Device_Library/usbd_cdc.o
 .text.USBD_CDC_GetHSCfgDesc
                0x0000000008008124       0x48 ./Middlewares/USB_Device_Library/usbd_cdc.o
 .text.USBD_CDC_DataOut
                0x000000000800816c       0x38 ./Middlewares/USB_Device_Library/usbd_cdc.o
 .text.USBD_CDC_DataIn
                0x00000000080081a4       0x74 ./Middlewares/USB_Device_Library/usbd_cdc.o
 .text.USBD_CDC_Setup
                0x0000000008008218      0x11c ./Middlewares/USB_Device_Library/usbd_cdc.o
 .text.USBD_CDC_DeInit
                0x0000000008008334       0x5c ./Middlewares/USB_Device_Library/usbd_cdc.o
 .text.USBD_CDC_Init
                0x0000000008008390       0xf4 ./Middlewares/USB_Device_Library/usbd_cdc.o
 .text.USBD_CDC_GetOtherSpeedCfgDesc
                0x0000000008008484       0x48 ./Middlewares/USB_Device_Library/usbd_cdc.o
 .text.USBD_CDC_RegisterInterface
                0x00000000080084cc       0x18 ./Middlewares/USB_Device_Library/usbd_cdc.o
                0x00000000080084cc                USBD_CDC_RegisterInterface
 .text.USBD_CDC_SetTxBuffer
                0x00000000080084e4       0x1c ./Middlewares/USB_Device_Library/usbd_cdc.o
                0x00000000080084e4                USBD_CDC_SetTxBuffer
 .text.USBD_CDC_SetRxBuffer
                0x0000000008008500       0x18 ./Middlewares/USB_Device_Library/usbd_cdc.o
                0x0000000008008500                USBD_CDC_SetRxBuffer
 .text.USBD_CDC_TransmitPacket
                0x0000000008008518       0x38 ./Middlewares/USB_Device_Library/usbd_cdc.o
                0x0000000008008518                USBD_CDC_TransmitPacket
 .text.USBD_CDC_ReceivePacket
                0x0000000008008550       0x38 ./Middlewares/USB_Device_Library/usbd_cdc.o
                0x0000000008008550                USBD_CDC_ReceivePacket
 .text.USBD_Init
                0x0000000008008588       0x28 ./Middlewares/USB_Device_Library/usbd_core.o
                0x0000000008008588                USBD_Init
 .text.USBD_RegisterClass
                0x00000000080085b0       0x38 ./Middlewares/USB_Device_Library/usbd_core.o
                0x00000000080085b0                USBD_RegisterClass
 .text.USBD_Start
                0x00000000080085e8        0x4 ./Middlewares/USB_Device_Library/usbd_core.o
                0x00000000080085e8                USBD_Start
 .text.USBD_SetClassConfig
                0x00000000080085ec       0x10 ./Middlewares/USB_Device_Library/usbd_core.o
                0x00000000080085ec                USBD_SetClassConfig
 .text.USBD_ClrClassConfig
                0x00000000080085fc       0x14 ./Middlewares/USB_Device_Library/usbd_core.o
                0x00000000080085fc                USBD_ClrClassConfig
 .text.USBD_LL_SetupStage
                0x0000000008008610       0x60 ./Middlewares/USB_Device_Library/usbd_core.o
                0x0000000008008610                USBD_LL_SetupStage
 .text.USBD_LL_DataOutStage
                0x0000000008008670       0x74 ./Middlewares/USB_Device_Library/usbd_core.o
                0x0000000008008670                USBD_LL_DataOutStage
 .text.USBD_LL_DataInStage
                0x00000000080086e4       0xb4 ./Middlewares/USB_Device_Library/usbd_core.o
                0x00000000080086e4                USBD_LL_DataInStage
 .text.USBD_LL_Reset
                0x0000000008008798       0x5c ./Middlewares/USB_Device_Library/usbd_core.o
                0x0000000008008798                USBD_LL_Reset
 .text.USBD_LL_SetSpeed
                0x00000000080087f4        0x8 ./Middlewares/USB_Device_Library/usbd_core.o
                0x00000000080087f4                USBD_LL_SetSpeed
 .text.USBD_LL_Suspend
                0x00000000080087fc       0x18 ./Middlewares/USB_Device_Library/usbd_core.o
                0x00000000080087fc                USBD_LL_Suspend
 .text.USBD_LL_Resume
                0x0000000008008814       0x18 ./Middlewares/USB_Device_Library/usbd_core.o
                0x0000000008008814                USBD_LL_Resume
 .text.USBD_LL_SOF
                0x000000000800882c       0x20 ./Middlewares/USB_Device_Library/usbd_core.o
                0x000000000800882c                USBD_LL_SOF
 .text.USBD_LL_IsoINIncomplete
                0x000000000800884c       0x2c ./Middlewares/USB_Device_Library/usbd_core.o
                0x000000000800884c                USBD_LL_IsoINIncomplete
 .text.USBD_LL_IsoOUTIncomplete
                0x0000000008008878       0x2c ./Middlewares/USB_Device_Library/usbd_core.o
                0x0000000008008878                USBD_LL_IsoOUTIncomplete
 .text.USBD_LL_DevConnected
                0x00000000080088a4        0x4 ./Middlewares/USB_Device_Library/usbd_core.o
                0x00000000080088a4                USBD_LL_DevConnected
 .text.USBD_LL_DevDisconnected
                0x00000000080088a8       0x24 ./Middlewares/USB_Device_Library/usbd_core.o
                0x00000000080088a8                USBD_LL_DevDisconnected
 .text.USBD_CoreFindIF
                0x00000000080088cc        0x4 ./Middlewares/USB_Device_Library/usbd_core.o
                0x00000000080088cc                USBD_CoreFindIF
 .text.USBD_CoreFindEP
                0x00000000080088d0        0x4 ./Middlewares/USB_Device_Library/usbd_core.o
                0x00000000080088d0                USBD_CoreFindEP
 .text.USBD_GetEpDesc
                0x00000000080088d4       0x2c ./Middlewares/USB_Device_Library/usbd_core.o
                0x00000000080088d4                USBD_GetEpDesc
 .text.USBD_StdDevReq
                0x0000000008008900      0x374 ./Middlewares/USB_Device_Library/usbd_ctlreq.o
                0x0000000008008900                USBD_StdDevReq
 .text.USBD_StdItfReq
                0x0000000008008c74       0x74 ./Middlewares/USB_Device_Library/usbd_ctlreq.o
                0x0000000008008c74                USBD_StdItfReq
 .text.USBD_StdEPReq
                0x0000000008008ce8      0x154 ./Middlewares/USB_Device_Library/usbd_ctlreq.o
                0x0000000008008ce8                USBD_StdEPReq
 .text.USBD_ParseSetupRequest
                0x0000000008008e3c       0x18 ./Middlewares/USB_Device_Library/usbd_ctlreq.o
                0x0000000008008e3c                USBD_ParseSetupRequest
 .text.USBD_CtlError
                0x0000000008008e54       0x18 ./Middlewares/USB_Device_Library/usbd_ctlreq.o
                0x0000000008008e54                USBD_CtlError
 .text.USBD_GetString
                0x0000000008008e6c       0x54 ./Middlewares/USB_Device_Library/usbd_ctlreq.o
                0x0000000008008e6c                USBD_GetString
 .text.USBD_CtlSendData
                0x0000000008008ec0       0x1c ./Middlewares/USB_Device_Library/usbd_ioreq.o
                0x0000000008008ec0                USBD_CtlSendData
 .text.USBD_CtlContinueSendData
                0x0000000008008edc       0x10 ./Middlewares/USB_Device_Library/usbd_ioreq.o
                0x0000000008008edc                USBD_CtlContinueSendData
 .text.USBD_CtlPrepareRx
                0x0000000008008eec       0x1c ./Middlewares/USB_Device_Library/usbd_ioreq.o
                0x0000000008008eec                USBD_CtlPrepareRx
 .text.USBD_CtlContinueRx
                0x0000000008008f08       0x10 ./Middlewares/USB_Device_Library/usbd_ioreq.o
                0x0000000008008f08                USBD_CtlContinueRx
 .text.USBD_CtlSendStatus
                0x0000000008008f18       0x18 ./Middlewares/USB_Device_Library/usbd_ioreq.o
                0x0000000008008f18                USBD_CtlSendStatus
 .text.USBD_CtlReceiveStatus
                0x0000000008008f30       0x18 ./Middlewares/USB_Device_Library/usbd_ioreq.o
                0x0000000008008f30                USBD_CtlReceiveStatus
 .text.PikaDebug_reset_breakMethod
                0x0000000008008f48       0x30 ./pikapython/pikascript-api/__pikaBinding.o
                0x0000000008008f48                PikaDebug_reset_breakMethod
 .text.PikaDebug_set_breakMethod
                0x0000000008008f78       0x30 ./pikapython/pikascript-api/__pikaBinding.o
                0x0000000008008f78                PikaDebug_set_breakMethod
 .text.PikaDebug_set_traceMethod
                0x0000000008008fa8        0x4 ./pikapython/pikascript-api/__pikaBinding.o
                0x0000000008008fa8                PikaDebug_set_traceMethod
 .text.New_PikaDebug
                0x0000000008008fac       0x24 ./pikapython/pikascript-api/__pikaBinding.o
                0x0000000008008fac                New_PikaDebug
 .text.New_PikaDebug_Debuger
                0x0000000008008fd0       0x24 ./pikapython/pikascript-api/__pikaBinding.o
                0x0000000008008fd0                New_PikaDebug_Debuger
 .text.New_PikaStdData
                0x0000000008008ff4       0x24 ./pikapython/pikascript-api/__pikaBinding.o
                0x0000000008008ff4                New_PikaStdData
 .text.New_PikaStdData_Dict
                0x0000000008009018       0x24 ./pikapython/pikascript-api/__pikaBinding.o
                0x0000000008009018                New_PikaStdData_Dict
 .text.New_PikaStdData_FILEIO
                0x000000000800903c       0x24 ./pikapython/pikascript-api/__pikaBinding.o
                0x000000000800903c                New_PikaStdData_FILEIO
 .text.New_PikaStdData_String
                0x0000000008009060       0x24 ./pikapython/pikascript-api/__pikaBinding.o
                0x0000000008009060                New_PikaStdData_String
 .text.New_PikaStdData_Tuple
                0x0000000008009084       0x24 ./pikapython/pikascript-api/__pikaBinding.o
                0x0000000008009084                New_PikaStdData_Tuple
 .text.New_PikaStdData_Utils
                0x00000000080090a8       0x24 ./pikapython/pikascript-api/__pikaBinding.o
                0x00000000080090a8                New_PikaStdData_Utils
 .text.New_PikaStdData_dict_items
                0x00000000080090cc       0x24 ./pikapython/pikascript-api/__pikaBinding.o
                0x00000000080090cc                New_PikaStdData_dict_items
 .text.New_PikaStdData_dict_keys
                0x00000000080090f0       0x24 ./pikapython/pikascript-api/__pikaBinding.o
                0x00000000080090f0                New_PikaStdData_dict_keys
 .text.New_PikaStdDevice
                0x0000000008009114       0x24 ./pikapython/pikascript-api/__pikaBinding.o
                0x0000000008009114                New_PikaStdDevice
 .text.New_PikaStdDevice_BaseDev
                0x0000000008009138       0x24 ./pikapython/pikascript-api/__pikaBinding.o
                0x0000000008009138                New_PikaStdDevice_BaseDev
 .text.New_PikaStdDevice_Timer
                0x000000000800915c       0x24 ./pikapython/pikascript-api/__pikaBinding.o
                0x000000000800915c                New_PikaStdDevice_Timer
 .text.New_PikaStdDevice_UART
                0x0000000008009180       0x24 ./pikapython/pikascript-api/__pikaBinding.o
                0x0000000008009180                New_PikaStdDevice_UART
 .text.New_PikaStdLib
                0x00000000080091a4       0x24 ./pikapython/pikascript-api/__pikaBinding.o
                0x00000000080091a4                New_PikaStdLib
 .text.New_PikaStdLib_MemChecker
                0x00000000080091c8       0x24 ./pikapython/pikascript-api/__pikaBinding.o
                0x00000000080091c8                New_PikaStdLib_MemChecker
 .text.New_PikaStdLib_REPL
                0x00000000080091ec       0x24 ./pikapython/pikascript-api/__pikaBinding.o
                0x00000000080091ec                New_PikaStdLib_REPL
 .text.New_PikaStdLib_SysObj
                0x0000000008009210       0x24 ./pikapython/pikascript-api/__pikaBinding.o
                0x0000000008009210                New_PikaStdLib_SysObj
 .text.New_STM32
                0x0000000008009234       0x24 ./pikapython/pikascript-api/__pikaBinding.o
                0x0000000008009234                New_STM32
 .text.New__thread
                0x0000000008009258       0x24 ./pikapython/pikascript-api/__pikaBinding.o
                0x0000000008009258                New__thread
 .text.New__time
                0x000000000800927c       0x24 ./pikapython/pikascript-api/__pikaBinding.o
                0x000000000800927c                New__time
 .text.New_builtins
                0x00000000080092a0       0x24 ./pikapython/pikascript-api/__pikaBinding.o
                0x00000000080092a0                New_builtins
 .text.New_builtins_BaseException
                0x00000000080092c4       0x24 ./pikapython/pikascript-api/__pikaBinding.o
                0x00000000080092c4                New_builtins_BaseException
 .text.New_builtins_RangeObj
                0x00000000080092e8       0x24 ./pikapython/pikascript-api/__pikaBinding.o
                0x00000000080092e8                New_builtins_RangeObj
 .text.New_builtins_StringObj
                0x000000000800930c       0x24 ./pikapython/pikascript-api/__pikaBinding.o
                0x000000000800930c                New_builtins_StringObj
 .text.New_builtins_bytearray
                0x0000000008009330       0x24 ./pikapython/pikascript-api/__pikaBinding.o
                0x0000000008009330                New_builtins_bytearray
 .text.New_builtins_object
                0x0000000008009354       0x24 ./pikapython/pikascript-api/__pikaBinding.o
                0x0000000008009354                New_builtins_object
 .text.New_pika_libc
                0x0000000008009378       0x24 ./pikapython/pikascript-api/__pikaBinding.o
                0x0000000008009378                New_pika_libc
 .text.PikaDebug_Debuger___init__Method
                0x000000000800939c        0x4 ./pikapython/pikascript-api/__pikaBinding.o
                0x000000000800939c                PikaDebug_Debuger___init__Method
 .text.PikaDebug_Debuger_set_traceMethod
                0x00000000080093a0        0x4 ./pikapython/pikascript-api/__pikaBinding.o
                0x00000000080093a0                PikaDebug_Debuger_set_traceMethod
 .text.PikaDebug_DebugerMethod
                0x00000000080093a4       0x1c ./pikapython/pikascript-api/__pikaBinding.o
                0x00000000080093a4                PikaDebug_DebugerMethod
 .text.PikaStdData_ByteArrayMethod
                0x00000000080093c0       0x1c ./pikapython/pikascript-api/__pikaBinding.o
                0x00000000080093c0                PikaStdData_ByteArrayMethod
 .text.PikaStdData_DictMethod
                0x00000000080093dc       0x1c ./pikapython/pikascript-api/__pikaBinding.o
                0x00000000080093dc                PikaStdData_DictMethod
 .text.PikaStdData_FILEIOMethod
                0x00000000080093f8       0x1c ./pikapython/pikascript-api/__pikaBinding.o
                0x00000000080093f8                PikaStdData_FILEIOMethod
 .text.PikaStdData_ListMethod
                0x0000000008009414       0x1c ./pikapython/pikascript-api/__pikaBinding.o
                0x0000000008009414                PikaStdData_ListMethod
 .text.PikaStdData_StringMethod
                0x0000000008009430       0x1c ./pikapython/pikascript-api/__pikaBinding.o
                0x0000000008009430                PikaStdData_StringMethod
 .text.PikaStdData_TupleMethod
                0x000000000800944c       0x1c ./pikapython/pikascript-api/__pikaBinding.o
                0x000000000800944c                PikaStdData_TupleMethod
 .text.PikaStdData_UtilsMethod
                0x0000000008009468       0x1c ./pikapython/pikascript-api/__pikaBinding.o
                0x0000000008009468                PikaStdData_UtilsMethod
 .text.PikaStdData_dict_itemsMethod
                0x0000000008009484       0x1c ./pikapython/pikascript-api/__pikaBinding.o
                0x0000000008009484                PikaStdData_dict_itemsMethod
 .text.PikaStdData_dict_keysMethod
                0x00000000080094a0       0x1c ./pikapython/pikascript-api/__pikaBinding.o
                0x00000000080094a0                PikaStdData_dict_keysMethod
 .text.PikaStdDevice_ADCMethod
                0x00000000080094bc       0x1c ./pikapython/pikascript-api/__pikaBinding.o
                0x00000000080094bc                PikaStdDevice_ADCMethod
 .text.PikaStdDevice_BaseDevMethod
                0x00000000080094d8       0x1c ./pikapython/pikascript-api/__pikaBinding.o
                0x00000000080094d8                PikaStdDevice_BaseDevMethod
 .text.PikaStdDevice_CANMethod
                0x00000000080094f4       0x1c ./pikapython/pikascript-api/__pikaBinding.o
                0x00000000080094f4                PikaStdDevice_CANMethod
 .text.PikaStdDevice_DACMethod
                0x0000000008009510       0x1c ./pikapython/pikascript-api/__pikaBinding.o
                0x0000000008009510                PikaStdDevice_DACMethod
 .text.PikaStdDevice_GPIOMethod
                0x000000000800952c       0x1c ./pikapython/pikascript-api/__pikaBinding.o
                0x000000000800952c                PikaStdDevice_GPIOMethod
 .text.PikaStdDevice_IICMethod
                0x0000000008009548       0x1c ./pikapython/pikascript-api/__pikaBinding.o
                0x0000000008009548                PikaStdDevice_IICMethod
 .text.PikaStdDevice_PWMMethod
                0x0000000008009564       0x1c ./pikapython/pikascript-api/__pikaBinding.o
                0x0000000008009564                PikaStdDevice_PWMMethod
 .text.PikaStdDevice_SPIMethod
                0x0000000008009580       0x1c ./pikapython/pikascript-api/__pikaBinding.o
                0x0000000008009580                PikaStdDevice_SPIMethod
 .text.PikaStdDevice_TimerMethod
                0x000000000800959c       0x1c ./pikapython/pikascript-api/__pikaBinding.o
                0x000000000800959c                PikaStdDevice_TimerMethod
 .text.PikaStdDevice_UARTMethod
                0x00000000080095b8       0x1c ./pikapython/pikascript-api/__pikaBinding.o
                0x00000000080095b8                PikaStdDevice_UARTMethod
 .text.PikaStdLib_MemCheckerMethod
                0x00000000080095d4       0x1c ./pikapython/pikascript-api/__pikaBinding.o
                0x00000000080095d4                PikaStdLib_MemCheckerMethod
 .text.PikaStdLib_REPLMethod
                0x00000000080095f0       0x1c ./pikapython/pikascript-api/__pikaBinding.o
                0x00000000080095f0                PikaStdLib_REPLMethod
 .text.PikaStdLib_SysObjMethod
                0x000000000800960c       0x1c ./pikapython/pikascript-api/__pikaBinding.o
                0x000000000800960c                PikaStdLib_SysObjMethod
 .text.builtins_ArithmeticErrorMethod
                0x0000000008009628       0x1c ./pikapython/pikascript-api/__pikaBinding.o
                0x0000000008009628                builtins_ArithmeticErrorMethod
 .text.builtins_AssertionErrorMethod
                0x0000000008009644       0x1c ./pikapython/pikascript-api/__pikaBinding.o
                0x0000000008009644                builtins_AssertionErrorMethod
 .text.builtins_AttributeErrorMethod
                0x0000000008009660       0x1c ./pikapython/pikascript-api/__pikaBinding.o
                0x0000000008009660                builtins_AttributeErrorMethod
 .text.builtins_BaseExceptionMethod
                0x000000000800967c       0x1c ./pikapython/pikascript-api/__pikaBinding.o
                0x000000000800967c                builtins_BaseExceptionMethod
 .text.builtins_BlockingIOErrorMethod
                0x0000000008009698       0x1c ./pikapython/pikascript-api/__pikaBinding.o
                0x0000000008009698                builtins_BlockingIOErrorMethod
 .text.builtins_BrokenPipeErrorMethod
                0x00000000080096b4       0x1c ./pikapython/pikascript-api/__pikaBinding.o
                0x00000000080096b4                builtins_BrokenPipeErrorMethod
 .text.builtins_BufferErrorMethod
                0x00000000080096d0       0x1c ./pikapython/pikascript-api/__pikaBinding.o
                0x00000000080096d0                builtins_BufferErrorMethod
 .text.builtins_BytesWarningMethod
                0x00000000080096ec       0x1c ./pikapython/pikascript-api/__pikaBinding.o
                0x00000000080096ec                builtins_BytesWarningMethod
 .text.builtins_ChildProcessErrorMethod
                0x0000000008009708       0x1c ./pikapython/pikascript-api/__pikaBinding.o
                0x0000000008009708                builtins_ChildProcessErrorMethod
 .text.builtins_ConnectionAbortedErrorMethod
                0x0000000008009724       0x1c ./pikapython/pikascript-api/__pikaBinding.o
                0x0000000008009724                builtins_ConnectionAbortedErrorMethod
 .text.builtins_ConnectionErrorMethod
                0x0000000008009740       0x1c ./pikapython/pikascript-api/__pikaBinding.o
                0x0000000008009740                builtins_ConnectionErrorMethod
 .text.builtins_ConnectionRefusedErrorMethod
                0x000000000800975c       0x1c ./pikapython/pikascript-api/__pikaBinding.o
                0x000000000800975c                builtins_ConnectionRefusedErrorMethod
 .text.builtins_ConnectionResetErrorMethod
                0x0000000008009778       0x1c ./pikapython/pikascript-api/__pikaBinding.o
                0x0000000008009778                builtins_ConnectionResetErrorMethod
 .text.builtins_DeprecationWarningMethod
                0x0000000008009794       0x1c ./pikapython/pikascript-api/__pikaBinding.o
                0x0000000008009794                builtins_DeprecationWarningMethod
 .text.builtins_EOFErrorMethod
                0x00000000080097b0       0x1c ./pikapython/pikascript-api/__pikaBinding.o
                0x00000000080097b0                builtins_EOFErrorMethod
 .text.builtins_ExceptionMethod
                0x00000000080097cc       0x1c ./pikapython/pikascript-api/__pikaBinding.o
                0x00000000080097cc                builtins_ExceptionMethod
 .text.builtins_FileExistsErrorMethod
                0x00000000080097e8       0x1c ./pikapython/pikascript-api/__pikaBinding.o
                0x00000000080097e8                builtins_FileExistsErrorMethod
 .text.builtins_FileNotFoundErrorMethod
                0x0000000008009804       0x1c ./pikapython/pikascript-api/__pikaBinding.o
                0x0000000008009804                builtins_FileNotFoundErrorMethod
 .text.builtins_FloatingPointErrorMethod
                0x0000000008009820       0x1c ./pikapython/pikascript-api/__pikaBinding.o
                0x0000000008009820                builtins_FloatingPointErrorMethod
 .text.builtins_FutureWarningMethod
                0x000000000800983c       0x1c ./pikapython/pikascript-api/__pikaBinding.o
                0x000000000800983c                builtins_FutureWarningMethod
 .text.builtins_GeneratorExitMethod
                0x0000000008009858       0x1c ./pikapython/pikascript-api/__pikaBinding.o
                0x0000000008009858                builtins_GeneratorExitMethod
 .text.builtins_ImportErrorMethod
                0x0000000008009874       0x1c ./pikapython/pikascript-api/__pikaBinding.o
                0x0000000008009874                builtins_ImportErrorMethod
 .text.builtins_ImportWarningMethod
                0x0000000008009890       0x1c ./pikapython/pikascript-api/__pikaBinding.o
                0x0000000008009890                builtins_ImportWarningMethod
 .text.builtins_IndentationErrorMethod
                0x00000000080098ac       0x1c ./pikapython/pikascript-api/__pikaBinding.o
                0x00000000080098ac                builtins_IndentationErrorMethod
 .text.builtins_IndexErrorMethod
                0x00000000080098c8       0x1c ./pikapython/pikascript-api/__pikaBinding.o
                0x00000000080098c8                builtins_IndexErrorMethod
 .text.builtins_InterruptedErrorMethod
                0x00000000080098e4       0x1c ./pikapython/pikascript-api/__pikaBinding.o
                0x00000000080098e4                builtins_InterruptedErrorMethod
 .text.builtins_IsADirectoryErrorMethod
                0x0000000008009900       0x1c ./pikapython/pikascript-api/__pikaBinding.o
                0x0000000008009900                builtins_IsADirectoryErrorMethod
 .text.builtins_KeyErrorMethod
                0x000000000800991c       0x1c ./pikapython/pikascript-api/__pikaBinding.o
                0x000000000800991c                builtins_KeyErrorMethod
 .text.builtins_KeyboardInterruptMethod
                0x0000000008009938       0x1c ./pikapython/pikascript-api/__pikaBinding.o
                0x0000000008009938                builtins_KeyboardInterruptMethod
 .text.builtins_LookupErrorMethod
                0x0000000008009954       0x1c ./pikapython/pikascript-api/__pikaBinding.o
                0x0000000008009954                builtins_LookupErrorMethod
 .text.builtins_MemoryErrorMethod
                0x0000000008009970       0x1c ./pikapython/pikascript-api/__pikaBinding.o
                0x0000000008009970                builtins_MemoryErrorMethod
 .text.builtins_ModuleNotFoundErrorMethod
                0x000000000800998c       0x1c ./pikapython/pikascript-api/__pikaBinding.o
                0x000000000800998c                builtins_ModuleNotFoundErrorMethod
 .text.builtins_NameErrorMethod
                0x00000000080099a8       0x1c ./pikapython/pikascript-api/__pikaBinding.o
                0x00000000080099a8                builtins_NameErrorMethod
 .text.builtins_NotADirectoryErrorMethod
                0x00000000080099c4       0x1c ./pikapython/pikascript-api/__pikaBinding.o
                0x00000000080099c4                builtins_NotADirectoryErrorMethod
 .text.builtins_NotImplementedErrorMethod
                0x00000000080099e0       0x1c ./pikapython/pikascript-api/__pikaBinding.o
                0x00000000080099e0                builtins_NotImplementedErrorMethod
 .text.builtins_OSErrorMethod
                0x00000000080099fc       0x1c ./pikapython/pikascript-api/__pikaBinding.o
                0x00000000080099fc                builtins_OSErrorMethod
 .text.builtins_OverflowErrorMethod
                0x0000000008009a18       0x1c ./pikapython/pikascript-api/__pikaBinding.o
                0x0000000008009a18                builtins_OverflowErrorMethod
 .text.builtins_PendingDeprecationWarningMethod
                0x0000000008009a34       0x1c ./pikapython/pikascript-api/__pikaBinding.o
                0x0000000008009a34                builtins_PendingDeprecationWarningMethod
 .text.builtins_PermissionErrorMethod
                0x0000000008009a50       0x1c ./pikapython/pikascript-api/__pikaBinding.o
                0x0000000008009a50                builtins_PermissionErrorMethod
 .text.builtins_ProcessLookupErrorMethod
                0x0000000008009a6c       0x1c ./pikapython/pikascript-api/__pikaBinding.o
                0x0000000008009a6c                builtins_ProcessLookupErrorMethod
 .text.builtins_RangeObjMethod
                0x0000000008009a88       0x1c ./pikapython/pikascript-api/__pikaBinding.o
                0x0000000008009a88                builtins_RangeObjMethod
 .text.builtins_RecursionErrorMethod
                0x0000000008009aa4       0x1c ./pikapython/pikascript-api/__pikaBinding.o
                0x0000000008009aa4                builtins_RecursionErrorMethod
 .text.builtins_ReferenceErrorMethod
                0x0000000008009ac0       0x1c ./pikapython/pikascript-api/__pikaBinding.o
                0x0000000008009ac0                builtins_ReferenceErrorMethod
 .text.builtins_ResourceWarningMethod
                0x0000000008009adc       0x1c ./pikapython/pikascript-api/__pikaBinding.o
                0x0000000008009adc                builtins_ResourceWarningMethod
 .text.builtins_RuntimeErrorMethod
                0x0000000008009af8       0x1c ./pikapython/pikascript-api/__pikaBinding.o
                0x0000000008009af8                builtins_RuntimeErrorMethod
 .text.builtins_RuntimeWarningMethod
                0x0000000008009b14       0x1c ./pikapython/pikascript-api/__pikaBinding.o
                0x0000000008009b14                builtins_RuntimeWarningMethod
 .text.builtins_StopAsyncIterationMethod
                0x0000000008009b30       0x1c ./pikapython/pikascript-api/__pikaBinding.o
                0x0000000008009b30                builtins_StopAsyncIterationMethod
 .text.builtins_StopIterationMethod
                0x0000000008009b4c       0x1c ./pikapython/pikascript-api/__pikaBinding.o
                0x0000000008009b4c                builtins_StopIterationMethod
 .text.builtins_StringObjMethod
                0x0000000008009b68       0x1c ./pikapython/pikascript-api/__pikaBinding.o
                0x0000000008009b68                builtins_StringObjMethod
 .text.builtins_SyntaxErrorMethod
                0x0000000008009b84       0x1c ./pikapython/pikascript-api/__pikaBinding.o
                0x0000000008009b84                builtins_SyntaxErrorMethod
 .text.builtins_SyntaxWarningMethod
                0x0000000008009ba0       0x1c ./pikapython/pikascript-api/__pikaBinding.o
                0x0000000008009ba0                builtins_SyntaxWarningMethod
 .text.builtins_SystemErrorMethod
                0x0000000008009bbc       0x1c ./pikapython/pikascript-api/__pikaBinding.o
                0x0000000008009bbc                builtins_SystemErrorMethod
 .text.builtins_SystemExitMethod
                0x0000000008009bd8       0x1c ./pikapython/pikascript-api/__pikaBinding.o
                0x0000000008009bd8                builtins_SystemExitMethod
 .text.builtins_TabErrorMethod
                0x0000000008009bf4       0x1c ./pikapython/pikascript-api/__pikaBinding.o
                0x0000000008009bf4                builtins_TabErrorMethod
 .text.builtins_TimeoutErrorMethod
                0x0000000008009c10       0x1c ./pikapython/pikascript-api/__pikaBinding.o
                0x0000000008009c10                builtins_TimeoutErrorMethod
 .text.builtins_TypeErrorMethod
                0x0000000008009c2c       0x1c ./pikapython/pikascript-api/__pikaBinding.o
                0x0000000008009c2c                builtins_TypeErrorMethod
 .text.builtins_UnboundLocalErrorMethod
                0x0000000008009c48       0x1c ./pikapython/pikascript-api/__pikaBinding.o
                0x0000000008009c48                builtins_UnboundLocalErrorMethod
 .text.builtins_UnicodeDecodeErrorMethod
                0x0000000008009c64       0x1c ./pikapython/pikascript-api/__pikaBinding.o
                0x0000000008009c64                builtins_UnicodeDecodeErrorMethod
 .text.builtins_UnicodeEncodeErrorMethod
                0x0000000008009c80       0x1c ./pikapython/pikascript-api/__pikaBinding.o
                0x0000000008009c80                builtins_UnicodeEncodeErrorMethod
 .text.builtins_UnicodeErrorMethod
                0x0000000008009c9c       0x1c ./pikapython/pikascript-api/__pikaBinding.o
                0x0000000008009c9c                builtins_UnicodeErrorMethod
 .text.builtins_UnicodeTranslateErrorMethod
                0x0000000008009cb8       0x1c ./pikapython/pikascript-api/__pikaBinding.o
                0x0000000008009cb8                builtins_UnicodeTranslateErrorMethod
 .text.builtins_UnicodeWarningMethod
                0x0000000008009cd4       0x1c ./pikapython/pikascript-api/__pikaBinding.o
                0x0000000008009cd4                builtins_UnicodeWarningMethod
 .text.builtins_UserWarningMethod
                0x0000000008009cf0       0x1c ./pikapython/pikascript-api/__pikaBinding.o
                0x0000000008009cf0                builtins_UserWarningMethod
 .text.builtins_ValueErrorMethod
                0x0000000008009d0c       0x1c ./pikapython/pikascript-api/__pikaBinding.o
                0x0000000008009d0c                builtins_ValueErrorMethod
 .text.builtins_WarningMethod
                0x0000000008009d28       0x1c ./pikapython/pikascript-api/__pikaBinding.o
                0x0000000008009d28                builtins_WarningMethod
 .text.builtins_ZeroDivisionErrorMethod
                0x0000000008009d44       0x1c ./pikapython/pikascript-api/__pikaBinding.o
                0x0000000008009d44                builtins_ZeroDivisionErrorMethod
 .text.builtins_bytearrayMethod
                0x0000000008009d60       0x1c ./pikapython/pikascript-api/__pikaBinding.o
                0x0000000008009d60                builtins_bytearrayMethod
 .text.builtins_objectMethod
                0x0000000008009d7c       0x1c ./pikapython/pikascript-api/__pikaBinding.o
                0x0000000008009d7c                builtins_objectMethod
 .text.PikaStdData_Dict___contains__Method
                0x0000000008009d98       0x28 ./pikapython/pikascript-api/__pikaBinding.o
                0x0000000008009d98                PikaStdData_Dict___contains__Method
 .text.PikaStdData_Dict___del__Method
                0x0000000008009dc0        0x4 ./pikapython/pikascript-api/__pikaBinding.o
                0x0000000008009dc0                PikaStdData_Dict___del__Method
 .text.PikaStdData_Dict___eq__Method
                0x0000000008009dc4       0x28 ./pikapython/pikascript-api/__pikaBinding.o
                0x0000000008009dc4                PikaStdData_Dict___eq__Method
 .text.PikaStdData_Dict___getitem__Method
                0x0000000008009dec       0x28 ./pikapython/pikascript-api/__pikaBinding.o
                0x0000000008009dec                PikaStdData_Dict___getitem__Method
 .text.PikaStdData_Dict___init__Method
                0x0000000008009e14        0x4 ./pikapython/pikascript-api/__pikaBinding.o
                0x0000000008009e14                PikaStdData_Dict___init__Method
 .text.PikaStdData_Dict___iter__Method
                0x0000000008009e18       0x14 ./pikapython/pikascript-api/__pikaBinding.o
                0x0000000008009e18                PikaStdData_Dict___iter__Method
 .text.PikaStdData_Dict___len__Method
                0x0000000008009e2c       0x18 ./pikapython/pikascript-api/__pikaBinding.o
                0x0000000008009e2c                PikaStdData_Dict___len__Method
 .text.PikaStdData_Dict___next__Method
                0x0000000008009e44       0x14 ./pikapython/pikascript-api/__pikaBinding.o
                0x0000000008009e44                PikaStdData_Dict___next__Method
 .text.PikaStdData_Dict___setitem__Method
                0x0000000008009e58       0x30 ./pikapython/pikascript-api/__pikaBinding.o
                0x0000000008009e58                PikaStdData_Dict___setitem__Method
 .text.PikaStdData_Dict___str__Method
                0x0000000008009e88       0x14 ./pikapython/pikascript-api/__pikaBinding.o
                0x0000000008009e88                PikaStdData_Dict___str__Method
 .text.PikaStdData_Dict_getMethod
                0x0000000008009e9c       0x28 ./pikapython/pikascript-api/__pikaBinding.o
                0x0000000008009e9c                PikaStdData_Dict_getMethod
 .text.PikaStdData_Dict_itemsMethod
                0x0000000008009ec4       0x14 ./pikapython/pikascript-api/__pikaBinding.o
                0x0000000008009ec4                PikaStdData_Dict_itemsMethod
 .text.PikaStdData_Dict_keysMethod
                0x0000000008009ed8       0x14 ./pikapython/pikascript-api/__pikaBinding.o
                0x0000000008009ed8                PikaStdData_Dict_keysMethod
 .text.PikaStdData_Dict_removeMethod
                0x0000000008009eec       0x1c ./pikapython/pikascript-api/__pikaBinding.o
                0x0000000008009eec                PikaStdData_Dict_removeMethod
 .text.PikaStdData_Dict_setMethod
                0x0000000008009f08       0x30 ./pikapython/pikascript-api/__pikaBinding.o
                0x0000000008009f08                PikaStdData_Dict_setMethod
 .text.PikaStdData_Dict_updateMethod
                0x0000000008009f38       0x1c ./pikapython/pikascript-api/__pikaBinding.o
                0x0000000008009f38                PikaStdData_Dict_updateMethod
 .text.PikaStdData_FILEIO_closeMethod
                0x0000000008009f54        0x4 ./pikapython/pikascript-api/__pikaBinding.o
                0x0000000008009f54                PikaStdData_FILEIO_closeMethod
 .text.PikaStdData_FILEIO_initMethod
                0x0000000008009f58       0x38 ./pikapython/pikascript-api/__pikaBinding.o
                0x0000000008009f58                PikaStdData_FILEIO_initMethod
 .text.PikaStdData_FILEIO_readMethod
                0x0000000008009f90       0x28 ./pikapython/pikascript-api/__pikaBinding.o
                0x0000000008009f90                PikaStdData_FILEIO_readMethod
 .text.PikaStdData_FILEIO_readlineMethod
                0x0000000008009fb8       0x14 ./pikapython/pikascript-api/__pikaBinding.o
                0x0000000008009fb8                PikaStdData_FILEIO_readlineMethod
 .text.PikaStdData_FILEIO_readlinesMethod
                0x0000000008009fcc       0x14 ./pikapython/pikascript-api/__pikaBinding.o
                0x0000000008009fcc                PikaStdData_FILEIO_readlinesMethod
 .text.PikaStdData_FILEIO_seekMethod
                0x0000000008009fe0       0x38 ./pikapython/pikascript-api/__pikaBinding.o
                0x0000000008009fe0                PikaStdData_FILEIO_seekMethod
 .text.PikaStdData_FILEIO_tellMethod
                0x000000000800a018       0x18 ./pikapython/pikascript-api/__pikaBinding.o
                0x000000000800a018                PikaStdData_FILEIO_tellMethod
 .text.PikaStdData_FILEIO_writeMethod
                0x000000000800a030       0x28 ./pikapython/pikascript-api/__pikaBinding.o
                0x000000000800a030                PikaStdData_FILEIO_writeMethod
 .text.PikaStdData_FILEIO_writelinesMethod
                0x000000000800a058       0x1c ./pikapython/pikascript-api/__pikaBinding.o
                0x000000000800a058                PikaStdData_FILEIO_writelinesMethod
 .text.PikaStdData_List___add__Method
                0x000000000800a074       0x28 ./pikapython/pikascript-api/__pikaBinding.o
                0x000000000800a074                PikaStdData_List___add__Method
 .text.PikaStdData_List___init__Method
                0x000000000800a09c        0x4 ./pikapython/pikascript-api/__pikaBinding.o
                0x000000000800a09c                PikaStdData_List___init__Method
 .text.PikaStdData_List___mul__Method
                0x000000000800a0a0       0x28 ./pikapython/pikascript-api/__pikaBinding.o
                0x000000000800a0a0                PikaStdData_List___mul__Method
 .text.PikaStdData_List___setitem__Method
                0x000000000800a0c8       0x30 ./pikapython/pikascript-api/__pikaBinding.o
                0x000000000800a0c8                PikaStdData_List___setitem__Method
 .text.PikaStdData_List___str__Method
                0x000000000800a0f8       0x14 ./pikapython/pikascript-api/__pikaBinding.o
                0x000000000800a0f8                PikaStdData_List___str__Method
 .text.PikaStdData_List_appendMethod
                0x000000000800a10c       0x1c ./pikapython/pikascript-api/__pikaBinding.o
                0x000000000800a10c                PikaStdData_List_appendMethod
 .text.PikaStdData_List_insertMethod
                0x000000000800a128       0x30 ./pikapython/pikascript-api/__pikaBinding.o
                0x000000000800a128                PikaStdData_List_insertMethod
 .text.PikaStdData_List_popMethod
                0x000000000800a158       0x28 ./pikapython/pikascript-api/__pikaBinding.o
                0x000000000800a158                PikaStdData_List_popMethod
 .text.PikaStdData_List_removeMethod
                0x000000000800a180       0x1c ./pikapython/pikascript-api/__pikaBinding.o
                0x000000000800a180                PikaStdData_List_removeMethod
 .text.PikaStdData_List_reverseMethod
                0x000000000800a19c        0x4 ./pikapython/pikascript-api/__pikaBinding.o
                0x000000000800a19c                PikaStdData_List_reverseMethod
 .text.PikaStdData_List_setMethod
                0x000000000800a1a0       0x30 ./pikapython/pikascript-api/__pikaBinding.o
                0x000000000800a1a0                PikaStdData_List_setMethod
 .text.PikaStdData_String___getitem__Method
                0x000000000800a1d0       0x28 ./pikapython/pikascript-api/__pikaBinding.o
                0x000000000800a1d0                PikaStdData_String___getitem__Method
 .text.PikaStdData_String___init__Method
                0x000000000800a1f8       0x1c ./pikapython/pikascript-api/__pikaBinding.o
                0x000000000800a1f8                PikaStdData_String___init__Method
 .text.PikaStdData_String___iter__Method
                0x000000000800a214       0x14 ./pikapython/pikascript-api/__pikaBinding.o
                0x000000000800a214                PikaStdData_String___iter__Method
 .text.PikaStdData_String___len__Method
                0x000000000800a228       0x18 ./pikapython/pikascript-api/__pikaBinding.o
                0x000000000800a228                PikaStdData_String___len__Method
 .text.PikaStdData_String___next__Method
                0x000000000800a240       0x14 ./pikapython/pikascript-api/__pikaBinding.o
                0x000000000800a240                PikaStdData_String___next__Method
 .text.PikaStdData_String___setitem__Method
                0x000000000800a254       0x30 ./pikapython/pikascript-api/__pikaBinding.o
                0x000000000800a254                PikaStdData_String___setitem__Method
 .text.PikaStdData_String___str__Method
                0x000000000800a284       0x14 ./pikapython/pikascript-api/__pikaBinding.o
                0x000000000800a284                PikaStdData_String___str__Method
 .text.PikaStdData_String_encodeMethod
                0x000000000800a298       0x28 ./pikapython/pikascript-api/__pikaBinding.o
                0x000000000800a298                PikaStdData_String_encodeMethod
 .text.PikaStdData_String_endswithMethod
                0x000000000800a2c0       0x28 ./pikapython/pikascript-api/__pikaBinding.o
                0x000000000800a2c0                PikaStdData_String_endswithMethod
 .text.PikaStdData_String_findMethod
                0x000000000800a2e8       0x28 ./pikapython/pikascript-api/__pikaBinding.o
                0x000000000800a2e8                PikaStdData_String_findMethod
 .text.PikaStdData_String_formatMethod
                0x000000000800a310       0x28 ./pikapython/pikascript-api/__pikaBinding.o
                0x000000000800a310                PikaStdData_String_formatMethod
 .text.PikaStdData_String_getMethod
                0x000000000800a338       0x14 ./pikapython/pikascript-api/__pikaBinding.o
                0x000000000800a338                PikaStdData_String_getMethod
 .text.PikaStdData_String_isalnumMethod
                0x000000000800a34c       0x18 ./pikapython/pikascript-api/__pikaBinding.o
                0x000000000800a34c                PikaStdData_String_isalnumMethod
 .text.PikaStdData_String_isalphaMethod
                0x000000000800a364       0x18 ./pikapython/pikascript-api/__pikaBinding.o
                0x000000000800a364                PikaStdData_String_isalphaMethod
 .text.PikaStdData_String_isdigitMethod
                0x000000000800a37c       0x18 ./pikapython/pikascript-api/__pikaBinding.o
                0x000000000800a37c                PikaStdData_String_isdigitMethod
 .text.PikaStdData_String_islowerMethod
                0x000000000800a394       0x18 ./pikapython/pikascript-api/__pikaBinding.o
                0x000000000800a394                PikaStdData_String_islowerMethod
 .text.PikaStdData_String_isspaceMethod
                0x000000000800a3ac       0x18 ./pikapython/pikascript-api/__pikaBinding.o
                0x000000000800a3ac                PikaStdData_String_isspaceMethod
 .text.PikaStdData_String_joinMethod
                0x000000000800a3c4       0x28 ./pikapython/pikascript-api/__pikaBinding.o
                0x000000000800a3c4                PikaStdData_String_joinMethod
 .text.PikaStdData_String_replaceMethod
                0x000000000800a3ec       0x38 ./pikapython/pikascript-api/__pikaBinding.o
                0x000000000800a3ec                PikaStdData_String_replaceMethod
 .text.PikaStdData_String_setMethod
                0x000000000800a424       0x1c ./pikapython/pikascript-api/__pikaBinding.o
                0x000000000800a424                PikaStdData_String_setMethod
 .text.PikaStdData_String_splitMethod
                0x000000000800a440       0x28 ./pikapython/pikascript-api/__pikaBinding.o
                0x000000000800a440                PikaStdData_String_splitMethod
 .text.PikaStdData_String_startswithMethod
                0x000000000800a468       0x28 ./pikapython/pikascript-api/__pikaBinding.o
                0x000000000800a468                PikaStdData_String_startswithMethod
 .text.PikaStdData_String_stripMethod
                0x000000000800a490       0x28 ./pikapython/pikascript-api/__pikaBinding.o
                0x000000000800a490                PikaStdData_String_stripMethod
 .text.PikaStdData_Tuple___add__Method
                0x000000000800a4b8       0x28 ./pikapython/pikascript-api/__pikaBinding.o
                0x000000000800a4b8                PikaStdData_Tuple___add__Method
 .text.PikaStdData_Tuple___del__Method
                0x000000000800a4e0        0x4 ./pikapython/pikascript-api/__pikaBinding.o
                0x000000000800a4e0                PikaStdData_Tuple___del__Method
 .text.PikaStdData_Tuple___eq__Method
                0x000000000800a4e4       0x28 ./pikapython/pikascript-api/__pikaBinding.o
                0x000000000800a4e4                PikaStdData_Tuple___eq__Method
 .text.PikaStdData_Tuple___getitem__Method
                0x000000000800a50c       0x28 ./pikapython/pikascript-api/__pikaBinding.o
                0x000000000800a50c                PikaStdData_Tuple___getitem__Method
 .text.PikaStdData_Tuple___init__Method
                0x000000000800a534        0x4 ./pikapython/pikascript-api/__pikaBinding.o
                0x000000000800a534                PikaStdData_Tuple___init__Method
 .text.PikaStdData_Tuple___iter__Method
                0x000000000800a538       0x14 ./pikapython/pikascript-api/__pikaBinding.o
                0x000000000800a538                PikaStdData_Tuple___iter__Method
 .text.PikaStdData_Tuple___len__Method
                0x000000000800a54c       0x18 ./pikapython/pikascript-api/__pikaBinding.o
                0x000000000800a54c                PikaStdData_Tuple___len__Method
 .text.PikaStdData_Tuple___mul__Method
                0x000000000800a564       0x28 ./pikapython/pikascript-api/__pikaBinding.o
                0x000000000800a564                PikaStdData_Tuple___mul__Method
 .text.PikaStdData_Tuple___next__Method
                0x000000000800a58c       0x14 ./pikapython/pikascript-api/__pikaBinding.o
                0x000000000800a58c                PikaStdData_Tuple___next__Method
 .text.PikaStdData_Tuple___str__Method
                0x000000000800a5a0       0x14 ./pikapython/pikascript-api/__pikaBinding.o
                0x000000000800a5a0                PikaStdData_Tuple___str__Method
 .text.PikaStdData_Tuple_getMethod
                0x000000000800a5b4       0x28 ./pikapython/pikascript-api/__pikaBinding.o
                0x000000000800a5b4                PikaStdData_Tuple_getMethod
 .text.PikaStdData_Tuple_lenMethod
                0x000000000800a5dc       0x18 ./pikapython/pikascript-api/__pikaBinding.o
                0x000000000800a5dc                PikaStdData_Tuple_lenMethod
 .text.PikaStdData_Utils_int_to_bytesMethod
                0x000000000800a5f4       0x28 ./pikapython/pikascript-api/__pikaBinding.o
                0x000000000800a5f4                PikaStdData_Utils_int_to_bytesMethod
 .text.PikaStdData_dict_items___iter__Method
                0x000000000800a61c       0x14 ./pikapython/pikascript-api/__pikaBinding.o
                0x000000000800a61c                PikaStdData_dict_items___iter__Method
 .text.PikaStdData_dict_items___len__Method
                0x000000000800a630       0x18 ./pikapython/pikascript-api/__pikaBinding.o
                0x000000000800a630                PikaStdData_dict_items___len__Method
 .text.PikaStdData_dict_items___next__Method
                0x000000000800a648       0x14 ./pikapython/pikascript-api/__pikaBinding.o
                0x000000000800a648                PikaStdData_dict_items___next__Method
 .text.PikaStdData_dict_items___str__Method
                0x000000000800a65c       0x14 ./pikapython/pikascript-api/__pikaBinding.o
                0x000000000800a65c                PikaStdData_dict_items___str__Method
 .text.PikaStdData_dict_keys___iter__Method
                0x000000000800a670       0x14 ./pikapython/pikascript-api/__pikaBinding.o
                0x000000000800a670                PikaStdData_dict_keys___iter__Method
 .text.PikaStdData_dict_keys___len__Method
                0x000000000800a684       0x18 ./pikapython/pikascript-api/__pikaBinding.o
                0x000000000800a684                PikaStdData_dict_keys___len__Method
 .text.PikaStdData_dict_keys___next__Method
                0x000000000800a69c       0x14 ./pikapython/pikascript-api/__pikaBinding.o
                0x000000000800a69c                PikaStdData_dict_keys___next__Method
 .text.PikaStdData_dict_keys___str__Method
                0x000000000800a6b0       0x14 ./pikapython/pikascript-api/__pikaBinding.o
                0x000000000800a6b0                PikaStdData_dict_keys___str__Method
 .text.PikaStdDevice_TimeMethod
                0x000000000800a6c4       0x14 ./pikapython/pikascript-api/__pikaBinding.o
                0x000000000800a6c4                PikaStdDevice_TimeMethod
 .text.PikaStdDevice_ADC___init__Method
                0x000000000800a6d8        0x4 ./pikapython/pikascript-api/__pikaBinding.o
                0x000000000800a6d8                PikaStdDevice_ADC___init__Method
 .text.PikaStdDevice_ADC_closeMethod
                0x000000000800a6dc        0x4 ./pikapython/pikascript-api/__pikaBinding.o
                0x000000000800a6dc                PikaStdDevice_ADC_closeMethod
 .text.PikaStdDevice_ADC_disableMethod
                0x000000000800a6e0        0x4 ./pikapython/pikascript-api/__pikaBinding.o
                0x000000000800a6e0                PikaStdDevice_ADC_disableMethod
 .text.PikaStdDevice_ADC_enableMethod
                0x000000000800a6e4        0x4 ./pikapython/pikascript-api/__pikaBinding.o
                0x000000000800a6e4                PikaStdDevice_ADC_enableMethod
 .text.PikaStdDevice_ADC_platformDisableMethod
                0x000000000800a6e8        0x4 ./pikapython/pikascript-api/__pikaBinding.o
                0x000000000800a6e8                PikaStdDevice_ADC_platformDisableMethod
 .text.PikaStdDevice_ADC_platformEnableMethod
                0x000000000800a6ec        0x4 ./pikapython/pikascript-api/__pikaBinding.o
                0x000000000800a6ec                PikaStdDevice_ADC_platformEnableMethod
 .text.PikaStdDevice_ADC_platformReadMethod
                0x000000000800a6f0        0x4 ./pikapython/pikascript-api/__pikaBinding.o
                0x000000000800a6f0                PikaStdDevice_ADC_platformReadMethod
 .text.PikaStdDevice_ADC_readMethod
                0x000000000800a6f4       0x14 ./pikapython/pikascript-api/__pikaBinding.o
                0x000000000800a6f4                PikaStdDevice_ADC_readMethod
 .text.PikaStdDevice_ADC_setPinMethod
                0x000000000800a708       0x1c ./pikapython/pikascript-api/__pikaBinding.o
                0x000000000800a708                PikaStdDevice_ADC_setPinMethod
 .text.PikaStdDevice_BaseDev_addEventCallBackMethod
                0x000000000800a724       0x1c ./pikapython/pikascript-api/__pikaBinding.o
                0x000000000800a724                PikaStdDevice_BaseDev_addEventCallBackMethod
 .text.PikaStdDevice_BaseDev_addEventCallbackMethod
                0x000000000800a740       0x1c ./pikapython/pikascript-api/__pikaBinding.o
                0x000000000800a740                PikaStdDevice_BaseDev_addEventCallbackMethod
 .text.PikaStdDevice_BaseDev_platformGetEventIdMethod
                0x000000000800a75c        0x4 ./pikapython/pikascript-api/__pikaBinding.o
                0x000000000800a75c                PikaStdDevice_BaseDev_platformGetEventIdMethod
 .text.PikaStdDevice_CAN___init__Method
                0x000000000800a760        0x4 ./pikapython/pikascript-api/__pikaBinding.o
                0x000000000800a760                PikaStdDevice_CAN___init__Method
 .text.PikaStdDevice_CAN_addFilterMethod
                0x000000000800a764       0x74 ./pikapython/pikascript-api/__pikaBinding.o
                0x000000000800a764                PikaStdDevice_CAN_addFilterMethod
 .text.PikaStdDevice_CAN_disableMethod
                0x000000000800a7d8        0x4 ./pikapython/pikascript-api/__pikaBinding.o
                0x000000000800a7d8                PikaStdDevice_CAN_disableMethod
 .text.PikaStdDevice_CAN_enableMethod
                0x000000000800a7dc        0x4 ./pikapython/pikascript-api/__pikaBinding.o
                0x000000000800a7dc                PikaStdDevice_CAN_enableMethod
 .text.PikaStdDevice_CAN_platformDisableMethod
                0x000000000800a7e0        0x4 ./pikapython/pikascript-api/__pikaBinding.o
                0x000000000800a7e0                PikaStdDevice_CAN_platformDisableMethod
 .text.PikaStdDevice_CAN_platformEnableMethod
                0x000000000800a7e4        0x4 ./pikapython/pikascript-api/__pikaBinding.o
                0x000000000800a7e4                PikaStdDevice_CAN_platformEnableMethod
 .text.PikaStdDevice_CAN_platformReadMethod
                0x000000000800a7e8        0x4 ./pikapython/pikascript-api/__pikaBinding.o
                0x000000000800a7e8                PikaStdDevice_CAN_platformReadMethod
 .text.PikaStdDevice_CAN_platformReadBytesMethod
                0x000000000800a7ec        0x4 ./pikapython/pikascript-api/__pikaBinding.o
                0x000000000800a7ec                PikaStdDevice_CAN_platformReadBytesMethod
 .text.PikaStdDevice_CAN_platformWriteMethod
                0x000000000800a7f0        0x4 ./pikapython/pikascript-api/__pikaBinding.o
                0x000000000800a7f0                PikaStdDevice_CAN_platformWriteMethod
 .text.PikaStdDevice_CAN_platformWriteBytesMethod
                0x000000000800a7f4        0x4 ./pikapython/pikascript-api/__pikaBinding.o
                0x000000000800a7f4                PikaStdDevice_CAN_platformWriteBytesMethod
 .text.PikaStdDevice_CAN_readMethod
                0x000000000800a7f8       0x28 ./pikapython/pikascript-api/__pikaBinding.o
                0x000000000800a7f8                PikaStdDevice_CAN_readMethod
 .text.PikaStdDevice_CAN_readBytesMethod
                0x000000000800a820       0x28 ./pikapython/pikascript-api/__pikaBinding.o
                0x000000000800a820                PikaStdDevice_CAN_readBytesMethod
 .text.PikaStdDevice_CAN_setBaudRateMethod
                0x000000000800a848       0x1c ./pikapython/pikascript-api/__pikaBinding.o
                0x000000000800a848                PikaStdDevice_CAN_setBaudRateMethod
 .text.PikaStdDevice_CAN_setIdMethod
                0x000000000800a864       0x1c ./pikapython/pikascript-api/__pikaBinding.o
                0x000000000800a864                PikaStdDevice_CAN_setIdMethod
 .text.PikaStdDevice_CAN_setModeMethod
                0x000000000800a880       0x1c ./pikapython/pikascript-api/__pikaBinding.o
                0x000000000800a880                PikaStdDevice_CAN_setModeMethod
 .text.PikaStdDevice_CAN_setNameMethod
                0x000000000800a89c       0x1c ./pikapython/pikascript-api/__pikaBinding.o
                0x000000000800a89c                PikaStdDevice_CAN_setNameMethod
 .text.PikaStdDevice_CAN_writeMethod
                0x000000000800a8b8       0x1c ./pikapython/pikascript-api/__pikaBinding.o
                0x000000000800a8b8                PikaStdDevice_CAN_writeMethod
 .text.PikaStdDevice_CAN_writeBytesMethod
                0x000000000800a8d4       0x30 ./pikapython/pikascript-api/__pikaBinding.o
                0x000000000800a8d4                PikaStdDevice_CAN_writeBytesMethod
 .text.PikaStdDevice_DAC___init__Method
                0x000000000800a904        0x4 ./pikapython/pikascript-api/__pikaBinding.o
                0x000000000800a904                PikaStdDevice_DAC___init__Method
 .text.PikaStdDevice_DAC_closeMethod
                0x000000000800a908        0x4 ./pikapython/pikascript-api/__pikaBinding.o
                0x000000000800a908                PikaStdDevice_DAC_closeMethod
 .text.PikaStdDevice_DAC_disableMethod
                0x000000000800a90c        0x4 ./pikapython/pikascript-api/__pikaBinding.o
                0x000000000800a90c                PikaStdDevice_DAC_disableMethod
 .text.PikaStdDevice_DAC_enableMethod
                0x000000000800a910        0x4 ./pikapython/pikascript-api/__pikaBinding.o
                0x000000000800a910                PikaStdDevice_DAC_enableMethod
 .text.PikaStdDevice_DAC_setPinMethod
                0x000000000800a914       0x1c ./pikapython/pikascript-api/__pikaBinding.o
                0x000000000800a914                PikaStdDevice_DAC_setPinMethod
 .text.PikaStdDevice_DAC_writeMethod
                0x000000000800a930       0x1c ./pikapython/pikascript-api/__pikaBinding.o
                0x000000000800a930                PikaStdDevice_DAC_writeMethod
 .text.PikaStdDevice_GPIO___init__Method
                0x000000000800a94c        0x4 ./pikapython/pikascript-api/__pikaBinding.o
                0x000000000800a94c                PikaStdDevice_GPIO___init__Method
 .text.PikaStdDevice_GPIO_closeMethod
                0x000000000800a950        0x4 ./pikapython/pikascript-api/__pikaBinding.o
                0x000000000800a950                PikaStdDevice_GPIO_closeMethod
 .text.PikaStdDevice_GPIO_disableMethod
                0x000000000800a954        0x4 ./pikapython/pikascript-api/__pikaBinding.o
                0x000000000800a954                PikaStdDevice_GPIO_disableMethod
 .text.PikaStdDevice_GPIO_enableMethod
                0x000000000800a958        0x4 ./pikapython/pikascript-api/__pikaBinding.o
                0x000000000800a958                PikaStdDevice_GPIO_enableMethod
 .text.PikaStdDevice_GPIO_getIdMethod
                0x000000000800a95c       0x18 ./pikapython/pikascript-api/__pikaBinding.o
                0x000000000800a95c                PikaStdDevice_GPIO_getIdMethod
 .text.PikaStdDevice_GPIO_getModeMethod
                0x000000000800a974       0x14 ./pikapython/pikascript-api/__pikaBinding.o
                0x000000000800a974                PikaStdDevice_GPIO_getModeMethod
 .text.PikaStdDevice_GPIO_getPinMethod
                0x000000000800a988       0x14 ./pikapython/pikascript-api/__pikaBinding.o
                0x000000000800a988                PikaStdDevice_GPIO_getPinMethod
 .text.PikaStdDevice_GPIO_highMethod
                0x000000000800a99c        0x4 ./pikapython/pikascript-api/__pikaBinding.o
                0x000000000800a99c                PikaStdDevice_GPIO_highMethod
 .text.PikaStdDevice_GPIO_lowMethod
                0x000000000800a9a0        0x4 ./pikapython/pikascript-api/__pikaBinding.o
                0x000000000800a9a0                PikaStdDevice_GPIO_lowMethod
 .text.PikaStdDevice_GPIO_platformDisableMethod
                0x000000000800a9a4        0x4 ./pikapython/pikascript-api/__pikaBinding.o
                0x000000000800a9a4                PikaStdDevice_GPIO_platformDisableMethod
 .text.PikaStdDevice_GPIO_platformEnableMethod
                0x000000000800a9a8        0x4 ./pikapython/pikascript-api/__pikaBinding.o
                0x000000000800a9a8                PikaStdDevice_GPIO_platformEnableMethod
 .text.PikaStdDevice_GPIO_platformHighMethod
                0x000000000800a9ac        0x4 ./pikapython/pikascript-api/__pikaBinding.o
                0x000000000800a9ac                PikaStdDevice_GPIO_platformHighMethod
 .text.PikaStdDevice_GPIO_platformLowMethod
                0x000000000800a9b0        0x4 ./pikapython/pikascript-api/__pikaBinding.o
                0x000000000800a9b0                PikaStdDevice_GPIO_platformLowMethod
 .text.PikaStdDevice_GPIO_platformReadMethod
                0x000000000800a9b4        0x4 ./pikapython/pikascript-api/__pikaBinding.o
                0x000000000800a9b4                PikaStdDevice_GPIO_platformReadMethod
 .text.PikaStdDevice_GPIO_platformSetModeMethod
                0x000000000800a9b8        0x4 ./pikapython/pikascript-api/__pikaBinding.o
                0x000000000800a9b8                PikaStdDevice_GPIO_platformSetModeMethod
 .text.PikaStdDevice_GPIO_readMethod
                0x000000000800a9bc       0x18 ./pikapython/pikascript-api/__pikaBinding.o
                0x000000000800a9bc                PikaStdDevice_GPIO_readMethod
 .text.PikaStdDevice_GPIO_setCallBackMethod
                0x000000000800a9d4       0x30 ./pikapython/pikascript-api/__pikaBinding.o
                0x000000000800a9d4                PikaStdDevice_GPIO_setCallBackMethod
 .text.PikaStdDevice_GPIO_setCallbackMethod
                0x000000000800aa04       0x30 ./pikapython/pikascript-api/__pikaBinding.o
                0x000000000800aa04                PikaStdDevice_GPIO_setCallbackMethod
 .text.PikaStdDevice_GPIO_setIdMethod
                0x000000000800aa34       0x1c ./pikapython/pikascript-api/__pikaBinding.o
                0x000000000800aa34                PikaStdDevice_GPIO_setIdMethod
 .text.PikaStdDevice_GPIO_setModeMethod
                0x000000000800aa50       0x1c ./pikapython/pikascript-api/__pikaBinding.o
                0x000000000800aa50                PikaStdDevice_GPIO_setModeMethod
 .text.PikaStdDevice_GPIO_setPinMethod
                0x000000000800aa6c       0x1c ./pikapython/pikascript-api/__pikaBinding.o
                0x000000000800aa6c                PikaStdDevice_GPIO_setPinMethod
 .text.PikaStdDevice_GPIO_setPullMethod
                0x000000000800aa88       0x1c ./pikapython/pikascript-api/__pikaBinding.o
                0x000000000800aa88                PikaStdDevice_GPIO_setPullMethod
 .text.PikaStdDevice_IIC___init__Method
                0x000000000800aaa4        0x4 ./pikapython/pikascript-api/__pikaBinding.o
                0x000000000800aaa4                PikaStdDevice_IIC___init__Method
 .text.PikaStdDevice_IIC_disableMethod
                0x000000000800aaa8        0x4 ./pikapython/pikascript-api/__pikaBinding.o
                0x000000000800aaa8                PikaStdDevice_IIC_disableMethod
 .text.PikaStdDevice_IIC_enableMethod
                0x000000000800aaac        0x4 ./pikapython/pikascript-api/__pikaBinding.o
                0x000000000800aaac                PikaStdDevice_IIC_enableMethod
 .text.PikaStdDevice_IIC_platformDisableMethod
                0x000000000800aab0        0x4 ./pikapython/pikascript-api/__pikaBinding.o
                0x000000000800aab0                PikaStdDevice_IIC_platformDisableMethod
 .text.PikaStdDevice_IIC_platformEnableMethod
                0x000000000800aab4        0x4 ./pikapython/pikascript-api/__pikaBinding.o
                0x000000000800aab4                PikaStdDevice_IIC_platformEnableMethod
 .text.PikaStdDevice_IIC_platformReadMethod
                0x000000000800aab8        0x4 ./pikapython/pikascript-api/__pikaBinding.o
                0x000000000800aab8                PikaStdDevice_IIC_platformReadMethod
 .text.PikaStdDevice_IIC_platformReadBytesMethod
                0x000000000800aabc        0x4 ./pikapython/pikascript-api/__pikaBinding.o
                0x000000000800aabc                PikaStdDevice_IIC_platformReadBytesMethod
 .text.PikaStdDevice_IIC_platformWriteMethod
                0x000000000800aac0        0x4 ./pikapython/pikascript-api/__pikaBinding.o
                0x000000000800aac0                PikaStdDevice_IIC_platformWriteMethod
 .text.PikaStdDevice_IIC_platformWriteBytesMethod
                0x000000000800aac4        0x4 ./pikapython/pikascript-api/__pikaBinding.o
                0x000000000800aac4                PikaStdDevice_IIC_platformWriteBytesMethod
 .text.PikaStdDevice_IIC_readMethod
                0x000000000800aac8       0x38 ./pikapython/pikascript-api/__pikaBinding.o
                0x000000000800aac8                PikaStdDevice_IIC_readMethod
 .text.PikaStdDevice_IIC_readBytesMethod
                0x000000000800ab00       0x38 ./pikapython/pikascript-api/__pikaBinding.o
                0x000000000800ab00                PikaStdDevice_IIC_readBytesMethod
 .text.PikaStdDevice_IIC_setDeviceAddrMethod
                0x000000000800ab38       0x1c ./pikapython/pikascript-api/__pikaBinding.o
                0x000000000800ab38                PikaStdDevice_IIC_setDeviceAddrMethod
 .text.PikaStdDevice_IIC_setPinSCLMethod
                0x000000000800ab54       0x1c ./pikapython/pikascript-api/__pikaBinding.o
                0x000000000800ab54                PikaStdDevice_IIC_setPinSCLMethod
 .text.PikaStdDevice_IIC_setPinSDAMethod
                0x000000000800ab70       0x1c ./pikapython/pikascript-api/__pikaBinding.o
                0x000000000800ab70                PikaStdDevice_IIC_setPinSDAMethod
 .text.PikaStdDevice_IIC_writeMethod
                0x000000000800ab8c       0x30 ./pikapython/pikascript-api/__pikaBinding.o
                0x000000000800ab8c                PikaStdDevice_IIC_writeMethod
 .text.PikaStdDevice_IIC_writeBytesMethod
                0x000000000800abbc       0x44 ./pikapython/pikascript-api/__pikaBinding.o
                0x000000000800abbc                PikaStdDevice_IIC_writeBytesMethod
 .text.PikaStdDevice_PWM___init__Method
                0x000000000800ac00        0x4 ./pikapython/pikascript-api/__pikaBinding.o
                0x000000000800ac00                PikaStdDevice_PWM___init__Method
 .text.PikaStdDevice_PWM_closeMethod
                0x000000000800ac04        0x4 ./pikapython/pikascript-api/__pikaBinding.o
                0x000000000800ac04                PikaStdDevice_PWM_closeMethod
 .text.PikaStdDevice_PWM_disableMethod
                0x000000000800ac08        0x4 ./pikapython/pikascript-api/__pikaBinding.o
                0x000000000800ac08                PikaStdDevice_PWM_disableMethod
 .text.PikaStdDevice_PWM_enableMethod
                0x000000000800ac0c        0x4 ./pikapython/pikascript-api/__pikaBinding.o
                0x000000000800ac0c                PikaStdDevice_PWM_enableMethod
 .text.PikaStdDevice_PWM_getChannelMethod
                0x000000000800ac10       0x18 ./pikapython/pikascript-api/__pikaBinding.o
                0x000000000800ac10                PikaStdDevice_PWM_getChannelMethod
 .text.PikaStdDevice_PWM_getDutyMethod
                0x000000000800ac28       0x14 ./pikapython/pikascript-api/__pikaBinding.o
                0x000000000800ac28                PikaStdDevice_PWM_getDutyMethod
 .text.PikaStdDevice_PWM_getFrequencyMethod
                0x000000000800ac3c       0x18 ./pikapython/pikascript-api/__pikaBinding.o
                0x000000000800ac3c                PikaStdDevice_PWM_getFrequencyMethod
 .text.PikaStdDevice_PWM_getNameMethod
                0x000000000800ac54       0x14 ./pikapython/pikascript-api/__pikaBinding.o
                0x000000000800ac54                PikaStdDevice_PWM_getNameMethod
 .text.PikaStdDevice_PWM_platformDisableMethod
                0x000000000800ac68        0x4 ./pikapython/pikascript-api/__pikaBinding.o
                0x000000000800ac68                PikaStdDevice_PWM_platformDisableMethod
 .text.PikaStdDevice_PWM_platformEnableMethod
                0x000000000800ac6c        0x4 ./pikapython/pikascript-api/__pikaBinding.o
                0x000000000800ac6c                PikaStdDevice_PWM_platformEnableMethod
 .text.PikaStdDevice_PWM_platformSetDutyMethod
                0x000000000800ac70        0x4 ./pikapython/pikascript-api/__pikaBinding.o
                0x000000000800ac70                PikaStdDevice_PWM_platformSetDutyMethod
 .text.PikaStdDevice_PWM_platformSetFrequencyMethod
                0x000000000800ac74        0x4 ./pikapython/pikascript-api/__pikaBinding.o
                0x000000000800ac74                PikaStdDevice_PWM_platformSetFrequencyMethod
 .text.PikaStdDevice_PWM_setChannelMethod
                0x000000000800ac78       0x1c ./pikapython/pikascript-api/__pikaBinding.o
                0x000000000800ac78                PikaStdDevice_PWM_setChannelMethod
 .text.PikaStdDevice_PWM_setDutyMethod
                0x000000000800ac94       0x1c ./pikapython/pikascript-api/__pikaBinding.o
                0x000000000800ac94                PikaStdDevice_PWM_setDutyMethod
 .text.PikaStdDevice_PWM_setFreqMethod
                0x000000000800acb0       0x1c ./pikapython/pikascript-api/__pikaBinding.o
                0x000000000800acb0                PikaStdDevice_PWM_setFreqMethod
 .text.PikaStdDevice_PWM_setFrequencyMethod
                0x000000000800accc       0x1c ./pikapython/pikascript-api/__pikaBinding.o
                0x000000000800accc                PikaStdDevice_PWM_setFrequencyMethod
 .text.PikaStdDevice_PWM_setNameMethod
                0x000000000800ace8       0x1c ./pikapython/pikascript-api/__pikaBinding.o
                0x000000000800ace8                PikaStdDevice_PWM_setNameMethod
 .text.PikaStdDevice_PWM_setPinMethod
                0x000000000800ad04       0x1c ./pikapython/pikascript-api/__pikaBinding.o
                0x000000000800ad04                PikaStdDevice_PWM_setPinMethod
 .text.PikaStdDevice_SPI___init__Method
                0x000000000800ad20        0x4 ./pikapython/pikascript-api/__pikaBinding.o
                0x000000000800ad20                PikaStdDevice_SPI___init__Method
 .text.PikaStdDevice_SPI_disableMethod
                0x000000000800ad24        0x4 ./pikapython/pikascript-api/__pikaBinding.o
                0x000000000800ad24                PikaStdDevice_SPI_disableMethod
 .text.PikaStdDevice_SPI_enableMethod
                0x000000000800ad28        0x4 ./pikapython/pikascript-api/__pikaBinding.o
                0x000000000800ad28                PikaStdDevice_SPI_enableMethod
 .text.PikaStdDevice_SPI_platformDisableMethod
                0x000000000800ad2c        0x4 ./pikapython/pikascript-api/__pikaBinding.o
                0x000000000800ad2c                PikaStdDevice_SPI_platformDisableMethod
 .text.PikaStdDevice_SPI_platformEnableMethod
                0x000000000800ad30        0x4 ./pikapython/pikascript-api/__pikaBinding.o
                0x000000000800ad30                PikaStdDevice_SPI_platformEnableMethod
 .text.PikaStdDevice_SPI_platformReadMethod
                0x000000000800ad34        0x4 ./pikapython/pikascript-api/__pikaBinding.o
                0x000000000800ad34                PikaStdDevice_SPI_platformReadMethod
 .text.PikaStdDevice_SPI_platformReadBytesMethod
                0x000000000800ad38        0x4 ./pikapython/pikascript-api/__pikaBinding.o
                0x000000000800ad38                PikaStdDevice_SPI_platformReadBytesMethod
 .text.PikaStdDevice_SPI_platformWriteMethod
                0x000000000800ad3c        0x4 ./pikapython/pikascript-api/__pikaBinding.o
                0x000000000800ad3c                PikaStdDevice_SPI_platformWriteMethod
 .text.PikaStdDevice_SPI_platformWriteBytesMethod
                0x000000000800ad40        0x4 ./pikapython/pikascript-api/__pikaBinding.o
                0x000000000800ad40                PikaStdDevice_SPI_platformWriteBytesMethod
 .text.PikaStdDevice_SPI_readMethod
                0x000000000800ad44       0x28 ./pikapython/pikascript-api/__pikaBinding.o
                0x000000000800ad44                PikaStdDevice_SPI_readMethod
 .text.PikaStdDevice_SPI_readBytesMethod
                0x000000000800ad6c       0x28 ./pikapython/pikascript-api/__pikaBinding.o
                0x000000000800ad6c                PikaStdDevice_SPI_readBytesMethod
 .text.PikaStdDevice_SPI_setBaudRateMethod
                0x000000000800ad94       0x1c ./pikapython/pikascript-api/__pikaBinding.o
                0x000000000800ad94                PikaStdDevice_SPI_setBaudRateMethod
 .text.PikaStdDevice_SPI_setIdMethod
                0x000000000800adb0       0x1c ./pikapython/pikascript-api/__pikaBinding.o
                0x000000000800adb0                PikaStdDevice_SPI_setIdMethod
 .text.PikaStdDevice_SPI_setNameMethod
                0x000000000800adcc       0x1c ./pikapython/pikascript-api/__pikaBinding.o
                0x000000000800adcc                PikaStdDevice_SPI_setNameMethod
 .text.PikaStdDevice_SPI_setPhaseMethod
                0x000000000800ade8       0x1c ./pikapython/pikascript-api/__pikaBinding.o
                0x000000000800ade8                PikaStdDevice_SPI_setPhaseMethod
 .text.PikaStdDevice_SPI_setPinMISOMethod
                0x000000000800ae04       0x1c ./pikapython/pikascript-api/__pikaBinding.o
                0x000000000800ae04                PikaStdDevice_SPI_setPinMISOMethod
 .text.PikaStdDevice_SPI_setPinMOSIMethod
                0x000000000800ae20       0x1c ./pikapython/pikascript-api/__pikaBinding.o
                0x000000000800ae20                PikaStdDevice_SPI_setPinMOSIMethod
 .text.PikaStdDevice_SPI_setPinSCKMethod
                0x000000000800ae3c       0x1c ./pikapython/pikascript-api/__pikaBinding.o
                0x000000000800ae3c                PikaStdDevice_SPI_setPinSCKMethod
 .text.PikaStdDevice_SPI_setPolarityMethod
                0x000000000800ae58       0x1c ./pikapython/pikascript-api/__pikaBinding.o
                0x000000000800ae58                PikaStdDevice_SPI_setPolarityMethod
 .text.PikaStdDevice_SPI_writeMethod
                0x000000000800ae74       0x1c ./pikapython/pikascript-api/__pikaBinding.o
                0x000000000800ae74                PikaStdDevice_SPI_writeMethod
 .text.PikaStdDevice_SPI_writeBytesMethod
                0x000000000800ae90       0x30 ./pikapython/pikascript-api/__pikaBinding.o
                0x000000000800ae90                PikaStdDevice_SPI_writeBytesMethod
 .text.PikaStdDevice_Timer___init__Method
                0x000000000800aec0        0x4 ./pikapython/pikascript-api/__pikaBinding.o
                0x000000000800aec0                PikaStdDevice_Timer___init__Method
 .text.PikaStdDevice_Timer_closeMethod
                0x000000000800aec4        0x4 ./pikapython/pikascript-api/__pikaBinding.o
                0x000000000800aec4                PikaStdDevice_Timer_closeMethod
 .text.PikaStdDevice_Timer_disableMethod
                0x000000000800aec8        0x4 ./pikapython/pikascript-api/__pikaBinding.o
                0x000000000800aec8                PikaStdDevice_Timer_disableMethod
 .text.PikaStdDevice_Timer_enableMethod
                0x000000000800aecc        0x4 ./pikapython/pikascript-api/__pikaBinding.o
                0x000000000800aecc                PikaStdDevice_Timer_enableMethod
 .text.PikaStdDevice_Timer_getIdMethod
                0x000000000800aed0       0x18 ./pikapython/pikascript-api/__pikaBinding.o
                0x000000000800aed0                PikaStdDevice_Timer_getIdMethod
 .text.PikaStdDevice_Timer_getNameMethod
                0x000000000800aee8       0x14 ./pikapython/pikascript-api/__pikaBinding.o
                0x000000000800aee8                PikaStdDevice_Timer_getNameMethod
 .text.PikaStdDevice_Timer_setCallbackMethod
                0x000000000800aefc       0x30 ./pikapython/pikascript-api/__pikaBinding.o
                0x000000000800aefc                PikaStdDevice_Timer_setCallbackMethod
 .text.PikaStdDevice_Timer_setIdMethod
                0x000000000800af2c       0x1c ./pikapython/pikascript-api/__pikaBinding.o
                0x000000000800af2c                PikaStdDevice_Timer_setIdMethod
 .text.PikaStdDevice_Timer_setModeMethod
                0x000000000800af48       0x1c ./pikapython/pikascript-api/__pikaBinding.o
                0x000000000800af48                PikaStdDevice_Timer_setModeMethod
 .text.PikaStdDevice_Timer_setNameMethod
                0x000000000800af64       0x1c ./pikapython/pikascript-api/__pikaBinding.o
                0x000000000800af64                PikaStdDevice_Timer_setNameMethod
 .text.PikaStdDevice_Timer_setPeriodMethod
                0x000000000800af80       0x1c ./pikapython/pikascript-api/__pikaBinding.o
                0x000000000800af80                PikaStdDevice_Timer_setPeriodMethod
 .text.PikaStdDevice_UART___init__Method
                0x000000000800af9c        0x4 ./pikapython/pikascript-api/__pikaBinding.o
                0x000000000800af9c                PikaStdDevice_UART___init__Method
 .text.PikaStdDevice_UART_closeMethod
                0x000000000800afa0        0x4 ./pikapython/pikascript-api/__pikaBinding.o
                0x000000000800afa0                PikaStdDevice_UART_closeMethod
 .text.PikaStdDevice_UART_disableMethod
                0x000000000800afa4        0x4 ./pikapython/pikascript-api/__pikaBinding.o
                0x000000000800afa4                PikaStdDevice_UART_disableMethod
 .text.PikaStdDevice_UART_enableMethod
                0x000000000800afa8        0x4 ./pikapython/pikascript-api/__pikaBinding.o
                0x000000000800afa8                PikaStdDevice_UART_enableMethod
 .text.PikaStdDevice_UART_platformDisableMethod
                0x000000000800afac        0x4 ./pikapython/pikascript-api/__pikaBinding.o
                0x000000000800afac                PikaStdDevice_UART_platformDisableMethod
 .text.PikaStdDevice_UART_platformEnableMethod
                0x000000000800afb0        0x4 ./pikapython/pikascript-api/__pikaBinding.o
                0x000000000800afb0                PikaStdDevice_UART_platformEnableMethod
 .text.PikaStdDevice_UART_platformReadMethod
                0x000000000800afb4        0x4 ./pikapython/pikascript-api/__pikaBinding.o
                0x000000000800afb4                PikaStdDevice_UART_platformReadMethod
 .text.PikaStdDevice_UART_platformReadBytesMethod
                0x000000000800afb8        0x4 ./pikapython/pikascript-api/__pikaBinding.o
                0x000000000800afb8                PikaStdDevice_UART_platformReadBytesMethod
 .text.PikaStdDevice_UART_platformWriteMethod
                0x000000000800afbc        0x4 ./pikapython/pikascript-api/__pikaBinding.o
                0x000000000800afbc                PikaStdDevice_UART_platformWriteMethod
 .text.PikaStdDevice_UART_platformWriteBytesMethod
                0x000000000800afc0        0x4 ./pikapython/pikascript-api/__pikaBinding.o
                0x000000000800afc0                PikaStdDevice_UART_platformWriteBytesMethod
 .text.PikaStdDevice_UART_readMethod
                0x000000000800afc4       0x28 ./pikapython/pikascript-api/__pikaBinding.o
                0x000000000800afc4                PikaStdDevice_UART_readMethod
 .text.PikaStdDevice_UART_readBytesMethod
                0x000000000800afec       0x28 ./pikapython/pikascript-api/__pikaBinding.o
                0x000000000800afec                PikaStdDevice_UART_readBytesMethod
 .text.PikaStdDevice_UART_setBaudRateMethod
                0x000000000800b014       0x1c ./pikapython/pikascript-api/__pikaBinding.o
                0x000000000800b014                PikaStdDevice_UART_setBaudRateMethod
 .text.PikaStdDevice_UART_setCallBackMethod
                0x000000000800b030       0x30 ./pikapython/pikascript-api/__pikaBinding.o
                0x000000000800b030                PikaStdDevice_UART_setCallBackMethod
 .text.PikaStdDevice_UART_setCallbackMethod
                0x000000000800b060       0x30 ./pikapython/pikascript-api/__pikaBinding.o
                0x000000000800b060                PikaStdDevice_UART_setCallbackMethod
 .text.PikaStdDevice_UART_setDataBitsMethod
                0x000000000800b090       0x1c ./pikapython/pikascript-api/__pikaBinding.o
                0x000000000800b090                PikaStdDevice_UART_setDataBitsMethod
 .text.PikaStdDevice_UART_setFlowControlMethod
                0x000000000800b0ac       0x1c ./pikapython/pikascript-api/__pikaBinding.o
                0x000000000800b0ac                PikaStdDevice_UART_setFlowControlMethod
 .text.PikaStdDevice_UART_setIdMethod
                0x000000000800b0c8       0x1c ./pikapython/pikascript-api/__pikaBinding.o
                0x000000000800b0c8                PikaStdDevice_UART_setIdMethod
 .text.PikaStdDevice_UART_setParityMethod
                0x000000000800b0e4       0x1c ./pikapython/pikascript-api/__pikaBinding.o
                0x000000000800b0e4                PikaStdDevice_UART_setParityMethod
 .text.PikaStdDevice_UART_setPinCTSMethod
                0x000000000800b100       0x1c ./pikapython/pikascript-api/__pikaBinding.o
                0x000000000800b100                PikaStdDevice_UART_setPinCTSMethod
 .text.PikaStdDevice_UART_setPinRTSMethod
                0x000000000800b11c       0x1c ./pikapython/pikascript-api/__pikaBinding.o
                0x000000000800b11c                PikaStdDevice_UART_setPinRTSMethod
 .text.PikaStdDevice_UART_setPinRXMethod
                0x000000000800b138       0x1c ./pikapython/pikascript-api/__pikaBinding.o
                0x000000000800b138                PikaStdDevice_UART_setPinRXMethod
 .text.PikaStdDevice_UART_setPinTXMethod
                0x000000000800b154       0x1c ./pikapython/pikascript-api/__pikaBinding.o
                0x000000000800b154                PikaStdDevice_UART_setPinTXMethod
 .text.PikaStdDevice_UART_setStopBitsMethod
                0x000000000800b170       0x1c ./pikapython/pikascript-api/__pikaBinding.o
                0x000000000800b170                PikaStdDevice_UART_setStopBitsMethod
 .text.PikaStdDevice_UART_writeMethod
                0x000000000800b18c       0x1c ./pikapython/pikascript-api/__pikaBinding.o
                0x000000000800b18c                PikaStdDevice_UART_writeMethod
 .text.PikaStdDevice_UART_writeBytesMethod
                0x000000000800b1a8       0x30 ./pikapython/pikascript-api/__pikaBinding.o
                0x000000000800b1a8                PikaStdDevice_UART_writeBytesMethod
 .text.PikaStdLib_MemChecker_getMaxMethod
                0x000000000800b1d8       0x14 ./pikapython/pikascript-api/__pikaBinding.o
                0x000000000800b1d8                PikaStdLib_MemChecker_getMaxMethod
 .text.PikaStdLib_MemChecker_getNowMethod
                0x000000000800b1ec       0x14 ./pikapython/pikascript-api/__pikaBinding.o
                0x000000000800b1ec                PikaStdLib_MemChecker_getNowMethod
 .text.PikaStdLib_MemChecker_maxMethod
                0x000000000800b200        0x4 ./pikapython/pikascript-api/__pikaBinding.o
                0x000000000800b200                PikaStdLib_MemChecker_maxMethod
 .text.PikaStdLib_MemChecker_nowMethod
                0x000000000800b204        0x4 ./pikapython/pikascript-api/__pikaBinding.o
                0x000000000800b204                PikaStdLib_MemChecker_nowMethod
 .text.PikaStdLib_MemChecker_resetMaxMethod
                0x000000000800b208        0x4 ./pikapython/pikascript-api/__pikaBinding.o
                0x000000000800b208                PikaStdLib_MemChecker_resetMaxMethod
 .text.PikaStdLib_REPL_setEchoMethod
                0x000000000800b20c       0x20 ./pikapython/pikascript-api/__pikaBinding.o
                0x000000000800b20c                PikaStdLib_REPL_setEchoMethod
 .text._thread_stack_sizeMethod
                0x000000000800b22c       0x28 ./pikapython/pikascript-api/__pikaBinding.o
                0x000000000800b22c                _thread_stack_sizeMethod
 .text._thread_start_new_threadMethod
                0x000000000800b254       0x30 ./pikapython/pikascript-api/__pikaBinding.o
                0x000000000800b254                _thread_start_new_threadMethod
 .text._time___init__Method
                0x000000000800b284        0x4 ./pikapython/pikascript-api/__pikaBinding.o
                0x000000000800b284                _time___init__Method
 .text._time_asctimeMethod
                0x000000000800b288        0x4 ./pikapython/pikascript-api/__pikaBinding.o
                0x000000000800b288                _time_asctimeMethod
 .text._time_ctimeMethod
                0x000000000800b28c       0x1c ./pikapython/pikascript-api/__pikaBinding.o
                0x000000000800b28c                _time_ctimeMethod
 .text._time_gmtimeMethod
                0x000000000800b2a8       0x1c ./pikapython/pikascript-api/__pikaBinding.o
                0x000000000800b2a8                _time_gmtimeMethod
 .text._time_localtimeMethod
                0x000000000800b2c4       0x1c ./pikapython/pikascript-api/__pikaBinding.o
                0x000000000800b2c4                _time_localtimeMethod
 .text._time_mktimeMethod
                0x000000000800b2e0       0x18 ./pikapython/pikascript-api/__pikaBinding.o
                0x000000000800b2e0                _time_mktimeMethod
 .text._time_platformGetTickMethod
                0x000000000800b2f8        0x4 ./pikapython/pikascript-api/__pikaBinding.o
                0x000000000800b2f8                _time_platformGetTickMethod
 .text._time_sleep_msMethod
                0x000000000800b2fc       0x1c ./pikapython/pikascript-api/__pikaBinding.o
                0x000000000800b2fc                _time_sleep_msMethod
 .text._time_sleep_sMethod
                0x000000000800b318       0x1c ./pikapython/pikascript-api/__pikaBinding.o
                0x000000000800b318                _time_sleep_sMethod
 .text._time_timeMethod
                0x000000000800b334       0x14 ./pikapython/pikascript-api/__pikaBinding.o
                0x000000000800b334                _time_timeMethod
 .text._time_time_nsMethod
                0x000000000800b348       0x18 ./pikapython/pikascript-api/__pikaBinding.o
                0x000000000800b348                _time_time_nsMethod
 .text.builtins___getitem__Method
                0x000000000800b360       0x38 ./pikapython/pikascript-api/__pikaBinding.o
                0x000000000800b360                builtins___getitem__Method
 .text.builtins___setitem__Method
                0x000000000800b398       0x4c ./pikapython/pikascript-api/__pikaBinding.o
                0x000000000800b398                builtins___setitem__Method
 .text.builtins_absMethod
                0x000000000800b3e4       0x28 ./pikapython/pikascript-api/__pikaBinding.o
                0x000000000800b3e4                builtins_absMethod
 .text.builtins_boolMethod
                0x000000000800b40c       0x28 ./pikapython/pikascript-api/__pikaBinding.o
                0x000000000800b40c                builtins_boolMethod
 .text.builtins_bytesMethod
                0x000000000800b434       0x28 ./pikapython/pikascript-api/__pikaBinding.o
                0x000000000800b434                builtins_bytesMethod
 .text.builtins_cformatMethod
                0x000000000800b45c       0x38 ./pikapython/pikascript-api/__pikaBinding.o
                0x000000000800b45c                builtins_cformatMethod
 .text.builtins_chrMethod
                0x000000000800b494       0x28 ./pikapython/pikascript-api/__pikaBinding.o
                0x000000000800b494                builtins_chrMethod
 .text.builtins_clearMethod
                0x000000000800b4bc        0x4 ./pikapython/pikascript-api/__pikaBinding.o
                0x000000000800b4bc                builtins_clearMethod
 .text.builtins_dictMethod
                0x000000000800b4c0       0x28 ./pikapython/pikascript-api/__pikaBinding.o
                0x000000000800b4c0                builtins_dictMethod
 .text.builtins_dirMethod
                0x000000000800b4e8       0x28 ./pikapython/pikascript-api/__pikaBinding.o
                0x000000000800b4e8                builtins_dirMethod
 .text.builtins_evalMethod
                0x000000000800b510       0x28 ./pikapython/pikascript-api/__pikaBinding.o
                0x000000000800b510                builtins_evalMethod
 .text.builtins_execMethod
                0x000000000800b538       0x1c ./pikapython/pikascript-api/__pikaBinding.o
                0x000000000800b538                builtins_execMethod
 .text.builtins_exitMethod
                0x000000000800b554        0x4 ./pikapython/pikascript-api/__pikaBinding.o
                0x000000000800b554                builtins_exitMethod
 .text.builtins_floatMethod
                0x000000000800b558       0x24 ./pikapython/pikascript-api/__pikaBinding.o
                0x000000000800b558                builtins_floatMethod
 .text.builtins_gcdumpMethod
                0x000000000800b57c        0x4 ./pikapython/pikascript-api/__pikaBinding.o
                0x000000000800b57c                builtins_gcdumpMethod
 .text.builtins_getattrMethod
                0x000000000800b580       0x38 ./pikapython/pikascript-api/__pikaBinding.o
                0x000000000800b580                builtins_getattrMethod
 .text.builtins_hasattrMethod
                0x000000000800b5b8       0x38 ./pikapython/pikascript-api/__pikaBinding.o
                0x000000000800b5b8                builtins_hasattrMethod
 .text.builtins_helpMethod
                0x000000000800b5f0       0x1c ./pikapython/pikascript-api/__pikaBinding.o
                0x000000000800b5f0                builtins_helpMethod
 .text.builtins_hexMethod
                0x000000000800b60c       0x28 ./pikapython/pikascript-api/__pikaBinding.o
                0x000000000800b60c                builtins_hexMethod
 .text.builtins_idMethod
                0x000000000800b634       0x28 ./pikapython/pikascript-api/__pikaBinding.o
                0x000000000800b634                builtins_idMethod
 .text.builtins_inputMethod
                0x000000000800b65c       0x28 ./pikapython/pikascript-api/__pikaBinding.o
                0x000000000800b65c                builtins_inputMethod
 .text.builtins_intMethod
                0x000000000800b684       0x38 ./pikapython/pikascript-api/__pikaBinding.o
                0x000000000800b684                builtins_intMethod
 .text.builtins_isinstanceMethod
                0x000000000800b6bc       0x38 ./pikapython/pikascript-api/__pikaBinding.o
                0x000000000800b6bc                builtins_isinstanceMethod
 .text.builtins_iterMethod
                0x000000000800b6f4       0x28 ./pikapython/pikascript-api/__pikaBinding.o
                0x000000000800b6f4                builtins_iterMethod
 .text.builtins_lenMethod
                0x000000000800b71c       0x28 ./pikapython/pikascript-api/__pikaBinding.o
                0x000000000800b71c                builtins_lenMethod
 .text.builtins_listMethod
                0x000000000800b744       0x28 ./pikapython/pikascript-api/__pikaBinding.o
                0x000000000800b744                builtins_listMethod
 .text.builtins_maxMethod
                0x000000000800b76c       0x28 ./pikapython/pikascript-api/__pikaBinding.o
                0x000000000800b76c                builtins_maxMethod
 .text.builtins_minMethod
                0x000000000800b794       0x28 ./pikapython/pikascript-api/__pikaBinding.o
                0x000000000800b794                builtins_minMethod
 .text.builtins_openMethod
                0x000000000800b7bc       0x38 ./pikapython/pikascript-api/__pikaBinding.o
                0x000000000800b7bc                builtins_openMethod
 .text.builtins_ordMethod
                0x000000000800b7f4       0x28 ./pikapython/pikascript-api/__pikaBinding.o
                0x000000000800b7f4                builtins_ordMethod
 .text.builtins_printMethod
                0x000000000800b81c       0x30 ./pikapython/pikascript-api/__pikaBinding.o
                0x000000000800b81c                builtins_printMethod
 .text.builtins_rangeMethod
                0x000000000800b84c       0x28 ./pikapython/pikascript-api/__pikaBinding.o
                0x000000000800b84c                builtins_rangeMethod
 .text.builtins_rebootMethod
                0x000000000800b874        0x4 ./pikapython/pikascript-api/__pikaBinding.o
                0x000000000800b874                builtins_rebootMethod
 .text.builtins_setattrMethod
                0x000000000800b878       0x44 ./pikapython/pikascript-api/__pikaBinding.o
                0x000000000800b878                builtins_setattrMethod
 .text.builtins_strMethod
                0x000000000800b8bc       0x28 ./pikapython/pikascript-api/__pikaBinding.o
                0x000000000800b8bc                builtins_strMethod
 .text.builtins_tupleMethod
                0x000000000800b8e4       0x28 ./pikapython/pikascript-api/__pikaBinding.o
                0x000000000800b8e4                builtins_tupleMethod
 .text.builtins_typeMethod
                0x000000000800b90c       0x28 ./pikapython/pikascript-api/__pikaBinding.o
                0x000000000800b90c                builtins_typeMethod
 .text.builtins_RangeObj___next__Method
                0x000000000800b934       0x14 ./pikapython/pikascript-api/__pikaBinding.o
                0x000000000800b934                builtins_RangeObj___next__Method
 .text.builtins_StringObj___next__Method
                0x000000000800b948       0x14 ./pikapython/pikascript-api/__pikaBinding.o
                0x000000000800b948                builtins_StringObj___next__Method
 .text.builtins_bytearray___contains__Method
                0x000000000800b95c       0x28 ./pikapython/pikascript-api/__pikaBinding.o
                0x000000000800b95c                builtins_bytearray___contains__Method
